{
	"contracts/ub.sol": {
		"Unibase": {
			"abi": [
				{
					"inputs": [
						{
							"internalType": "string",
							"name": "name",
							"type": "string"
						},
						{
							"internalType": "string",
							"name": "symbol",
							"type": "string"
						},
						{
							"internalType": "uint256",
							"name": "cap",
							"type": "uint256"
						},
						{
							"internalType": "address",
							"name": "admin",
							"type": "address"
						},
						{
							"internalType": "address",
							"name": "pauser",
							"type": "address"
						}
					],
					"stateMutability": "nonpayable",
					"type": "constructor"
				},
				{
					"inputs": [],
					"name": "AccessControlBadConfirmation",
					"type": "error"
				},
				{
					"inputs": [
						{
							"internalType": "address",
							"name": "account",
							"type": "address"
						},
						{
							"internalType": "bytes32",
							"name": "neededRole",
							"type": "bytes32"
						}
					],
					"name": "AccessControlUnauthorizedAccount",
					"type": "error"
				},
				{
					"inputs": [
						{
							"internalType": "uint256",
							"name": "increasedSupply",
							"type": "uint256"
						},
						{
							"internalType": "uint256",
							"name": "cap",
							"type": "uint256"
						}
					],
					"name": "ERC20ExceededCap",
					"type": "error"
				},
				{
					"inputs": [
						{
							"internalType": "address",
							"name": "spender",
							"type": "address"
						},
						{
							"internalType": "uint256",
							"name": "allowance",
							"type": "uint256"
						},
						{
							"internalType": "uint256",
							"name": "needed",
							"type": "uint256"
						}
					],
					"name": "ERC20InsufficientAllowance",
					"type": "error"
				},
				{
					"inputs": [
						{
							"internalType": "address",
							"name": "sender",
							"type": "address"
						},
						{
							"internalType": "uint256",
							"name": "balance",
							"type": "uint256"
						},
						{
							"internalType": "uint256",
							"name": "needed",
							"type": "uint256"
						}
					],
					"name": "ERC20InsufficientBalance",
					"type": "error"
				},
				{
					"inputs": [
						{
							"internalType": "address",
							"name": "approver",
							"type": "address"
						}
					],
					"name": "ERC20InvalidApprover",
					"type": "error"
				},
				{
					"inputs": [
						{
							"internalType": "uint256",
							"name": "cap",
							"type": "uint256"
						}
					],
					"name": "ERC20InvalidCap",
					"type": "error"
				},
				{
					"inputs": [
						{
							"internalType": "address",
							"name": "receiver",
							"type": "address"
						}
					],
					"name": "ERC20InvalidReceiver",
					"type": "error"
				},
				{
					"inputs": [
						{
							"internalType": "address",
							"name": "sender",
							"type": "address"
						}
					],
					"name": "ERC20InvalidSender",
					"type": "error"
				},
				{
					"inputs": [
						{
							"internalType": "address",
							"name": "spender",
							"type": "address"
						}
					],
					"name": "ERC20InvalidSpender",
					"type": "error"
				},
				{
					"anonymous": false,
					"inputs": [
						{
							"indexed": true,
							"internalType": "address",
							"name": "owner",
							"type": "address"
						},
						{
							"indexed": true,
							"internalType": "address",
							"name": "spender",
							"type": "address"
						},
						{
							"indexed": false,
							"internalType": "uint256",
							"name": "value",
							"type": "uint256"
						}
					],
					"name": "Approval",
					"type": "event"
				},
				{
					"anonymous": false,
					"inputs": [
						{
							"indexed": true,
							"internalType": "address",
							"name": "token",
							"type": "address"
						},
						{
							"indexed": true,
							"internalType": "address",
							"name": "to",
							"type": "address"
						},
						{
							"indexed": false,
							"internalType": "uint256",
							"name": "amount",
							"type": "uint256"
						}
					],
					"name": "ERC20Recovered",
					"type": "event"
				},
				{
					"anonymous": false,
					"inputs": [
						{
							"indexed": false,
							"internalType": "address",
							"name": "account",
							"type": "address"
						}
					],
					"name": "Paused",
					"type": "event"
				},
				{
					"anonymous": false,
					"inputs": [
						{
							"indexed": true,
							"internalType": "bytes32",
							"name": "role",
							"type": "bytes32"
						},
						{
							"indexed": true,
							"internalType": "bytes32",
							"name": "previousAdminRole",
							"type": "bytes32"
						},
						{
							"indexed": true,
							"internalType": "bytes32",
							"name": "newAdminRole",
							"type": "bytes32"
						}
					],
					"name": "RoleAdminChanged",
					"type": "event"
				},
				{
					"anonymous": false,
					"inputs": [
						{
							"indexed": true,
							"internalType": "bytes32",
							"name": "role",
							"type": "bytes32"
						},
						{
							"indexed": true,
							"internalType": "address",
							"name": "account",
							"type": "address"
						},
						{
							"indexed": true,
							"internalType": "address",
							"name": "sender",
							"type": "address"
						}
					],
					"name": "RoleGranted",
					"type": "event"
				},
				{
					"anonymous": false,
					"inputs": [
						{
							"indexed": true,
							"internalType": "bytes32",
							"name": "role",
							"type": "bytes32"
						},
						{
							"indexed": true,
							"internalType": "address",
							"name": "account",
							"type": "address"
						},
						{
							"indexed": true,
							"internalType": "address",
							"name": "sender",
							"type": "address"
						}
					],
					"name": "RoleRevoked",
					"type": "event"
				},
				{
					"anonymous": false,
					"inputs": [
						{
							"indexed": true,
							"internalType": "address",
							"name": "from",
							"type": "address"
						},
						{
							"indexed": true,
							"internalType": "address",
							"name": "to",
							"type": "address"
						},
						{
							"indexed": false,
							"internalType": "uint256",
							"name": "value",
							"type": "uint256"
						}
					],
					"name": "Transfer",
					"type": "event"
				},
				{
					"anonymous": false,
					"inputs": [
						{
							"indexed": false,
							"internalType": "address",
							"name": "account",
							"type": "address"
						}
					],
					"name": "Unpaused",
					"type": "event"
				},
				{
					"anonymous": false,
					"inputs": [
						{
							"indexed": true,
							"internalType": "address",
							"name": "account",
							"type": "address"
						},
						{
							"indexed": false,
							"internalType": "bool",
							"name": "isWhitelisted",
							"type": "bool"
						}
					],
					"name": "WhitelistUpdated",
					"type": "event"
				},
				{
					"inputs": [],
					"name": "DEFAULT_ADMIN_ROLE",
					"outputs": [
						{
							"internalType": "bytes32",
							"name": "",
							"type": "bytes32"
						}
					],
					"stateMutability": "view",
					"type": "function"
				},
				{
					"inputs": [],
					"name": "MINTER_ROLE",
					"outputs": [
						{
							"internalType": "bytes32",
							"name": "",
							"type": "bytes32"
						}
					],
					"stateMutability": "view",
					"type": "function"
				},
				{
					"inputs": [],
					"name": "PAUSER_ROLE",
					"outputs": [
						{
							"internalType": "bytes32",
							"name": "",
							"type": "bytes32"
						}
					],
					"stateMutability": "view",
					"type": "function"
				},
				{
					"inputs": [
						{
							"internalType": "address",
							"name": "account",
							"type": "address"
						}
					],
					"name": "addToWhitelist",
					"outputs": [],
					"stateMutability": "nonpayable",
					"type": "function"
				},
				{
					"inputs": [
						{
							"internalType": "address",
							"name": "owner",
							"type": "address"
						},
						{
							"internalType": "address",
							"name": "spender",
							"type": "address"
						}
					],
					"name": "allowance",
					"outputs": [
						{
							"internalType": "uint256",
							"name": "",
							"type": "uint256"
						}
					],
					"stateMutability": "view",
					"type": "function"
				},
				{
					"inputs": [
						{
							"internalType": "address",
							"name": "spender",
							"type": "address"
						},
						{
							"internalType": "uint256",
							"name": "value",
							"type": "uint256"
						}
					],
					"name": "approve",
					"outputs": [
						{
							"internalType": "bool",
							"name": "",
							"type": "bool"
						}
					],
					"stateMutability": "nonpayable",
					"type": "function"
				},
				{
					"inputs": [
						{
							"internalType": "address",
							"name": "account",
							"type": "address"
						}
					],
					"name": "balanceOf",
					"outputs": [
						{
							"internalType": "uint256",
							"name": "",
							"type": "uint256"
						}
					],
					"stateMutability": "view",
					"type": "function"
				},
				{
					"inputs": [],
					"name": "cap",
					"outputs": [
						{
							"internalType": "uint256",
							"name": "",
							"type": "uint256"
						}
					],
					"stateMutability": "view",
					"type": "function"
				},
				{
					"inputs": [],
					"name": "decimals",
					"outputs": [
						{
							"internalType": "uint8",
							"name": "",
							"type": "uint8"
						}
					],
					"stateMutability": "view",
					"type": "function"
				},
				{
					"inputs": [
						{
							"internalType": "bytes32",
							"name": "role",
							"type": "bytes32"
						}
					],
					"name": "getRoleAdmin",
					"outputs": [
						{
							"internalType": "bytes32",
							"name": "",
							"type": "bytes32"
						}
					],
					"stateMutability": "view",
					"type": "function"
				},
				{
					"inputs": [
						{
							"internalType": "bytes32",
							"name": "role",
							"type": "bytes32"
						},
						{
							"internalType": "address",
							"name": "account",
							"type": "address"
						}
					],
					"name": "grantRole",
					"outputs": [],
					"stateMutability": "nonpayable",
					"type": "function"
				},
				{
					"inputs": [
						{
							"internalType": "bytes32",
							"name": "role",
							"type": "bytes32"
						},
						{
							"internalType": "address",
							"name": "account",
							"type": "address"
						}
					],
					"name": "hasRole",
					"outputs": [
						{
							"internalType": "bool",
							"name": "",
							"type": "bool"
						}
					],
					"stateMutability": "view",
					"type": "function"
				},
				{
					"inputs": [
						{
							"internalType": "address",
							"name": "account",
							"type": "address"
						}
					],
					"name": "isWhitelisted",
					"outputs": [
						{
							"internalType": "bool",
							"name": "",
							"type": "bool"
						}
					],
					"stateMutability": "view",
					"type": "function"
				},
				{
					"inputs": [
						{
							"internalType": "address",
							"name": "to",
							"type": "address"
						},
						{
							"internalType": "uint256",
							"name": "amount",
							"type": "uint256"
						}
					],
					"name": "mint",
					"outputs": [],
					"stateMutability": "nonpayable",
					"type": "function"
				},
				{
					"inputs": [],
					"name": "name",
					"outputs": [
						{
							"internalType": "string",
							"name": "",
							"type": "string"
						}
					],
					"stateMutability": "view",
					"type": "function"
				},
				{
					"inputs": [],
					"name": "pause",
					"outputs": [],
					"stateMutability": "nonpayable",
					"type": "function"
				},
				{
					"inputs": [],
					"name": "paused",
					"outputs": [
						{
							"internalType": "bool",
							"name": "",
							"type": "bool"
						}
					],
					"stateMutability": "view",
					"type": "function"
				},
				{
					"inputs": [
						{
							"internalType": "address",
							"name": "token",
							"type": "address"
						},
						{
							"internalType": "address",
							"name": "to",
							"type": "address"
						},
						{
							"internalType": "uint256",
							"name": "amount",
							"type": "uint256"
						}
					],
					"name": "recoverERC20",
					"outputs": [],
					"stateMutability": "nonpayable",
					"type": "function"
				},
				{
					"inputs": [
						{
							"internalType": "address",
							"name": "account",
							"type": "address"
						}
					],
					"name": "removeFromWhitelist",
					"outputs": [],
					"stateMutability": "nonpayable",
					"type": "function"
				},
				{
					"inputs": [
						{
							"internalType": "bytes32",
							"name": "role",
							"type": "bytes32"
						},
						{
							"internalType": "address",
							"name": "callerConfirmation",
							"type": "address"
						}
					],
					"name": "renounceRole",
					"outputs": [],
					"stateMutability": "nonpayable",
					"type": "function"
				},
				{
					"inputs": [
						{
							"internalType": "bytes32",
							"name": "role",
							"type": "bytes32"
						},
						{
							"internalType": "address",
							"name": "account",
							"type": "address"
						}
					],
					"name": "revokeRole",
					"outputs": [],
					"stateMutability": "nonpayable",
					"type": "function"
				},
				{
					"inputs": [
						{
							"internalType": "address",
							"name": "minter",
							"type": "address"
						}
					],
					"name": "setMinter",
					"outputs": [],
					"stateMutability": "nonpayable",
					"type": "function"
				},
				{
					"inputs": [
						{
							"internalType": "bytes4",
							"name": "interfaceId",
							"type": "bytes4"
						}
					],
					"name": "supportsInterface",
					"outputs": [
						{
							"internalType": "bool",
							"name": "",
							"type": "bool"
						}
					],
					"stateMutability": "view",
					"type": "function"
				},
				{
					"inputs": [],
					"name": "symbol",
					"outputs": [
						{
							"internalType": "string",
							"name": "",
							"type": "string"
						}
					],
					"stateMutability": "view",
					"type": "function"
				},
				{
					"inputs": [],
					"name": "totalSupply",
					"outputs": [
						{
							"internalType": "uint256",
							"name": "",
							"type": "uint256"
						}
					],
					"stateMutability": "view",
					"type": "function"
				},
				{
					"inputs": [
						{
							"internalType": "address",
							"name": "to",
							"type": "address"
						},
						{
							"internalType": "uint256",
							"name": "value",
							"type": "uint256"
						}
					],
					"name": "transfer",
					"outputs": [
						{
							"internalType": "bool",
							"name": "",
							"type": "bool"
						}
					],
					"stateMutability": "nonpayable",
					"type": "function"
				},
				{
					"inputs": [
						{
							"internalType": "address",
							"name": "from",
							"type": "address"
						},
						{
							"internalType": "address",
							"name": "to",
							"type": "address"
						},
						{
							"internalType": "uint256",
							"name": "value",
							"type": "uint256"
						}
					],
					"name": "transferFrom",
					"outputs": [
						{
							"internalType": "bool",
							"name": "",
							"type": "bool"
						}
					],
					"stateMutability": "nonpayable",
					"type": "function"
				},
				{
					"inputs": [],
					"name": "unpause",
					"outputs": [],
					"stateMutability": "nonpayable",
					"type": "function"
				}
			],
			"devdoc": {
				"errors": {
					"AccessControlBadConfirmation()": [
						{
							"details": "The caller of a function is not the expected one. NOTE: Don't confuse with {AccessControlUnauthorizedAccount}."
						}
					],
					"AccessControlUnauthorizedAccount(address,bytes32)": [
						{
							"details": "The `account` is missing a role."
						}
					],
					"ERC20ExceededCap(uint256,uint256)": [
						{
							"details": "Total supply cap has been exceeded."
						}
					],
					"ERC20InsufficientAllowance(address,uint256,uint256)": [
						{
							"details": "Indicates a failure with the `spender`’s `allowance`. Used in transfers.",
							"params": {
								"allowance": "Amount of tokens a `spender` is allowed to operate with.",
								"needed": "Minimum amount required to perform a transfer.",
								"spender": "Address that may be allowed to operate on tokens without being their owner."
							}
						}
					],
					"ERC20InsufficientBalance(address,uint256,uint256)": [
						{
							"details": "Indicates an error related to the current `balance` of a `sender`. Used in transfers.",
							"params": {
								"balance": "Current balance for the interacting account.",
								"needed": "Minimum amount required to perform a transfer.",
								"sender": "Address whose tokens are being transferred."
							}
						}
					],
					"ERC20InvalidApprover(address)": [
						{
							"details": "Indicates a failure with the `approver` of a token to be approved. Used in approvals.",
							"params": {
								"approver": "Address initiating an approval operation."
							}
						}
					],
					"ERC20InvalidCap(uint256)": [
						{
							"details": "The supplied cap is not a valid cap."
						}
					],
					"ERC20InvalidReceiver(address)": [
						{
							"details": "Indicates a failure with the token `receiver`. Used in transfers.",
							"params": {
								"receiver": "Address to which tokens are being transferred."
							}
						}
					],
					"ERC20InvalidSender(address)": [
						{
							"details": "Indicates a failure with the token `sender`. Used in transfers.",
							"params": {
								"sender": "Address whose tokens are being transferred."
							}
						}
					],
					"ERC20InvalidSpender(address)": [
						{
							"details": "Indicates a failure with the `spender` to be approved. Used in approvals.",
							"params": {
								"spender": "Address that may be allowed to operate on tokens without being their owner."
							}
						}
					]
				},
				"events": {
					"Approval(address,address,uint256)": {
						"details": "Emitted when the allowance of a `spender` for an `owner` is set by a call to {approve}. `value` is the new allowance."
					},
					"ERC20Recovered(address,address,uint256)": {
						"params": {
							"amount": "The amount of tokens to recover.",
							"to": "The address to receive the recovered tokens.",
							"token": "The address of the ERC20 token contract."
						}
					},
					"Paused(address)": {
						"details": "Emitted when the pause is triggered by `account`."
					},
					"RoleAdminChanged(bytes32,bytes32,bytes32)": {
						"details": "Emitted when `newAdminRole` is set as ``role``'s admin role, replacing `previousAdminRole` `DEFAULT_ADMIN_ROLE` is the starting admin for all roles, despite {RoleAdminChanged} not being emitted to signal this."
					},
					"RoleGranted(bytes32,address,address)": {
						"details": "Emitted when `account` is granted `role`. `sender` is the account that originated the contract call. This account bears the admin role (for the granted role). Expected in cases where the role was granted using the internal {AccessControl-_grantRole}."
					},
					"RoleRevoked(bytes32,address,address)": {
						"details": "Emitted when `account` is revoked `role`. `sender` is the account that originated the contract call:   - if using `revokeRole`, it is the admin role bearer   - if using `renounceRole`, it is the role bearer (i.e. `account`)"
					},
					"Transfer(address,address,uint256)": {
						"details": "Emitted when `value` tokens are moved from one account (`from`) to another (`to`). Note that `value` may be zero."
					},
					"Unpaused(address)": {
						"details": "Emitted when the pause is lifted by `account`."
					}
				},
				"kind": "dev",
				"methods": {
					"addToWhitelist(address)": {
						"params": {
							"account": "The address to add to the whitelist."
						}
					},
					"allowance(address,address)": {
						"details": "Returns the remaining number of tokens that `spender` will be allowed to spend on behalf of `owner` through {transferFrom}. This is zero by default. This value changes when {approve} or {transferFrom} are called."
					},
					"approve(address,uint256)": {
						"details": "See {IERC20-approve}. NOTE: If `value` is the maximum `uint256`, the allowance is not updated on `transferFrom`. This is semantically equivalent to an infinite approval. Requirements: - `spender` cannot be the zero address."
					},
					"balanceOf(address)": {
						"details": "Returns the value of tokens owned by `account`."
					},
					"cap()": {
						"details": "Returns the cap on the token's total supply."
					},
					"constructor": {
						"params": {
							"admin": "The address to be set as the default admin of the token.",
							"cap": "The maximum total supply of the token (e.g., for 1 million tokens with 18 decimals, pass 1000000 * 10**18).",
							"name": "The name of the token.",
							"pauser": "The address to be set as the pauser",
							"symbol": "The symbol of the token."
						}
					},
					"decimals()": {
						"details": "Returns the number of decimals used to get its user representation. For example, if `decimals` equals `2`, a balance of `505` tokens should be displayed to a user as `5.05` (`505 / 10 ** 2`). Tokens usually opt for a value of 18, imitating the relationship between Ether and Wei. This is the default value returned by this function, unless it's overridden. NOTE: This information is only used for _display_ purposes: it in no way affects any of the arithmetic of the contract, including {IERC20-balanceOf} and {IERC20-transfer}."
					},
					"getRoleAdmin(bytes32)": {
						"details": "Returns the admin role that controls `role`. See {grantRole} and {revokeRole}. To change a role's admin, use {_setRoleAdmin}."
					},
					"grantRole(bytes32,address)": {
						"details": "Grants `role` to `account`. If `account` had not been already granted `role`, emits a {RoleGranted} event. Requirements: - the caller must have ``role``'s admin role. May emit a {RoleGranted} event."
					},
					"hasRole(bytes32,address)": {
						"details": "Returns `true` if `account` has been granted `role`."
					},
					"isWhitelisted(address)": {
						"params": {
							"account": "The address to check."
						}
					},
					"mint(address,uint256)": {
						"params": {
							"amount": "The amount of tokens to mint.",
							"to": "The address that will receive the minted tokens."
						}
					},
					"name()": {
						"details": "Returns the name of the token."
					},
					"paused()": {
						"details": "Returns true if the contract is paused, and false otherwise."
					},
					"removeFromWhitelist(address)": {
						"params": {
							"account": "The address to remove from the whitelist."
						}
					},
					"renounceRole(bytes32,address)": {
						"details": "Revokes `role` from the calling account. Roles are often managed via {grantRole} and {revokeRole}: this function's purpose is to provide a mechanism for accounts to lose their privileges if they are compromised (such as when a trusted device is misplaced). If the calling account had been revoked `role`, emits a {RoleRevoked} event. Requirements: - the caller must be `callerConfirmation`. May emit a {RoleRevoked} event."
					},
					"revokeRole(bytes32,address)": {
						"details": "Revokes `role` from `account`. If `account` had been granted `role`, emits a {RoleRevoked} event. Requirements: - the caller must have ``role``'s admin role. May emit a {RoleRevoked} event."
					},
					"setMinter(address)": {
						"params": {
							"minter": "The address to be granted the MINTER_ROLE."
						}
					},
					"supportsInterface(bytes4)": {
						"details": "Returns true if this contract implements the interface defined by `interfaceId`. See the corresponding https://eips.ethereum.org/EIPS/eip-165#how-interfaces-are-identified[ERC section] to learn more about how these ids are created. This function call must use less than 30 000 gas."
					},
					"symbol()": {
						"details": "Returns the symbol of the token, usually a shorter version of the name."
					},
					"totalSupply()": {
						"details": "Returns the value of tokens in existence."
					},
					"transfer(address,uint256)": {
						"details": "See {IERC20-transfer}. Requirements: - `to` cannot be the zero address. - the caller must have a balance of at least `value`."
					},
					"transferFrom(address,address,uint256)": {
						"details": "See {IERC20-transferFrom}. Skips emitting an {Approval} event indicating an allowance update. This is not required by the ERC. See {xref-ERC20-_approve-address-address-uint256-bool-}[_approve]. NOTE: Does not update the allowance if the current allowance is the maximum `uint256`. Requirements: - `from` and `to` cannot be the zero address. - `from` must have a balance of at least `value`. - the caller must have allowance for ``from``'s tokens of at least `value`."
					}
				},
				"title": "Unibase Token Contract",
				"version": 1
			},
			"evm": {
				"assembly": "    /* \"contracts/ub.sol\":526:5126  contract Unibase is Pausable, ERC20Capped, AccessControl {... */\n  mstore(0x40, 0xa0)\n    /* \"contracts/ub.sol\":1250:1593  constructor(... */\n  callvalue\n  dup1\n  iszero\n  tag_1\n  jumpi\n  0x00\n  dup1\n  revert\ntag_1:\n  pop\n  mload(0x40)\n  sub(codesize, bytecodeSize)\n  dup1\n  bytecodeSize\n  dup4\n  codecopy\n  dup2\n  dup2\n  add\n  0x40\n  mstore\n  dup2\n  add\n  swap1\n  tag_2\n  swap2\n  swap1\n  tag_3\n  jump\t// in\ntag_2:\n    /* \"contracts/ub.sol\":1426:1429  cap */\n  dup3\n    /* \"contracts/ub.sol\":1400:1404  name */\n  dup6\n    /* \"contracts/ub.sol\":1406:1412  symbol */\n  dup6\n    /* \"@openzeppelin/contracts/security/Pausable.sol\":1006:1011  false */\n  0x00\n    /* \"@openzeppelin/contracts/security/Pausable.sol\":996:1003  _paused */\n  dup1\n  0x00\n    /* \"@openzeppelin/contracts/security/Pausable.sol\":996:1011  _paused = false */\n  0x0100\n  exp\n  dup2\n  sload\n  dup2\n  0xff\n  mul\n  not\n  and\n  swap1\n  dup4\n  iszero\n  iszero\n  mul\n  or\n  swap1\n  sstore\n  pop\n    /* \"@openzeppelin/contracts/token/ERC20/ERC20.sol\":1656:1661  name_ */\n  dup2\n    /* \"@openzeppelin/contracts/token/ERC20/ERC20.sol\":1648:1653  _name */\n  0x04\n    /* \"@openzeppelin/contracts/token/ERC20/ERC20.sol\":1648:1661  _name = name_ */\n  swap1\n  dup2\n  tag_10\n  swap2\n  swap1\n  tag_11\n  jump\t// in\ntag_10:\n  pop\n    /* \"@openzeppelin/contracts/token/ERC20/ERC20.sol\":1681:1688  symbol_ */\n  dup1\n    /* \"@openzeppelin/contracts/token/ERC20/ERC20.sol\":1671:1678  _symbol */\n  0x05\n    /* \"@openzeppelin/contracts/token/ERC20/ERC20.sol\":1671:1688  _symbol = symbol_ */\n  swap1\n  dup2\n  tag_12\n  swap2\n  swap1\n  tag_11\n  jump\t// in\ntag_12:\n  pop\n    /* \"@openzeppelin/contracts/token/ERC20/ERC20.sol\":1582:1695  constructor(string memory name_, string memory symbol_) {... */\n  pop\n  pop\n    /* \"@openzeppelin/contracts/token/ERC20/extensions/ERC20Capped.sol\":764:765  0 */\n  0x00\n    /* \"@openzeppelin/contracts/token/ERC20/extensions/ERC20Capped.sol\":756:760  cap_ */\n  dup2\n    /* \"@openzeppelin/contracts/token/ERC20/extensions/ERC20Capped.sol\":756:765  cap_ == 0 */\n  sub\n    /* \"@openzeppelin/contracts/token/ERC20/extensions/ERC20Capped.sol\":752:817  if (cap_ == 0) {... */\n  tag_14\n  jumpi\n    /* \"@openzeppelin/contracts/token/ERC20/extensions/ERC20Capped.sol\":804:805  0 */\n  0x00\n    /* \"@openzeppelin/contracts/token/ERC20/extensions/ERC20Capped.sol\":788:806  ERC20InvalidCap(0) */\n  mload(0x40)\n  0x392e1e2700000000000000000000000000000000000000000000000000000000\n  dup2\n  mstore\n  0x04\n  add\n  tag_15\n  swap2\n  swap1\n  tag_16\n  jump\t// in\ntag_15:\n  mload(0x40)\n  dup1\n  swap2\n  sub\n  swap1\n  revert\n    /* \"@openzeppelin/contracts/token/ERC20/extensions/ERC20Capped.sol\":752:817  if (cap_ == 0) {... */\ntag_14:\n    /* \"@openzeppelin/contracts/token/ERC20/extensions/ERC20Capped.sol\":833:837  cap_ */\n  dup1\n    /* \"@openzeppelin/contracts/token/ERC20/extensions/ERC20Capped.sol\":826:837  _cap = cap_ */\n  0x80\n  dup2\n  dup2\n  mstore\n  pop\n  pop\n    /* \"@openzeppelin/contracts/token/ERC20/extensions/ERC20Capped.sol\":716:844  constructor(uint256 cap_) {... */\n  pop\n    /* \"contracts/ub.sol\":1441:1478  _grantRole(DEFAULT_ADMIN_ROLE, admin) */\n  tag_18\n    /* \"@openzeppelin/contracts/access/AccessControl.sol\":2241:2245  0x00 */\n  0x00\n    /* \"contracts/ub.sol\":1452:1470  DEFAULT_ADMIN_ROLE */\n  dup1\n  shl\n    /* \"contracts/ub.sol\":1472:1477  admin */\n  dup4\n    /* \"contracts/ub.sol\":1441:1451  _grantRole */\n  shl(0x20, tag_19)\n    /* \"contracts/ub.sol\":1441:1478  _grantRole(DEFAULT_ADMIN_ROLE, admin) */\n  0x20\n  shr\n  jump\t// in\ntag_18:\n  pop\n    /* \"contracts/ub.sol\":1488:1519  _grantRole(PAUSER_ROLE, pauser) */\n  tag_20\n    /* \"contracts/ub.sol\":696:720  keccak256(\"PAUSER_ROLE\") */\n  0x65d7a28e3265b37a6474929f336521b332c1681b933f6cb9f3376673440d862a\n    /* \"contracts/ub.sol\":1512:1518  pauser */\n  dup3\n    /* \"contracts/ub.sol\":1488:1498  _grantRole */\n  shl(0x20, tag_19)\n    /* \"contracts/ub.sol\":1488:1519  _grantRole(PAUSER_ROLE, pauser) */\n  0x20\n  shr\n  jump\t// in\ntag_20:\n  pop\n    /* \"contracts/ub.sol\":1529:1568  _setRoleAdmin(PAUSER_ROLE, PAUSER_ROLE) */\n  tag_21\n    /* \"contracts/ub.sol\":696:720  keccak256(\"PAUSER_ROLE\") */\n  0x65d7a28e3265b37a6474929f336521b332c1681b933f6cb9f3376673440d862a\n  dup1\n    /* \"contracts/ub.sol\":1529:1542  _setRoleAdmin */\n  shl(0x20, tag_22)\n    /* \"contracts/ub.sol\":1529:1568  _setRoleAdmin(PAUSER_ROLE, PAUSER_ROLE) */\n  0x20\n  shr\n  jump\t// in\ntag_21:\n    /* \"contracts/ub.sol\":1578:1586  _pause() */\n  tag_23\n    /* \"contracts/ub.sol\":1578:1584  _pause */\n  shl(0x20, tag_24)\n    /* \"contracts/ub.sol\":1578:1586  _pause() */\n  0x20\n  shr\n  jump\t// in\ntag_23:\n    /* \"contracts/ub.sol\":1250:1593  constructor(... */\n  pop\n  pop\n  pop\n  pop\n  pop\n    /* \"contracts/ub.sol\":526:5126  contract Unibase is Pausable, ERC20Capped, AccessControl {... */\n  jump(tag_25)\n    /* \"@openzeppelin/contracts/access/AccessControl.sol\":6155:6471  function _grantRole(bytes32 role, address account) internal virtual returns (bool) {... */\ntag_19:\n    /* \"@openzeppelin/contracts/access/AccessControl.sol\":6232:6236  bool */\n  0x00\n    /* \"@openzeppelin/contracts/access/AccessControl.sol\":6253:6275  hasRole(role, account) */\n  tag_27\n    /* \"@openzeppelin/contracts/access/AccessControl.sol\":6261:6265  role */\n  dup4\n    /* \"@openzeppelin/contracts/access/AccessControl.sol\":6267:6274  account */\n  dup4\n    /* \"@openzeppelin/contracts/access/AccessControl.sol\":6253:6260  hasRole */\n  shl(0x20, tag_28)\n    /* \"@openzeppelin/contracts/access/AccessControl.sol\":6253:6275  hasRole(role, account) */\n  0x20\n  shr\n  jump\t// in\ntag_27:\n    /* \"@openzeppelin/contracts/access/AccessControl.sol\":6248:6465  if (!hasRole(role, account)) {... */\n  tag_29\n  jumpi\n    /* \"@openzeppelin/contracts/access/AccessControl.sol\":6323:6327  true */\n  0x01\n    /* \"@openzeppelin/contracts/access/AccessControl.sol\":6291:6297  _roles */\n  0x06\n    /* \"@openzeppelin/contracts/access/AccessControl.sol\":6291:6303  _roles[role] */\n  0x00\n    /* \"@openzeppelin/contracts/access/AccessControl.sol\":6298:6302  role */\n  dup6\n    /* \"@openzeppelin/contracts/access/AccessControl.sol\":6291:6303  _roles[role] */\n  dup2\n  mstore\n  0x20\n  add\n  swap1\n  dup2\n  mstore\n  0x20\n  add\n  0x00\n  keccak256\n    /* \"@openzeppelin/contracts/access/AccessControl.sol\":6291:6311  _roles[role].hasRole */\n  0x00\n  add\n    /* \"@openzeppelin/contracts/access/AccessControl.sol\":6291:6320  _roles[role].hasRole[account] */\n  0x00\n    /* \"@openzeppelin/contracts/access/AccessControl.sol\":6312:6319  account */\n  dup5\n    /* \"@openzeppelin/contracts/access/AccessControl.sol\":6291:6320  _roles[role].hasRole[account] */\n  0xffffffffffffffffffffffffffffffffffffffff\n  and\n  0xffffffffffffffffffffffffffffffffffffffff\n  and\n  dup2\n  mstore\n  0x20\n  add\n  swap1\n  dup2\n  mstore\n  0x20\n  add\n  0x00\n  keccak256\n  0x00\n    /* \"@openzeppelin/contracts/access/AccessControl.sol\":6291:6327  _roles[role].hasRole[account] = true */\n  0x0100\n  exp\n  dup2\n  sload\n  dup2\n  0xff\n  mul\n  not\n  and\n  swap1\n  dup4\n  iszero\n  iszero\n  mul\n  or\n  swap1\n  sstore\n  pop\n    /* \"@openzeppelin/contracts/access/AccessControl.sol\":6373:6385  _msgSender() */\n  tag_30\n    /* \"@openzeppelin/contracts/access/AccessControl.sol\":6373:6383  _msgSender */\n  shl(0x20, tag_31)\n    /* \"@openzeppelin/contracts/access/AccessControl.sol\":6373:6385  _msgSender() */\n  0x20\n  shr\n  jump\t// in\ntag_30:\n    /* \"@openzeppelin/contracts/access/AccessControl.sol\":6346:6386  RoleGranted(role, account, _msgSender()) */\n  0xffffffffffffffffffffffffffffffffffffffff\n  and\n    /* \"@openzeppelin/contracts/access/AccessControl.sol\":6364:6371  account */\n  dup3\n    /* \"@openzeppelin/contracts/access/AccessControl.sol\":6346:6386  RoleGranted(role, account, _msgSender()) */\n  0xffffffffffffffffffffffffffffffffffffffff\n  and\n    /* \"@openzeppelin/contracts/access/AccessControl.sol\":6358:6362  role */\n  dup5\n    /* \"@openzeppelin/contracts/access/AccessControl.sol\":6346:6386  RoleGranted(role, account, _msgSender()) */\n  0x2f8788117e7eff1d82e926ec794901d17c78024a50270940304540a733656f0d\n  mload(0x40)\n  mload(0x40)\n  dup1\n  swap2\n  sub\n  swap1\n  log4\n    /* \"@openzeppelin/contracts/access/AccessControl.sol\":6407:6411  true */\n  0x01\n    /* \"@openzeppelin/contracts/access/AccessControl.sol\":6400:6411  return true */\n  swap1\n  pop\n  jump(tag_26)\n    /* \"@openzeppelin/contracts/access/AccessControl.sol\":6248:6465  if (!hasRole(role, account)) {... */\ntag_29:\n    /* \"@openzeppelin/contracts/access/AccessControl.sol\":6449:6454  false */\n  0x00\n    /* \"@openzeppelin/contracts/access/AccessControl.sol\":6442:6454  return false */\n  swap1\n  pop\n    /* \"@openzeppelin/contracts/access/AccessControl.sol\":6155:6471  function _grantRole(bytes32 role, address account) internal virtual returns (bool) {... */\ntag_26:\n  swap3\n  swap2\n  pop\n  pop\n  jump\t// out\n    /* \"@openzeppelin/contracts/access/AccessControl.sol\":5674:5921  function _setRoleAdmin(bytes32 role, bytes32 adminRole) internal virtual {... */\ntag_22:\n    /* \"@openzeppelin/contracts/access/AccessControl.sol\":5757:5782  bytes32 previousAdminRole */\n  0x00\n    /* \"@openzeppelin/contracts/access/AccessControl.sol\":5785:5803  getRoleAdmin(role) */\n  tag_34\n    /* \"@openzeppelin/contracts/access/AccessControl.sol\":5798:5802  role */\n  dup4\n    /* \"@openzeppelin/contracts/access/AccessControl.sol\":5785:5797  getRoleAdmin */\n  shl(0x20, tag_35)\n    /* \"@openzeppelin/contracts/access/AccessControl.sol\":5785:5803  getRoleAdmin(role) */\n  0x20\n  shr\n  jump\t// in\ntag_34:\n    /* \"@openzeppelin/contracts/access/AccessControl.sol\":5757:5803  bytes32 previousAdminRole = getRoleAdmin(role) */\n  swap1\n  pop\n    /* \"@openzeppelin/contracts/access/AccessControl.sol\":5838:5847  adminRole */\n  dup2\n    /* \"@openzeppelin/contracts/access/AccessControl.sol\":5813:5819  _roles */\n  0x06\n    /* \"@openzeppelin/contracts/access/AccessControl.sol\":5813:5825  _roles[role] */\n  0x00\n    /* \"@openzeppelin/contracts/access/AccessControl.sol\":5820:5824  role */\n  dup6\n    /* \"@openzeppelin/contracts/access/AccessControl.sol\":5813:5825  _roles[role] */\n  dup2\n  mstore\n  0x20\n  add\n  swap1\n  dup2\n  mstore\n  0x20\n  add\n  0x00\n  keccak256\n    /* \"@openzeppelin/contracts/access/AccessControl.sol\":5813:5835  _roles[role].adminRole */\n  0x01\n  add\n    /* \"@openzeppelin/contracts/access/AccessControl.sol\":5813:5847  _roles[role].adminRole = adminRole */\n  dup2\n  swap1\n  sstore\n  pop\n    /* \"@openzeppelin/contracts/access/AccessControl.sol\":5904:5913  adminRole */\n  dup2\n    /* \"@openzeppelin/contracts/access/AccessControl.sol\":5885:5902  previousAdminRole */\n  dup2\n    /* \"@openzeppelin/contracts/access/AccessControl.sol\":5879:5883  role */\n  dup5\n    /* \"@openzeppelin/contracts/access/AccessControl.sol\":5862:5914  RoleAdminChanged(role, previousAdminRole, adminRole) */\n  0xbd79b86ffe0ab8e8776151514217cd7cacd52c909f66475c3af44e129f0b00ff\n  mload(0x40)\n  mload(0x40)\n  dup1\n  swap2\n  sub\n  swap1\n  log4\n    /* \"@openzeppelin/contracts/access/AccessControl.sol\":5747:5921  {... */\n  pop\n    /* \"@openzeppelin/contracts/access/AccessControl.sol\":5674:5921  function _setRoleAdmin(bytes32 role, bytes32 adminRole) internal virtual {... */\n  pop\n  pop\n  jump\t// out\n    /* \"@openzeppelin/contracts/security/Pausable.sol\":2186:2301  function _pause() internal virtual whenNotPaused {... */\ntag_24:\n    /* \"@openzeppelin/contracts/security/Pausable.sol\":1239:1258  _requireNotPaused() */\n  tag_37\n    /* \"@openzeppelin/contracts/security/Pausable.sol\":1239:1256  _requireNotPaused */\n  shl(0x20, tag_38)\n    /* \"@openzeppelin/contracts/security/Pausable.sol\":1239:1258  _requireNotPaused() */\n  0x20\n  shr\n  jump\t// in\ntag_37:\n    /* \"@openzeppelin/contracts/security/Pausable.sol\":2255:2259  true */\n  0x01\n    /* \"@openzeppelin/contracts/security/Pausable.sol\":2245:2252  _paused */\n  0x00\n  dup1\n    /* \"@openzeppelin/contracts/security/Pausable.sol\":2245:2259  _paused = true */\n  0x0100\n  exp\n  dup2\n  sload\n  dup2\n  0xff\n  mul\n  not\n  and\n  swap1\n  dup4\n  iszero\n  iszero\n  mul\n  or\n  swap1\n  sstore\n  pop\n    /* \"@openzeppelin/contracts/security/Pausable.sol\":2274:2294  Paused(_msgSender()) */\n  0x62e78cea01bee320cd4e420270b5ea74000d11b0c9f74754ebdbfc544b05a258\n    /* \"@openzeppelin/contracts/security/Pausable.sol\":2281:2293  _msgSender() */\n  tag_40\n    /* \"@openzeppelin/contracts/security/Pausable.sol\":2281:2291  _msgSender */\n  shl(0x20, tag_31)\n    /* \"@openzeppelin/contracts/security/Pausable.sol\":2281:2293  _msgSender() */\n  0x20\n  shr\n  jump\t// in\ntag_40:\n    /* \"@openzeppelin/contracts/security/Pausable.sol\":2274:2294  Paused(_msgSender()) */\n  mload(0x40)\n  tag_41\n  swap2\n  swap1\n  tag_42\n  jump\t// in\ntag_41:\n  mload(0x40)\n  dup1\n  swap2\n  sub\n  swap1\n  log1\n    /* \"@openzeppelin/contracts/security/Pausable.sol\":2186:2301  function _pause() internal virtual whenNotPaused {... */\n  jump\t// out\n    /* \"@openzeppelin/contracts/access/AccessControl.sol\":2830:2966  function hasRole(bytes32 role, address account) public view virtual returns (bool) {... */\ntag_28:\n    /* \"@openzeppelin/contracts/access/AccessControl.sol\":2907:2911  bool */\n  0x00\n    /* \"@openzeppelin/contracts/access/AccessControl.sol\":2930:2936  _roles */\n  0x06\n    /* \"@openzeppelin/contracts/access/AccessControl.sol\":2930:2942  _roles[role] */\n  0x00\n    /* \"@openzeppelin/contracts/access/AccessControl.sol\":2937:2941  role */\n  dup5\n    /* \"@openzeppelin/contracts/access/AccessControl.sol\":2930:2942  _roles[role] */\n  dup2\n  mstore\n  0x20\n  add\n  swap1\n  dup2\n  mstore\n  0x20\n  add\n  0x00\n  keccak256\n    /* \"@openzeppelin/contracts/access/AccessControl.sol\":2930:2950  _roles[role].hasRole */\n  0x00\n  add\n    /* \"@openzeppelin/contracts/access/AccessControl.sol\":2930:2959  _roles[role].hasRole[account] */\n  0x00\n    /* \"@openzeppelin/contracts/access/AccessControl.sol\":2951:2958  account */\n  dup4\n    /* \"@openzeppelin/contracts/access/AccessControl.sol\":2930:2959  _roles[role].hasRole[account] */\n  0xffffffffffffffffffffffffffffffffffffffff\n  and\n  0xffffffffffffffffffffffffffffffffffffffff\n  and\n  dup2\n  mstore\n  0x20\n  add\n  swap1\n  dup2\n  mstore\n  0x20\n  add\n  0x00\n  keccak256\n  0x00\n  swap1\n  sload\n  swap1\n  0x0100\n  exp\n  swap1\n  div\n  0xff\n  and\n    /* \"@openzeppelin/contracts/access/AccessControl.sol\":2923:2959  return _roles[role].hasRole[account] */\n  swap1\n  pop\n    /* \"@openzeppelin/contracts/access/AccessControl.sol\":2830:2966  function hasRole(bytes32 role, address account) public view virtual returns (bool) {... */\n  swap3\n  swap2\n  pop\n  pop\n  jump\t// out\n    /* \"@openzeppelin/contracts/utils/Context.sol\":656:752  function _msgSender() internal view virtual returns (address) {... */\ntag_31:\n    /* \"@openzeppelin/contracts/utils/Context.sol\":709:716  address */\n  0x00\n    /* \"@openzeppelin/contracts/utils/Context.sol\":735:745  msg.sender */\n  caller\n    /* \"@openzeppelin/contracts/utils/Context.sol\":728:745  return msg.sender */\n  swap1\n  pop\n    /* \"@openzeppelin/contracts/utils/Context.sol\":656:752  function _msgSender() internal view virtual returns (address) {... */\n  swap1\n  jump\t// out\n    /* \"@openzeppelin/contracts/access/AccessControl.sol\":3786:3906  function getRoleAdmin(bytes32 role) public view virtual returns (bytes32) {... */\ntag_35:\n    /* \"@openzeppelin/contracts/access/AccessControl.sol\":3851:3858  bytes32 */\n  0x00\n    /* \"@openzeppelin/contracts/access/AccessControl.sol\":3877:3883  _roles */\n  0x06\n    /* \"@openzeppelin/contracts/access/AccessControl.sol\":3877:3889  _roles[role] */\n  0x00\n    /* \"@openzeppelin/contracts/access/AccessControl.sol\":3884:3888  role */\n  dup4\n    /* \"@openzeppelin/contracts/access/AccessControl.sol\":3877:3889  _roles[role] */\n  dup2\n  mstore\n  0x20\n  add\n  swap1\n  dup2\n  mstore\n  0x20\n  add\n  0x00\n  keccak256\n    /* \"@openzeppelin/contracts/access/AccessControl.sol\":3877:3899  _roles[role].adminRole */\n  0x01\n  add\n  sload\n    /* \"@openzeppelin/contracts/access/AccessControl.sol\":3870:3899  return _roles[role].adminRole */\n  swap1\n  pop\n    /* \"@openzeppelin/contracts/access/AccessControl.sol\":3786:3906  function getRoleAdmin(bytes32 role) public view virtual returns (bytes32) {... */\n  swap2\n  swap1\n  pop\n  jump\t// out\n    /* \"@openzeppelin/contracts/security/Pausable.sol\":1767:1873  function _requireNotPaused() internal view virtual {... */\ntag_38:\n    /* \"@openzeppelin/contracts/security/Pausable.sol\":1837:1845  paused() */\n  tag_47\n    /* \"@openzeppelin/contracts/security/Pausable.sol\":1837:1843  paused */\n  shl(0x20, tag_48)\n    /* \"@openzeppelin/contracts/security/Pausable.sol\":1837:1845  paused() */\n  0x20\n  shr\n  jump\t// in\ntag_47:\n    /* \"@openzeppelin/contracts/security/Pausable.sol\":1836:1845  !paused() */\n  iszero\n    /* \"@openzeppelin/contracts/security/Pausable.sol\":1828:1866  require(!paused(), \"Pausable: paused\") */\n  tag_49\n  jumpi\n  mload(0x40)\n  0x08c379a000000000000000000000000000000000000000000000000000000000\n  dup2\n  mstore\n  0x04\n  add\n  tag_50\n  swap1\n  tag_51\n  jump\t// in\ntag_50:\n  mload(0x40)\n  dup1\n  swap2\n  sub\n  swap1\n  revert\ntag_49:\n    /* \"@openzeppelin/contracts/security/Pausable.sol\":1767:1873  function _requireNotPaused() internal view virtual {... */\n  jump\t// out\n    /* \"@openzeppelin/contracts/security/Pausable.sol\":1615:1699  function paused() public view virtual returns (bool) {... */\ntag_48:\n    /* \"@openzeppelin/contracts/security/Pausable.sol\":1662:1666  bool */\n  0x00\n    /* \"@openzeppelin/contracts/security/Pausable.sol\":1685:1692  _paused */\n  dup1\n  0x00\n  swap1\n  sload\n  swap1\n  0x0100\n  exp\n  swap1\n  div\n  0xff\n  and\n    /* \"@openzeppelin/contracts/security/Pausable.sol\":1678:1692  return _paused */\n  swap1\n  pop\n    /* \"@openzeppelin/contracts/security/Pausable.sol\":1615:1699  function paused() public view virtual returns (bool) {... */\n  swap1\n  jump\t// out\n    /* \"#utility.yul\":7:82   */\ntag_53:\n    /* \"#utility.yul\":40:46   */\n  0x00\n    /* \"#utility.yul\":73:75   */\n  0x40\n    /* \"#utility.yul\":67:76   */\n  mload\n    /* \"#utility.yul\":57:76   */\n  swap1\n  pop\n    /* \"#utility.yul\":7:82   */\n  swap1\n  jump\t// out\n    /* \"#utility.yul\":88:205   */\ntag_54:\n    /* \"#utility.yul\":197:198   */\n  0x00\n    /* \"#utility.yul\":194:195   */\n  dup1\n    /* \"#utility.yul\":187:199   */\n  revert\n    /* \"#utility.yul\":211:328   */\ntag_55:\n    /* \"#utility.yul\":320:321   */\n  0x00\n    /* \"#utility.yul\":317:318   */\n  dup1\n    /* \"#utility.yul\":310:322   */\n  revert\n    /* \"#utility.yul\":334:451   */\ntag_56:\n    /* \"#utility.yul\":443:444   */\n  0x00\n    /* \"#utility.yul\":440:441   */\n  dup1\n    /* \"#utility.yul\":433:445   */\n  revert\n    /* \"#utility.yul\":457:574   */\ntag_57:\n    /* \"#utility.yul\":566:567   */\n  0x00\n    /* \"#utility.yul\":563:564   */\n  dup1\n    /* \"#utility.yul\":556:568   */\n  revert\n    /* \"#utility.yul\":580:682   */\ntag_58:\n    /* \"#utility.yul\":621:627   */\n  0x00\n    /* \"#utility.yul\":672:674   */\n  0x1f\n    /* \"#utility.yul\":668:675   */\n  not\n    /* \"#utility.yul\":663:665   */\n  0x1f\n    /* \"#utility.yul\":656:661   */\n  dup4\n    /* \"#utility.yul\":652:666   */\n  add\n    /* \"#utility.yul\":648:676   */\n  and\n    /* \"#utility.yul\":638:676   */\n  swap1\n  pop\n    /* \"#utility.yul\":580:682   */\n  swap2\n  swap1\n  pop\n  jump\t// out\n    /* \"#utility.yul\":688:868   */\ntag_59:\n    /* \"#utility.yul\":736:813   */\n  0x4e487b7100000000000000000000000000000000000000000000000000000000\n    /* \"#utility.yul\":733:734   */\n  0x00\n    /* \"#utility.yul\":726:814   */\n  mstore\n    /* \"#utility.yul\":833:837   */\n  0x41\n    /* \"#utility.yul\":830:831   */\n  0x04\n    /* \"#utility.yul\":823:838   */\n  mstore\n    /* \"#utility.yul\":857:861   */\n  0x24\n    /* \"#utility.yul\":854:855   */\n  0x00\n    /* \"#utility.yul\":847:862   */\n  revert\n    /* \"#utility.yul\":874:1155   */\ntag_60:\n    /* \"#utility.yul\":957:984   */\n  tag_107\n    /* \"#utility.yul\":979:983   */\n  dup3\n    /* \"#utility.yul\":957:984   */\n  tag_58\n  jump\t// in\ntag_107:\n    /* \"#utility.yul\":949:955   */\n  dup2\n    /* \"#utility.yul\":945:985   */\n  add\n    /* \"#utility.yul\":1087:1093   */\n  dup2\n    /* \"#utility.yul\":1075:1085   */\n  dup2\n    /* \"#utility.yul\":1072:1094   */\n  lt\n    /* \"#utility.yul\":1051:1069   */\n  0xffffffffffffffff\n    /* \"#utility.yul\":1039:1049   */\n  dup3\n    /* \"#utility.yul\":1036:1070   */\n  gt\n    /* \"#utility.yul\":1033:1095   */\n  or\n    /* \"#utility.yul\":1030:1118   */\n  iszero\n  tag_108\n  jumpi\n    /* \"#utility.yul\":1098:1116   */\n  tag_109\n  tag_59\n  jump\t// in\ntag_109:\n    /* \"#utility.yul\":1030:1118   */\ntag_108:\n    /* \"#utility.yul\":1138:1148   */\n  dup1\n    /* \"#utility.yul\":1134:1136   */\n  0x40\n    /* \"#utility.yul\":1127:1149   */\n  mstore\n    /* \"#utility.yul\":917:1155   */\n  pop\n    /* \"#utility.yul\":874:1155   */\n  pop\n  pop\n  jump\t// out\n    /* \"#utility.yul\":1161:1290   */\ntag_61:\n    /* \"#utility.yul\":1195:1201   */\n  0x00\n    /* \"#utility.yul\":1222:1242   */\n  tag_111\n  tag_53\n  jump\t// in\ntag_111:\n    /* \"#utility.yul\":1212:1242   */\n  swap1\n  pop\n    /* \"#utility.yul\":1251:1284   */\n  tag_112\n    /* \"#utility.yul\":1279:1283   */\n  dup3\n    /* \"#utility.yul\":1271:1277   */\n  dup3\n    /* \"#utility.yul\":1251:1284   */\n  tag_60\n  jump\t// in\ntag_112:\n    /* \"#utility.yul\":1161:1290   */\n  swap2\n  swap1\n  pop\n  jump\t// out\n    /* \"#utility.yul\":1296:1604   */\ntag_62:\n    /* \"#utility.yul\":1358:1362   */\n  0x00\n    /* \"#utility.yul\":1448:1466   */\n  0xffffffffffffffff\n    /* \"#utility.yul\":1440:1446   */\n  dup3\n    /* \"#utility.yul\":1437:1467   */\n  gt\n    /* \"#utility.yul\":1434:1490   */\n  iszero\n  tag_114\n  jumpi\n    /* \"#utility.yul\":1470:1488   */\n  tag_115\n  tag_59\n  jump\t// in\ntag_115:\n    /* \"#utility.yul\":1434:1490   */\ntag_114:\n    /* \"#utility.yul\":1508:1537   */\n  tag_116\n    /* \"#utility.yul\":1530:1536   */\n  dup3\n    /* \"#utility.yul\":1508:1537   */\n  tag_58\n  jump\t// in\ntag_116:\n    /* \"#utility.yul\":1500:1537   */\n  swap1\n  pop\n    /* \"#utility.yul\":1592:1596   */\n  0x20\n    /* \"#utility.yul\":1586:1590   */\n  dup2\n    /* \"#utility.yul\":1582:1597   */\n  add\n    /* \"#utility.yul\":1574:1597   */\n  swap1\n  pop\n    /* \"#utility.yul\":1296:1604   */\n  swap2\n  swap1\n  pop\n  jump\t// out\n    /* \"#utility.yul\":1610:1856   */\ntag_63:\n    /* \"#utility.yul\":1691:1692   */\n  0x00\n    /* \"#utility.yul\":1701:1814   */\ntag_118:\n    /* \"#utility.yul\":1715:1721   */\n  dup4\n    /* \"#utility.yul\":1712:1713   */\n  dup2\n    /* \"#utility.yul\":1709:1722   */\n  lt\n    /* \"#utility.yul\":1701:1814   */\n  iszero\n  tag_120\n  jumpi\n    /* \"#utility.yul\":1800:1801   */\n  dup1\n    /* \"#utility.yul\":1795:1798   */\n  dup3\n    /* \"#utility.yul\":1791:1802   */\n  add\n    /* \"#utility.yul\":1785:1803   */\n  mload\n    /* \"#utility.yul\":1781:1782   */\n  dup2\n    /* \"#utility.yul\":1776:1779   */\n  dup5\n    /* \"#utility.yul\":1772:1783   */\n  add\n    /* \"#utility.yul\":1765:1804   */\n  mstore\n    /* \"#utility.yul\":1737:1739   */\n  0x20\n    /* \"#utility.yul\":1734:1735   */\n  dup2\n    /* \"#utility.yul\":1730:1740   */\n  add\n    /* \"#utility.yul\":1725:1740   */\n  swap1\n  pop\n    /* \"#utility.yul\":1701:1814   */\n  jump(tag_118)\ntag_120:\n    /* \"#utility.yul\":1848:1849   */\n  0x00\n    /* \"#utility.yul\":1839:1845   */\n  dup5\n    /* \"#utility.yul\":1834:1837   */\n  dup5\n    /* \"#utility.yul\":1830:1846   */\n  add\n    /* \"#utility.yul\":1823:1850   */\n  mstore\n    /* \"#utility.yul\":1672:1856   */\n  pop\n    /* \"#utility.yul\":1610:1856   */\n  pop\n  pop\n  pop\n  jump\t// out\n    /* \"#utility.yul\":1862:2296   */\ntag_64:\n    /* \"#utility.yul\":1951:1956   */\n  0x00\n    /* \"#utility.yul\":1976:2042   */\n  tag_122\n    /* \"#utility.yul\":1992:2041   */\n  tag_123\n    /* \"#utility.yul\":2034:2040   */\n  dup5\n    /* \"#utility.yul\":1992:2041   */\n  tag_62\n  jump\t// in\ntag_123:\n    /* \"#utility.yul\":1976:2042   */\n  tag_61\n  jump\t// in\ntag_122:\n    /* \"#utility.yul\":1967:2042   */\n  swap1\n  pop\n    /* \"#utility.yul\":2065:2071   */\n  dup3\n    /* \"#utility.yul\":2058:2063   */\n  dup2\n    /* \"#utility.yul\":2051:2072   */\n  mstore\n    /* \"#utility.yul\":2103:2107   */\n  0x20\n    /* \"#utility.yul\":2096:2101   */\n  dup2\n    /* \"#utility.yul\":2092:2108   */\n  add\n    /* \"#utility.yul\":2141:2144   */\n  dup5\n    /* \"#utility.yul\":2132:2138   */\n  dup5\n    /* \"#utility.yul\":2127:2130   */\n  dup5\n    /* \"#utility.yul\":2123:2139   */\n  add\n    /* \"#utility.yul\":2120:2145   */\n  gt\n    /* \"#utility.yul\":2117:2229   */\n  iszero\n  tag_124\n  jumpi\n    /* \"#utility.yul\":2148:2227   */\n  tag_125\n  tag_57\n  jump\t// in\ntag_125:\n    /* \"#utility.yul\":2117:2229   */\ntag_124:\n    /* \"#utility.yul\":2238:2290   */\n  tag_126\n    /* \"#utility.yul\":2283:2289   */\n  dup5\n    /* \"#utility.yul\":2278:2281   */\n  dup3\n    /* \"#utility.yul\":2273:2276   */\n  dup6\n    /* \"#utility.yul\":2238:2290   */\n  tag_63\n  jump\t// in\ntag_126:\n    /* \"#utility.yul\":1957:2296   */\n  pop\n    /* \"#utility.yul\":1862:2296   */\n  swap4\n  swap3\n  pop\n  pop\n  pop\n  jump\t// out\n    /* \"#utility.yul\":2316:2671   */\ntag_65:\n    /* \"#utility.yul\":2383:2388   */\n  0x00\n    /* \"#utility.yul\":2432:2435   */\n  dup3\n    /* \"#utility.yul\":2425:2429   */\n  0x1f\n    /* \"#utility.yul\":2417:2423   */\n  dup4\n    /* \"#utility.yul\":2413:2430   */\n  add\n    /* \"#utility.yul\":2409:2436   */\n  slt\n    /* \"#utility.yul\":2399:2521   */\n  tag_128\n  jumpi\n    /* \"#utility.yul\":2440:2519   */\n  tag_129\n  tag_56\n  jump\t// in\ntag_129:\n    /* \"#utility.yul\":2399:2521   */\ntag_128:\n    /* \"#utility.yul\":2550:2556   */\n  dup2\n    /* \"#utility.yul\":2544:2557   */\n  mload\n    /* \"#utility.yul\":2575:2665   */\n  tag_130\n    /* \"#utility.yul\":2661:2664   */\n  dup5\n    /* \"#utility.yul\":2653:2659   */\n  dup3\n    /* \"#utility.yul\":2646:2650   */\n  0x20\n    /* \"#utility.yul\":2638:2644   */\n  dup7\n    /* \"#utility.yul\":2634:2651   */\n  add\n    /* \"#utility.yul\":2575:2665   */\n  tag_64\n  jump\t// in\ntag_130:\n    /* \"#utility.yul\":2566:2665   */\n  swap2\n  pop\n    /* \"#utility.yul\":2389:2671   */\n  pop\n    /* \"#utility.yul\":2316:2671   */\n  swap3\n  swap2\n  pop\n  pop\n  jump\t// out\n    /* \"#utility.yul\":2677:2754   */\ntag_66:\n    /* \"#utility.yul\":2714:2721   */\n  0x00\n    /* \"#utility.yul\":2743:2748   */\n  dup2\n    /* \"#utility.yul\":2732:2748   */\n  swap1\n  pop\n    /* \"#utility.yul\":2677:2754   */\n  swap2\n  swap1\n  pop\n  jump\t// out\n    /* \"#utility.yul\":2760:2882   */\ntag_67:\n    /* \"#utility.yul\":2833:2857   */\n  tag_133\n    /* \"#utility.yul\":2851:2856   */\n  dup2\n    /* \"#utility.yul\":2833:2857   */\n  tag_66\n  jump\t// in\ntag_133:\n    /* \"#utility.yul\":2826:2831   */\n  dup2\n    /* \"#utility.yul\":2823:2858   */\n  eq\n    /* \"#utility.yul\":2813:2876   */\n  tag_134\n  jumpi\n    /* \"#utility.yul\":2872:2873   */\n  0x00\n    /* \"#utility.yul\":2869:2870   */\n  dup1\n    /* \"#utility.yul\":2862:2874   */\n  revert\n    /* \"#utility.yul\":2813:2876   */\ntag_134:\n    /* \"#utility.yul\":2760:2882   */\n  pop\n  jump\t// out\n    /* \"#utility.yul\":2888:3031   */\ntag_68:\n    /* \"#utility.yul\":2945:2950   */\n  0x00\n    /* \"#utility.yul\":2976:2982   */\n  dup2\n    /* \"#utility.yul\":2970:2983   */\n  mload\n    /* \"#utility.yul\":2961:2983   */\n  swap1\n  pop\n    /* \"#utility.yul\":2992:3025   */\n  tag_136\n    /* \"#utility.yul\":3019:3024   */\n  dup2\n    /* \"#utility.yul\":2992:3025   */\n  tag_67\n  jump\t// in\ntag_136:\n    /* \"#utility.yul\":2888:3031   */\n  swap3\n  swap2\n  pop\n  pop\n  jump\t// out\n    /* \"#utility.yul\":3037:3163   */\ntag_69:\n    /* \"#utility.yul\":3074:3081   */\n  0x00\n    /* \"#utility.yul\":3114:3156   */\n  0xffffffffffffffffffffffffffffffffffffffff\n    /* \"#utility.yul\":3107:3112   */\n  dup3\n    /* \"#utility.yul\":3103:3157   */\n  and\n    /* \"#utility.yul\":3092:3157   */\n  swap1\n  pop\n    /* \"#utility.yul\":3037:3163   */\n  swap2\n  swap1\n  pop\n  jump\t// out\n    /* \"#utility.yul\":3169:3265   */\ntag_70:\n    /* \"#utility.yul\":3206:3213   */\n  0x00\n    /* \"#utility.yul\":3235:3259   */\n  tag_139\n    /* \"#utility.yul\":3253:3258   */\n  dup3\n    /* \"#utility.yul\":3235:3259   */\n  tag_69\n  jump\t// in\ntag_139:\n    /* \"#utility.yul\":3224:3259   */\n  swap1\n  pop\n    /* \"#utility.yul\":3169:3265   */\n  swap2\n  swap1\n  pop\n  jump\t// out\n    /* \"#utility.yul\":3271:3393   */\ntag_71:\n    /* \"#utility.yul\":3344:3368   */\n  tag_141\n    /* \"#utility.yul\":3362:3367   */\n  dup2\n    /* \"#utility.yul\":3344:3368   */\n  tag_70\n  jump\t// in\ntag_141:\n    /* \"#utility.yul\":3337:3342   */\n  dup2\n    /* \"#utility.yul\":3334:3369   */\n  eq\n    /* \"#utility.yul\":3324:3387   */\n  tag_142\n  jumpi\n    /* \"#utility.yul\":3383:3384   */\n  0x00\n    /* \"#utility.yul\":3380:3381   */\n  dup1\n    /* \"#utility.yul\":3373:3385   */\n  revert\n    /* \"#utility.yul\":3324:3387   */\ntag_142:\n    /* \"#utility.yul\":3271:3393   */\n  pop\n  jump\t// out\n    /* \"#utility.yul\":3399:3542   */\ntag_72:\n    /* \"#utility.yul\":3456:3461   */\n  0x00\n    /* \"#utility.yul\":3487:3493   */\n  dup2\n    /* \"#utility.yul\":3481:3494   */\n  mload\n    /* \"#utility.yul\":3472:3494   */\n  swap1\n  pop\n    /* \"#utility.yul\":3503:3536   */\n  tag_144\n    /* \"#utility.yul\":3530:3535   */\n  dup2\n    /* \"#utility.yul\":3503:3536   */\n  tag_71\n  jump\t// in\ntag_144:\n    /* \"#utility.yul\":3399:3542   */\n  swap3\n  swap2\n  pop\n  pop\n  jump\t// out\n    /* \"#utility.yul\":3548:4871   */\ntag_3:\n    /* \"#utility.yul\":3674:3680   */\n  0x00\n    /* \"#utility.yul\":3682:3688   */\n  dup1\n    /* \"#utility.yul\":3690:3696   */\n  0x00\n    /* \"#utility.yul\":3698:3704   */\n  dup1\n    /* \"#utility.yul\":3706:3712   */\n  0x00\n    /* \"#utility.yul\":3755:3758   */\n  0xa0\n    /* \"#utility.yul\":3743:3752   */\n  dup7\n    /* \"#utility.yul\":3734:3741   */\n  dup9\n    /* \"#utility.yul\":3730:3753   */\n  sub\n    /* \"#utility.yul\":3726:3759   */\n  slt\n    /* \"#utility.yul\":3723:3843   */\n  iszero\n  tag_146\n  jumpi\n    /* \"#utility.yul\":3762:3841   */\n  tag_147\n  tag_54\n  jump\t// in\ntag_147:\n    /* \"#utility.yul\":3723:3843   */\ntag_146:\n    /* \"#utility.yul\":3903:3904   */\n  0x00\n    /* \"#utility.yul\":3892:3901   */\n  dup7\n    /* \"#utility.yul\":3888:3905   */\n  add\n    /* \"#utility.yul\":3882:3906   */\n  mload\n    /* \"#utility.yul\":3933:3951   */\n  0xffffffffffffffff\n    /* \"#utility.yul\":3925:3931   */\n  dup2\n    /* \"#utility.yul\":3922:3952   */\n  gt\n    /* \"#utility.yul\":3919:4036   */\n  iszero\n  tag_148\n  jumpi\n    /* \"#utility.yul\":3955:4034   */\n  tag_149\n  tag_55\n  jump\t// in\ntag_149:\n    /* \"#utility.yul\":3919:4036   */\ntag_148:\n    /* \"#utility.yul\":4060:4134   */\n  tag_150\n    /* \"#utility.yul\":4126:4133   */\n  dup9\n    /* \"#utility.yul\":4117:4123   */\n  dup3\n    /* \"#utility.yul\":4106:4115   */\n  dup10\n    /* \"#utility.yul\":4102:4124   */\n  add\n    /* \"#utility.yul\":4060:4134   */\n  tag_65\n  jump\t// in\ntag_150:\n    /* \"#utility.yul\":4050:4134   */\n  swap6\n  pop\n    /* \"#utility.yul\":3853:4144   */\n  pop\n    /* \"#utility.yul\":4204:4206   */\n  0x20\n    /* \"#utility.yul\":4193:4202   */\n  dup7\n    /* \"#utility.yul\":4189:4207   */\n  add\n    /* \"#utility.yul\":4183:4208   */\n  mload\n    /* \"#utility.yul\":4235:4253   */\n  0xffffffffffffffff\n    /* \"#utility.yul\":4227:4233   */\n  dup2\n    /* \"#utility.yul\":4224:4254   */\n  gt\n    /* \"#utility.yul\":4221:4338   */\n  iszero\n  tag_151\n  jumpi\n    /* \"#utility.yul\":4257:4336   */\n  tag_152\n  tag_55\n  jump\t// in\ntag_152:\n    /* \"#utility.yul\":4221:4338   */\ntag_151:\n    /* \"#utility.yul\":4362:4436   */\n  tag_153\n    /* \"#utility.yul\":4428:4435   */\n  dup9\n    /* \"#utility.yul\":4419:4425   */\n  dup3\n    /* \"#utility.yul\":4408:4417   */\n  dup10\n    /* \"#utility.yul\":4404:4426   */\n  add\n    /* \"#utility.yul\":4362:4436   */\n  tag_65\n  jump\t// in\ntag_153:\n    /* \"#utility.yul\":4352:4436   */\n  swap5\n  pop\n    /* \"#utility.yul\":4154:4446   */\n  pop\n    /* \"#utility.yul\":4485:4487   */\n  0x40\n    /* \"#utility.yul\":4511:4575   */\n  tag_154\n    /* \"#utility.yul\":4567:4574   */\n  dup9\n    /* \"#utility.yul\":4558:4564   */\n  dup3\n    /* \"#utility.yul\":4547:4556   */\n  dup10\n    /* \"#utility.yul\":4543:4565   */\n  add\n    /* \"#utility.yul\":4511:4575   */\n  tag_68\n  jump\t// in\ntag_154:\n    /* \"#utility.yul\":4501:4575   */\n  swap4\n  pop\n    /* \"#utility.yul\":4456:4585   */\n  pop\n    /* \"#utility.yul\":4624:4626   */\n  0x60\n    /* \"#utility.yul\":4650:4714   */\n  tag_155\n    /* \"#utility.yul\":4706:4713   */\n  dup9\n    /* \"#utility.yul\":4697:4703   */\n  dup3\n    /* \"#utility.yul\":4686:4695   */\n  dup10\n    /* \"#utility.yul\":4682:4704   */\n  add\n    /* \"#utility.yul\":4650:4714   */\n  tag_72\n  jump\t// in\ntag_155:\n    /* \"#utility.yul\":4640:4714   */\n  swap3\n  pop\n    /* \"#utility.yul\":4595:4724   */\n  pop\n    /* \"#utility.yul\":4763:4766   */\n  0x80\n    /* \"#utility.yul\":4790:4854   */\n  tag_156\n    /* \"#utility.yul\":4846:4853   */\n  dup9\n    /* \"#utility.yul\":4837:4843   */\n  dup3\n    /* \"#utility.yul\":4826:4835   */\n  dup10\n    /* \"#utility.yul\":4822:4844   */\n  add\n    /* \"#utility.yul\":4790:4854   */\n  tag_72\n  jump\t// in\ntag_156:\n    /* \"#utility.yul\":4780:4854   */\n  swap2\n  pop\n    /* \"#utility.yul\":4734:4864   */\n  pop\n    /* \"#utility.yul\":3548:4871   */\n  swap3\n  swap6\n  pop\n  swap3\n  swap6\n  swap1\n  swap4\n  pop\n  jump\t// out\n    /* \"#utility.yul\":4877:4976   */\ntag_73:\n    /* \"#utility.yul\":4929:4935   */\n  0x00\n    /* \"#utility.yul\":4963:4968   */\n  dup2\n    /* \"#utility.yul\":4957:4969   */\n  mload\n    /* \"#utility.yul\":4947:4969   */\n  swap1\n  pop\n    /* \"#utility.yul\":4877:4976   */\n  swap2\n  swap1\n  pop\n  jump\t// out\n    /* \"#utility.yul\":4982:5162   */\ntag_74:\n    /* \"#utility.yul\":5030:5107   */\n  0x4e487b7100000000000000000000000000000000000000000000000000000000\n    /* \"#utility.yul\":5027:5028   */\n  0x00\n    /* \"#utility.yul\":5020:5108   */\n  mstore\n    /* \"#utility.yul\":5127:5131   */\n  0x22\n    /* \"#utility.yul\":5124:5125   */\n  0x04\n    /* \"#utility.yul\":5117:5132   */\n  mstore\n    /* \"#utility.yul\":5151:5155   */\n  0x24\n    /* \"#utility.yul\":5148:5149   */\n  0x00\n    /* \"#utility.yul\":5141:5156   */\n  revert\n    /* \"#utility.yul\":5168:5488   */\ntag_75:\n    /* \"#utility.yul\":5212:5218   */\n  0x00\n    /* \"#utility.yul\":5249:5250   */\n  0x02\n    /* \"#utility.yul\":5243:5247   */\n  dup3\n    /* \"#utility.yul\":5239:5251   */\n  div\n    /* \"#utility.yul\":5229:5251   */\n  swap1\n  pop\n    /* \"#utility.yul\":5296:5297   */\n  0x01\n    /* \"#utility.yul\":5290:5294   */\n  dup3\n    /* \"#utility.yul\":5286:5298   */\n  and\n    /* \"#utility.yul\":5317:5335   */\n  dup1\n    /* \"#utility.yul\":5307:5388   */\n  tag_160\n  jumpi\n    /* \"#utility.yul\":5373:5377   */\n  0x7f\n    /* \"#utility.yul\":5365:5371   */\n  dup3\n    /* \"#utility.yul\":5361:5378   */\n  and\n    /* \"#utility.yul\":5351:5378   */\n  swap2\n  pop\n    /* \"#utility.yul\":5307:5388   */\ntag_160:\n    /* \"#utility.yul\":5435:5437   */\n  0x20\n    /* \"#utility.yul\":5427:5433   */\n  dup3\n    /* \"#utility.yul\":5424:5438   */\n  lt\n    /* \"#utility.yul\":5404:5422   */\n  dup2\n    /* \"#utility.yul\":5401:5439   */\n  sub\n    /* \"#utility.yul\":5398:5482   */\n  tag_161\n  jumpi\n    /* \"#utility.yul\":5454:5472   */\n  tag_162\n  tag_74\n  jump\t// in\ntag_162:\n    /* \"#utility.yul\":5398:5482   */\ntag_161:\n    /* \"#utility.yul\":5219:5488   */\n  pop\n    /* \"#utility.yul\":5168:5488   */\n  swap2\n  swap1\n  pop\n  jump\t// out\n    /* \"#utility.yul\":5494:5635   */\ntag_76:\n    /* \"#utility.yul\":5543:5547   */\n  0x00\n    /* \"#utility.yul\":5566:5569   */\n  dup2\n    /* \"#utility.yul\":5558:5569   */\n  swap1\n  pop\n    /* \"#utility.yul\":5589:5592   */\n  dup2\n    /* \"#utility.yul\":5586:5587   */\n  0x00\n    /* \"#utility.yul\":5579:5593   */\n  mstore\n    /* \"#utility.yul\":5623:5627   */\n  0x20\n    /* \"#utility.yul\":5620:5621   */\n  0x00\n    /* \"#utility.yul\":5610:5628   */\n  keccak256\n    /* \"#utility.yul\":5602:5628   */\n  swap1\n  pop\n    /* \"#utility.yul\":5494:5635   */\n  swap2\n  swap1\n  pop\n  jump\t// out\n    /* \"#utility.yul\":5641:5734   */\ntag_77:\n    /* \"#utility.yul\":5678:5684   */\n  0x00\n    /* \"#utility.yul\":5725:5727   */\n  0x20\n    /* \"#utility.yul\":5720:5722   */\n  0x1f\n    /* \"#utility.yul\":5713:5718   */\n  dup4\n    /* \"#utility.yul\":5709:5723   */\n  add\n    /* \"#utility.yul\":5705:5728   */\n  div\n    /* \"#utility.yul\":5695:5728   */\n  swap1\n  pop\n    /* \"#utility.yul\":5641:5734   */\n  swap2\n  swap1\n  pop\n  jump\t// out\n    /* \"#utility.yul\":5740:5847   */\ntag_78:\n    /* \"#utility.yul\":5784:5792   */\n  0x00\n    /* \"#utility.yul\":5834:5839   */\n  dup3\n    /* \"#utility.yul\":5828:5832   */\n  dup3\n    /* \"#utility.yul\":5824:5840   */\n  shl\n    /* \"#utility.yul\":5803:5840   */\n  swap1\n  pop\n    /* \"#utility.yul\":5740:5847   */\n  swap3\n  swap2\n  pop\n  pop\n  jump\t// out\n    /* \"#utility.yul\":5853:6246   */\ntag_79:\n    /* \"#utility.yul\":5922:5928   */\n  0x00\n    /* \"#utility.yul\":5972:5973   */\n  0x08\n    /* \"#utility.yul\":5960:5970   */\n  dup4\n    /* \"#utility.yul\":5956:5974   */\n  mul\n    /* \"#utility.yul\":5995:6092   */\n  tag_167\n    /* \"#utility.yul\":6025:6091   */\n  0xffffffffffffffffffffffffffffffffffffffffffffffffffffffffffffffff\n    /* \"#utility.yul\":6014:6023   */\n  dup3\n    /* \"#utility.yul\":5995:6092   */\n  tag_78\n  jump\t// in\ntag_167:\n    /* \"#utility.yul\":6113:6152   */\n  tag_168\n    /* \"#utility.yul\":6143:6151   */\n  dup7\n    /* \"#utility.yul\":6132:6141   */\n  dup4\n    /* \"#utility.yul\":6113:6152   */\n  tag_78\n  jump\t// in\ntag_168:\n    /* \"#utility.yul\":6101:6152   */\n  swap6\n  pop\n    /* \"#utility.yul\":6185:6189   */\n  dup1\n    /* \"#utility.yul\":6181:6190   */\n  not\n    /* \"#utility.yul\":6174:6179   */\n  dup5\n    /* \"#utility.yul\":6170:6191   */\n  and\n    /* \"#utility.yul\":6161:6191   */\n  swap4\n  pop\n    /* \"#utility.yul\":6234:6238   */\n  dup1\n    /* \"#utility.yul\":6224:6232   */\n  dup7\n    /* \"#utility.yul\":6220:6239   */\n  and\n    /* \"#utility.yul\":6213:6218   */\n  dup5\n    /* \"#utility.yul\":6210:6240   */\n  or\n    /* \"#utility.yul\":6200:6240   */\n  swap3\n  pop\n    /* \"#utility.yul\":5929:6246   */\n  pop\n  pop\n    /* \"#utility.yul\":5853:6246   */\n  swap4\n  swap3\n  pop\n  pop\n  pop\n  jump\t// out\n    /* \"#utility.yul\":6252:6312   */\ntag_80:\n    /* \"#utility.yul\":6280:6283   */\n  0x00\n    /* \"#utility.yul\":6301:6306   */\n  dup2\n    /* \"#utility.yul\":6294:6306   */\n  swap1\n  pop\n    /* \"#utility.yul\":6252:6312   */\n  swap2\n  swap1\n  pop\n  jump\t// out\n    /* \"#utility.yul\":6318:6460   */\ntag_81:\n    /* \"#utility.yul\":6368:6377   */\n  0x00\n    /* \"#utility.yul\":6401:6454   */\n  tag_171\n    /* \"#utility.yul\":6419:6453   */\n  tag_172\n    /* \"#utility.yul\":6428:6452   */\n  tag_173\n    /* \"#utility.yul\":6446:6451   */\n  dup5\n    /* \"#utility.yul\":6428:6452   */\n  tag_66\n  jump\t// in\ntag_173:\n    /* \"#utility.yul\":6419:6453   */\n  tag_80\n  jump\t// in\ntag_172:\n    /* \"#utility.yul\":6401:6454   */\n  tag_66\n  jump\t// in\ntag_171:\n    /* \"#utility.yul\":6388:6454   */\n  swap1\n  pop\n    /* \"#utility.yul\":6318:6460   */\n  swap2\n  swap1\n  pop\n  jump\t// out\n    /* \"#utility.yul\":6466:6541   */\ntag_82:\n    /* \"#utility.yul\":6509:6512   */\n  0x00\n    /* \"#utility.yul\":6530:6535   */\n  dup2\n    /* \"#utility.yul\":6523:6535   */\n  swap1\n  pop\n    /* \"#utility.yul\":6466:6541   */\n  swap2\n  swap1\n  pop\n  jump\t// out\n    /* \"#utility.yul\":6547:6816   */\ntag_83:\n    /* \"#utility.yul\":6657:6696   */\n  tag_176\n    /* \"#utility.yul\":6688:6695   */\n  dup4\n    /* \"#utility.yul\":6657:6696   */\n  tag_81\n  jump\t// in\ntag_176:\n    /* \"#utility.yul\":6718:6809   */\n  tag_177\n    /* \"#utility.yul\":6767:6808   */\n  tag_178\n    /* \"#utility.yul\":6791:6807   */\n  dup3\n    /* \"#utility.yul\":6767:6808   */\n  tag_82\n  jump\t// in\ntag_178:\n    /* \"#utility.yul\":6759:6765   */\n  dup5\n    /* \"#utility.yul\":6752:6756   */\n  dup5\n    /* \"#utility.yul\":6746:6757   */\n  sload\n    /* \"#utility.yul\":6718:6809   */\n  tag_79\n  jump\t// in\ntag_177:\n    /* \"#utility.yul\":6712:6716   */\n  dup3\n    /* \"#utility.yul\":6705:6810   */\n  sstore\n    /* \"#utility.yul\":6623:6816   */\n  pop\n    /* \"#utility.yul\":6547:6816   */\n  pop\n  pop\n  pop\n  jump\t// out\n    /* \"#utility.yul\":6822:6895   */\ntag_84:\n    /* \"#utility.yul\":6867:6870   */\n  0x00\n    /* \"#utility.yul\":6822:6895   */\n  swap1\n  jump\t// out\n    /* \"#utility.yul\":6901:7090   */\ntag_85:\n    /* \"#utility.yul\":6978:7010   */\n  tag_181\n  tag_84\n  jump\t// in\ntag_181:\n    /* \"#utility.yul\":7019:7084   */\n  tag_182\n    /* \"#utility.yul\":7077:7083   */\n  dup2\n    /* \"#utility.yul\":7069:7075   */\n  dup5\n    /* \"#utility.yul\":7063:7067   */\n  dup5\n    /* \"#utility.yul\":7019:7084   */\n  tag_83\n  jump\t// in\ntag_182:\n    /* \"#utility.yul\":6954:7090   */\n  pop\n    /* \"#utility.yul\":6901:7090   */\n  pop\n  pop\n  jump\t// out\n    /* \"#utility.yul\":7096:7282   */\ntag_86:\n    /* \"#utility.yul\":7156:7276   */\ntag_184:\n    /* \"#utility.yul\":7173:7176   */\n  dup2\n    /* \"#utility.yul\":7166:7171   */\n  dup2\n    /* \"#utility.yul\":7163:7177   */\n  lt\n    /* \"#utility.yul\":7156:7276   */\n  iszero\n  tag_186\n  jumpi\n    /* \"#utility.yul\":7227:7266   */\n  tag_187\n    /* \"#utility.yul\":7264:7265   */\n  0x00\n    /* \"#utility.yul\":7257:7262   */\n  dup3\n    /* \"#utility.yul\":7227:7266   */\n  tag_85\n  jump\t// in\ntag_187:\n    /* \"#utility.yul\":7200:7201   */\n  0x01\n    /* \"#utility.yul\":7193:7198   */\n  dup2\n    /* \"#utility.yul\":7189:7202   */\n  add\n    /* \"#utility.yul\":7180:7202   */\n  swap1\n  pop\n    /* \"#utility.yul\":7156:7276   */\n  jump(tag_184)\ntag_186:\n    /* \"#utility.yul\":7096:7282   */\n  pop\n  pop\n  jump\t// out\n    /* \"#utility.yul\":7288:7831   */\ntag_87:\n    /* \"#utility.yul\":7389:7391   */\n  0x1f\n    /* \"#utility.yul\":7384:7387   */\n  dup3\n    /* \"#utility.yul\":7381:7392   */\n  gt\n    /* \"#utility.yul\":7378:7824   */\n  iszero\n  tag_189\n  jumpi\n    /* \"#utility.yul\":7423:7461   */\n  tag_190\n    /* \"#utility.yul\":7455:7460   */\n  dup2\n    /* \"#utility.yul\":7423:7461   */\n  tag_76\n  jump\t// in\ntag_190:\n    /* \"#utility.yul\":7507:7536   */\n  tag_191\n    /* \"#utility.yul\":7525:7535   */\n  dup5\n    /* \"#utility.yul\":7507:7536   */\n  tag_77\n  jump\t// in\ntag_191:\n    /* \"#utility.yul\":7497:7505   */\n  dup2\n    /* \"#utility.yul\":7493:7537   */\n  add\n    /* \"#utility.yul\":7690:7692   */\n  0x20\n    /* \"#utility.yul\":7678:7688   */\n  dup6\n    /* \"#utility.yul\":7675:7693   */\n  lt\n    /* \"#utility.yul\":7672:7721   */\n  iszero\n  tag_192\n  jumpi\n    /* \"#utility.yul\":7711:7719   */\n  dup2\n    /* \"#utility.yul\":7696:7719   */\n  swap1\n  pop\n    /* \"#utility.yul\":7672:7721   */\ntag_192:\n    /* \"#utility.yul\":7734:7814   */\n  tag_193\n    /* \"#utility.yul\":7790:7812   */\n  tag_194\n    /* \"#utility.yul\":7808:7811   */\n  dup6\n    /* \"#utility.yul\":7790:7812   */\n  tag_77\n  jump\t// in\ntag_194:\n    /* \"#utility.yul\":7780:7788   */\n  dup4\n    /* \"#utility.yul\":7776:7813   */\n  add\n    /* \"#utility.yul\":7763:7774   */\n  dup3\n    /* \"#utility.yul\":7734:7814   */\n  tag_86\n  jump\t// in\ntag_193:\n    /* \"#utility.yul\":7393:7824   */\n  pop\n  pop\n    /* \"#utility.yul\":7378:7824   */\ntag_189:\n    /* \"#utility.yul\":7288:7831   */\n  pop\n  pop\n  pop\n  jump\t// out\n    /* \"#utility.yul\":7837:7954   */\ntag_88:\n    /* \"#utility.yul\":7891:7899   */\n  0x00\n    /* \"#utility.yul\":7941:7946   */\n  dup3\n    /* \"#utility.yul\":7935:7939   */\n  dup3\n    /* \"#utility.yul\":7931:7947   */\n  shr\n    /* \"#utility.yul\":7910:7947   */\n  swap1\n  pop\n    /* \"#utility.yul\":7837:7954   */\n  swap3\n  swap2\n  pop\n  pop\n  jump\t// out\n    /* \"#utility.yul\":7960:8129   */\ntag_89:\n    /* \"#utility.yul\":8004:8010   */\n  0x00\n    /* \"#utility.yul\":8037:8088   */\n  tag_197\n    /* \"#utility.yul\":8085:8086   */\n  0x00\n    /* \"#utility.yul\":8081:8087   */\n  not\n    /* \"#utility.yul\":8073:8078   */\n  dup5\n    /* \"#utility.yul\":8070:8071   */\n  0x08\n    /* \"#utility.yul\":8066:8079   */\n  mul\n    /* \"#utility.yul\":8037:8088   */\n  tag_88\n  jump\t// in\ntag_197:\n    /* \"#utility.yul\":8033:8089   */\n  not\n    /* \"#utility.yul\":8118:8122   */\n  dup1\n    /* \"#utility.yul\":8112:8116   */\n  dup4\n    /* \"#utility.yul\":8108:8123   */\n  and\n    /* \"#utility.yul\":8098:8123   */\n  swap2\n  pop\n    /* \"#utility.yul\":8011:8129   */\n  pop\n    /* \"#utility.yul\":7960:8129   */\n  swap3\n  swap2\n  pop\n  pop\n  jump\t// out\n    /* \"#utility.yul\":8134:8429   */\ntag_90:\n    /* \"#utility.yul\":8210:8214   */\n  0x00\n    /* \"#utility.yul\":8356:8385   */\n  tag_199\n    /* \"#utility.yul\":8381:8384   */\n  dup4\n    /* \"#utility.yul\":8375:8379   */\n  dup4\n    /* \"#utility.yul\":8356:8385   */\n  tag_89\n  jump\t// in\ntag_199:\n    /* \"#utility.yul\":8348:8385   */\n  swap2\n  pop\n    /* \"#utility.yul\":8418:8421   */\n  dup3\n    /* \"#utility.yul\":8415:8416   */\n  0x02\n    /* \"#utility.yul\":8411:8422   */\n  mul\n    /* \"#utility.yul\":8405:8409   */\n  dup3\n    /* \"#utility.yul\":8402:8423   */\n  or\n    /* \"#utility.yul\":8394:8423   */\n  swap1\n  pop\n    /* \"#utility.yul\":8134:8429   */\n  swap3\n  swap2\n  pop\n  pop\n  jump\t// out\n    /* \"#utility.yul\":8434:9829   */\ntag_11:\n    /* \"#utility.yul\":8551:8588   */\n  tag_201\n    /* \"#utility.yul\":8584:8587   */\n  dup3\n    /* \"#utility.yul\":8551:8588   */\n  tag_73\n  jump\t// in\ntag_201:\n    /* \"#utility.yul\":8653:8671   */\n  0xffffffffffffffff\n    /* \"#utility.yul\":8645:8651   */\n  dup2\n    /* \"#utility.yul\":8642:8672   */\n  gt\n    /* \"#utility.yul\":8639:8695   */\n  iszero\n  tag_202\n  jumpi\n    /* \"#utility.yul\":8675:8693   */\n  tag_203\n  tag_59\n  jump\t// in\ntag_203:\n    /* \"#utility.yul\":8639:8695   */\ntag_202:\n    /* \"#utility.yul\":8719:8757   */\n  tag_204\n    /* \"#utility.yul\":8751:8755   */\n  dup3\n    /* \"#utility.yul\":8745:8756   */\n  sload\n    /* \"#utility.yul\":8719:8757   */\n  tag_75\n  jump\t// in\ntag_204:\n    /* \"#utility.yul\":8804:8871   */\n  tag_205\n    /* \"#utility.yul\":8864:8870   */\n  dup3\n    /* \"#utility.yul\":8856:8862   */\n  dup3\n    /* \"#utility.yul\":8850:8854   */\n  dup6\n    /* \"#utility.yul\":8804:8871   */\n  tag_87\n  jump\t// in\ntag_205:\n    /* \"#utility.yul\":8898:8899   */\n  0x00\n    /* \"#utility.yul\":8922:8926   */\n  0x20\n    /* \"#utility.yul\":8909:8926   */\n  swap1\n  pop\n    /* \"#utility.yul\":8954:8956   */\n  0x1f\n    /* \"#utility.yul\":8946:8952   */\n  dup4\n    /* \"#utility.yul\":8943:8957   */\n  gt\n    /* \"#utility.yul\":8971:8972   */\n  0x01\n    /* \"#utility.yul\":8966:9584   */\n  dup2\n  eq\n  tag_207\n  jumpi\n    /* \"#utility.yul\":9628:9629   */\n  0x00\n    /* \"#utility.yul\":9645:9651   */\n  dup5\n    /* \"#utility.yul\":9642:9719   */\n  iszero\n  tag_208\n  jumpi\n    /* \"#utility.yul\":9694:9703   */\n  dup3\n    /* \"#utility.yul\":9689:9692   */\n  dup8\n    /* \"#utility.yul\":9685:9704   */\n  add\n    /* \"#utility.yul\":9679:9705   */\n  mload\n    /* \"#utility.yul\":9670:9705   */\n  swap1\n  pop\n    /* \"#utility.yul\":9642:9719   */\ntag_208:\n    /* \"#utility.yul\":9745:9812   */\n  tag_209\n    /* \"#utility.yul\":9805:9811   */\n  dup6\n    /* \"#utility.yul\":9798:9803   */\n  dup3\n    /* \"#utility.yul\":9745:9812   */\n  tag_90\n  jump\t// in\ntag_209:\n    /* \"#utility.yul\":9739:9743   */\n  dup7\n    /* \"#utility.yul\":9732:9813   */\n  sstore\n    /* \"#utility.yul\":9601:9823   */\n  pop\n    /* \"#utility.yul\":8936:9823   */\n  jump(tag_206)\n    /* \"#utility.yul\":8966:9584   */\ntag_207:\n    /* \"#utility.yul\":9018:9022   */\n  0x1f\n    /* \"#utility.yul\":9014:9023   */\n  not\n    /* \"#utility.yul\":9006:9012   */\n  dup5\n    /* \"#utility.yul\":9002:9024   */\n  and\n    /* \"#utility.yul\":9052:9089   */\n  tag_210\n    /* \"#utility.yul\":9084:9088   */\n  dup7\n    /* \"#utility.yul\":9052:9089   */\n  tag_76\n  jump\t// in\ntag_210:\n    /* \"#utility.yul\":9111:9112   */\n  0x00\n    /* \"#utility.yul\":9125:9333   */\ntag_211:\n    /* \"#utility.yul\":9139:9146   */\n  dup3\n    /* \"#utility.yul\":9136:9137   */\n  dup2\n    /* \"#utility.yul\":9133:9147   */\n  lt\n    /* \"#utility.yul\":9125:9333   */\n  iszero\n  tag_213\n  jumpi\n    /* \"#utility.yul\":9218:9227   */\n  dup5\n    /* \"#utility.yul\":9213:9216   */\n  dup10\n    /* \"#utility.yul\":9209:9228   */\n  add\n    /* \"#utility.yul\":9203:9229   */\n  mload\n    /* \"#utility.yul\":9195:9201   */\n  dup3\n    /* \"#utility.yul\":9188:9230   */\n  sstore\n    /* \"#utility.yul\":9269:9270   */\n  0x01\n    /* \"#utility.yul\":9261:9267   */\n  dup3\n    /* \"#utility.yul\":9257:9271   */\n  add\n    /* \"#utility.yul\":9247:9271   */\n  swap2\n  pop\n    /* \"#utility.yul\":9316:9318   */\n  0x20\n    /* \"#utility.yul\":9305:9314   */\n  dup6\n    /* \"#utility.yul\":9301:9319   */\n  add\n    /* \"#utility.yul\":9288:9319   */\n  swap5\n  pop\n    /* \"#utility.yul\":9162:9166   */\n  0x20\n    /* \"#utility.yul\":9159:9160   */\n  dup2\n    /* \"#utility.yul\":9155:9167   */\n  add\n    /* \"#utility.yul\":9150:9167   */\n  swap1\n  pop\n    /* \"#utility.yul\":9125:9333   */\n  jump(tag_211)\ntag_213:\n    /* \"#utility.yul\":9361:9367   */\n  dup7\n    /* \"#utility.yul\":9352:9359   */\n  dup4\n    /* \"#utility.yul\":9349:9368   */\n  lt\n    /* \"#utility.yul\":9346:9525   */\n  iszero\n  tag_214\n  jumpi\n    /* \"#utility.yul\":9419:9428   */\n  dup5\n    /* \"#utility.yul\":9414:9417   */\n  dup10\n    /* \"#utility.yul\":9410:9429   */\n  add\n    /* \"#utility.yul\":9404:9430   */\n  mload\n    /* \"#utility.yul\":9462:9510   */\n  tag_215\n    /* \"#utility.yul\":9504:9508   */\n  0x1f\n    /* \"#utility.yul\":9496:9502   */\n  dup10\n    /* \"#utility.yul\":9492:9509   */\n  and\n    /* \"#utility.yul\":9481:9490   */\n  dup3\n    /* \"#utility.yul\":9462:9510   */\n  tag_89\n  jump\t// in\ntag_215:\n    /* \"#utility.yul\":9454:9460   */\n  dup4\n    /* \"#utility.yul\":9447:9511   */\n  sstore\n    /* \"#utility.yul\":9369:9525   */\n  pop\n    /* \"#utility.yul\":9346:9525   */\ntag_214:\n    /* \"#utility.yul\":9571:9572   */\n  0x01\n    /* \"#utility.yul\":9567:9568   */\n  0x02\n    /* \"#utility.yul\":9559:9565   */\n  dup9\n    /* \"#utility.yul\":9555:9569   */\n  mul\n    /* \"#utility.yul\":9551:9573   */\n  add\n    /* \"#utility.yul\":9545:9549   */\n  dup9\n    /* \"#utility.yul\":9538:9574   */\n  sstore\n    /* \"#utility.yul\":8973:9584   */\n  pop\n  pop\n  pop\n    /* \"#utility.yul\":8936:9823   */\ntag_206:\n  pop\n    /* \"#utility.yul\":8526:9829   */\n  pop\n  pop\n  pop\n    /* \"#utility.yul\":8434:9829   */\n  pop\n  pop\n  jump\t// out\n    /* \"#utility.yul\":9835:9920   */\ntag_91:\n    /* \"#utility.yul\":9880:9887   */\n  0x00\n    /* \"#utility.yul\":9909:9914   */\n  dup2\n    /* \"#utility.yul\":9898:9914   */\n  swap1\n  pop\n    /* \"#utility.yul\":9835:9920   */\n  swap2\n  swap1\n  pop\n  jump\t// out\n    /* \"#utility.yul\":9926:10084   */\ntag_92:\n    /* \"#utility.yul\":9984:9993   */\n  0x00\n    /* \"#utility.yul\":10017:10078   */\n  tag_218\n    /* \"#utility.yul\":10035:10077   */\n  tag_219\n    /* \"#utility.yul\":10044:10076   */\n  tag_220\n    /* \"#utility.yul\":10070:10075   */\n  dup5\n    /* \"#utility.yul\":10044:10076   */\n  tag_91\n  jump\t// in\ntag_220:\n    /* \"#utility.yul\":10035:10077   */\n  tag_80\n  jump\t// in\ntag_219:\n    /* \"#utility.yul\":10017:10078   */\n  tag_66\n  jump\t// in\ntag_218:\n    /* \"#utility.yul\":10004:10078   */\n  swap1\n  pop\n    /* \"#utility.yul\":9926:10084   */\n  swap2\n  swap1\n  pop\n  jump\t// out\n    /* \"#utility.yul\":10090:10237   */\ntag_93:\n    /* \"#utility.yul\":10185:10230   */\n  tag_222\n    /* \"#utility.yul\":10224:10229   */\n  dup2\n    /* \"#utility.yul\":10185:10230   */\n  tag_92\n  jump\t// in\ntag_222:\n    /* \"#utility.yul\":10180:10183   */\n  dup3\n    /* \"#utility.yul\":10173:10231   */\n  mstore\n    /* \"#utility.yul\":10090:10237   */\n  pop\n  pop\n  jump\t// out\n    /* \"#utility.yul\":10243:10481   */\ntag_16:\n    /* \"#utility.yul\":10344:10348   */\n  0x00\n    /* \"#utility.yul\":10382:10384   */\n  0x20\n    /* \"#utility.yul\":10371:10380   */\n  dup3\n    /* \"#utility.yul\":10367:10385   */\n  add\n    /* \"#utility.yul\":10359:10385   */\n  swap1\n  pop\n    /* \"#utility.yul\":10395:10474   */\n  tag_224\n    /* \"#utility.yul\":10471:10472   */\n  0x00\n    /* \"#utility.yul\":10460:10469   */\n  dup4\n    /* \"#utility.yul\":10456:10473   */\n  add\n    /* \"#utility.yul\":10447:10453   */\n  dup5\n    /* \"#utility.yul\":10395:10474   */\n  tag_93\n  jump\t// in\ntag_224:\n    /* \"#utility.yul\":10243:10481   */\n  swap3\n  swap2\n  pop\n  pop\n  jump\t// out\n    /* \"#utility.yul\":10487:10605   */\ntag_94:\n    /* \"#utility.yul\":10574:10598   */\n  tag_226\n    /* \"#utility.yul\":10592:10597   */\n  dup2\n    /* \"#utility.yul\":10574:10598   */\n  tag_70\n  jump\t// in\ntag_226:\n    /* \"#utility.yul\":10569:10572   */\n  dup3\n    /* \"#utility.yul\":10562:10599   */\n  mstore\n    /* \"#utility.yul\":10487:10605   */\n  pop\n  pop\n  jump\t// out\n    /* \"#utility.yul\":10611:10833   */\ntag_42:\n    /* \"#utility.yul\":10704:10708   */\n  0x00\n    /* \"#utility.yul\":10742:10744   */\n  0x20\n    /* \"#utility.yul\":10731:10740   */\n  dup3\n    /* \"#utility.yul\":10727:10745   */\n  add\n    /* \"#utility.yul\":10719:10745   */\n  swap1\n  pop\n    /* \"#utility.yul\":10755:10826   */\n  tag_228\n    /* \"#utility.yul\":10823:10824   */\n  0x00\n    /* \"#utility.yul\":10812:10821   */\n  dup4\n    /* \"#utility.yul\":10808:10825   */\n  add\n    /* \"#utility.yul\":10799:10805   */\n  dup5\n    /* \"#utility.yul\":10755:10826   */\n  tag_94\n  jump\t// in\ntag_228:\n    /* \"#utility.yul\":10611:10833   */\n  swap3\n  swap2\n  pop\n  pop\n  jump\t// out\n    /* \"#utility.yul\":10839:11008   */\ntag_95:\n    /* \"#utility.yul\":10923:10934   */\n  0x00\n    /* \"#utility.yul\":10957:10963   */\n  dup3\n    /* \"#utility.yul\":10952:10955   */\n  dup3\n    /* \"#utility.yul\":10945:10964   */\n  mstore\n    /* \"#utility.yul\":10997:11001   */\n  0x20\n    /* \"#utility.yul\":10992:10995   */\n  dup3\n    /* \"#utility.yul\":10988:11002   */\n  add\n    /* \"#utility.yul\":10973:11002   */\n  swap1\n  pop\n    /* \"#utility.yul\":10839:11008   */\n  swap3\n  swap2\n  pop\n  pop\n  jump\t// out\n    /* \"#utility.yul\":11014:11180   */\ntag_96:\n    /* \"#utility.yul\":11154:11172   */\n  0x5061757361626c653a2070617573656400000000000000000000000000000000\n    /* \"#utility.yul\":11150:11151   */\n  0x00\n    /* \"#utility.yul\":11142:11148   */\n  dup3\n    /* \"#utility.yul\":11138:11152   */\n  add\n    /* \"#utility.yul\":11131:11173   */\n  mstore\n    /* \"#utility.yul\":11014:11180   */\n  pop\n  jump\t// out\n    /* \"#utility.yul\":11186:11552   */\ntag_97:\n    /* \"#utility.yul\":11328:11331   */\n  0x00\n    /* \"#utility.yul\":11349:11416   */\n  tag_232\n    /* \"#utility.yul\":11413:11415   */\n  0x10\n    /* \"#utility.yul\":11408:11411   */\n  dup4\n    /* \"#utility.yul\":11349:11416   */\n  tag_95\n  jump\t// in\ntag_232:\n    /* \"#utility.yul\":11342:11416   */\n  swap2\n  pop\n    /* \"#utility.yul\":11425:11518   */\n  tag_233\n    /* \"#utility.yul\":11514:11517   */\n  dup3\n    /* \"#utility.yul\":11425:11518   */\n  tag_96\n  jump\t// in\ntag_233:\n    /* \"#utility.yul\":11543:11545   */\n  0x20\n    /* \"#utility.yul\":11538:11541   */\n  dup3\n    /* \"#utility.yul\":11534:11546   */\n  add\n    /* \"#utility.yul\":11527:11546   */\n  swap1\n  pop\n    /* \"#utility.yul\":11186:11552   */\n  swap2\n  swap1\n  pop\n  jump\t// out\n    /* \"#utility.yul\":11558:11977   */\ntag_51:\n    /* \"#utility.yul\":11724:11728   */\n  0x00\n    /* \"#utility.yul\":11762:11764   */\n  0x20\n    /* \"#utility.yul\":11751:11760   */\n  dup3\n    /* \"#utility.yul\":11747:11765   */\n  add\n    /* \"#utility.yul\":11739:11765   */\n  swap1\n  pop\n    /* \"#utility.yul\":11811:11820   */\n  dup2\n    /* \"#utility.yul\":11805:11809   */\n  dup2\n    /* \"#utility.yul\":11801:11821   */\n  sub\n    /* \"#utility.yul\":11797:11798   */\n  0x00\n    /* \"#utility.yul\":11786:11795   */\n  dup4\n    /* \"#utility.yul\":11782:11799   */\n  add\n    /* \"#utility.yul\":11775:11822   */\n  mstore\n    /* \"#utility.yul\":11839:11970   */\n  tag_235\n    /* \"#utility.yul\":11965:11969   */\n  dup2\n    /* \"#utility.yul\":11839:11970   */\n  tag_97\n  jump\t// in\ntag_235:\n    /* \"#utility.yul\":11831:11970   */\n  swap1\n  pop\n    /* \"#utility.yul\":11558:11977   */\n  swap2\n  swap1\n  pop\n  jump\t// out\n    /* \"contracts/ub.sol\":526:5126  contract Unibase is Pausable, ERC20Capped, AccessControl {... */\ntag_25:\n  mload(0x80)\n  codecopy(0x00, dataOffset(sub_0), dataSize(sub_0))\n  0x00\n  assignImmutable(\"0x4a12ea77a1a063f26028f31dc447cd01a6aae44cbd0d238cbc76d74f2d67dabb\")\n  return(0x00, dataSize(sub_0))\nstop\n\nsub_0: assembly {\n        /* \"contracts/ub.sol\":526:5126  contract Unibase is Pausable, ERC20Capped, AccessControl {... */\n      mstore(0x40, 0x80)\n      callvalue\n      dup1\n      iszero\n      tag_1\n      jumpi\n      0x00\n      dup1\n      revert\n    tag_1:\n      pop\n      jumpi(tag_2, lt(calldatasize, 0x04))\n      shr(0xe0, calldataload(0x00))\n      dup1\n      0x5c975abb\n      gt\n      tag_31\n      jumpi\n      dup1\n      0xa9059cbb\n      gt\n      tag_32\n      jumpi\n      dup1\n      0xdd62ed3e\n      gt\n      tag_33\n      jumpi\n      dup1\n      0xdd62ed3e\n      eq\n      tag_27\n      jumpi\n      dup1\n      0xe43252d7\n      eq\n      tag_28\n      jumpi\n      dup1\n      0xe63ab1e9\n      eq\n      tag_29\n      jumpi\n      dup1\n      0xfca3b5aa\n      eq\n      tag_30\n      jumpi\n      jump(tag_2)\n    tag_33:\n      dup1\n      0xa9059cbb\n      eq\n      tag_24\n      jumpi\n      dup1\n      0xd5391393\n      eq\n      tag_25\n      jumpi\n      dup1\n      0xd547741f\n      eq\n      tag_26\n      jumpi\n      jump(tag_2)\n    tag_32:\n      dup1\n      0x8ab1d681\n      gt\n      tag_34\n      jumpi\n      dup1\n      0x8ab1d681\n      eq\n      tag_20\n      jumpi\n      dup1\n      0x91d14854\n      eq\n      tag_21\n      jumpi\n      dup1\n      0x95d89b41\n      eq\n      tag_22\n      jumpi\n      dup1\n      0xa217fddf\n      eq\n      tag_23\n      jumpi\n      jump(tag_2)\n    tag_34:\n      dup1\n      0x5c975abb\n      eq\n      tag_17\n      jumpi\n      dup1\n      0x70a08231\n      eq\n      tag_18\n      jumpi\n      dup1\n      0x8456cb59\n      eq\n      tag_19\n      jumpi\n      jump(tag_2)\n    tag_31:\n      dup1\n      0x2f2ff15d\n      gt\n      tag_35\n      jumpi\n      dup1\n      0x36568abe\n      gt\n      tag_36\n      jumpi\n      dup1\n      0x36568abe\n      eq\n      tag_13\n      jumpi\n      dup1\n      0x3af32abf\n      eq\n      tag_14\n      jumpi\n      dup1\n      0x3f4ba83a\n      eq\n      tag_15\n      jumpi\n      dup1\n      0x40c10f19\n      eq\n      tag_16\n      jumpi\n      jump(tag_2)\n    tag_36:\n      dup1\n      0x2f2ff15d\n      eq\n      tag_10\n      jumpi\n      dup1\n      0x313ce567\n      eq\n      tag_11\n      jumpi\n      dup1\n      0x355274ea\n      eq\n      tag_12\n      jumpi\n      jump(tag_2)\n    tag_35:\n      dup1\n      0x1171bda9\n      gt\n      tag_37\n      jumpi\n      dup1\n      0x1171bda9\n      eq\n      tag_6\n      jumpi\n      dup1\n      0x18160ddd\n      eq\n      tag_7\n      jumpi\n      dup1\n      0x23b872dd\n      eq\n      tag_8\n      jumpi\n      dup1\n      0x248a9ca3\n      eq\n      tag_9\n      jumpi\n      jump(tag_2)\n    tag_37:\n      dup1\n      0x01ffc9a7\n      eq\n      tag_3\n      jumpi\n      dup1\n      0x06fdde03\n      eq\n      tag_4\n      jumpi\n      dup1\n      0x095ea7b3\n      eq\n      tag_5\n      jumpi\n    tag_2:\n      0x00\n      dup1\n      revert\n        /* \"@openzeppelin/contracts/access/AccessControl.sol\":2541:2743  function supportsInterface(bytes4 interfaceId) public view virtual override returns (bool) {... */\n    tag_3:\n      tag_38\n      0x04\n      dup1\n      calldatasize\n      sub\n      dup2\n      add\n      swap1\n      tag_39\n      swap2\n      swap1\n      tag_40\n      jump\t// in\n    tag_39:\n      tag_41\n      jump\t// in\n    tag_38:\n      mload(0x40)\n      tag_42\n      swap2\n      swap1\n      tag_43\n      jump\t// in\n    tag_42:\n      mload(0x40)\n      dup1\n      swap2\n      sub\n      swap1\n      return\n        /* \"@openzeppelin/contracts/token/ERC20/ERC20.sol\":1760:1849  function name() public view virtual returns (string memory) {... */\n    tag_4:\n      tag_44\n      tag_45\n      jump\t// in\n    tag_44:\n      mload(0x40)\n      tag_46\n      swap2\n      swap1\n      tag_47\n      jump\t// in\n    tag_46:\n      mload(0x40)\n      dup1\n      swap2\n      sub\n      swap1\n      return\n        /* \"@openzeppelin/contracts/token/ERC20/ERC20.sol\":3902:4088  function approve(address spender, uint256 value) public virtual returns (bool) {... */\n    tag_5:\n      tag_48\n      0x04\n      dup1\n      calldatasize\n      sub\n      dup2\n      add\n      swap1\n      tag_49\n      swap2\n      swap1\n      tag_50\n      jump\t// in\n    tag_49:\n      tag_51\n      jump\t// in\n    tag_48:\n      mload(0x40)\n      tag_52\n      swap2\n      swap1\n      tag_43\n      jump\t// in\n    tag_52:\n      mload(0x40)\n      dup1\n      swap2\n      sub\n      swap1\n      return\n        /* \"contracts/ub.sol\":4625:5124  function recoverERC20(... */\n    tag_6:\n      tag_53\n      0x04\n      dup1\n      calldatasize\n      sub\n      dup2\n      add\n      swap1\n      tag_54\n      swap2\n      swap1\n      tag_55\n      jump\t// in\n    tag_54:\n      tag_56\n      jump\t// in\n    tag_53:\n      stop\n        /* \"@openzeppelin/contracts/token/ERC20/ERC20.sol\":2803:2900  function totalSupply() public view virtual returns (uint256) {... */\n    tag_7:\n      tag_57\n      tag_58\n      jump\t// in\n    tag_57:\n      mload(0x40)\n      tag_59\n      swap2\n      swap1\n      tag_60\n      jump\t// in\n    tag_59:\n      mload(0x40)\n      dup1\n      swap2\n      sub\n      swap1\n      return\n        /* \"@openzeppelin/contracts/token/ERC20/ERC20.sol\":4680:4924  function transferFrom(address from, address to, uint256 value) public virtual returns (bool) {... */\n    tag_8:\n      tag_61\n      0x04\n      dup1\n      calldatasize\n      sub\n      dup2\n      add\n      swap1\n      tag_62\n      swap2\n      swap1\n      tag_55\n      jump\t// in\n    tag_62:\n      tag_63\n      jump\t// in\n    tag_61:\n      mload(0x40)\n      tag_64\n      swap2\n      swap1\n      tag_43\n      jump\t// in\n    tag_64:\n      mload(0x40)\n      dup1\n      swap2\n      sub\n      swap1\n      return\n        /* \"@openzeppelin/contracts/access/AccessControl.sol\":3786:3906  function getRoleAdmin(bytes32 role) public view virtual returns (bytes32) {... */\n    tag_9:\n      tag_65\n      0x04\n      dup1\n      calldatasize\n      sub\n      dup2\n      add\n      swap1\n      tag_66\n      swap2\n      swap1\n      tag_67\n      jump\t// in\n    tag_66:\n      tag_68\n      jump\t// in\n    tag_65:\n      mload(0x40)\n      tag_69\n      swap2\n      swap1\n      tag_70\n      jump\t// in\n    tag_69:\n      mload(0x40)\n      dup1\n      swap2\n      sub\n      swap1\n      return\n        /* \"@openzeppelin/contracts/access/AccessControl.sol\":4202:4338  function grantRole(bytes32 role, address account) public virtual onlyRole(getRoleAdmin(role)) {... */\n    tag_10:\n      tag_71\n      0x04\n      dup1\n      calldatasize\n      sub\n      dup2\n      add\n      swap1\n      tag_72\n      swap2\n      swap1\n      tag_73\n      jump\t// in\n    tag_72:\n      tag_74\n      jump\t// in\n    tag_71:\n      stop\n        /* \"@openzeppelin/contracts/token/ERC20/ERC20.sol\":2688:2770  function decimals() public view virtual returns (uint8) {... */\n    tag_11:\n      tag_75\n      tag_76\n      jump\t// in\n    tag_75:\n      mload(0x40)\n      tag_77\n      swap2\n      swap1\n      tag_78\n      jump\t// in\n    tag_77:\n      mload(0x40)\n      dup1\n      swap2\n      sub\n      swap1\n      return\n        /* \"@openzeppelin/contracts/token/ERC20/extensions/ERC20Capped.sol\":923:1004  function cap() public view virtual returns (uint256) {... */\n    tag_12:\n      tag_79\n      tag_80\n      jump\t// in\n    tag_79:\n      mload(0x40)\n      tag_81\n      swap2\n      swap1\n      tag_60\n      jump\t// in\n    tag_81:\n      mload(0x40)\n      dup1\n      swap2\n      sub\n      swap1\n      return\n        /* \"@openzeppelin/contracts/access/AccessControl.sol\":5304:5549  function renounceRole(bytes32 role, address callerConfirmation) public virtual {... */\n    tag_13:\n      tag_82\n      0x04\n      dup1\n      calldatasize\n      sub\n      dup2\n      add\n      swap1\n      tag_83\n      swap2\n      swap1\n      tag_73\n      jump\t// in\n    tag_83:\n      tag_84\n      jump\t// in\n    tag_82:\n      stop\n        /* \"contracts/ub.sol\":2716:2832  function isWhitelisted(address account) external view returns (bool) {... */\n    tag_14:\n      tag_85\n      0x04\n      dup1\n      calldatasize\n      sub\n      dup2\n      add\n      swap1\n      tag_86\n      swap2\n      swap1\n      tag_87\n      jump\t// in\n    tag_86:\n      tag_88\n      jump\t// in\n    tag_85:\n      mload(0x40)\n      tag_89\n      swap2\n      swap1\n      tag_43\n      jump\t// in\n    tag_89:\n      mload(0x40)\n      dup1\n      swap2\n      sub\n      swap1\n      return\n        /* \"contracts/ub.sol\":1874:1951  function unpause() external onlyRole(PAUSER_ROLE) {... */\n    tag_15:\n      tag_90\n      tag_91\n      jump\t// in\n    tag_90:\n      stop\n        /* \"contracts/ub.sol\":2498:2605  function mint(address to, uint256 amount) external onlyRole(MINTER_ROLE) {... */\n    tag_16:\n      tag_92\n      0x04\n      dup1\n      calldatasize\n      sub\n      dup2\n      add\n      swap1\n      tag_93\n      swap2\n      swap1\n      tag_50\n      jump\t// in\n    tag_93:\n      tag_94\n      jump\t// in\n    tag_92:\n      stop\n        /* \"@openzeppelin/contracts/security/Pausable.sol\":1615:1699  function paused() public view virtual returns (bool) {... */\n    tag_17:\n      tag_95\n      tag_96\n      jump\t// in\n    tag_95:\n      mload(0x40)\n      tag_97\n      swap2\n      swap1\n      tag_43\n      jump\t// in\n    tag_97:\n      mload(0x40)\n      dup1\n      swap2\n      sub\n      swap1\n      return\n        /* \"@openzeppelin/contracts/token/ERC20/ERC20.sol\":2933:3049  function balanceOf(address account) public view virtual returns (uint256) {... */\n    tag_18:\n      tag_98\n      0x04\n      dup1\n      calldatasize\n      sub\n      dup2\n      add\n      swap1\n      tag_99\n      swap2\n      swap1\n      tag_87\n      jump\t// in\n    tag_99:\n      tag_100\n      jump\t// in\n    tag_98:\n      mload(0x40)\n      tag_101\n      swap2\n      swap1\n      tag_60\n      jump\t// in\n    tag_101:\n      mload(0x40)\n      dup1\n      swap2\n      sub\n      swap1\n      return\n        /* \"contracts/ub.sol\":1711:1784  function pause() external onlyRole(PAUSER_ROLE) {... */\n    tag_19:\n      tag_102\n      tag_103\n      jump\t// in\n    tag_102:\n      stop\n        /* \"contracts/ub.sol\":3316:3582  function removeFromWhitelist(... */\n    tag_20:\n      tag_104\n      0x04\n      dup1\n      calldatasize\n      sub\n      dup2\n      add\n      swap1\n      tag_105\n      swap2\n      swap1\n      tag_87\n      jump\t// in\n    tag_105:\n      tag_106\n      jump\t// in\n    tag_104:\n      stop\n        /* \"@openzeppelin/contracts/access/AccessControl.sol\":2830:2966  function hasRole(bytes32 role, address account) public view virtual returns (bool) {... */\n    tag_21:\n      tag_107\n      0x04\n      dup1\n      calldatasize\n      sub\n      dup2\n      add\n      swap1\n      tag_108\n      swap2\n      swap1\n      tag_73\n      jump\t// in\n    tag_108:\n      tag_109\n      jump\t// in\n    tag_107:\n      mload(0x40)\n      tag_110\n      swap2\n      swap1\n      tag_43\n      jump\t// in\n    tag_110:\n      mload(0x40)\n      dup1\n      swap2\n      sub\n      swap1\n      return\n        /* \"@openzeppelin/contracts/token/ERC20/ERC20.sol\":1962:2055  function symbol() public view virtual returns (string memory) {... */\n    tag_22:\n      tag_111\n      tag_112\n      jump\t// in\n    tag_111:\n      mload(0x40)\n      tag_113\n      swap2\n      swap1\n      tag_47\n      jump\t// in\n    tag_113:\n      mload(0x40)\n      dup1\n      swap2\n      sub\n      swap1\n      return\n        /* \"@openzeppelin/contracts/access/AccessControl.sol\":2196:2245  bytes32 public constant DEFAULT_ADMIN_ROLE = 0x00 */\n    tag_23:\n      tag_114\n      tag_115\n      jump\t// in\n    tag_114:\n      mload(0x40)\n      tag_116\n      swap2\n      swap1\n      tag_70\n      jump\t// in\n    tag_116:\n      mload(0x40)\n      dup1\n      swap2\n      sub\n      swap1\n      return\n        /* \"@openzeppelin/contracts/token/ERC20/ERC20.sol\":3244:3422  function transfer(address to, uint256 value) public virtual returns (bool) {... */\n    tag_24:\n      tag_117\n      0x04\n      dup1\n      calldatasize\n      sub\n      dup2\n      add\n      swap1\n      tag_118\n      swap2\n      swap1\n      tag_50\n      jump\t// in\n    tag_118:\n      tag_119\n      jump\t// in\n    tag_117:\n      mload(0x40)\n      tag_120\n      swap2\n      swap1\n      tag_43\n      jump\t// in\n    tag_120:\n      mload(0x40)\n      dup1\n      swap2\n      sub\n      swap1\n      return\n        /* \"contracts/ub.sol\":589:651  bytes32 public constant MINTER_ROLE = keccak256(\"MINTER_ROLE\") */\n    tag_25:\n      tag_121\n      tag_122\n      jump\t// in\n    tag_121:\n      mload(0x40)\n      tag_123\n      swap2\n      swap1\n      tag_70\n      jump\t// in\n    tag_123:\n      mload(0x40)\n      dup1\n      swap2\n      sub\n      swap1\n      return\n        /* \"@openzeppelin/contracts/access/AccessControl.sol\":4618:4756  function revokeRole(bytes32 role, address account) public virtual onlyRole(getRoleAdmin(role)) {... */\n    tag_26:\n      tag_124\n      0x04\n      dup1\n      calldatasize\n      sub\n      dup2\n      add\n      swap1\n      tag_125\n      swap2\n      swap1\n      tag_73\n      jump\t// in\n    tag_125:\n      tag_126\n      jump\t// in\n    tag_124:\n      stop\n        /* \"@openzeppelin/contracts/token/ERC20/ERC20.sol\":3455:3595  function allowance(address owner, address spender) public view virtual returns (uint256) {... */\n    tag_27:\n      tag_127\n      0x04\n      dup1\n      calldatasize\n      sub\n      dup2\n      add\n      swap1\n      tag_128\n      swap2\n      swap1\n      tag_129\n      jump\t// in\n    tag_128:\n      tag_130\n      jump\t// in\n    tag_127:\n      mload(0x40)\n      tag_131\n      swap2\n      swap1\n      tag_60\n      jump\t// in\n    tag_131:\n      mload(0x40)\n      dup1\n      swap2\n      sub\n      swap1\n      return\n        /* \"contracts/ub.sol\":2948:3190  function addToWhitelist(address account) external onlyRole(PAUSER_ROLE) {... */\n    tag_28:\n      tag_132\n      0x04\n      dup1\n      calldatasize\n      sub\n      dup2\n      add\n      swap1\n      tag_133\n      swap2\n      swap1\n      tag_87\n      jump\t// in\n    tag_133:\n      tag_134\n      jump\t// in\n    tag_132:\n      stop\n        /* \"contracts/ub.sol\":658:720  bytes32 public constant PAUSER_ROLE = keccak256(\"PAUSER_ROLE\") */\n    tag_29:\n      tag_135\n      tag_136\n      jump\t// in\n    tag_135:\n      mload(0x40)\n      tag_137\n      swap2\n      swap1\n      tag_70\n      jump\t// in\n    tag_137:\n      mload(0x40)\n      dup1\n      swap2\n      sub\n      swap1\n      return\n        /* \"contracts/ub.sol\":2111:2304  function setMinter(address minter) external onlyRole(DEFAULT_ADMIN_ROLE) {... */\n    tag_30:\n      tag_138\n      0x04\n      dup1\n      calldatasize\n      sub\n      dup2\n      add\n      swap1\n      tag_139\n      swap2\n      swap1\n      tag_87\n      jump\t// in\n    tag_139:\n      tag_140\n      jump\t// in\n    tag_138:\n      stop\n        /* \"@openzeppelin/contracts/access/AccessControl.sol\":2541:2743  function supportsInterface(bytes4 interfaceId) public view virtual override returns (bool) {... */\n    tag_41:\n        /* \"@openzeppelin/contracts/access/AccessControl.sol\":2626:2630  bool */\n      0x00\n        /* \"@openzeppelin/contracts/access/AccessControl.sol\":2664:2696  type(IAccessControl).interfaceId */\n      0x7965db0b00000000000000000000000000000000000000000000000000000000\n        /* \"@openzeppelin/contracts/access/AccessControl.sol\":2649:2696  interfaceId == type(IAccessControl).interfaceId */\n      not(0xffffffffffffffffffffffffffffffffffffffffffffffffffffffff)\n      and\n        /* \"@openzeppelin/contracts/access/AccessControl.sol\":2649:2660  interfaceId */\n      dup3\n        /* \"@openzeppelin/contracts/access/AccessControl.sol\":2649:2696  interfaceId == type(IAccessControl).interfaceId */\n      not(0xffffffffffffffffffffffffffffffffffffffffffffffffffffffff)\n      and\n      eq\n        /* \"@openzeppelin/contracts/access/AccessControl.sol\":2649:2736  interfaceId == type(IAccessControl).interfaceId || super.supportsInterface(interfaceId) */\n      dup1\n      tag_142\n      jumpi\n      pop\n        /* \"@openzeppelin/contracts/access/AccessControl.sol\":2700:2736  super.supportsInterface(interfaceId) */\n      tag_143\n        /* \"@openzeppelin/contracts/access/AccessControl.sol\":2724:2735  interfaceId */\n      dup3\n        /* \"@openzeppelin/contracts/access/AccessControl.sol\":2700:2723  super.supportsInterface */\n      tag_144\n        /* \"@openzeppelin/contracts/access/AccessControl.sol\":2700:2736  super.supportsInterface(interfaceId) */\n      jump\t// in\n    tag_143:\n        /* \"@openzeppelin/contracts/access/AccessControl.sol\":2649:2736  interfaceId == type(IAccessControl).interfaceId || super.supportsInterface(interfaceId) */\n    tag_142:\n        /* \"@openzeppelin/contracts/access/AccessControl.sol\":2642:2736  return interfaceId == type(IAccessControl).interfaceId || super.supportsInterface(interfaceId) */\n      swap1\n      pop\n        /* \"@openzeppelin/contracts/access/AccessControl.sol\":2541:2743  function supportsInterface(bytes4 interfaceId) public view virtual override returns (bool) {... */\n      swap2\n      swap1\n      pop\n      jump\t// out\n        /* \"@openzeppelin/contracts/token/ERC20/ERC20.sol\":1760:1849  function name() public view virtual returns (string memory) {... */\n    tag_45:\n        /* \"@openzeppelin/contracts/token/ERC20/ERC20.sol\":1805:1818  string memory */\n      0x60\n        /* \"@openzeppelin/contracts/token/ERC20/ERC20.sol\":1837:1842  _name */\n      0x04\n        /* \"@openzeppelin/contracts/token/ERC20/ERC20.sol\":1830:1842  return _name */\n      dup1\n      sload\n      tag_146\n      swap1\n      tag_147\n      jump\t// in\n    tag_146:\n      dup1\n      0x1f\n      add\n      0x20\n      dup1\n      swap2\n      div\n      mul\n      0x20\n      add\n      mload(0x40)\n      swap1\n      dup2\n      add\n      0x40\n      mstore\n      dup1\n      swap3\n      swap2\n      swap1\n      dup2\n      dup2\n      mstore\n      0x20\n      add\n      dup3\n      dup1\n      sload\n      tag_148\n      swap1\n      tag_147\n      jump\t// in\n    tag_148:\n      dup1\n      iszero\n      tag_149\n      jumpi\n      dup1\n      0x1f\n      lt\n      tag_150\n      jumpi\n      0x0100\n      dup1\n      dup4\n      sload\n      div\n      mul\n      dup4\n      mstore\n      swap2\n      0x20\n      add\n      swap2\n      jump(tag_149)\n    tag_150:\n      dup3\n      add\n      swap2\n      swap1\n      0x00\n      mstore\n      keccak256(0x00, 0x20)\n      swap1\n    tag_151:\n      dup2\n      sload\n      dup2\n      mstore\n      swap1\n      0x01\n      add\n      swap1\n      0x20\n      add\n      dup1\n      dup4\n      gt\n      tag_151\n      jumpi\n      dup3\n      swap1\n      sub\n      0x1f\n      and\n      dup3\n      add\n      swap2\n    tag_149:\n      pop\n      pop\n      pop\n      pop\n      pop\n      swap1\n      pop\n        /* \"@openzeppelin/contracts/token/ERC20/ERC20.sol\":1760:1849  function name() public view virtual returns (string memory) {... */\n      swap1\n      jump\t// out\n        /* \"@openzeppelin/contracts/token/ERC20/ERC20.sol\":3902:4088  function approve(address spender, uint256 value) public virtual returns (bool) {... */\n    tag_51:\n        /* \"@openzeppelin/contracts/token/ERC20/ERC20.sol\":3975:3979  bool */\n      0x00\n        /* \"@openzeppelin/contracts/token/ERC20/ERC20.sol\":3991:4004  address owner */\n      dup1\n        /* \"@openzeppelin/contracts/token/ERC20/ERC20.sol\":4007:4019  _msgSender() */\n      tag_153\n        /* \"@openzeppelin/contracts/token/ERC20/ERC20.sol\":4007:4017  _msgSender */\n      tag_154\n        /* \"@openzeppelin/contracts/token/ERC20/ERC20.sol\":4007:4019  _msgSender() */\n      jump\t// in\n    tag_153:\n        /* \"@openzeppelin/contracts/token/ERC20/ERC20.sol\":3991:4019  address owner = _msgSender() */\n      swap1\n      pop\n        /* \"@openzeppelin/contracts/token/ERC20/ERC20.sol\":4029:4060  _approve(owner, spender, value) */\n      tag_155\n        /* \"@openzeppelin/contracts/token/ERC20/ERC20.sol\":4038:4043  owner */\n      dup2\n        /* \"@openzeppelin/contracts/token/ERC20/ERC20.sol\":4045:4052  spender */\n      dup6\n        /* \"@openzeppelin/contracts/token/ERC20/ERC20.sol\":4054:4059  value */\n      dup6\n        /* \"@openzeppelin/contracts/token/ERC20/ERC20.sol\":4029:4037  _approve */\n      tag_156\n        /* \"@openzeppelin/contracts/token/ERC20/ERC20.sol\":4029:4060  _approve(owner, spender, value) */\n      jump\t// in\n    tag_155:\n        /* \"@openzeppelin/contracts/token/ERC20/ERC20.sol\":4077:4081  true */\n      0x01\n        /* \"@openzeppelin/contracts/token/ERC20/ERC20.sol\":4070:4081  return true */\n      swap2\n      pop\n      pop\n        /* \"@openzeppelin/contracts/token/ERC20/ERC20.sol\":3902:4088  function approve(address spender, uint256 value) public virtual returns (bool) {... */\n      swap3\n      swap2\n      pop\n      pop\n      jump\t// out\n        /* \"contracts/ub.sol\":4625:5124  function recoverERC20(... */\n    tag_56:\n        /* \"@openzeppelin/contracts/access/AccessControl.sol\":2241:2245  0x00 */\n      0x00\n        /* \"contracts/ub.sol\":4738:4756  DEFAULT_ADMIN_ROLE */\n      dup1\n      shl\n        /* \"@openzeppelin/contracts/access/AccessControl.sol\":2473:2489  _checkRole(role) */\n      tag_158\n        /* \"@openzeppelin/contracts/access/AccessControl.sol\":2484:2488  role */\n      dup2\n        /* \"@openzeppelin/contracts/access/AccessControl.sol\":2473:2483  _checkRole */\n      tag_159\n        /* \"@openzeppelin/contracts/access/AccessControl.sol\":2473:2489  _checkRole(role) */\n      jump\t// in\n    tag_158:\n        /* \"contracts/ub.sol\":4790:4791  0 */\n      0x00\n        /* \"contracts/ub.sol\":4776:4792  to != address(0) */\n      0xffffffffffffffffffffffffffffffffffffffff\n      and\n        /* \"contracts/ub.sol\":4776:4778  to */\n      dup4\n        /* \"contracts/ub.sol\":4776:4792  to != address(0) */\n      0xffffffffffffffffffffffffffffffffffffffff\n      and\n      sub\n        /* \"contracts/ub.sol\":4768:4824  require(to != address(0), \"cannot send to zero address\") */\n      tag_161\n      jumpi\n      mload(0x40)\n      0x08c379a000000000000000000000000000000000000000000000000000000000\n      dup2\n      mstore\n      0x04\n      add\n      tag_162\n      swap1\n      tag_163\n      jump\t// in\n    tag_162:\n      mload(0x40)\n      dup1\n      swap2\n      sub\n      swap1\n      revert\n    tag_161:\n        /* \"contracts/ub.sol\":4859:4860  0 */\n      0x00\n        /* \"contracts/ub.sol\":4842:4861  token != address(0) */\n      0xffffffffffffffffffffffffffffffffffffffff\n      and\n        /* \"contracts/ub.sol\":4842:4847  token */\n      dup5\n        /* \"contracts/ub.sol\":4842:4861  token != address(0) */\n      0xffffffffffffffffffffffffffffffffffffffff\n      and\n      sub\n        /* \"contracts/ub.sol\":4834:4894  require(token != address(0), \"token address cannot be zero\") */\n      tag_164\n      jumpi\n      mload(0x40)\n      0x08c379a000000000000000000000000000000000000000000000000000000000\n      dup2\n      mstore\n      0x04\n      add\n      tag_165\n      swap1\n      tag_166\n      jump\t// in\n    tag_165:\n      mload(0x40)\n      dup1\n      swap2\n      sub\n      swap1\n      revert\n    tag_164:\n        /* \"contracts/ub.sol\":4921:4922  0 */\n      0x00\n        /* \"contracts/ub.sol\":4912:4918  amount */\n      dup3\n        /* \"contracts/ub.sol\":4912:4922  amount > 0 */\n      gt\n        /* \"contracts/ub.sol\":4904:4959  require(amount > 0, \"amount must be greater than zero\") */\n      tag_167\n      jumpi\n      mload(0x40)\n      0x08c379a000000000000000000000000000000000000000000000000000000000\n      dup2\n      mstore\n      0x04\n      add\n      tag_168\n      swap1\n      tag_169\n      jump\t// in\n    tag_168:\n      mload(0x40)\n      dup1\n      swap2\n      sub\n      swap1\n      revert\n    tag_167:\n        /* \"contracts/ub.sol\":4969:4981  bool success */\n      0x00\n        /* \"contracts/ub.sol\":4991:4996  token */\n      dup5\n        /* \"contracts/ub.sol\":4984:5006  IERC20(token).transfer */\n      0xffffffffffffffffffffffffffffffffffffffff\n      and\n      0xa9059cbb\n        /* \"contracts/ub.sol\":5007:5009  to */\n      dup6\n        /* \"contracts/ub.sol\":5011:5017  amount */\n      dup6\n        /* \"contracts/ub.sol\":4984:5018  IERC20(token).transfer(to, amount) */\n      mload(0x40)\n      dup4\n      0xffffffff\n      and\n      0xe0\n      shl\n      dup2\n      mstore\n      0x04\n      add\n      tag_170\n      swap3\n      swap2\n      swap1\n      tag_171\n      jump\t// in\n    tag_170:\n      0x20\n      mload(0x40)\n      dup1\n      dup4\n      sub\n      dup2\n      0x00\n      dup8\n      gas\n      call\n      iszero\n      dup1\n      iszero\n      tag_173\n      jumpi\n      returndatasize\n      0x00\n      dup1\n      returndatacopy\n      revert(0x00, returndatasize)\n    tag_173:\n      pop\n      pop\n      pop\n      pop\n      mload(0x40)\n      returndatasize\n      not(0x1f)\n      0x1f\n      dup3\n      add\n      and\n      dup3\n      add\n      dup1\n      0x40\n      mstore\n      pop\n      dup2\n      add\n      swap1\n      tag_174\n      swap2\n      swap1\n      tag_175\n      jump\t// in\n    tag_174:\n        /* \"contracts/ub.sol\":4969:5018  bool success = IERC20(token).transfer(to, amount) */\n      swap1\n      pop\n        /* \"contracts/ub.sol\":5036:5043  success */\n      dup1\n        /* \"contracts/ub.sol\":5028:5069  require(success, \"ERC20 transfer failed\") */\n      tag_176\n      jumpi\n      mload(0x40)\n      0x08c379a000000000000000000000000000000000000000000000000000000000\n      dup2\n      mstore\n      0x04\n      add\n      tag_177\n      swap1\n      tag_178\n      jump\t// in\n    tag_177:\n      mload(0x40)\n      dup1\n      swap2\n      sub\n      swap1\n      revert\n    tag_176:\n        /* \"contracts/ub.sol\":5106:5108  to */\n      dup4\n        /* \"contracts/ub.sol\":5084:5117  ERC20Recovered(token, to, amount) */\n      0xffffffffffffffffffffffffffffffffffffffff\n      and\n        /* \"contracts/ub.sol\":5099:5104  token */\n      dup6\n        /* \"contracts/ub.sol\":5084:5117  ERC20Recovered(token, to, amount) */\n      0xffffffffffffffffffffffffffffffffffffffff\n      and\n      0xaca8fb252cde442184e5f10e0f2e6e4029e8cd7717cae63559079610702436aa\n        /* \"contracts/ub.sol\":5110:5116  amount */\n      dup6\n        /* \"contracts/ub.sol\":5084:5117  ERC20Recovered(token, to, amount) */\n      mload(0x40)\n      tag_179\n      swap2\n      swap1\n      tag_60\n      jump\t// in\n    tag_179:\n      mload(0x40)\n      dup1\n      swap2\n      sub\n      swap1\n      log3\n        /* \"contracts/ub.sol\":4758:5124  {... */\n      pop\n        /* \"contracts/ub.sol\":4625:5124  function recoverERC20(... */\n      pop\n      pop\n      pop\n      pop\n      jump\t// out\n        /* \"@openzeppelin/contracts/token/ERC20/ERC20.sol\":2803:2900  function totalSupply() public view virtual returns (uint256) {... */\n    tag_58:\n        /* \"@openzeppelin/contracts/token/ERC20/ERC20.sol\":2855:2862  uint256 */\n      0x00\n        /* \"@openzeppelin/contracts/token/ERC20/ERC20.sol\":2881:2893  _totalSupply */\n      sload(0x03)\n        /* \"@openzeppelin/contracts/token/ERC20/ERC20.sol\":2874:2893  return _totalSupply */\n      swap1\n      pop\n        /* \"@openzeppelin/contracts/token/ERC20/ERC20.sol\":2803:2900  function totalSupply() public view virtual returns (uint256) {... */\n      swap1\n      jump\t// out\n        /* \"@openzeppelin/contracts/token/ERC20/ERC20.sol\":4680:4924  function transferFrom(address from, address to, uint256 value) public virtual returns (bool) {... */\n    tag_63:\n        /* \"@openzeppelin/contracts/token/ERC20/ERC20.sol\":4767:4771  bool */\n      0x00\n        /* \"@openzeppelin/contracts/token/ERC20/ERC20.sol\":4783:4798  address spender */\n      dup1\n        /* \"@openzeppelin/contracts/token/ERC20/ERC20.sol\":4801:4813  _msgSender() */\n      tag_182\n        /* \"@openzeppelin/contracts/token/ERC20/ERC20.sol\":4801:4811  _msgSender */\n      tag_154\n        /* \"@openzeppelin/contracts/token/ERC20/ERC20.sol\":4801:4813  _msgSender() */\n      jump\t// in\n    tag_182:\n        /* \"@openzeppelin/contracts/token/ERC20/ERC20.sol\":4783:4813  address spender = _msgSender() */\n      swap1\n      pop\n        /* \"@openzeppelin/contracts/token/ERC20/ERC20.sol\":4823:4860  _spendAllowance(from, spender, value) */\n      tag_183\n        /* \"@openzeppelin/contracts/token/ERC20/ERC20.sol\":4839:4843  from */\n      dup6\n        /* \"@openzeppelin/contracts/token/ERC20/ERC20.sol\":4845:4852  spender */\n      dup3\n        /* \"@openzeppelin/contracts/token/ERC20/ERC20.sol\":4854:4859  value */\n      dup6\n        /* \"@openzeppelin/contracts/token/ERC20/ERC20.sol\":4823:4838  _spendAllowance */\n      tag_184\n        /* \"@openzeppelin/contracts/token/ERC20/ERC20.sol\":4823:4860  _spendAllowance(from, spender, value) */\n      jump\t// in\n    tag_183:\n        /* \"@openzeppelin/contracts/token/ERC20/ERC20.sol\":4870:4896  _transfer(from, to, value) */\n      tag_185\n        /* \"@openzeppelin/contracts/token/ERC20/ERC20.sol\":4880:4884  from */\n      dup6\n        /* \"@openzeppelin/contracts/token/ERC20/ERC20.sol\":4886:4888  to */\n      dup6\n        /* \"@openzeppelin/contracts/token/ERC20/ERC20.sol\":4890:4895  value */\n      dup6\n        /* \"@openzeppelin/contracts/token/ERC20/ERC20.sol\":4870:4879  _transfer */\n      tag_186\n        /* \"@openzeppelin/contracts/token/ERC20/ERC20.sol\":4870:4896  _transfer(from, to, value) */\n      jump\t// in\n    tag_185:\n        /* \"@openzeppelin/contracts/token/ERC20/ERC20.sol\":4913:4917  true */\n      0x01\n        /* \"@openzeppelin/contracts/token/ERC20/ERC20.sol\":4906:4917  return true */\n      swap2\n      pop\n      pop\n        /* \"@openzeppelin/contracts/token/ERC20/ERC20.sol\":4680:4924  function transferFrom(address from, address to, uint256 value) public virtual returns (bool) {... */\n      swap4\n      swap3\n      pop\n      pop\n      pop\n      jump\t// out\n        /* \"@openzeppelin/contracts/access/AccessControl.sol\":3786:3906  function getRoleAdmin(bytes32 role) public view virtual returns (bytes32) {... */\n    tag_68:\n        /* \"@openzeppelin/contracts/access/AccessControl.sol\":3851:3858  bytes32 */\n      0x00\n        /* \"@openzeppelin/contracts/access/AccessControl.sol\":3877:3883  _roles */\n      0x06\n        /* \"@openzeppelin/contracts/access/AccessControl.sol\":3877:3889  _roles[role] */\n      0x00\n        /* \"@openzeppelin/contracts/access/AccessControl.sol\":3884:3888  role */\n      dup4\n        /* \"@openzeppelin/contracts/access/AccessControl.sol\":3877:3889  _roles[role] */\n      dup2\n      mstore\n      0x20\n      add\n      swap1\n      dup2\n      mstore\n      0x20\n      add\n      0x00\n      keccak256\n        /* \"@openzeppelin/contracts/access/AccessControl.sol\":3877:3899  _roles[role].adminRole */\n      0x01\n      add\n      sload\n        /* \"@openzeppelin/contracts/access/AccessControl.sol\":3870:3899  return _roles[role].adminRole */\n      swap1\n      pop\n        /* \"@openzeppelin/contracts/access/AccessControl.sol\":3786:3906  function getRoleAdmin(bytes32 role) public view virtual returns (bytes32) {... */\n      swap2\n      swap1\n      pop\n      jump\t// out\n        /* \"@openzeppelin/contracts/access/AccessControl.sol\":4202:4338  function grantRole(bytes32 role, address account) public virtual onlyRole(getRoleAdmin(role)) {... */\n    tag_74:\n        /* \"@openzeppelin/contracts/access/AccessControl.sol\":4276:4294  getRoleAdmin(role) */\n      tag_188\n        /* \"@openzeppelin/contracts/access/AccessControl.sol\":4289:4293  role */\n      dup3\n        /* \"@openzeppelin/contracts/access/AccessControl.sol\":4276:4288  getRoleAdmin */\n      tag_68\n        /* \"@openzeppelin/contracts/access/AccessControl.sol\":4276:4294  getRoleAdmin(role) */\n      jump\t// in\n    tag_188:\n        /* \"@openzeppelin/contracts/access/AccessControl.sol\":2473:2489  _checkRole(role) */\n      tag_190\n        /* \"@openzeppelin/contracts/access/AccessControl.sol\":2484:2488  role */\n      dup2\n        /* \"@openzeppelin/contracts/access/AccessControl.sol\":2473:2483  _checkRole */\n      tag_159\n        /* \"@openzeppelin/contracts/access/AccessControl.sol\":2473:2489  _checkRole(role) */\n      jump\t// in\n    tag_190:\n        /* \"@openzeppelin/contracts/access/AccessControl.sol\":4306:4331  _grantRole(role, account) */\n      tag_192\n        /* \"@openzeppelin/contracts/access/AccessControl.sol\":4317:4321  role */\n      dup4\n        /* \"@openzeppelin/contracts/access/AccessControl.sol\":4323:4330  account */\n      dup4\n        /* \"@openzeppelin/contracts/access/AccessControl.sol\":4306:4316  _grantRole */\n      tag_193\n        /* \"@openzeppelin/contracts/access/AccessControl.sol\":4306:4331  _grantRole(role, account) */\n      jump\t// in\n    tag_192:\n      pop\n        /* \"@openzeppelin/contracts/access/AccessControl.sol\":4202:4338  function grantRole(bytes32 role, address account) public virtual onlyRole(getRoleAdmin(role)) {... */\n      pop\n      pop\n      pop\n      jump\t// out\n        /* \"@openzeppelin/contracts/token/ERC20/ERC20.sol\":2688:2770  function decimals() public view virtual returns (uint8) {... */\n    tag_76:\n        /* \"@openzeppelin/contracts/token/ERC20/ERC20.sol\":2737:2742  uint8 */\n      0x00\n        /* \"@openzeppelin/contracts/token/ERC20/ERC20.sol\":2761:2763  18 */\n      0x12\n        /* \"@openzeppelin/contracts/token/ERC20/ERC20.sol\":2754:2763  return 18 */\n      swap1\n      pop\n        /* \"@openzeppelin/contracts/token/ERC20/ERC20.sol\":2688:2770  function decimals() public view virtual returns (uint8) {... */\n      swap1\n      jump\t// out\n        /* \"@openzeppelin/contracts/token/ERC20/extensions/ERC20Capped.sol\":923:1004  function cap() public view virtual returns (uint256) {... */\n    tag_80:\n        /* \"@openzeppelin/contracts/token/ERC20/extensions/ERC20Capped.sol\":967:974  uint256 */\n      0x00\n        /* \"@openzeppelin/contracts/token/ERC20/extensions/ERC20Capped.sol\":993:997  _cap */\n      immutable(\"0x4a12ea77a1a063f26028f31dc447cd01a6aae44cbd0d238cbc76d74f2d67dabb\")\n        /* \"@openzeppelin/contracts/token/ERC20/extensions/ERC20Capped.sol\":986:997  return _cap */\n      swap1\n      pop\n        /* \"@openzeppelin/contracts/token/ERC20/extensions/ERC20Capped.sol\":923:1004  function cap() public view virtual returns (uint256) {... */\n      swap1\n      jump\t// out\n        /* \"@openzeppelin/contracts/access/AccessControl.sol\":5304:5549  function renounceRole(bytes32 role, address callerConfirmation) public virtual {... */\n    tag_84:\n        /* \"@openzeppelin/contracts/access/AccessControl.sol\":5419:5431  _msgSender() */\n      tag_197\n        /* \"@openzeppelin/contracts/access/AccessControl.sol\":5419:5429  _msgSender */\n      tag_154\n        /* \"@openzeppelin/contracts/access/AccessControl.sol\":5419:5431  _msgSender() */\n      jump\t// in\n    tag_197:\n        /* \"@openzeppelin/contracts/access/AccessControl.sol\":5397:5431  callerConfirmation != _msgSender() */\n      0xffffffffffffffffffffffffffffffffffffffff\n      and\n        /* \"@openzeppelin/contracts/access/AccessControl.sol\":5397:5415  callerConfirmation */\n      dup2\n        /* \"@openzeppelin/contracts/access/AccessControl.sol\":5397:5431  callerConfirmation != _msgSender() */\n      0xffffffffffffffffffffffffffffffffffffffff\n      and\n      eq\n        /* \"@openzeppelin/contracts/access/AccessControl.sol\":5393:5495  if (callerConfirmation != _msgSender()) {... */\n      tag_198\n      jumpi\n        /* \"@openzeppelin/contracts/access/AccessControl.sol\":5454:5484  AccessControlBadConfirmation() */\n      mload(0x40)\n      0x6697b23200000000000000000000000000000000000000000000000000000000\n      dup2\n      mstore\n      0x04\n      add\n      mload(0x40)\n      dup1\n      swap2\n      sub\n      swap1\n      revert\n        /* \"@openzeppelin/contracts/access/AccessControl.sol\":5393:5495  if (callerConfirmation != _msgSender()) {... */\n    tag_198:\n        /* \"@openzeppelin/contracts/access/AccessControl.sol\":5505:5542  _revokeRole(role, callerConfirmation) */\n      tag_199\n        /* \"@openzeppelin/contracts/access/AccessControl.sol\":5517:5521  role */\n      dup3\n        /* \"@openzeppelin/contracts/access/AccessControl.sol\":5523:5541  callerConfirmation */\n      dup3\n        /* \"@openzeppelin/contracts/access/AccessControl.sol\":5505:5516  _revokeRole */\n      tag_200\n        /* \"@openzeppelin/contracts/access/AccessControl.sol\":5505:5542  _revokeRole(role, callerConfirmation) */\n      jump\t// in\n    tag_199:\n      pop\n        /* \"@openzeppelin/contracts/access/AccessControl.sol\":5304:5549  function renounceRole(bytes32 role, address callerConfirmation) public virtual {... */\n      pop\n      pop\n      jump\t// out\n        /* \"contracts/ub.sol\":2716:2832  function isWhitelisted(address account) external view returns (bool) {... */\n    tag_88:\n        /* \"contracts/ub.sol\":2779:2783  bool */\n      0x00\n        /* \"contracts/ub.sol\":2802:2816  _isWhitelisted */\n      0x07\n        /* \"contracts/ub.sol\":2802:2825  _isWhitelisted[account] */\n      0x00\n        /* \"contracts/ub.sol\":2817:2824  account */\n      dup4\n        /* \"contracts/ub.sol\":2802:2825  _isWhitelisted[account] */\n      0xffffffffffffffffffffffffffffffffffffffff\n      and\n      0xffffffffffffffffffffffffffffffffffffffff\n      and\n      dup2\n      mstore\n      0x20\n      add\n      swap1\n      dup2\n      mstore\n      0x20\n      add\n      0x00\n      keccak256\n      0x00\n      swap1\n      sload\n      swap1\n      0x0100\n      exp\n      swap1\n      div\n      0xff\n      and\n        /* \"contracts/ub.sol\":2795:2825  return _isWhitelisted[account] */\n      swap1\n      pop\n        /* \"contracts/ub.sol\":2716:2832  function isWhitelisted(address account) external view returns (bool) {... */\n      swap2\n      swap1\n      pop\n      jump\t// out\n        /* \"contracts/ub.sol\":1874:1951  function unpause() external onlyRole(PAUSER_ROLE) {... */\n    tag_91:\n        /* \"contracts/ub.sol\":696:720  keccak256(\"PAUSER_ROLE\") */\n      0x65d7a28e3265b37a6474929f336521b332c1681b933f6cb9f3376673440d862a\n        /* \"@openzeppelin/contracts/access/AccessControl.sol\":2473:2489  _checkRole(role) */\n      tag_203\n        /* \"@openzeppelin/contracts/access/AccessControl.sol\":2484:2488  role */\n      dup2\n        /* \"@openzeppelin/contracts/access/AccessControl.sol\":2473:2483  _checkRole */\n      tag_159\n        /* \"@openzeppelin/contracts/access/AccessControl.sol\":2473:2489  _checkRole(role) */\n      jump\t// in\n    tag_203:\n        /* \"contracts/ub.sol\":1934:1944  _unpause() */\n      tag_205\n        /* \"contracts/ub.sol\":1934:1942  _unpause */\n      tag_206\n        /* \"contracts/ub.sol\":1934:1944  _unpause() */\n      jump\t// in\n    tag_205:\n        /* \"contracts/ub.sol\":1874:1951  function unpause() external onlyRole(PAUSER_ROLE) {... */\n      pop\n      jump\t// out\n        /* \"contracts/ub.sol\":2498:2605  function mint(address to, uint256 amount) external onlyRole(MINTER_ROLE) {... */\n    tag_94:\n        /* \"contracts/ub.sol\":627:651  keccak256(\"MINTER_ROLE\") */\n      0x9f2df0fed2c77648de5860a4cc508cd0818c85b8b8a1ab4ceeef8d981c8956a6\n        /* \"@openzeppelin/contracts/access/AccessControl.sol\":2473:2489  _checkRole(role) */\n      tag_208\n        /* \"@openzeppelin/contracts/access/AccessControl.sol\":2484:2488  role */\n      dup2\n        /* \"@openzeppelin/contracts/access/AccessControl.sol\":2473:2483  _checkRole */\n      tag_159\n        /* \"@openzeppelin/contracts/access/AccessControl.sol\":2473:2489  _checkRole(role) */\n      jump\t// in\n    tag_208:\n        /* \"contracts/ub.sol\":2581:2598  _mint(to, amount) */\n      tag_210\n        /* \"contracts/ub.sol\":2587:2589  to */\n      dup4\n        /* \"contracts/ub.sol\":2591:2597  amount */\n      dup4\n        /* \"contracts/ub.sol\":2581:2586  _mint */\n      tag_211\n        /* \"contracts/ub.sol\":2581:2598  _mint(to, amount) */\n      jump\t// in\n    tag_210:\n        /* \"contracts/ub.sol\":2498:2605  function mint(address to, uint256 amount) external onlyRole(MINTER_ROLE) {... */\n      pop\n      pop\n      pop\n      jump\t// out\n        /* \"@openzeppelin/contracts/security/Pausable.sol\":1615:1699  function paused() public view virtual returns (bool) {... */\n    tag_96:\n        /* \"@openzeppelin/contracts/security/Pausable.sol\":1662:1666  bool */\n      0x00\n        /* \"@openzeppelin/contracts/security/Pausable.sol\":1685:1692  _paused */\n      dup1\n      0x00\n      swap1\n      sload\n      swap1\n      0x0100\n      exp\n      swap1\n      div\n      0xff\n      and\n        /* \"@openzeppelin/contracts/security/Pausable.sol\":1678:1692  return _paused */\n      swap1\n      pop\n        /* \"@openzeppelin/contracts/security/Pausable.sol\":1615:1699  function paused() public view virtual returns (bool) {... */\n      swap1\n      jump\t// out\n        /* \"@openzeppelin/contracts/token/ERC20/ERC20.sol\":2933:3049  function balanceOf(address account) public view virtual returns (uint256) {... */\n    tag_100:\n        /* \"@openzeppelin/contracts/token/ERC20/ERC20.sol\":2998:3005  uint256 */\n      0x00\n        /* \"@openzeppelin/contracts/token/ERC20/ERC20.sol\":3024:3033  _balances */\n      0x01\n        /* \"@openzeppelin/contracts/token/ERC20/ERC20.sol\":3024:3042  _balances[account] */\n      0x00\n        /* \"@openzeppelin/contracts/token/ERC20/ERC20.sol\":3034:3041  account */\n      dup4\n        /* \"@openzeppelin/contracts/token/ERC20/ERC20.sol\":3024:3042  _balances[account] */\n      0xffffffffffffffffffffffffffffffffffffffff\n      and\n      0xffffffffffffffffffffffffffffffffffffffff\n      and\n      dup2\n      mstore\n      0x20\n      add\n      swap1\n      dup2\n      mstore\n      0x20\n      add\n      0x00\n      keccak256\n      sload\n        /* \"@openzeppelin/contracts/token/ERC20/ERC20.sol\":3017:3042  return _balances[account] */\n      swap1\n      pop\n        /* \"@openzeppelin/contracts/token/ERC20/ERC20.sol\":2933:3049  function balanceOf(address account) public view virtual returns (uint256) {... */\n      swap2\n      swap1\n      pop\n      jump\t// out\n        /* \"contracts/ub.sol\":1711:1784  function pause() external onlyRole(PAUSER_ROLE) {... */\n    tag_103:\n        /* \"contracts/ub.sol\":696:720  keccak256(\"PAUSER_ROLE\") */\n      0x65d7a28e3265b37a6474929f336521b332c1681b933f6cb9f3376673440d862a\n        /* \"@openzeppelin/contracts/access/AccessControl.sol\":2473:2489  _checkRole(role) */\n      tag_215\n        /* \"@openzeppelin/contracts/access/AccessControl.sol\":2484:2488  role */\n      dup2\n        /* \"@openzeppelin/contracts/access/AccessControl.sol\":2473:2483  _checkRole */\n      tag_159\n        /* \"@openzeppelin/contracts/access/AccessControl.sol\":2473:2489  _checkRole(role) */\n      jump\t// in\n    tag_215:\n        /* \"contracts/ub.sol\":1769:1777  _pause() */\n      tag_217\n        /* \"contracts/ub.sol\":1769:1775  _pause */\n      tag_218\n        /* \"contracts/ub.sol\":1769:1777  _pause() */\n      jump\t// in\n    tag_217:\n        /* \"contracts/ub.sol\":1711:1784  function pause() external onlyRole(PAUSER_ROLE) {... */\n      pop\n      jump\t// out\n        /* \"contracts/ub.sol\":3316:3582  function removeFromWhitelist(... */\n    tag_106:\n        /* \"contracts/ub.sol\":696:720  keccak256(\"PAUSER_ROLE\") */\n      0x65d7a28e3265b37a6474929f336521b332c1681b933f6cb9f3376673440d862a\n        /* \"@openzeppelin/contracts/access/AccessControl.sol\":2473:2489  _checkRole(role) */\n      tag_220\n        /* \"@openzeppelin/contracts/access/AccessControl.sol\":2484:2488  role */\n      dup2\n        /* \"@openzeppelin/contracts/access/AccessControl.sol\":2473:2483  _checkRole */\n      tag_159\n        /* \"@openzeppelin/contracts/access/AccessControl.sol\":2473:2489  _checkRole(role) */\n      jump\t// in\n    tag_220:\n        /* \"contracts/ub.sol\":3444:3445  0 */\n      0x00\n        /* \"contracts/ub.sol\":3425:3446  account != address(0) */\n      0xffffffffffffffffffffffffffffffffffffffff\n      and\n        /* \"contracts/ub.sol\":3425:3432  account */\n      dup3\n        /* \"contracts/ub.sol\":3425:3446  account != address(0) */\n      0xffffffffffffffffffffffffffffffffffffffff\n      and\n      sub\n        /* \"contracts/ub.sol\":3417:3487  require(account != address(0), \"cannot un-whitelist the zero address\") */\n      tag_222\n      jumpi\n      mload(0x40)\n      0x08c379a000000000000000000000000000000000000000000000000000000000\n      dup2\n      mstore\n      0x04\n      add\n      tag_223\n      swap1\n      tag_224\n      jump\t// in\n    tag_223:\n      mload(0x40)\n      dup1\n      swap2\n      sub\n      swap1\n      revert\n    tag_222:\n        /* \"contracts/ub.sol\":3523:3528  false */\n      0x00\n        /* \"contracts/ub.sol\":3497:3511  _isWhitelisted */\n      0x07\n        /* \"contracts/ub.sol\":3497:3520  _isWhitelisted[account] */\n      0x00\n        /* \"contracts/ub.sol\":3512:3519  account */\n      dup5\n        /* \"contracts/ub.sol\":3497:3520  _isWhitelisted[account] */\n      0xffffffffffffffffffffffffffffffffffffffff\n      and\n      0xffffffffffffffffffffffffffffffffffffffff\n      and\n      dup2\n      mstore\n      0x20\n      add\n      swap1\n      dup2\n      mstore\n      0x20\n      add\n      0x00\n      keccak256\n      0x00\n        /* \"contracts/ub.sol\":3497:3528  _isWhitelisted[account] = false */\n      0x0100\n      exp\n      dup2\n      sload\n      dup2\n      0xff\n      mul\n      not\n      and\n      swap1\n      dup4\n      iszero\n      iszero\n      mul\n      or\n      swap1\n      sstore\n      pop\n        /* \"contracts/ub.sol\":3560:3567  account */\n      dup2\n        /* \"contracts/ub.sol\":3543:3575  WhitelistUpdated(account, false) */\n      0xffffffffffffffffffffffffffffffffffffffff\n      and\n      0xf93f9a76c1bf3444d22400a00cb9fe990e6abe9dbb333fda48859cfee864543d\n        /* \"contracts/ub.sol\":3569:3574  false */\n      0x00\n        /* \"contracts/ub.sol\":3543:3575  WhitelistUpdated(account, false) */\n      mload(0x40)\n      tag_225\n      swap2\n      swap1\n      tag_43\n      jump\t// in\n    tag_225:\n      mload(0x40)\n      dup1\n      swap2\n      sub\n      swap1\n      log2\n        /* \"contracts/ub.sol\":3316:3582  function removeFromWhitelist(... */\n      pop\n      pop\n      jump\t// out\n        /* \"@openzeppelin/contracts/access/AccessControl.sol\":2830:2966  function hasRole(bytes32 role, address account) public view virtual returns (bool) {... */\n    tag_109:\n        /* \"@openzeppelin/contracts/access/AccessControl.sol\":2907:2911  bool */\n      0x00\n        /* \"@openzeppelin/contracts/access/AccessControl.sol\":2930:2936  _roles */\n      0x06\n        /* \"@openzeppelin/contracts/access/AccessControl.sol\":2930:2942  _roles[role] */\n      0x00\n        /* \"@openzeppelin/contracts/access/AccessControl.sol\":2937:2941  role */\n      dup5\n        /* \"@openzeppelin/contracts/access/AccessControl.sol\":2930:2942  _roles[role] */\n      dup2\n      mstore\n      0x20\n      add\n      swap1\n      dup2\n      mstore\n      0x20\n      add\n      0x00\n      keccak256\n        /* \"@openzeppelin/contracts/access/AccessControl.sol\":2930:2950  _roles[role].hasRole */\n      0x00\n      add\n        /* \"@openzeppelin/contracts/access/AccessControl.sol\":2930:2959  _roles[role].hasRole[account] */\n      0x00\n        /* \"@openzeppelin/contracts/access/AccessControl.sol\":2951:2958  account */\n      dup4\n        /* \"@openzeppelin/contracts/access/AccessControl.sol\":2930:2959  _roles[role].hasRole[account] */\n      0xffffffffffffffffffffffffffffffffffffffff\n      and\n      0xffffffffffffffffffffffffffffffffffffffff\n      and\n      dup2\n      mstore\n      0x20\n      add\n      swap1\n      dup2\n      mstore\n      0x20\n      add\n      0x00\n      keccak256\n      0x00\n      swap1\n      sload\n      swap1\n      0x0100\n      exp\n      swap1\n      div\n      0xff\n      and\n        /* \"@openzeppelin/contracts/access/AccessControl.sol\":2923:2959  return _roles[role].hasRole[account] */\n      swap1\n      pop\n        /* \"@openzeppelin/contracts/access/AccessControl.sol\":2830:2966  function hasRole(bytes32 role, address account) public view virtual returns (bool) {... */\n      swap3\n      swap2\n      pop\n      pop\n      jump\t// out\n        /* \"@openzeppelin/contracts/token/ERC20/ERC20.sol\":1962:2055  function symbol() public view virtual returns (string memory) {... */\n    tag_112:\n        /* \"@openzeppelin/contracts/token/ERC20/ERC20.sol\":2009:2022  string memory */\n      0x60\n        /* \"@openzeppelin/contracts/token/ERC20/ERC20.sol\":2041:2048  _symbol */\n      0x05\n        /* \"@openzeppelin/contracts/token/ERC20/ERC20.sol\":2034:2048  return _symbol */\n      dup1\n      sload\n      tag_228\n      swap1\n      tag_147\n      jump\t// in\n    tag_228:\n      dup1\n      0x1f\n      add\n      0x20\n      dup1\n      swap2\n      div\n      mul\n      0x20\n      add\n      mload(0x40)\n      swap1\n      dup2\n      add\n      0x40\n      mstore\n      dup1\n      swap3\n      swap2\n      swap1\n      dup2\n      dup2\n      mstore\n      0x20\n      add\n      dup3\n      dup1\n      sload\n      tag_229\n      swap1\n      tag_147\n      jump\t// in\n    tag_229:\n      dup1\n      iszero\n      tag_230\n      jumpi\n      dup1\n      0x1f\n      lt\n      tag_231\n      jumpi\n      0x0100\n      dup1\n      dup4\n      sload\n      div\n      mul\n      dup4\n      mstore\n      swap2\n      0x20\n      add\n      swap2\n      jump(tag_230)\n    tag_231:\n      dup3\n      add\n      swap2\n      swap1\n      0x00\n      mstore\n      keccak256(0x00, 0x20)\n      swap1\n    tag_232:\n      dup2\n      sload\n      dup2\n      mstore\n      swap1\n      0x01\n      add\n      swap1\n      0x20\n      add\n      dup1\n      dup4\n      gt\n      tag_232\n      jumpi\n      dup3\n      swap1\n      sub\n      0x1f\n      and\n      dup3\n      add\n      swap2\n    tag_230:\n      pop\n      pop\n      pop\n      pop\n      pop\n      swap1\n      pop\n        /* \"@openzeppelin/contracts/token/ERC20/ERC20.sol\":1962:2055  function symbol() public view virtual returns (string memory) {... */\n      swap1\n      jump\t// out\n        /* \"@openzeppelin/contracts/access/AccessControl.sol\":2196:2245  bytes32 public constant DEFAULT_ADMIN_ROLE = 0x00 */\n    tag_115:\n        /* \"@openzeppelin/contracts/access/AccessControl.sol\":2241:2245  0x00 */\n      0x00\n        /* \"@openzeppelin/contracts/access/AccessControl.sol\":2196:2245  bytes32 public constant DEFAULT_ADMIN_ROLE = 0x00 */\n      dup1\n      shl\n      dup2\n      jump\t// out\n        /* \"@openzeppelin/contracts/token/ERC20/ERC20.sol\":3244:3422  function transfer(address to, uint256 value) public virtual returns (bool) {... */\n    tag_119:\n        /* \"@openzeppelin/contracts/token/ERC20/ERC20.sol\":3313:3317  bool */\n      0x00\n        /* \"@openzeppelin/contracts/token/ERC20/ERC20.sol\":3329:3342  address owner */\n      dup1\n        /* \"@openzeppelin/contracts/token/ERC20/ERC20.sol\":3345:3357  _msgSender() */\n      tag_234\n        /* \"@openzeppelin/contracts/token/ERC20/ERC20.sol\":3345:3355  _msgSender */\n      tag_154\n        /* \"@openzeppelin/contracts/token/ERC20/ERC20.sol\":3345:3357  _msgSender() */\n      jump\t// in\n    tag_234:\n        /* \"@openzeppelin/contracts/token/ERC20/ERC20.sol\":3329:3357  address owner = _msgSender() */\n      swap1\n      pop\n        /* \"@openzeppelin/contracts/token/ERC20/ERC20.sol\":3367:3394  _transfer(owner, to, value) */\n      tag_235\n        /* \"@openzeppelin/contracts/token/ERC20/ERC20.sol\":3377:3382  owner */\n      dup2\n        /* \"@openzeppelin/contracts/token/ERC20/ERC20.sol\":3384:3386  to */\n      dup6\n        /* \"@openzeppelin/contracts/token/ERC20/ERC20.sol\":3388:3393  value */\n      dup6\n        /* \"@openzeppelin/contracts/token/ERC20/ERC20.sol\":3367:3376  _transfer */\n      tag_186\n        /* \"@openzeppelin/contracts/token/ERC20/ERC20.sol\":3367:3394  _transfer(owner, to, value) */\n      jump\t// in\n    tag_235:\n        /* \"@openzeppelin/contracts/token/ERC20/ERC20.sol\":3411:3415  true */\n      0x01\n        /* \"@openzeppelin/contracts/token/ERC20/ERC20.sol\":3404:3415  return true */\n      swap2\n      pop\n      pop\n        /* \"@openzeppelin/contracts/token/ERC20/ERC20.sol\":3244:3422  function transfer(address to, uint256 value) public virtual returns (bool) {... */\n      swap3\n      swap2\n      pop\n      pop\n      jump\t// out\n        /* \"contracts/ub.sol\":589:651  bytes32 public constant MINTER_ROLE = keccak256(\"MINTER_ROLE\") */\n    tag_122:\n        /* \"contracts/ub.sol\":627:651  keccak256(\"MINTER_ROLE\") */\n      0x9f2df0fed2c77648de5860a4cc508cd0818c85b8b8a1ab4ceeef8d981c8956a6\n        /* \"contracts/ub.sol\":589:651  bytes32 public constant MINTER_ROLE = keccak256(\"MINTER_ROLE\") */\n      dup2\n      jump\t// out\n        /* \"@openzeppelin/contracts/access/AccessControl.sol\":4618:4756  function revokeRole(bytes32 role, address account) public virtual onlyRole(getRoleAdmin(role)) {... */\n    tag_126:\n        /* \"@openzeppelin/contracts/access/AccessControl.sol\":4693:4711  getRoleAdmin(role) */\n      tag_236\n        /* \"@openzeppelin/contracts/access/AccessControl.sol\":4706:4710  role */\n      dup3\n        /* \"@openzeppelin/contracts/access/AccessControl.sol\":4693:4705  getRoleAdmin */\n      tag_68\n        /* \"@openzeppelin/contracts/access/AccessControl.sol\":4693:4711  getRoleAdmin(role) */\n      jump\t// in\n    tag_236:\n        /* \"@openzeppelin/contracts/access/AccessControl.sol\":2473:2489  _checkRole(role) */\n      tag_238\n        /* \"@openzeppelin/contracts/access/AccessControl.sol\":2484:2488  role */\n      dup2\n        /* \"@openzeppelin/contracts/access/AccessControl.sol\":2473:2483  _checkRole */\n      tag_159\n        /* \"@openzeppelin/contracts/access/AccessControl.sol\":2473:2489  _checkRole(role) */\n      jump\t// in\n    tag_238:\n        /* \"@openzeppelin/contracts/access/AccessControl.sol\":4723:4749  _revokeRole(role, account) */\n      tag_240\n        /* \"@openzeppelin/contracts/access/AccessControl.sol\":4735:4739  role */\n      dup4\n        /* \"@openzeppelin/contracts/access/AccessControl.sol\":4741:4748  account */\n      dup4\n        /* \"@openzeppelin/contracts/access/AccessControl.sol\":4723:4734  _revokeRole */\n      tag_200\n        /* \"@openzeppelin/contracts/access/AccessControl.sol\":4723:4749  _revokeRole(role, account) */\n      jump\t// in\n    tag_240:\n      pop\n        /* \"@openzeppelin/contracts/access/AccessControl.sol\":4618:4756  function revokeRole(bytes32 role, address account) public virtual onlyRole(getRoleAdmin(role)) {... */\n      pop\n      pop\n      pop\n      jump\t// out\n        /* \"@openzeppelin/contracts/token/ERC20/ERC20.sol\":3455:3595  function allowance(address owner, address spender) public view virtual returns (uint256) {... */\n    tag_130:\n        /* \"@openzeppelin/contracts/token/ERC20/ERC20.sol\":3535:3542  uint256 */\n      0x00\n        /* \"@openzeppelin/contracts/token/ERC20/ERC20.sol\":3561:3572  _allowances */\n      0x02\n        /* \"@openzeppelin/contracts/token/ERC20/ERC20.sol\":3561:3579  _allowances[owner] */\n      0x00\n        /* \"@openzeppelin/contracts/token/ERC20/ERC20.sol\":3573:3578  owner */\n      dup5\n        /* \"@openzeppelin/contracts/token/ERC20/ERC20.sol\":3561:3579  _allowances[owner] */\n      0xffffffffffffffffffffffffffffffffffffffff\n      and\n      0xffffffffffffffffffffffffffffffffffffffff\n      and\n      dup2\n      mstore\n      0x20\n      add\n      swap1\n      dup2\n      mstore\n      0x20\n      add\n      0x00\n      keccak256\n        /* \"@openzeppelin/contracts/token/ERC20/ERC20.sol\":3561:3588  _allowances[owner][spender] */\n      0x00\n        /* \"@openzeppelin/contracts/token/ERC20/ERC20.sol\":3580:3587  spender */\n      dup4\n        /* \"@openzeppelin/contracts/token/ERC20/ERC20.sol\":3561:3588  _allowances[owner][spender] */\n      0xffffffffffffffffffffffffffffffffffffffff\n      and\n      0xffffffffffffffffffffffffffffffffffffffff\n      and\n      dup2\n      mstore\n      0x20\n      add\n      swap1\n      dup2\n      mstore\n      0x20\n      add\n      0x00\n      keccak256\n      sload\n        /* \"@openzeppelin/contracts/token/ERC20/ERC20.sol\":3554:3588  return _allowances[owner][spender] */\n      swap1\n      pop\n        /* \"@openzeppelin/contracts/token/ERC20/ERC20.sol\":3455:3595  function allowance(address owner, address spender) public view virtual returns (uint256) {... */\n      swap3\n      swap2\n      pop\n      pop\n      jump\t// out\n        /* \"contracts/ub.sol\":2948:3190  function addToWhitelist(address account) external onlyRole(PAUSER_ROLE) {... */\n    tag_134:\n        /* \"contracts/ub.sol\":696:720  keccak256(\"PAUSER_ROLE\") */\n      0x65d7a28e3265b37a6474929f336521b332c1681b933f6cb9f3376673440d862a\n        /* \"@openzeppelin/contracts/access/AccessControl.sol\":2473:2489  _checkRole(role) */\n      tag_243\n        /* \"@openzeppelin/contracts/access/AccessControl.sol\":2484:2488  role */\n      dup2\n        /* \"@openzeppelin/contracts/access/AccessControl.sol\":2473:2483  _checkRole */\n      tag_159\n        /* \"@openzeppelin/contracts/access/AccessControl.sol\":2473:2489  _checkRole(role) */\n      jump\t// in\n    tag_243:\n        /* \"contracts/ub.sol\":3057:3058  0 */\n      0x00\n        /* \"contracts/ub.sol\":3038:3059  account != address(0) */\n      0xffffffffffffffffffffffffffffffffffffffff\n      and\n        /* \"contracts/ub.sol\":3038:3045  account */\n      dup3\n        /* \"contracts/ub.sol\":3038:3059  account != address(0) */\n      0xffffffffffffffffffffffffffffffffffffffff\n      and\n      sub\n        /* \"contracts/ub.sol\":3030:3097  require(account != address(0), \"cannot whitelist the zero address\") */\n      tag_245\n      jumpi\n      mload(0x40)\n      0x08c379a000000000000000000000000000000000000000000000000000000000\n      dup2\n      mstore\n      0x04\n      add\n      tag_246\n      swap1\n      tag_247\n      jump\t// in\n    tag_246:\n      mload(0x40)\n      dup1\n      swap2\n      sub\n      swap1\n      revert\n    tag_245:\n        /* \"contracts/ub.sol\":3133:3137  true */\n      0x01\n        /* \"contracts/ub.sol\":3107:3121  _isWhitelisted */\n      0x07\n        /* \"contracts/ub.sol\":3107:3130  _isWhitelisted[account] */\n      0x00\n        /* \"contracts/ub.sol\":3122:3129  account */\n      dup5\n        /* \"contracts/ub.sol\":3107:3130  _isWhitelisted[account] */\n      0xffffffffffffffffffffffffffffffffffffffff\n      and\n      0xffffffffffffffffffffffffffffffffffffffff\n      and\n      dup2\n      mstore\n      0x20\n      add\n      swap1\n      dup2\n      mstore\n      0x20\n      add\n      0x00\n      keccak256\n      0x00\n        /* \"contracts/ub.sol\":3107:3137  _isWhitelisted[account] = true */\n      0x0100\n      exp\n      dup2\n      sload\n      dup2\n      0xff\n      mul\n      not\n      and\n      swap1\n      dup4\n      iszero\n      iszero\n      mul\n      or\n      swap1\n      sstore\n      pop\n        /* \"contracts/ub.sol\":3169:3176  account */\n      dup2\n        /* \"contracts/ub.sol\":3152:3183  WhitelistUpdated(account, true) */\n      0xffffffffffffffffffffffffffffffffffffffff\n      and\n      0xf93f9a76c1bf3444d22400a00cb9fe990e6abe9dbb333fda48859cfee864543d\n        /* \"contracts/ub.sol\":3178:3182  true */\n      0x01\n        /* \"contracts/ub.sol\":3152:3183  WhitelistUpdated(account, true) */\n      mload(0x40)\n      tag_248\n      swap2\n      swap1\n      tag_43\n      jump\t// in\n    tag_248:\n      mload(0x40)\n      dup1\n      swap2\n      sub\n      swap1\n      log2\n        /* \"contracts/ub.sol\":2948:3190  function addToWhitelist(address account) external onlyRole(PAUSER_ROLE) {... */\n      pop\n      pop\n      jump\t// out\n        /* \"contracts/ub.sol\":658:720  bytes32 public constant PAUSER_ROLE = keccak256(\"PAUSER_ROLE\") */\n    tag_136:\n        /* \"contracts/ub.sol\":696:720  keccak256(\"PAUSER_ROLE\") */\n      0x65d7a28e3265b37a6474929f336521b332c1681b933f6cb9f3376673440d862a\n        /* \"contracts/ub.sol\":658:720  bytes32 public constant PAUSER_ROLE = keccak256(\"PAUSER_ROLE\") */\n      dup2\n      jump\t// out\n        /* \"contracts/ub.sol\":2111:2304  function setMinter(address minter) external onlyRole(DEFAULT_ADMIN_ROLE) {... */\n    tag_140:\n        /* \"@openzeppelin/contracts/access/AccessControl.sol\":2241:2245  0x00 */\n      0x00\n        /* \"contracts/ub.sol\":2164:2182  DEFAULT_ADMIN_ROLE */\n      dup1\n      shl\n        /* \"@openzeppelin/contracts/access/AccessControl.sol\":2473:2489  _checkRole(role) */\n      tag_250\n        /* \"@openzeppelin/contracts/access/AccessControl.sol\":2484:2488  role */\n      dup2\n        /* \"@openzeppelin/contracts/access/AccessControl.sol\":2473:2483  _checkRole */\n      tag_159\n        /* \"@openzeppelin/contracts/access/AccessControl.sol\":2473:2489  _checkRole(role) */\n      jump\t// in\n    tag_250:\n        /* \"contracts/ub.sol\":2220:2221  0 */\n      0x00\n        /* \"contracts/ub.sol\":2202:2222  minter != address(0) */\n      0xffffffffffffffffffffffffffffffffffffffff\n      and\n        /* \"contracts/ub.sol\":2202:2208  minter */\n      dup3\n        /* \"contracts/ub.sol\":2202:2222  minter != address(0) */\n      0xffffffffffffffffffffffffffffffffffffffff\n      and\n      sub\n        /* \"contracts/ub.sol\":2194:2256  require(minter != address(0), \"Minter cannot be zero address\") */\n      tag_252\n      jumpi\n      mload(0x40)\n      0x08c379a000000000000000000000000000000000000000000000000000000000\n      dup2\n      mstore\n      0x04\n      add\n      tag_253\n      swap1\n      tag_254\n      jump\t// in\n    tag_253:\n      mload(0x40)\n      dup1\n      swap2\n      sub\n      swap1\n      revert\n    tag_252:\n        /* \"contracts/ub.sol\":2266:2297  _grantRole(MINTER_ROLE, minter) */\n      tag_255\n        /* \"contracts/ub.sol\":627:651  keccak256(\"MINTER_ROLE\") */\n      0x9f2df0fed2c77648de5860a4cc508cd0818c85b8b8a1ab4ceeef8d981c8956a6\n        /* \"contracts/ub.sol\":2290:2296  minter */\n      dup4\n        /* \"contracts/ub.sol\":2266:2276  _grantRole */\n      tag_193\n        /* \"contracts/ub.sol\":2266:2297  _grantRole(MINTER_ROLE, minter) */\n      jump\t// in\n    tag_255:\n      pop\n        /* \"contracts/ub.sol\":2111:2304  function setMinter(address minter) external onlyRole(DEFAULT_ADMIN_ROLE) {... */\n      pop\n      pop\n      jump\t// out\n        /* \"@openzeppelin/contracts/utils/introspection/ERC165.sol\":730:876  function supportsInterface(bytes4 interfaceId) public view virtual returns (bool) {... */\n    tag_144:\n        /* \"@openzeppelin/contracts/utils/introspection/ERC165.sol\":806:810  bool */\n      0x00\n        /* \"@openzeppelin/contracts/utils/introspection/ERC165.sol\":844:869  type(IERC165).interfaceId */\n      0x01ffc9a700000000000000000000000000000000000000000000000000000000\n        /* \"@openzeppelin/contracts/utils/introspection/ERC165.sol\":829:869  interfaceId == type(IERC165).interfaceId */\n      not(0xffffffffffffffffffffffffffffffffffffffffffffffffffffffff)\n      and\n        /* \"@openzeppelin/contracts/utils/introspection/ERC165.sol\":829:840  interfaceId */\n      dup3\n        /* \"@openzeppelin/contracts/utils/introspection/ERC165.sol\":829:869  interfaceId == type(IERC165).interfaceId */\n      not(0xffffffffffffffffffffffffffffffffffffffffffffffffffffffff)\n      and\n      eq\n        /* \"@openzeppelin/contracts/utils/introspection/ERC165.sol\":822:869  return interfaceId == type(IERC165).interfaceId */\n      swap1\n      pop\n        /* \"@openzeppelin/contracts/utils/introspection/ERC165.sol\":730:876  function supportsInterface(bytes4 interfaceId) public view virtual returns (bool) {... */\n      swap2\n      swap1\n      pop\n      jump\t// out\n        /* \"@openzeppelin/contracts/utils/Context.sol\":656:752  function _msgSender() internal view virtual returns (address) {... */\n    tag_154:\n        /* \"@openzeppelin/contracts/utils/Context.sol\":709:716  address */\n      0x00\n        /* \"@openzeppelin/contracts/utils/Context.sol\":735:745  msg.sender */\n      caller\n        /* \"@openzeppelin/contracts/utils/Context.sol\":728:745  return msg.sender */\n      swap1\n      pop\n        /* \"@openzeppelin/contracts/utils/Context.sol\":656:752  function _msgSender() internal view virtual returns (address) {... */\n      swap1\n      jump\t// out\n        /* \"@openzeppelin/contracts/token/ERC20/ERC20.sol\":8630:8758  function _approve(address owner, address spender, uint256 value) internal {... */\n    tag_156:\n        /* \"@openzeppelin/contracts/token/ERC20/ERC20.sol\":8714:8751  _approve(owner, spender, value, true) */\n      tag_259\n        /* \"@openzeppelin/contracts/token/ERC20/ERC20.sol\":8723:8728  owner */\n      dup4\n        /* \"@openzeppelin/contracts/token/ERC20/ERC20.sol\":8730:8737  spender */\n      dup4\n        /* \"@openzeppelin/contracts/token/ERC20/ERC20.sol\":8739:8744  value */\n      dup4\n        /* \"@openzeppelin/contracts/token/ERC20/ERC20.sol\":8746:8750  true */\n      0x01\n        /* \"@openzeppelin/contracts/token/ERC20/ERC20.sol\":8714:8722  _approve */\n      tag_260\n        /* \"@openzeppelin/contracts/token/ERC20/ERC20.sol\":8714:8751  _approve(owner, spender, value, true) */\n      jump\t// in\n    tag_259:\n        /* \"@openzeppelin/contracts/token/ERC20/ERC20.sol\":8630:8758  function _approve(address owner, address spender, uint256 value) internal {... */\n      pop\n      pop\n      pop\n      jump\t// out\n        /* \"@openzeppelin/contracts/access/AccessControl.sol\":3175:3278  function _checkRole(bytes32 role) internal view virtual {... */\n    tag_159:\n        /* \"@openzeppelin/contracts/access/AccessControl.sol\":3241:3271  _checkRole(role, _msgSender()) */\n      tag_262\n        /* \"@openzeppelin/contracts/access/AccessControl.sol\":3252:3256  role */\n      dup2\n        /* \"@openzeppelin/contracts/access/AccessControl.sol\":3258:3270  _msgSender() */\n      tag_263\n        /* \"@openzeppelin/contracts/access/AccessControl.sol\":3258:3268  _msgSender */\n      tag_154\n        /* \"@openzeppelin/contracts/access/AccessControl.sol\":3258:3270  _msgSender() */\n      jump\t// in\n    tag_263:\n        /* \"@openzeppelin/contracts/access/AccessControl.sol\":3241:3251  _checkRole */\n      tag_264\n        /* \"@openzeppelin/contracts/access/AccessControl.sol\":3241:3271  _checkRole(role, _msgSender()) */\n      jump\t// in\n    tag_262:\n        /* \"@openzeppelin/contracts/access/AccessControl.sol\":3175:3278  function _checkRole(bytes32 role) internal view virtual {... */\n      pop\n      jump\t// out\n        /* \"@openzeppelin/contracts/token/ERC20/ERC20.sol\":10319:10795  function _spendAllowance(address owner, address spender, uint256 value) internal virtual {... */\n    tag_184:\n        /* \"@openzeppelin/contracts/token/ERC20/ERC20.sol\":10418:10442  uint256 currentAllowance */\n      0x00\n        /* \"@openzeppelin/contracts/token/ERC20/ERC20.sol\":10445:10470  allowance(owner, spender) */\n      tag_266\n        /* \"@openzeppelin/contracts/token/ERC20/ERC20.sol\":10455:10460  owner */\n      dup5\n        /* \"@openzeppelin/contracts/token/ERC20/ERC20.sol\":10462:10469  spender */\n      dup5\n        /* \"@openzeppelin/contracts/token/ERC20/ERC20.sol\":10445:10454  allowance */\n      tag_130\n        /* \"@openzeppelin/contracts/token/ERC20/ERC20.sol\":10445:10470  allowance(owner, spender) */\n      jump\t// in\n    tag_266:\n        /* \"@openzeppelin/contracts/token/ERC20/ERC20.sol\":10418:10470  uint256 currentAllowance = allowance(owner, spender) */\n      swap1\n      pop\n        /* \"@openzeppelin/contracts/token/ERC20/ERC20.sol\":10503:10520  type(uint256).max */\n      0xffffffffffffffffffffffffffffffffffffffffffffffffffffffffffffffff\n        /* \"@openzeppelin/contracts/token/ERC20/ERC20.sol\":10484:10500  currentAllowance */\n      dup2\n        /* \"@openzeppelin/contracts/token/ERC20/ERC20.sol\":10484:10520  currentAllowance < type(uint256).max */\n      lt\n        /* \"@openzeppelin/contracts/token/ERC20/ERC20.sol\":10480:10789  if (currentAllowance < type(uint256).max) {... */\n      iszero\n      tag_267\n      jumpi\n        /* \"@openzeppelin/contracts/token/ERC20/ERC20.sol\":10559:10564  value */\n      dup2\n        /* \"@openzeppelin/contracts/token/ERC20/ERC20.sol\":10540:10556  currentAllowance */\n      dup2\n        /* \"@openzeppelin/contracts/token/ERC20/ERC20.sol\":10540:10564  currentAllowance < value */\n      lt\n        /* \"@openzeppelin/contracts/token/ERC20/ERC20.sol\":10536:10666  if (currentAllowance < value) {... */\n      iszero\n      tag_268\n      jumpi\n        /* \"@openzeppelin/contracts/token/ERC20/ERC20.sol\":10618:10625  spender */\n      dup3\n        /* \"@openzeppelin/contracts/token/ERC20/ERC20.sol\":10627:10643  currentAllowance */\n      dup2\n        /* \"@openzeppelin/contracts/token/ERC20/ERC20.sol\":10645:10650  value */\n      dup4\n        /* \"@openzeppelin/contracts/token/ERC20/ERC20.sol\":10591:10651  ERC20InsufficientAllowance(spender, currentAllowance, value) */\n      mload(0x40)\n      0xfb8f41b200000000000000000000000000000000000000000000000000000000\n      dup2\n      mstore\n      0x04\n      add\n      tag_269\n      swap4\n      swap3\n      swap2\n      swap1\n      tag_270\n      jump\t// in\n    tag_269:\n      mload(0x40)\n      dup1\n      swap2\n      sub\n      swap1\n      revert\n        /* \"@openzeppelin/contracts/token/ERC20/ERC20.sol\":10536:10666  if (currentAllowance < value) {... */\n    tag_268:\n        /* \"@openzeppelin/contracts/token/ERC20/ERC20.sol\":10707:10764  _approve(owner, spender, currentAllowance - value, false) */\n      tag_271\n        /* \"@openzeppelin/contracts/token/ERC20/ERC20.sol\":10716:10721  owner */\n      dup5\n        /* \"@openzeppelin/contracts/token/ERC20/ERC20.sol\":10723:10730  spender */\n      dup5\n        /* \"@openzeppelin/contracts/token/ERC20/ERC20.sol\":10751:10756  value */\n      dup5\n        /* \"@openzeppelin/contracts/token/ERC20/ERC20.sol\":10732:10748  currentAllowance */\n      dup5\n        /* \"@openzeppelin/contracts/token/ERC20/ERC20.sol\":10732:10756  currentAllowance - value */\n      sub\n        /* \"@openzeppelin/contracts/token/ERC20/ERC20.sol\":10758:10763  false */\n      0x00\n        /* \"@openzeppelin/contracts/token/ERC20/ERC20.sol\":10707:10715  _approve */\n      tag_260\n        /* \"@openzeppelin/contracts/token/ERC20/ERC20.sol\":10707:10764  _approve(owner, spender, currentAllowance - value, false) */\n      jump\t// in\n    tag_271:\n        /* \"@openzeppelin/contracts/token/ERC20/ERC20.sol\":10480:10789  if (currentAllowance < type(uint256).max) {... */\n    tag_267:\n        /* \"@openzeppelin/contracts/token/ERC20/ERC20.sol\":10408:10795  {... */\n      pop\n        /* \"@openzeppelin/contracts/token/ERC20/ERC20.sol\":10319:10795  function _spendAllowance(address owner, address spender, uint256 value) internal virtual {... */\n      pop\n      pop\n      pop\n      jump\t// out\n        /* \"@openzeppelin/contracts/token/ERC20/ERC20.sol\":5297:5597  function _transfer(address from, address to, uint256 value) internal {... */\n    tag_186:\n        /* \"@openzeppelin/contracts/token/ERC20/ERC20.sol\":5396:5397  0 */\n      0x00\n        /* \"@openzeppelin/contracts/token/ERC20/ERC20.sol\":5380:5398  from == address(0) */\n      0xffffffffffffffffffffffffffffffffffffffff\n      and\n        /* \"@openzeppelin/contracts/token/ERC20/ERC20.sol\":5380:5384  from */\n      dup4\n        /* \"@openzeppelin/contracts/token/ERC20/ERC20.sol\":5380:5398  from == address(0) */\n      0xffffffffffffffffffffffffffffffffffffffff\n      and\n      sub\n        /* \"@openzeppelin/contracts/token/ERC20/ERC20.sol\":5376:5462  if (from == address(0)) {... */\n      tag_273\n      jumpi\n        /* \"@openzeppelin/contracts/token/ERC20/ERC20.sol\":5448:5449  0 */\n      0x00\n        /* \"@openzeppelin/contracts/token/ERC20/ERC20.sol\":5421:5451  ERC20InvalidSender(address(0)) */\n      mload(0x40)\n      0x96c6fd1e00000000000000000000000000000000000000000000000000000000\n      dup2\n      mstore\n      0x04\n      add\n      tag_274\n      swap2\n      swap1\n      tag_275\n      jump\t// in\n    tag_274:\n      mload(0x40)\n      dup1\n      swap2\n      sub\n      swap1\n      revert\n        /* \"@openzeppelin/contracts/token/ERC20/ERC20.sol\":5376:5462  if (from == address(0)) {... */\n    tag_273:\n        /* \"@openzeppelin/contracts/token/ERC20/ERC20.sol\":5489:5490  0 */\n      0x00\n        /* \"@openzeppelin/contracts/token/ERC20/ERC20.sol\":5475:5491  to == address(0) */\n      0xffffffffffffffffffffffffffffffffffffffff\n      and\n        /* \"@openzeppelin/contracts/token/ERC20/ERC20.sol\":5475:5477  to */\n      dup3\n        /* \"@openzeppelin/contracts/token/ERC20/ERC20.sol\":5475:5491  to == address(0) */\n      0xffffffffffffffffffffffffffffffffffffffff\n      and\n      sub\n        /* \"@openzeppelin/contracts/token/ERC20/ERC20.sol\":5471:5557  if (to == address(0)) {... */\n      tag_276\n      jumpi\n        /* \"@openzeppelin/contracts/token/ERC20/ERC20.sol\":5543:5544  0 */\n      0x00\n        /* \"@openzeppelin/contracts/token/ERC20/ERC20.sol\":5514:5546  ERC20InvalidReceiver(address(0)) */\n      mload(0x40)\n      0xec442f0500000000000000000000000000000000000000000000000000000000\n      dup2\n      mstore\n      0x04\n      add\n      tag_277\n      swap2\n      swap1\n      tag_275\n      jump\t// in\n    tag_277:\n      mload(0x40)\n      dup1\n      swap2\n      sub\n      swap1\n      revert\n        /* \"@openzeppelin/contracts/token/ERC20/ERC20.sol\":5471:5557  if (to == address(0)) {... */\n    tag_276:\n        /* \"@openzeppelin/contracts/token/ERC20/ERC20.sol\":5566:5590  _update(from, to, value) */\n      tag_278\n        /* \"@openzeppelin/contracts/token/ERC20/ERC20.sol\":5574:5578  from */\n      dup4\n        /* \"@openzeppelin/contracts/token/ERC20/ERC20.sol\":5580:5582  to */\n      dup4\n        /* \"@openzeppelin/contracts/token/ERC20/ERC20.sol\":5584:5589  value */\n      dup4\n        /* \"@openzeppelin/contracts/token/ERC20/ERC20.sol\":5566:5573  _update */\n      tag_279\n        /* \"@openzeppelin/contracts/token/ERC20/ERC20.sol\":5566:5590  _update(from, to, value) */\n      jump\t// in\n    tag_278:\n        /* \"@openzeppelin/contracts/token/ERC20/ERC20.sol\":5297:5597  function _transfer(address from, address to, uint256 value) internal {... */\n      pop\n      pop\n      pop\n      jump\t// out\n        /* \"@openzeppelin/contracts/access/AccessControl.sol\":6155:6471  function _grantRole(bytes32 role, address account) internal virtual returns (bool) {... */\n    tag_193:\n        /* \"@openzeppelin/contracts/access/AccessControl.sol\":6232:6236  bool */\n      0x00\n        /* \"@openzeppelin/contracts/access/AccessControl.sol\":6253:6275  hasRole(role, account) */\n      tag_281\n        /* \"@openzeppelin/contracts/access/AccessControl.sol\":6261:6265  role */\n      dup4\n        /* \"@openzeppelin/contracts/access/AccessControl.sol\":6267:6274  account */\n      dup4\n        /* \"@openzeppelin/contracts/access/AccessControl.sol\":6253:6260  hasRole */\n      tag_109\n        /* \"@openzeppelin/contracts/access/AccessControl.sol\":6253:6275  hasRole(role, account) */\n      jump\t// in\n    tag_281:\n        /* \"@openzeppelin/contracts/access/AccessControl.sol\":6248:6465  if (!hasRole(role, account)) {... */\n      tag_282\n      jumpi\n        /* \"@openzeppelin/contracts/access/AccessControl.sol\":6323:6327  true */\n      0x01\n        /* \"@openzeppelin/contracts/access/AccessControl.sol\":6291:6297  _roles */\n      0x06\n        /* \"@openzeppelin/contracts/access/AccessControl.sol\":6291:6303  _roles[role] */\n      0x00\n        /* \"@openzeppelin/contracts/access/AccessControl.sol\":6298:6302  role */\n      dup6\n        /* \"@openzeppelin/contracts/access/AccessControl.sol\":6291:6303  _roles[role] */\n      dup2\n      mstore\n      0x20\n      add\n      swap1\n      dup2\n      mstore\n      0x20\n      add\n      0x00\n      keccak256\n        /* \"@openzeppelin/contracts/access/AccessControl.sol\":6291:6311  _roles[role].hasRole */\n      0x00\n      add\n        /* \"@openzeppelin/contracts/access/AccessControl.sol\":6291:6320  _roles[role].hasRole[account] */\n      0x00\n        /* \"@openzeppelin/contracts/access/AccessControl.sol\":6312:6319  account */\n      dup5\n        /* \"@openzeppelin/contracts/access/AccessControl.sol\":6291:6320  _roles[role].hasRole[account] */\n      0xffffffffffffffffffffffffffffffffffffffff\n      and\n      0xffffffffffffffffffffffffffffffffffffffff\n      and\n      dup2\n      mstore\n      0x20\n      add\n      swap1\n      dup2\n      mstore\n      0x20\n      add\n      0x00\n      keccak256\n      0x00\n        /* \"@openzeppelin/contracts/access/AccessControl.sol\":6291:6327  _roles[role].hasRole[account] = true */\n      0x0100\n      exp\n      dup2\n      sload\n      dup2\n      0xff\n      mul\n      not\n      and\n      swap1\n      dup4\n      iszero\n      iszero\n      mul\n      or\n      swap1\n      sstore\n      pop\n        /* \"@openzeppelin/contracts/access/AccessControl.sol\":6373:6385  _msgSender() */\n      tag_283\n        /* \"@openzeppelin/contracts/access/AccessControl.sol\":6373:6383  _msgSender */\n      tag_154\n        /* \"@openzeppelin/contracts/access/AccessControl.sol\":6373:6385  _msgSender() */\n      jump\t// in\n    tag_283:\n        /* \"@openzeppelin/contracts/access/AccessControl.sol\":6346:6386  RoleGranted(role, account, _msgSender()) */\n      0xffffffffffffffffffffffffffffffffffffffff\n      and\n        /* \"@openzeppelin/contracts/access/AccessControl.sol\":6364:6371  account */\n      dup3\n        /* \"@openzeppelin/contracts/access/AccessControl.sol\":6346:6386  RoleGranted(role, account, _msgSender()) */\n      0xffffffffffffffffffffffffffffffffffffffff\n      and\n        /* \"@openzeppelin/contracts/access/AccessControl.sol\":6358:6362  role */\n      dup5\n        /* \"@openzeppelin/contracts/access/AccessControl.sol\":6346:6386  RoleGranted(role, account, _msgSender()) */\n      0x2f8788117e7eff1d82e926ec794901d17c78024a50270940304540a733656f0d\n      mload(0x40)\n      mload(0x40)\n      dup1\n      swap2\n      sub\n      swap1\n      log4\n        /* \"@openzeppelin/contracts/access/AccessControl.sol\":6407:6411  true */\n      0x01\n        /* \"@openzeppelin/contracts/access/AccessControl.sol\":6400:6411  return true */\n      swap1\n      pop\n      jump(tag_280)\n        /* \"@openzeppelin/contracts/access/AccessControl.sol\":6248:6465  if (!hasRole(role, account)) {... */\n    tag_282:\n        /* \"@openzeppelin/contracts/access/AccessControl.sol\":6449:6454  false */\n      0x00\n        /* \"@openzeppelin/contracts/access/AccessControl.sol\":6442:6454  return false */\n      swap1\n      pop\n        /* \"@openzeppelin/contracts/access/AccessControl.sol\":6155:6471  function _grantRole(bytes32 role, address account) internal virtual returns (bool) {... */\n    tag_280:\n      swap3\n      swap2\n      pop\n      pop\n      jump\t// out\n        /* \"@openzeppelin/contracts/access/AccessControl.sol\":6708:7025  function _revokeRole(bytes32 role, address account) internal virtual returns (bool) {... */\n    tag_200:\n        /* \"@openzeppelin/contracts/access/AccessControl.sol\":6786:6790  bool */\n      0x00\n        /* \"@openzeppelin/contracts/access/AccessControl.sol\":6806:6828  hasRole(role, account) */\n      tag_286\n        /* \"@openzeppelin/contracts/access/AccessControl.sol\":6814:6818  role */\n      dup4\n        /* \"@openzeppelin/contracts/access/AccessControl.sol\":6820:6827  account */\n      dup4\n        /* \"@openzeppelin/contracts/access/AccessControl.sol\":6806:6813  hasRole */\n      tag_109\n        /* \"@openzeppelin/contracts/access/AccessControl.sol\":6806:6828  hasRole(role, account) */\n      jump\t// in\n    tag_286:\n        /* \"@openzeppelin/contracts/access/AccessControl.sol\":6802:7019  if (hasRole(role, account)) {... */\n      iszero\n      tag_287\n      jumpi\n        /* \"@openzeppelin/contracts/access/AccessControl.sol\":6876:6881  false */\n      0x00\n        /* \"@openzeppelin/contracts/access/AccessControl.sol\":6844:6850  _roles */\n      0x06\n        /* \"@openzeppelin/contracts/access/AccessControl.sol\":6844:6856  _roles[role] */\n      0x00\n        /* \"@openzeppelin/contracts/access/AccessControl.sol\":6851:6855  role */\n      dup6\n        /* \"@openzeppelin/contracts/access/AccessControl.sol\":6844:6856  _roles[role] */\n      dup2\n      mstore\n      0x20\n      add\n      swap1\n      dup2\n      mstore\n      0x20\n      add\n      0x00\n      keccak256\n        /* \"@openzeppelin/contracts/access/AccessControl.sol\":6844:6864  _roles[role].hasRole */\n      0x00\n      add\n        /* \"@openzeppelin/contracts/access/AccessControl.sol\":6844:6873  _roles[role].hasRole[account] */\n      0x00\n        /* \"@openzeppelin/contracts/access/AccessControl.sol\":6865:6872  account */\n      dup5\n        /* \"@openzeppelin/contracts/access/AccessControl.sol\":6844:6873  _roles[role].hasRole[account] */\n      0xffffffffffffffffffffffffffffffffffffffff\n      and\n      0xffffffffffffffffffffffffffffffffffffffff\n      and\n      dup2\n      mstore\n      0x20\n      add\n      swap1\n      dup2\n      mstore\n      0x20\n      add\n      0x00\n      keccak256\n      0x00\n        /* \"@openzeppelin/contracts/access/AccessControl.sol\":6844:6881  _roles[role].hasRole[account] = false */\n      0x0100\n      exp\n      dup2\n      sload\n      dup2\n      0xff\n      mul\n      not\n      and\n      swap1\n      dup4\n      iszero\n      iszero\n      mul\n      or\n      swap1\n      sstore\n      pop\n        /* \"@openzeppelin/contracts/access/AccessControl.sol\":6927:6939  _msgSender() */\n      tag_288\n        /* \"@openzeppelin/contracts/access/AccessControl.sol\":6927:6937  _msgSender */\n      tag_154\n        /* \"@openzeppelin/contracts/access/AccessControl.sol\":6927:6939  _msgSender() */\n      jump\t// in\n    tag_288:\n        /* \"@openzeppelin/contracts/access/AccessControl.sol\":6900:6940  RoleRevoked(role, account, _msgSender()) */\n      0xffffffffffffffffffffffffffffffffffffffff\n      and\n        /* \"@openzeppelin/contracts/access/AccessControl.sol\":6918:6925  account */\n      dup3\n        /* \"@openzeppelin/contracts/access/AccessControl.sol\":6900:6940  RoleRevoked(role, account, _msgSender()) */\n      0xffffffffffffffffffffffffffffffffffffffff\n      and\n        /* \"@openzeppelin/contracts/access/AccessControl.sol\":6912:6916  role */\n      dup5\n        /* \"@openzeppelin/contracts/access/AccessControl.sol\":6900:6940  RoleRevoked(role, account, _msgSender()) */\n      0xf6391f5c32d9c69d2a47ea670b442974b53935d1edc7fd64eb21e047a839171b\n      mload(0x40)\n      mload(0x40)\n      dup1\n      swap2\n      sub\n      swap1\n      log4\n        /* \"@openzeppelin/contracts/access/AccessControl.sol\":6961:6965  true */\n      0x01\n        /* \"@openzeppelin/contracts/access/AccessControl.sol\":6954:6965  return true */\n      swap1\n      pop\n      jump(tag_285)\n        /* \"@openzeppelin/contracts/access/AccessControl.sol\":6802:7019  if (hasRole(role, account)) {... */\n    tag_287:\n        /* \"@openzeppelin/contracts/access/AccessControl.sol\":7003:7008  false */\n      0x00\n        /* \"@openzeppelin/contracts/access/AccessControl.sol\":6996:7008  return false */\n      swap1\n      pop\n        /* \"@openzeppelin/contracts/access/AccessControl.sol\":6708:7025  function _revokeRole(bytes32 role, address account) internal virtual returns (bool) {... */\n    tag_285:\n      swap3\n      swap2\n      pop\n      pop\n      jump\t// out\n        /* \"@openzeppelin/contracts/security/Pausable.sol\":2433:2550  function _unpause() internal virtual whenPaused {... */\n    tag_206:\n        /* \"@openzeppelin/contracts/security/Pausable.sol\":1486:1502  _requirePaused() */\n      tag_291\n        /* \"@openzeppelin/contracts/security/Pausable.sol\":1486:1500  _requirePaused */\n      tag_292\n        /* \"@openzeppelin/contracts/security/Pausable.sol\":1486:1502  _requirePaused() */\n      jump\t// in\n    tag_291:\n        /* \"@openzeppelin/contracts/security/Pausable.sol\":2501:2506  false */\n      0x00\n        /* \"@openzeppelin/contracts/security/Pausable.sol\":2491:2498  _paused */\n      dup1\n      0x00\n        /* \"@openzeppelin/contracts/security/Pausable.sol\":2491:2506  _paused = false */\n      0x0100\n      exp\n      dup2\n      sload\n      dup2\n      0xff\n      mul\n      not\n      and\n      swap1\n      dup4\n      iszero\n      iszero\n      mul\n      or\n      swap1\n      sstore\n      pop\n        /* \"@openzeppelin/contracts/security/Pausable.sol\":2521:2543  Unpaused(_msgSender()) */\n      0x5db9ee0a495bf2e6ff9c91a7834c1ba4fdd244a5e8aa4e537bd38aeae4b073aa\n        /* \"@openzeppelin/contracts/security/Pausable.sol\":2530:2542  _msgSender() */\n      tag_294\n        /* \"@openzeppelin/contracts/security/Pausable.sol\":2530:2540  _msgSender */\n      tag_154\n        /* \"@openzeppelin/contracts/security/Pausable.sol\":2530:2542  _msgSender() */\n      jump\t// in\n    tag_294:\n        /* \"@openzeppelin/contracts/security/Pausable.sol\":2521:2543  Unpaused(_msgSender()) */\n      mload(0x40)\n      tag_295\n      swap2\n      swap1\n      tag_275\n      jump\t// in\n    tag_295:\n      mload(0x40)\n      dup1\n      swap2\n      sub\n      swap1\n      log1\n        /* \"@openzeppelin/contracts/security/Pausable.sol\":2433:2550  function _unpause() internal virtual whenPaused {... */\n      jump\t// out\n        /* \"@openzeppelin/contracts/token/ERC20/ERC20.sol\":7362:7570  function _mint(address account, uint256 value) internal {... */\n    tag_211:\n        /* \"@openzeppelin/contracts/token/ERC20/ERC20.sol\":7451:7452  0 */\n      0x00\n        /* \"@openzeppelin/contracts/token/ERC20/ERC20.sol\":7432:7453  account == address(0) */\n      0xffffffffffffffffffffffffffffffffffffffff\n      and\n        /* \"@openzeppelin/contracts/token/ERC20/ERC20.sol\":7432:7439  account */\n      dup3\n        /* \"@openzeppelin/contracts/token/ERC20/ERC20.sol\":7432:7453  account == address(0) */\n      0xffffffffffffffffffffffffffffffffffffffff\n      and\n      sub\n        /* \"@openzeppelin/contracts/token/ERC20/ERC20.sol\":7428:7519  if (account == address(0)) {... */\n      tag_297\n      jumpi\n        /* \"@openzeppelin/contracts/token/ERC20/ERC20.sol\":7505:7506  0 */\n      0x00\n        /* \"@openzeppelin/contracts/token/ERC20/ERC20.sol\":7476:7508  ERC20InvalidReceiver(address(0)) */\n      mload(0x40)\n      0xec442f0500000000000000000000000000000000000000000000000000000000\n      dup2\n      mstore\n      0x04\n      add\n      tag_298\n      swap2\n      swap1\n      tag_275\n      jump\t// in\n    tag_298:\n      mload(0x40)\n      dup1\n      swap2\n      sub\n      swap1\n      revert\n        /* \"@openzeppelin/contracts/token/ERC20/ERC20.sol\":7428:7519  if (account == address(0)) {... */\n    tag_297:\n        /* \"@openzeppelin/contracts/token/ERC20/ERC20.sol\":7528:7563  _update(address(0), account, value) */\n      tag_299\n        /* \"@openzeppelin/contracts/token/ERC20/ERC20.sol\":7544:7545  0 */\n      0x00\n        /* \"@openzeppelin/contracts/token/ERC20/ERC20.sol\":7548:7555  account */\n      dup4\n        /* \"@openzeppelin/contracts/token/ERC20/ERC20.sol\":7557:7562  value */\n      dup4\n        /* \"@openzeppelin/contracts/token/ERC20/ERC20.sol\":7528:7535  _update */\n      tag_279\n        /* \"@openzeppelin/contracts/token/ERC20/ERC20.sol\":7528:7563  _update(address(0), account, value) */\n      jump\t// in\n    tag_299:\n        /* \"@openzeppelin/contracts/token/ERC20/ERC20.sol\":7362:7570  function _mint(address account, uint256 value) internal {... */\n      pop\n      pop\n      jump\t// out\n        /* \"@openzeppelin/contracts/security/Pausable.sol\":2186:2301  function _pause() internal virtual whenNotPaused {... */\n    tag_218:\n        /* \"@openzeppelin/contracts/security/Pausable.sol\":1239:1258  _requireNotPaused() */\n      tag_301\n        /* \"@openzeppelin/contracts/security/Pausable.sol\":1239:1256  _requireNotPaused */\n      tag_302\n        /* \"@openzeppelin/contracts/security/Pausable.sol\":1239:1258  _requireNotPaused() */\n      jump\t// in\n    tag_301:\n        /* \"@openzeppelin/contracts/security/Pausable.sol\":2255:2259  true */\n      0x01\n        /* \"@openzeppelin/contracts/security/Pausable.sol\":2245:2252  _paused */\n      0x00\n      dup1\n        /* \"@openzeppelin/contracts/security/Pausable.sol\":2245:2259  _paused = true */\n      0x0100\n      exp\n      dup2\n      sload\n      dup2\n      0xff\n      mul\n      not\n      and\n      swap1\n      dup4\n      iszero\n      iszero\n      mul\n      or\n      swap1\n      sstore\n      pop\n        /* \"@openzeppelin/contracts/security/Pausable.sol\":2274:2294  Paused(_msgSender()) */\n      0x62e78cea01bee320cd4e420270b5ea74000d11b0c9f74754ebdbfc544b05a258\n        /* \"@openzeppelin/contracts/security/Pausable.sol\":2281:2293  _msgSender() */\n      tag_304\n        /* \"@openzeppelin/contracts/security/Pausable.sol\":2281:2291  _msgSender */\n      tag_154\n        /* \"@openzeppelin/contracts/security/Pausable.sol\":2281:2293  _msgSender() */\n      jump\t// in\n    tag_304:\n        /* \"@openzeppelin/contracts/security/Pausable.sol\":2274:2294  Paused(_msgSender()) */\n      mload(0x40)\n      tag_305\n      swap2\n      swap1\n      tag_275\n      jump\t// in\n    tag_305:\n      mload(0x40)\n      dup1\n      swap2\n      sub\n      swap1\n      log1\n        /* \"@openzeppelin/contracts/security/Pausable.sol\":2186:2301  function _pause() internal virtual whenNotPaused {... */\n      jump\t// out\n        /* \"@openzeppelin/contracts/token/ERC20/ERC20.sol\":9605:10037  function _approve(address owner, address spender, uint256 value, bool emitEvent) internal virtual {... */\n    tag_260:\n        /* \"@openzeppelin/contracts/token/ERC20/ERC20.sol\":9734:9735  0 */\n      0x00\n        /* \"@openzeppelin/contracts/token/ERC20/ERC20.sol\":9717:9736  owner == address(0) */\n      0xffffffffffffffffffffffffffffffffffffffff\n      and\n        /* \"@openzeppelin/contracts/token/ERC20/ERC20.sol\":9717:9722  owner */\n      dup5\n        /* \"@openzeppelin/contracts/token/ERC20/ERC20.sol\":9717:9736  owner == address(0) */\n      0xffffffffffffffffffffffffffffffffffffffff\n      and\n      sub\n        /* \"@openzeppelin/contracts/token/ERC20/ERC20.sol\":9713:9802  if (owner == address(0)) {... */\n      tag_307\n      jumpi\n        /* \"@openzeppelin/contracts/token/ERC20/ERC20.sol\":9788:9789  0 */\n      0x00\n        /* \"@openzeppelin/contracts/token/ERC20/ERC20.sol\":9759:9791  ERC20InvalidApprover(address(0)) */\n      mload(0x40)\n      0xe602df0500000000000000000000000000000000000000000000000000000000\n      dup2\n      mstore\n      0x04\n      add\n      tag_308\n      swap2\n      swap1\n      tag_275\n      jump\t// in\n    tag_308:\n      mload(0x40)\n      dup1\n      swap2\n      sub\n      swap1\n      revert\n        /* \"@openzeppelin/contracts/token/ERC20/ERC20.sol\":9713:9802  if (owner == address(0)) {... */\n    tag_307:\n        /* \"@openzeppelin/contracts/token/ERC20/ERC20.sol\":9834:9835  0 */\n      0x00\n        /* \"@openzeppelin/contracts/token/ERC20/ERC20.sol\":9815:9836  spender == address(0) */\n      0xffffffffffffffffffffffffffffffffffffffff\n      and\n        /* \"@openzeppelin/contracts/token/ERC20/ERC20.sol\":9815:9822  spender */\n      dup4\n        /* \"@openzeppelin/contracts/token/ERC20/ERC20.sol\":9815:9836  spender == address(0) */\n      0xffffffffffffffffffffffffffffffffffffffff\n      and\n      sub\n        /* \"@openzeppelin/contracts/token/ERC20/ERC20.sol\":9811:9901  if (spender == address(0)) {... */\n      tag_309\n      jumpi\n        /* \"@openzeppelin/contracts/token/ERC20/ERC20.sol\":9887:9888  0 */\n      0x00\n        /* \"@openzeppelin/contracts/token/ERC20/ERC20.sol\":9859:9890  ERC20InvalidSpender(address(0)) */\n      mload(0x40)\n      0x94280d6200000000000000000000000000000000000000000000000000000000\n      dup2\n      mstore\n      0x04\n      add\n      tag_310\n      swap2\n      swap1\n      tag_275\n      jump\t// in\n    tag_310:\n      mload(0x40)\n      dup1\n      swap2\n      sub\n      swap1\n      revert\n        /* \"@openzeppelin/contracts/token/ERC20/ERC20.sol\":9811:9901  if (spender == address(0)) {... */\n    tag_309:\n        /* \"@openzeppelin/contracts/token/ERC20/ERC20.sol\":9940:9945  value */\n      dup2\n        /* \"@openzeppelin/contracts/token/ERC20/ERC20.sol\":9910:9921  _allowances */\n      0x02\n        /* \"@openzeppelin/contracts/token/ERC20/ERC20.sol\":9910:9928  _allowances[owner] */\n      0x00\n        /* \"@openzeppelin/contracts/token/ERC20/ERC20.sol\":9922:9927  owner */\n      dup7\n        /* \"@openzeppelin/contracts/token/ERC20/ERC20.sol\":9910:9928  _allowances[owner] */\n      0xffffffffffffffffffffffffffffffffffffffff\n      and\n      0xffffffffffffffffffffffffffffffffffffffff\n      and\n      dup2\n      mstore\n      0x20\n      add\n      swap1\n      dup2\n      mstore\n      0x20\n      add\n      0x00\n      keccak256\n        /* \"@openzeppelin/contracts/token/ERC20/ERC20.sol\":9910:9937  _allowances[owner][spender] */\n      0x00\n        /* \"@openzeppelin/contracts/token/ERC20/ERC20.sol\":9929:9936  spender */\n      dup6\n        /* \"@openzeppelin/contracts/token/ERC20/ERC20.sol\":9910:9937  _allowances[owner][spender] */\n      0xffffffffffffffffffffffffffffffffffffffff\n      and\n      0xffffffffffffffffffffffffffffffffffffffff\n      and\n      dup2\n      mstore\n      0x20\n      add\n      swap1\n      dup2\n      mstore\n      0x20\n      add\n      0x00\n      keccak256\n        /* \"@openzeppelin/contracts/token/ERC20/ERC20.sol\":9910:9945  _allowances[owner][spender] = value */\n      dup2\n      swap1\n      sstore\n      pop\n        /* \"@openzeppelin/contracts/token/ERC20/ERC20.sol\":9959:9968  emitEvent */\n      dup1\n        /* \"@openzeppelin/contracts/token/ERC20/ERC20.sol\":9955:10031  if (emitEvent) {... */\n      iszero\n      tag_311\n      jumpi\n        /* \"@openzeppelin/contracts/token/ERC20/ERC20.sol\":10005:10012  spender */\n      dup3\n        /* \"@openzeppelin/contracts/token/ERC20/ERC20.sol\":9989:10020  Approval(owner, spender, value) */\n      0xffffffffffffffffffffffffffffffffffffffff\n      and\n        /* \"@openzeppelin/contracts/token/ERC20/ERC20.sol\":9998:10003  owner */\n      dup5\n        /* \"@openzeppelin/contracts/token/ERC20/ERC20.sol\":9989:10020  Approval(owner, spender, value) */\n      0xffffffffffffffffffffffffffffffffffffffff\n      and\n      0x8c5be1e5ebec7d5bd14f71427d1e84f3dd0314c0f7b2291e5b200ac8c7c3b925\n        /* \"@openzeppelin/contracts/token/ERC20/ERC20.sol\":10014:10019  value */\n      dup5\n        /* \"@openzeppelin/contracts/token/ERC20/ERC20.sol\":9989:10020  Approval(owner, spender, value) */\n      mload(0x40)\n      tag_312\n      swap2\n      swap1\n      tag_60\n      jump\t// in\n    tag_312:\n      mload(0x40)\n      dup1\n      swap2\n      sub\n      swap1\n      log3\n        /* \"@openzeppelin/contracts/token/ERC20/ERC20.sol\":9955:10031  if (emitEvent) {... */\n    tag_311:\n        /* \"@openzeppelin/contracts/token/ERC20/ERC20.sol\":9605:10037  function _approve(address owner, address spender, uint256 value, bool emitEvent) internal virtual {... */\n      pop\n      pop\n      pop\n      pop\n      jump\t// out\n        /* \"@openzeppelin/contracts/access/AccessControl.sol\":3408:3605  function _checkRole(bytes32 role, address account) internal view virtual {... */\n    tag_264:\n        /* \"@openzeppelin/contracts/access/AccessControl.sol\":3496:3518  hasRole(role, account) */\n      tag_314\n        /* \"@openzeppelin/contracts/access/AccessControl.sol\":3504:3508  role */\n      dup3\n        /* \"@openzeppelin/contracts/access/AccessControl.sol\":3510:3517  account */\n      dup3\n        /* \"@openzeppelin/contracts/access/AccessControl.sol\":3496:3503  hasRole */\n      tag_109\n        /* \"@openzeppelin/contracts/access/AccessControl.sol\":3496:3518  hasRole(role, account) */\n      jump\t// in\n    tag_314:\n        /* \"@openzeppelin/contracts/access/AccessControl.sol\":3491:3599  if (!hasRole(role, account)) {... */\n      tag_315\n      jumpi\n        /* \"@openzeppelin/contracts/access/AccessControl.sol\":3574:3581  account */\n      dup1\n        /* \"@openzeppelin/contracts/access/AccessControl.sol\":3583:3587  role */\n      dup3\n        /* \"@openzeppelin/contracts/access/AccessControl.sol\":3541:3588  AccessControlUnauthorizedAccount(account, role) */\n      mload(0x40)\n      0xe2517d3f00000000000000000000000000000000000000000000000000000000\n      dup2\n      mstore\n      0x04\n      add\n      tag_316\n      swap3\n      swap2\n      swap1\n      tag_317\n      jump\t// in\n    tag_316:\n      mload(0x40)\n      dup1\n      swap2\n      sub\n      swap1\n      revert\n        /* \"@openzeppelin/contracts/access/AccessControl.sol\":3491:3599  if (!hasRole(role, account)) {... */\n    tag_315:\n        /* \"@openzeppelin/contracts/access/AccessControl.sol\":3408:3605  function _checkRole(bytes32 role, address account) internal view virtual {... */\n      pop\n      pop\n      jump\t// out\n        /* \"contracts/ub.sol\":3710:4252  function _update(... */\n    tag_279:\n        /* \"contracts/ub.sol\":3838:3846  paused() */\n      tag_319\n        /* \"contracts/ub.sol\":3838:3844  paused */\n      tag_96\n        /* \"contracts/ub.sol\":3838:3846  paused() */\n      jump\t// in\n    tag_319:\n        /* \"contracts/ub.sol\":3834:4206  if (paused()) {... */\n      iszero\n      tag_320\n      jumpi\n        /* \"contracts/ub.sol\":3862:3876  bool isMinting */\n      0x00\n        /* \"contracts/ub.sol\":3895:3896  0 */\n      dup1\n        /* \"contracts/ub.sol\":3879:3897  from == address(0) */\n      0xffffffffffffffffffffffffffffffffffffffff\n      and\n        /* \"contracts/ub.sol\":3879:3883  from */\n      dup5\n        /* \"contracts/ub.sol\":3879:3897  from == address(0) */\n      0xffffffffffffffffffffffffffffffffffffffff\n      and\n      eq\n        /* \"contracts/ub.sol\":3862:3897  bool isMinting = from == address(0) */\n      swap1\n      pop\n        /* \"contracts/ub.sol\":3911:3925  bool isBurning */\n      0x00\n        /* \"contracts/ub.sol\":3942:3943  0 */\n      dup1\n        /* \"contracts/ub.sol\":3928:3944  to == address(0) */\n      0xffffffffffffffffffffffffffffffffffffffff\n      and\n        /* \"contracts/ub.sol\":3928:3930  to */\n      dup5\n        /* \"contracts/ub.sol\":3928:3944  to == address(0) */\n      0xffffffffffffffffffffffffffffffffffffffff\n      and\n      eq\n        /* \"contracts/ub.sol\":3911:3944  bool isBurning = to == address(0) */\n      swap1\n      pop\n        /* \"contracts/ub.sol\":3958:3984  bool isWhitelistedTransfer */\n      0x00\n        /* \"contracts/ub.sol\":3987:4001  _isWhitelisted */\n      0x07\n        /* \"contracts/ub.sol\":3987:4007  _isWhitelisted[from] */\n      0x00\n        /* \"contracts/ub.sol\":4002:4006  from */\n      dup8\n        /* \"contracts/ub.sol\":3987:4007  _isWhitelisted[from] */\n      0xffffffffffffffffffffffffffffffffffffffff\n      and\n      0xffffffffffffffffffffffffffffffffffffffff\n      and\n      dup2\n      mstore\n      0x20\n      add\n      swap1\n      dup2\n      mstore\n      0x20\n      add\n      0x00\n      keccak256\n      0x00\n      swap1\n      sload\n      swap1\n      0x0100\n      exp\n      swap1\n      div\n      0xff\n      and\n        /* \"contracts/ub.sol\":3987:4029  _isWhitelisted[from] && _isWhitelisted[to] */\n      dup1\n      iszero\n      tag_321\n      jumpi\n      pop\n        /* \"contracts/ub.sol\":4011:4025  _isWhitelisted */\n      0x07\n        /* \"contracts/ub.sol\":4011:4029  _isWhitelisted[to] */\n      0x00\n        /* \"contracts/ub.sol\":4026:4028  to */\n      dup7\n        /* \"contracts/ub.sol\":4011:4029  _isWhitelisted[to] */\n      0xffffffffffffffffffffffffffffffffffffffff\n      and\n      0xffffffffffffffffffffffffffffffffffffffff\n      and\n      dup2\n      mstore\n      0x20\n      add\n      swap1\n      dup2\n      mstore\n      0x20\n      add\n      0x00\n      keccak256\n      0x00\n      swap1\n      sload\n      swap1\n      0x0100\n      exp\n      swap1\n      div\n      0xff\n      and\n        /* \"contracts/ub.sol\":3987:4029  _isWhitelisted[from] && _isWhitelisted[to] */\n    tag_321:\n        /* \"contracts/ub.sol\":3958:4029  bool isWhitelistedTransfer = _isWhitelisted[from] && _isWhitelisted[to] */\n      swap1\n      pop\n        /* \"contracts/ub.sol\":4068:4077  isMinting */\n      dup3\n        /* \"contracts/ub.sol\":4068:4090  isMinting || isBurning */\n      dup1\n      tag_322\n      jumpi\n      pop\n        /* \"contracts/ub.sol\":4081:4090  isBurning */\n      dup2\n        /* \"contracts/ub.sol\":4068:4090  isMinting || isBurning */\n    tag_322:\n        /* \"contracts/ub.sol\":4068:4115  isMinting || isBurning || isWhitelistedTransfer */\n      dup1\n      tag_323\n      jumpi\n      pop\n        /* \"contracts/ub.sol\":4094:4115  isWhitelistedTransfer */\n      dup1\n        /* \"contracts/ub.sol\":4068:4115  isMinting || isBurning || isWhitelistedTransfer */\n    tag_323:\n        /* \"contracts/ub.sol\":4043:4195  require(... */\n      tag_324\n      jumpi\n      mload(0x40)\n      0x08c379a000000000000000000000000000000000000000000000000000000000\n      dup2\n      mstore\n      0x04\n      add\n      tag_325\n      swap1\n      tag_326\n      jump\t// in\n    tag_325:\n      mload(0x40)\n      dup1\n      swap2\n      sub\n      swap1\n      revert\n    tag_324:\n        /* \"contracts/ub.sol\":3848:4206  {... */\n      pop\n      pop\n      pop\n        /* \"contracts/ub.sol\":3834:4206  if (paused()) {... */\n    tag_320:\n        /* \"contracts/ub.sol\":4215:4245  super._update(from, to, value) */\n      tag_327\n        /* \"contracts/ub.sol\":4229:4233  from */\n      dup4\n        /* \"contracts/ub.sol\":4235:4237  to */\n      dup4\n        /* \"contracts/ub.sol\":4239:4244  value */\n      dup4\n        /* \"contracts/ub.sol\":4215:4228  super._update */\n      tag_328\n        /* \"contracts/ub.sol\":4215:4245  super._update(from, to, value) */\n      jump\t// in\n    tag_327:\n        /* \"contracts/ub.sol\":3710:4252  function _update(... */\n      pop\n      pop\n      pop\n      jump\t// out\n        /* \"@openzeppelin/contracts/security/Pausable.sol\":1945:2051  function _requirePaused() internal view virtual {... */\n    tag_292:\n        /* \"@openzeppelin/contracts/security/Pausable.sol\":2011:2019  paused() */\n      tag_330\n        /* \"@openzeppelin/contracts/security/Pausable.sol\":2011:2017  paused */\n      tag_96\n        /* \"@openzeppelin/contracts/security/Pausable.sol\":2011:2019  paused() */\n      jump\t// in\n    tag_330:\n        /* \"@openzeppelin/contracts/security/Pausable.sol\":2003:2044  require(paused(), \"Pausable: not paused\") */\n      tag_331\n      jumpi\n      mload(0x40)\n      0x08c379a000000000000000000000000000000000000000000000000000000000\n      dup2\n      mstore\n      0x04\n      add\n      tag_332\n      swap1\n      tag_333\n      jump\t// in\n    tag_332:\n      mload(0x40)\n      dup1\n      swap2\n      sub\n      swap1\n      revert\n    tag_331:\n        /* \"@openzeppelin/contracts/security/Pausable.sol\":1945:2051  function _requirePaused() internal view virtual {... */\n      jump\t// out\n        /* \"@openzeppelin/contracts/security/Pausable.sol\":1767:1873  function _requireNotPaused() internal view virtual {... */\n    tag_302:\n        /* \"@openzeppelin/contracts/security/Pausable.sol\":1837:1845  paused() */\n      tag_335\n        /* \"@openzeppelin/contracts/security/Pausable.sol\":1837:1843  paused */\n      tag_96\n        /* \"@openzeppelin/contracts/security/Pausable.sol\":1837:1845  paused() */\n      jump\t// in\n    tag_335:\n        /* \"@openzeppelin/contracts/security/Pausable.sol\":1836:1845  !paused() */\n      iszero\n        /* \"@openzeppelin/contracts/security/Pausable.sol\":1828:1866  require(!paused(), \"Pausable: paused\") */\n      tag_336\n      jumpi\n      mload(0x40)\n      0x08c379a000000000000000000000000000000000000000000000000000000000\n      dup2\n      mstore\n      0x04\n      add\n      tag_337\n      swap1\n      tag_338\n      jump\t// in\n    tag_337:\n      mload(0x40)\n      dup1\n      swap2\n      sub\n      swap1\n      revert\n    tag_336:\n        /* \"@openzeppelin/contracts/security/Pausable.sol\":1767:1873  function _requireNotPaused() internal view virtual {... */\n      jump\t// out\n        /* \"@openzeppelin/contracts/token/ERC20/extensions/ERC20Capped.sol\":1036:1407  function _update(address from, address to, uint256 value) internal virtual override {... */\n    tag_328:\n        /* \"@openzeppelin/contracts/token/ERC20/extensions/ERC20Capped.sol\":1130:1160  super._update(from, to, value) */\n      tag_340\n        /* \"@openzeppelin/contracts/token/ERC20/extensions/ERC20Capped.sol\":1144:1148  from */\n      dup4\n        /* \"@openzeppelin/contracts/token/ERC20/extensions/ERC20Capped.sol\":1150:1152  to */\n      dup4\n        /* \"@openzeppelin/contracts/token/ERC20/extensions/ERC20Capped.sol\":1154:1159  value */\n      dup4\n        /* \"@openzeppelin/contracts/token/ERC20/extensions/ERC20Capped.sol\":1130:1143  super._update */\n      tag_341\n        /* \"@openzeppelin/contracts/token/ERC20/extensions/ERC20Capped.sol\":1130:1160  super._update(from, to, value) */\n      jump\t// in\n    tag_340:\n        /* \"@openzeppelin/contracts/token/ERC20/extensions/ERC20Capped.sol\":1191:1192  0 */\n      0x00\n        /* \"@openzeppelin/contracts/token/ERC20/extensions/ERC20Capped.sol\":1175:1193  from == address(0) */\n      0xffffffffffffffffffffffffffffffffffffffff\n      and\n        /* \"@openzeppelin/contracts/token/ERC20/extensions/ERC20Capped.sol\":1175:1179  from */\n      dup4\n        /* \"@openzeppelin/contracts/token/ERC20/extensions/ERC20Capped.sol\":1175:1193  from == address(0) */\n      0xffffffffffffffffffffffffffffffffffffffff\n      and\n      sub\n        /* \"@openzeppelin/contracts/token/ERC20/extensions/ERC20Capped.sol\":1171:1401  if (from == address(0)) {... */\n      tag_342\n      jumpi\n        /* \"@openzeppelin/contracts/token/ERC20/extensions/ERC20Capped.sol\":1209:1226  uint256 maxSupply */\n      0x00\n        /* \"@openzeppelin/contracts/token/ERC20/extensions/ERC20Capped.sol\":1229:1234  cap() */\n      tag_343\n        /* \"@openzeppelin/contracts/token/ERC20/extensions/ERC20Capped.sol\":1229:1232  cap */\n      tag_80\n        /* \"@openzeppelin/contracts/token/ERC20/extensions/ERC20Capped.sol\":1229:1234  cap() */\n      jump\t// in\n    tag_343:\n        /* \"@openzeppelin/contracts/token/ERC20/extensions/ERC20Capped.sol\":1209:1234  uint256 maxSupply = cap() */\n      swap1\n      pop\n        /* \"@openzeppelin/contracts/token/ERC20/extensions/ERC20Capped.sol\":1248:1262  uint256 supply */\n      0x00\n        /* \"@openzeppelin/contracts/token/ERC20/extensions/ERC20Capped.sol\":1265:1278  totalSupply() */\n      tag_344\n        /* \"@openzeppelin/contracts/token/ERC20/extensions/ERC20Capped.sol\":1265:1276  totalSupply */\n      tag_58\n        /* \"@openzeppelin/contracts/token/ERC20/extensions/ERC20Capped.sol\":1265:1278  totalSupply() */\n      jump\t// in\n    tag_344:\n        /* \"@openzeppelin/contracts/token/ERC20/extensions/ERC20Capped.sol\":1248:1278  uint256 supply = totalSupply() */\n      swap1\n      pop\n        /* \"@openzeppelin/contracts/token/ERC20/extensions/ERC20Capped.sol\":1305:1314  maxSupply */\n      dup2\n        /* \"@openzeppelin/contracts/token/ERC20/extensions/ERC20Capped.sol\":1296:1302  supply */\n      dup2\n        /* \"@openzeppelin/contracts/token/ERC20/extensions/ERC20Capped.sol\":1296:1314  supply > maxSupply */\n      gt\n        /* \"@openzeppelin/contracts/token/ERC20/extensions/ERC20Capped.sol\":1292:1391  if (supply > maxSupply) {... */\n      iszero\n      tag_345\n      jumpi\n        /* \"@openzeppelin/contracts/token/ERC20/extensions/ERC20Capped.sol\":1358:1364  supply */\n      dup1\n        /* \"@openzeppelin/contracts/token/ERC20/extensions/ERC20Capped.sol\":1366:1375  maxSupply */\n      dup3\n        /* \"@openzeppelin/contracts/token/ERC20/extensions/ERC20Capped.sol\":1341:1376  ERC20ExceededCap(supply, maxSupply) */\n      mload(0x40)\n      0x9e79f85400000000000000000000000000000000000000000000000000000000\n      dup2\n      mstore\n      0x04\n      add\n      tag_346\n      swap3\n      swap2\n      swap1\n      tag_347\n      jump\t// in\n    tag_346:\n      mload(0x40)\n      dup1\n      swap2\n      sub\n      swap1\n      revert\n        /* \"@openzeppelin/contracts/token/ERC20/extensions/ERC20Capped.sol\":1292:1391  if (supply > maxSupply) {... */\n    tag_345:\n        /* \"@openzeppelin/contracts/token/ERC20/extensions/ERC20Capped.sol\":1195:1401  {... */\n      pop\n      pop\n        /* \"@openzeppelin/contracts/token/ERC20/extensions/ERC20Capped.sol\":1171:1401  if (from == address(0)) {... */\n    tag_342:\n        /* \"@openzeppelin/contracts/token/ERC20/extensions/ERC20Capped.sol\":1036:1407  function _update(address from, address to, uint256 value) internal virtual override {... */\n      pop\n      pop\n      pop\n      jump\t// out\n        /* \"@openzeppelin/contracts/token/ERC20/ERC20.sol\":5912:7019  function _update(address from, address to, uint256 value) internal virtual {... */\n    tag_341:\n        /* \"@openzeppelin/contracts/token/ERC20/ERC20.sol\":6017:6018  0 */\n      0x00\n        /* \"@openzeppelin/contracts/token/ERC20/ERC20.sol\":6001:6019  from == address(0) */\n      0xffffffffffffffffffffffffffffffffffffffff\n      and\n        /* \"@openzeppelin/contracts/token/ERC20/ERC20.sol\":6001:6005  from */\n      dup4\n        /* \"@openzeppelin/contracts/token/ERC20/ERC20.sol\":6001:6019  from == address(0) */\n      0xffffffffffffffffffffffffffffffffffffffff\n      and\n      sub\n        /* \"@openzeppelin/contracts/token/ERC20/ERC20.sol\":5997:6537  if (from == address(0)) {... */\n      tag_349\n      jumpi\n        /* \"@openzeppelin/contracts/token/ERC20/ERC20.sol\":6153:6158  value */\n      dup1\n        /* \"@openzeppelin/contracts/token/ERC20/ERC20.sol\":6137:6149  _totalSupply */\n      0x03\n      0x00\n        /* \"@openzeppelin/contracts/token/ERC20/ERC20.sol\":6137:6158  _totalSupply += value */\n      dup3\n      dup3\n      sload\n      tag_350\n      swap2\n      swap1\n      tag_351\n      jump\t// in\n    tag_350:\n      swap3\n      pop\n      pop\n      dup2\n      swap1\n      sstore\n      pop\n        /* \"@openzeppelin/contracts/token/ERC20/ERC20.sol\":5997:6537  if (from == address(0)) {... */\n      jump(tag_352)\n    tag_349:\n        /* \"@openzeppelin/contracts/token/ERC20/ERC20.sol\":6189:6208  uint256 fromBalance */\n      0x00\n        /* \"@openzeppelin/contracts/token/ERC20/ERC20.sol\":6211:6220  _balances */\n      0x01\n        /* \"@openzeppelin/contracts/token/ERC20/ERC20.sol\":6211:6226  _balances[from] */\n      0x00\n        /* \"@openzeppelin/contracts/token/ERC20/ERC20.sol\":6221:6225  from */\n      dup6\n        /* \"@openzeppelin/contracts/token/ERC20/ERC20.sol\":6211:6226  _balances[from] */\n      0xffffffffffffffffffffffffffffffffffffffff\n      and\n      0xffffffffffffffffffffffffffffffffffffffff\n      and\n      dup2\n      mstore\n      0x20\n      add\n      swap1\n      dup2\n      mstore\n      0x20\n      add\n      0x00\n      keccak256\n      sload\n        /* \"@openzeppelin/contracts/token/ERC20/ERC20.sol\":6189:6226  uint256 fromBalance = _balances[from] */\n      swap1\n      pop\n        /* \"@openzeppelin/contracts/token/ERC20/ERC20.sol\":6258:6263  value */\n      dup2\n        /* \"@openzeppelin/contracts/token/ERC20/ERC20.sol\":6244:6255  fromBalance */\n      dup2\n        /* \"@openzeppelin/contracts/token/ERC20/ERC20.sol\":6244:6263  fromBalance < value */\n      lt\n        /* \"@openzeppelin/contracts/token/ERC20/ERC20.sol\":6240:6355  if (fromBalance < value) {... */\n      iszero\n      tag_353\n      jumpi\n        /* \"@openzeppelin/contracts/token/ERC20/ERC20.sol\":6315:6319  from */\n      dup4\n        /* \"@openzeppelin/contracts/token/ERC20/ERC20.sol\":6321:6332  fromBalance */\n      dup2\n        /* \"@openzeppelin/contracts/token/ERC20/ERC20.sol\":6334:6339  value */\n      dup4\n        /* \"@openzeppelin/contracts/token/ERC20/ERC20.sol\":6290:6340  ERC20InsufficientBalance(from, fromBalance, value) */\n      mload(0x40)\n      0xe450d38c00000000000000000000000000000000000000000000000000000000\n      dup2\n      mstore\n      0x04\n      add\n      tag_354\n      swap4\n      swap3\n      swap2\n      swap1\n      tag_270\n      jump\t// in\n    tag_354:\n      mload(0x40)\n      dup1\n      swap2\n      sub\n      swap1\n      revert\n        /* \"@openzeppelin/contracts/token/ERC20/ERC20.sol\":6240:6355  if (fromBalance < value) {... */\n    tag_353:\n        /* \"@openzeppelin/contracts/token/ERC20/ERC20.sol\":6507:6512  value */\n      dup2\n        /* \"@openzeppelin/contracts/token/ERC20/ERC20.sol\":6493:6504  fromBalance */\n      dup2\n        /* \"@openzeppelin/contracts/token/ERC20/ERC20.sol\":6493:6512  fromBalance - value */\n      sub\n        /* \"@openzeppelin/contracts/token/ERC20/ERC20.sol\":6475:6484  _balances */\n      0x01\n        /* \"@openzeppelin/contracts/token/ERC20/ERC20.sol\":6475:6490  _balances[from] */\n      0x00\n        /* \"@openzeppelin/contracts/token/ERC20/ERC20.sol\":6485:6489  from */\n      dup7\n        /* \"@openzeppelin/contracts/token/ERC20/ERC20.sol\":6475:6490  _balances[from] */\n      0xffffffffffffffffffffffffffffffffffffffff\n      and\n      0xffffffffffffffffffffffffffffffffffffffff\n      and\n      dup2\n      mstore\n      0x20\n      add\n      swap1\n      dup2\n      mstore\n      0x20\n      add\n      0x00\n      keccak256\n        /* \"@openzeppelin/contracts/token/ERC20/ERC20.sol\":6475:6512  _balances[from] = fromBalance - value */\n      dup2\n      swap1\n      sstore\n      pop\n        /* \"@openzeppelin/contracts/token/ERC20/ERC20.sol\":6175:6537  {... */\n      pop\n        /* \"@openzeppelin/contracts/token/ERC20/ERC20.sol\":5997:6537  if (from == address(0)) {... */\n    tag_352:\n        /* \"@openzeppelin/contracts/token/ERC20/ERC20.sol\":6565:6566  0 */\n      0x00\n        /* \"@openzeppelin/contracts/token/ERC20/ERC20.sol\":6551:6567  to == address(0) */\n      0xffffffffffffffffffffffffffffffffffffffff\n      and\n        /* \"@openzeppelin/contracts/token/ERC20/ERC20.sol\":6551:6553  to */\n      dup3\n        /* \"@openzeppelin/contracts/token/ERC20/ERC20.sol\":6551:6567  to == address(0) */\n      0xffffffffffffffffffffffffffffffffffffffff\n      and\n      sub\n        /* \"@openzeppelin/contracts/token/ERC20/ERC20.sol\":6547:6972  if (to == address(0)) {... */\n      tag_355\n      jumpi\n        /* \"@openzeppelin/contracts/token/ERC20/ERC20.sol\":6730:6735  value */\n      dup1\n        /* \"@openzeppelin/contracts/token/ERC20/ERC20.sol\":6714:6726  _totalSupply */\n      0x03\n      0x00\n        /* \"@openzeppelin/contracts/token/ERC20/ERC20.sol\":6714:6735  _totalSupply -= value */\n      dup3\n      dup3\n      sload\n      sub\n      swap3\n      pop\n      pop\n      dup2\n      swap1\n      sstore\n      pop\n        /* \"@openzeppelin/contracts/token/ERC20/ERC20.sol\":6547:6972  if (to == address(0)) {... */\n      jump(tag_356)\n    tag_355:\n        /* \"@openzeppelin/contracts/token/ERC20/ERC20.sol\":6942:6947  value */\n      dup1\n        /* \"@openzeppelin/contracts/token/ERC20/ERC20.sol\":6925:6934  _balances */\n      0x01\n        /* \"@openzeppelin/contracts/token/ERC20/ERC20.sol\":6925:6938  _balances[to] */\n      0x00\n        /* \"@openzeppelin/contracts/token/ERC20/ERC20.sol\":6935:6937  to */\n      dup5\n        /* \"@openzeppelin/contracts/token/ERC20/ERC20.sol\":6925:6938  _balances[to] */\n      0xffffffffffffffffffffffffffffffffffffffff\n      and\n      0xffffffffffffffffffffffffffffffffffffffff\n      and\n      dup2\n      mstore\n      0x20\n      add\n      swap1\n      dup2\n      mstore\n      0x20\n      add\n      0x00\n      keccak256\n      0x00\n        /* \"@openzeppelin/contracts/token/ERC20/ERC20.sol\":6925:6947  _balances[to] += value */\n      dup3\n      dup3\n      sload\n      add\n      swap3\n      pop\n      pop\n      dup2\n      swap1\n      sstore\n      pop\n        /* \"@openzeppelin/contracts/token/ERC20/ERC20.sol\":6547:6972  if (to == address(0)) {... */\n    tag_356:\n        /* \"@openzeppelin/contracts/token/ERC20/ERC20.sol\":7002:7004  to */\n      dup2\n        /* \"@openzeppelin/contracts/token/ERC20/ERC20.sol\":6987:7012  Transfer(from, to, value) */\n      0xffffffffffffffffffffffffffffffffffffffff\n      and\n        /* \"@openzeppelin/contracts/token/ERC20/ERC20.sol\":6996:7000  from */\n      dup4\n        /* \"@openzeppelin/contracts/token/ERC20/ERC20.sol\":6987:7012  Transfer(from, to, value) */\n      0xffffffffffffffffffffffffffffffffffffffff\n      and\n      0xddf252ad1be2c89b69c2b068fc378daa952ba7f163c4a11628f55a4df523b3ef\n        /* \"@openzeppelin/contracts/token/ERC20/ERC20.sol\":7006:7011  value */\n      dup4\n        /* \"@openzeppelin/contracts/token/ERC20/ERC20.sol\":6987:7012  Transfer(from, to, value) */\n      mload(0x40)\n      tag_357\n      swap2\n      swap1\n      tag_60\n      jump\t// in\n    tag_357:\n      mload(0x40)\n      dup1\n      swap2\n      sub\n      swap1\n      log3\n        /* \"@openzeppelin/contracts/token/ERC20/ERC20.sol\":5912:7019  function _update(address from, address to, uint256 value) internal virtual {... */\n      pop\n      pop\n      pop\n      jump\t// out\n        /* \"#utility.yul\":88:205   */\n    tag_359:\n        /* \"#utility.yul\":197:198   */\n      0x00\n        /* \"#utility.yul\":194:195   */\n      dup1\n        /* \"#utility.yul\":187:199   */\n      revert\n        /* \"#utility.yul\":334:483   */\n    tag_361:\n        /* \"#utility.yul\":370:377   */\n      0x00\n        /* \"#utility.yul\":410:476   */\n      0xffffffff00000000000000000000000000000000000000000000000000000000\n        /* \"#utility.yul\":403:408   */\n      dup3\n        /* \"#utility.yul\":399:477   */\n      and\n        /* \"#utility.yul\":388:477   */\n      swap1\n      pop\n        /* \"#utility.yul\":334:483   */\n      swap2\n      swap1\n      pop\n      jump\t// out\n        /* \"#utility.yul\":489:609   */\n    tag_362:\n        /* \"#utility.yul\":561:584   */\n      tag_416\n        /* \"#utility.yul\":578:583   */\n      dup2\n        /* \"#utility.yul\":561:584   */\n      tag_361\n      jump\t// in\n    tag_416:\n        /* \"#utility.yul\":554:559   */\n      dup2\n        /* \"#utility.yul\":551:585   */\n      eq\n        /* \"#utility.yul\":541:603   */\n      tag_417\n      jumpi\n        /* \"#utility.yul\":599:600   */\n      0x00\n        /* \"#utility.yul\":596:597   */\n      dup1\n        /* \"#utility.yul\":589:601   */\n      revert\n        /* \"#utility.yul\":541:603   */\n    tag_417:\n        /* \"#utility.yul\":489:609   */\n      pop\n      jump\t// out\n        /* \"#utility.yul\":615:752   */\n    tag_363:\n        /* \"#utility.yul\":660:665   */\n      0x00\n        /* \"#utility.yul\":698:704   */\n      dup2\n        /* \"#utility.yul\":685:705   */\n      calldataload\n        /* \"#utility.yul\":676:705   */\n      swap1\n      pop\n        /* \"#utility.yul\":714:746   */\n      tag_419\n        /* \"#utility.yul\":740:745   */\n      dup2\n        /* \"#utility.yul\":714:746   */\n      tag_362\n      jump\t// in\n    tag_419:\n        /* \"#utility.yul\":615:752   */\n      swap3\n      swap2\n      pop\n      pop\n      jump\t// out\n        /* \"#utility.yul\":758:1085   */\n    tag_40:\n        /* \"#utility.yul\":816:822   */\n      0x00\n        /* \"#utility.yul\":865:867   */\n      0x20\n        /* \"#utility.yul\":853:862   */\n      dup3\n        /* \"#utility.yul\":844:851   */\n      dup5\n        /* \"#utility.yul\":840:863   */\n      sub\n        /* \"#utility.yul\":836:868   */\n      slt\n        /* \"#utility.yul\":833:952   */\n      iszero\n      tag_421\n      jumpi\n        /* \"#utility.yul\":871:950   */\n      tag_422\n      tag_359\n      jump\t// in\n    tag_422:\n        /* \"#utility.yul\":833:952   */\n    tag_421:\n        /* \"#utility.yul\":991:992   */\n      0x00\n        /* \"#utility.yul\":1016:1068   */\n      tag_423\n        /* \"#utility.yul\":1060:1067   */\n      dup5\n        /* \"#utility.yul\":1051:1057   */\n      dup3\n        /* \"#utility.yul\":1040:1049   */\n      dup6\n        /* \"#utility.yul\":1036:1058   */\n      add\n        /* \"#utility.yul\":1016:1068   */\n      tag_363\n      jump\t// in\n    tag_423:\n        /* \"#utility.yul\":1006:1068   */\n      swap2\n      pop\n        /* \"#utility.yul\":962:1078   */\n      pop\n        /* \"#utility.yul\":758:1085   */\n      swap3\n      swap2\n      pop\n      pop\n      jump\t// out\n        /* \"#utility.yul\":1091:1181   */\n    tag_364:\n        /* \"#utility.yul\":1125:1132   */\n      0x00\n        /* \"#utility.yul\":1168:1173   */\n      dup2\n        /* \"#utility.yul\":1161:1174   */\n      iszero\n        /* \"#utility.yul\":1154:1175   */\n      iszero\n        /* \"#utility.yul\":1143:1175   */\n      swap1\n      pop\n        /* \"#utility.yul\":1091:1181   */\n      swap2\n      swap1\n      pop\n      jump\t// out\n        /* \"#utility.yul\":1187:1296   */\n    tag_365:\n        /* \"#utility.yul\":1268:1289   */\n      tag_426\n        /* \"#utility.yul\":1283:1288   */\n      dup2\n        /* \"#utility.yul\":1268:1289   */\n      tag_364\n      jump\t// in\n    tag_426:\n        /* \"#utility.yul\":1263:1266   */\n      dup3\n        /* \"#utility.yul\":1256:1290   */\n      mstore\n        /* \"#utility.yul\":1187:1296   */\n      pop\n      pop\n      jump\t// out\n        /* \"#utility.yul\":1302:1512   */\n    tag_43:\n        /* \"#utility.yul\":1389:1393   */\n      0x00\n        /* \"#utility.yul\":1427:1429   */\n      0x20\n        /* \"#utility.yul\":1416:1425   */\n      dup3\n        /* \"#utility.yul\":1412:1430   */\n      add\n        /* \"#utility.yul\":1404:1430   */\n      swap1\n      pop\n        /* \"#utility.yul\":1440:1505   */\n      tag_428\n        /* \"#utility.yul\":1502:1503   */\n      0x00\n        /* \"#utility.yul\":1491:1500   */\n      dup4\n        /* \"#utility.yul\":1487:1504   */\n      add\n        /* \"#utility.yul\":1478:1484   */\n      dup5\n        /* \"#utility.yul\":1440:1505   */\n      tag_365\n      jump\t// in\n    tag_428:\n        /* \"#utility.yul\":1302:1512   */\n      swap3\n      swap2\n      pop\n      pop\n      jump\t// out\n        /* \"#utility.yul\":1518:1617   */\n    tag_366:\n        /* \"#utility.yul\":1570:1576   */\n      0x00\n        /* \"#utility.yul\":1604:1609   */\n      dup2\n        /* \"#utility.yul\":1598:1610   */\n      mload\n        /* \"#utility.yul\":1588:1610   */\n      swap1\n      pop\n        /* \"#utility.yul\":1518:1617   */\n      swap2\n      swap1\n      pop\n      jump\t// out\n        /* \"#utility.yul\":1623:1792   */\n    tag_367:\n        /* \"#utility.yul\":1707:1718   */\n      0x00\n        /* \"#utility.yul\":1741:1747   */\n      dup3\n        /* \"#utility.yul\":1736:1739   */\n      dup3\n        /* \"#utility.yul\":1729:1748   */\n      mstore\n        /* \"#utility.yul\":1781:1785   */\n      0x20\n        /* \"#utility.yul\":1776:1779   */\n      dup3\n        /* \"#utility.yul\":1772:1786   */\n      add\n        /* \"#utility.yul\":1757:1786   */\n      swap1\n      pop\n        /* \"#utility.yul\":1623:1792   */\n      swap3\n      swap2\n      pop\n      pop\n      jump\t// out\n        /* \"#utility.yul\":1798:2044   */\n    tag_368:\n        /* \"#utility.yul\":1879:1880   */\n      0x00\n        /* \"#utility.yul\":1889:2002   */\n    tag_432:\n        /* \"#utility.yul\":1903:1909   */\n      dup4\n        /* \"#utility.yul\":1900:1901   */\n      dup2\n        /* \"#utility.yul\":1897:1910   */\n      lt\n        /* \"#utility.yul\":1889:2002   */\n      iszero\n      tag_434\n      jumpi\n        /* \"#utility.yul\":1988:1989   */\n      dup1\n        /* \"#utility.yul\":1983:1986   */\n      dup3\n        /* \"#utility.yul\":1979:1990   */\n      add\n        /* \"#utility.yul\":1973:1991   */\n      mload\n        /* \"#utility.yul\":1969:1970   */\n      dup2\n        /* \"#utility.yul\":1964:1967   */\n      dup5\n        /* \"#utility.yul\":1960:1971   */\n      add\n        /* \"#utility.yul\":1953:1992   */\n      mstore\n        /* \"#utility.yul\":1925:1927   */\n      0x20\n        /* \"#utility.yul\":1922:1923   */\n      dup2\n        /* \"#utility.yul\":1918:1928   */\n      add\n        /* \"#utility.yul\":1913:1928   */\n      swap1\n      pop\n        /* \"#utility.yul\":1889:2002   */\n      jump(tag_432)\n    tag_434:\n        /* \"#utility.yul\":2036:2037   */\n      0x00\n        /* \"#utility.yul\":2027:2033   */\n      dup5\n        /* \"#utility.yul\":2022:2025   */\n      dup5\n        /* \"#utility.yul\":2018:2034   */\n      add\n        /* \"#utility.yul\":2011:2038   */\n      mstore\n        /* \"#utility.yul\":1860:2044   */\n      pop\n        /* \"#utility.yul\":1798:2044   */\n      pop\n      pop\n      pop\n      jump\t// out\n        /* \"#utility.yul\":2050:2152   */\n    tag_369:\n        /* \"#utility.yul\":2091:2097   */\n      0x00\n        /* \"#utility.yul\":2142:2144   */\n      0x1f\n        /* \"#utility.yul\":2138:2145   */\n      not\n        /* \"#utility.yul\":2133:2135   */\n      0x1f\n        /* \"#utility.yul\":2126:2131   */\n      dup4\n        /* \"#utility.yul\":2122:2136   */\n      add\n        /* \"#utility.yul\":2118:2146   */\n      and\n        /* \"#utility.yul\":2108:2146   */\n      swap1\n      pop\n        /* \"#utility.yul\":2050:2152   */\n      swap2\n      swap1\n      pop\n      jump\t// out\n        /* \"#utility.yul\":2158:2535   */\n    tag_370:\n        /* \"#utility.yul\":2246:2249   */\n      0x00\n        /* \"#utility.yul\":2274:2313   */\n      tag_437\n        /* \"#utility.yul\":2307:2312   */\n      dup3\n        /* \"#utility.yul\":2274:2313   */\n      tag_366\n      jump\t// in\n    tag_437:\n        /* \"#utility.yul\":2329:2400   */\n      tag_438\n        /* \"#utility.yul\":2393:2399   */\n      dup2\n        /* \"#utility.yul\":2388:2391   */\n      dup6\n        /* \"#utility.yul\":2329:2400   */\n      tag_367\n      jump\t// in\n    tag_438:\n        /* \"#utility.yul\":2322:2400   */\n      swap4\n      pop\n        /* \"#utility.yul\":2409:2474   */\n      tag_439\n        /* \"#utility.yul\":2467:2473   */\n      dup2\n        /* \"#utility.yul\":2462:2465   */\n      dup6\n        /* \"#utility.yul\":2455:2459   */\n      0x20\n        /* \"#utility.yul\":2448:2453   */\n      dup7\n        /* \"#utility.yul\":2444:2460   */\n      add\n        /* \"#utility.yul\":2409:2474   */\n      tag_368\n      jump\t// in\n    tag_439:\n        /* \"#utility.yul\":2499:2528   */\n      tag_440\n        /* \"#utility.yul\":2521:2527   */\n      dup2\n        /* \"#utility.yul\":2499:2528   */\n      tag_369\n      jump\t// in\n    tag_440:\n        /* \"#utility.yul\":2494:2497   */\n      dup5\n        /* \"#utility.yul\":2490:2529   */\n      add\n        /* \"#utility.yul\":2483:2529   */\n      swap2\n      pop\n        /* \"#utility.yul\":2250:2535   */\n      pop\n        /* \"#utility.yul\":2158:2535   */\n      swap3\n      swap2\n      pop\n      pop\n      jump\t// out\n        /* \"#utility.yul\":2541:2854   */\n    tag_47:\n        /* \"#utility.yul\":2654:2658   */\n      0x00\n        /* \"#utility.yul\":2692:2694   */\n      0x20\n        /* \"#utility.yul\":2681:2690   */\n      dup3\n        /* \"#utility.yul\":2677:2695   */\n      add\n        /* \"#utility.yul\":2669:2695   */\n      swap1\n      pop\n        /* \"#utility.yul\":2741:2750   */\n      dup2\n        /* \"#utility.yul\":2735:2739   */\n      dup2\n        /* \"#utility.yul\":2731:2751   */\n      sub\n        /* \"#utility.yul\":2727:2728   */\n      0x00\n        /* \"#utility.yul\":2716:2725   */\n      dup4\n        /* \"#utility.yul\":2712:2729   */\n      add\n        /* \"#utility.yul\":2705:2752   */\n      mstore\n        /* \"#utility.yul\":2769:2847   */\n      tag_442\n        /* \"#utility.yul\":2842:2846   */\n      dup2\n        /* \"#utility.yul\":2833:2839   */\n      dup5\n        /* \"#utility.yul\":2769:2847   */\n      tag_370\n      jump\t// in\n    tag_442:\n        /* \"#utility.yul\":2761:2847   */\n      swap1\n      pop\n        /* \"#utility.yul\":2541:2854   */\n      swap3\n      swap2\n      pop\n      pop\n      jump\t// out\n        /* \"#utility.yul\":2860:2986   */\n    tag_371:\n        /* \"#utility.yul\":2897:2904   */\n      0x00\n        /* \"#utility.yul\":2937:2979   */\n      0xffffffffffffffffffffffffffffffffffffffff\n        /* \"#utility.yul\":2930:2935   */\n      dup3\n        /* \"#utility.yul\":2926:2980   */\n      and\n        /* \"#utility.yul\":2915:2980   */\n      swap1\n      pop\n        /* \"#utility.yul\":2860:2986   */\n      swap2\n      swap1\n      pop\n      jump\t// out\n        /* \"#utility.yul\":2992:3088   */\n    tag_372:\n        /* \"#utility.yul\":3029:3036   */\n      0x00\n        /* \"#utility.yul\":3058:3082   */\n      tag_445\n        /* \"#utility.yul\":3076:3081   */\n      dup3\n        /* \"#utility.yul\":3058:3082   */\n      tag_371\n      jump\t// in\n    tag_445:\n        /* \"#utility.yul\":3047:3082   */\n      swap1\n      pop\n        /* \"#utility.yul\":2992:3088   */\n      swap2\n      swap1\n      pop\n      jump\t// out\n        /* \"#utility.yul\":3094:3216   */\n    tag_373:\n        /* \"#utility.yul\":3167:3191   */\n      tag_447\n        /* \"#utility.yul\":3185:3190   */\n      dup2\n        /* \"#utility.yul\":3167:3191   */\n      tag_372\n      jump\t// in\n    tag_447:\n        /* \"#utility.yul\":3160:3165   */\n      dup2\n        /* \"#utility.yul\":3157:3192   */\n      eq\n        /* \"#utility.yul\":3147:3210   */\n      tag_448\n      jumpi\n        /* \"#utility.yul\":3206:3207   */\n      0x00\n        /* \"#utility.yul\":3203:3204   */\n      dup1\n        /* \"#utility.yul\":3196:3208   */\n      revert\n        /* \"#utility.yul\":3147:3210   */\n    tag_448:\n        /* \"#utility.yul\":3094:3216   */\n      pop\n      jump\t// out\n        /* \"#utility.yul\":3222:3361   */\n    tag_374:\n        /* \"#utility.yul\":3268:3273   */\n      0x00\n        /* \"#utility.yul\":3306:3312   */\n      dup2\n        /* \"#utility.yul\":3293:3313   */\n      calldataload\n        /* \"#utility.yul\":3284:3313   */\n      swap1\n      pop\n        /* \"#utility.yul\":3322:3355   */\n      tag_450\n        /* \"#utility.yul\":3349:3354   */\n      dup2\n        /* \"#utility.yul\":3322:3355   */\n      tag_373\n      jump\t// in\n    tag_450:\n        /* \"#utility.yul\":3222:3361   */\n      swap3\n      swap2\n      pop\n      pop\n      jump\t// out\n        /* \"#utility.yul\":3367:3444   */\n    tag_375:\n        /* \"#utility.yul\":3404:3411   */\n      0x00\n        /* \"#utility.yul\":3433:3438   */\n      dup2\n        /* \"#utility.yul\":3422:3438   */\n      swap1\n      pop\n        /* \"#utility.yul\":3367:3444   */\n      swap2\n      swap1\n      pop\n      jump\t// out\n        /* \"#utility.yul\":3450:3572   */\n    tag_376:\n        /* \"#utility.yul\":3523:3547   */\n      tag_453\n        /* \"#utility.yul\":3541:3546   */\n      dup2\n        /* \"#utility.yul\":3523:3547   */\n      tag_375\n      jump\t// in\n    tag_453:\n        /* \"#utility.yul\":3516:3521   */\n      dup2\n        /* \"#utility.yul\":3513:3548   */\n      eq\n        /* \"#utility.yul\":3503:3566   */\n      tag_454\n      jumpi\n        /* \"#utility.yul\":3562:3563   */\n      0x00\n        /* \"#utility.yul\":3559:3560   */\n      dup1\n        /* \"#utility.yul\":3552:3564   */\n      revert\n        /* \"#utility.yul\":3503:3566   */\n    tag_454:\n        /* \"#utility.yul\":3450:3572   */\n      pop\n      jump\t// out\n        /* \"#utility.yul\":3578:3717   */\n    tag_377:\n        /* \"#utility.yul\":3624:3629   */\n      0x00\n        /* \"#utility.yul\":3662:3668   */\n      dup2\n        /* \"#utility.yul\":3649:3669   */\n      calldataload\n        /* \"#utility.yul\":3640:3669   */\n      swap1\n      pop\n        /* \"#utility.yul\":3678:3711   */\n      tag_456\n        /* \"#utility.yul\":3705:3710   */\n      dup2\n        /* \"#utility.yul\":3678:3711   */\n      tag_376\n      jump\t// in\n    tag_456:\n        /* \"#utility.yul\":3578:3717   */\n      swap3\n      swap2\n      pop\n      pop\n      jump\t// out\n        /* \"#utility.yul\":3723:4197   */\n    tag_50:\n        /* \"#utility.yul\":3791:3797   */\n      0x00\n        /* \"#utility.yul\":3799:3805   */\n      dup1\n        /* \"#utility.yul\":3848:3850   */\n      0x40\n        /* \"#utility.yul\":3836:3845   */\n      dup4\n        /* \"#utility.yul\":3827:3834   */\n      dup6\n        /* \"#utility.yul\":3823:3846   */\n      sub\n        /* \"#utility.yul\":3819:3851   */\n      slt\n        /* \"#utility.yul\":3816:3935   */\n      iszero\n      tag_458\n      jumpi\n        /* \"#utility.yul\":3854:3933   */\n      tag_459\n      tag_359\n      jump\t// in\n    tag_459:\n        /* \"#utility.yul\":3816:3935   */\n    tag_458:\n        /* \"#utility.yul\":3974:3975   */\n      0x00\n        /* \"#utility.yul\":3999:4052   */\n      tag_460\n        /* \"#utility.yul\":4044:4051   */\n      dup6\n        /* \"#utility.yul\":4035:4041   */\n      dup3\n        /* \"#utility.yul\":4024:4033   */\n      dup7\n        /* \"#utility.yul\":4020:4042   */\n      add\n        /* \"#utility.yul\":3999:4052   */\n      tag_374\n      jump\t// in\n    tag_460:\n        /* \"#utility.yul\":3989:4052   */\n      swap3\n      pop\n        /* \"#utility.yul\":3945:4062   */\n      pop\n        /* \"#utility.yul\":4101:4103   */\n      0x20\n        /* \"#utility.yul\":4127:4180   */\n      tag_461\n        /* \"#utility.yul\":4172:4179   */\n      dup6\n        /* \"#utility.yul\":4163:4169   */\n      dup3\n        /* \"#utility.yul\":4152:4161   */\n      dup7\n        /* \"#utility.yul\":4148:4170   */\n      add\n        /* \"#utility.yul\":4127:4180   */\n      tag_377\n      jump\t// in\n    tag_461:\n        /* \"#utility.yul\":4117:4180   */\n      swap2\n      pop\n        /* \"#utility.yul\":4072:4190   */\n      pop\n        /* \"#utility.yul\":3723:4197   */\n      swap3\n      pop\n      swap3\n      swap1\n      pop\n      jump\t// out\n        /* \"#utility.yul\":4203:4822   */\n    tag_55:\n        /* \"#utility.yul\":4280:4286   */\n      0x00\n        /* \"#utility.yul\":4288:4294   */\n      dup1\n        /* \"#utility.yul\":4296:4302   */\n      0x00\n        /* \"#utility.yul\":4345:4347   */\n      0x60\n        /* \"#utility.yul\":4333:4342   */\n      dup5\n        /* \"#utility.yul\":4324:4331   */\n      dup7\n        /* \"#utility.yul\":4320:4343   */\n      sub\n        /* \"#utility.yul\":4316:4348   */\n      slt\n        /* \"#utility.yul\":4313:4432   */\n      iszero\n      tag_463\n      jumpi\n        /* \"#utility.yul\":4351:4430   */\n      tag_464\n      tag_359\n      jump\t// in\n    tag_464:\n        /* \"#utility.yul\":4313:4432   */\n    tag_463:\n        /* \"#utility.yul\":4471:4472   */\n      0x00\n        /* \"#utility.yul\":4496:4549   */\n      tag_465\n        /* \"#utility.yul\":4541:4548   */\n      dup7\n        /* \"#utility.yul\":4532:4538   */\n      dup3\n        /* \"#utility.yul\":4521:4530   */\n      dup8\n        /* \"#utility.yul\":4517:4539   */\n      add\n        /* \"#utility.yul\":4496:4549   */\n      tag_374\n      jump\t// in\n    tag_465:\n        /* \"#utility.yul\":4486:4549   */\n      swap4\n      pop\n        /* \"#utility.yul\":4442:4559   */\n      pop\n        /* \"#utility.yul\":4598:4600   */\n      0x20\n        /* \"#utility.yul\":4624:4677   */\n      tag_466\n        /* \"#utility.yul\":4669:4676   */\n      dup7\n        /* \"#utility.yul\":4660:4666   */\n      dup3\n        /* \"#utility.yul\":4649:4658   */\n      dup8\n        /* \"#utility.yul\":4645:4667   */\n      add\n        /* \"#utility.yul\":4624:4677   */\n      tag_374\n      jump\t// in\n    tag_466:\n        /* \"#utility.yul\":4614:4677   */\n      swap3\n      pop\n        /* \"#utility.yul\":4569:4687   */\n      pop\n        /* \"#utility.yul\":4726:4728   */\n      0x40\n        /* \"#utility.yul\":4752:4805   */\n      tag_467\n        /* \"#utility.yul\":4797:4804   */\n      dup7\n        /* \"#utility.yul\":4788:4794   */\n      dup3\n        /* \"#utility.yul\":4777:4786   */\n      dup8\n        /* \"#utility.yul\":4773:4795   */\n      add\n        /* \"#utility.yul\":4752:4805   */\n      tag_377\n      jump\t// in\n    tag_467:\n        /* \"#utility.yul\":4742:4805   */\n      swap2\n      pop\n        /* \"#utility.yul\":4697:4815   */\n      pop\n        /* \"#utility.yul\":4203:4822   */\n      swap3\n      pop\n      swap3\n      pop\n      swap3\n      jump\t// out\n        /* \"#utility.yul\":4828:4946   */\n    tag_378:\n        /* \"#utility.yul\":4915:4939   */\n      tag_469\n        /* \"#utility.yul\":4933:4938   */\n      dup2\n        /* \"#utility.yul\":4915:4939   */\n      tag_375\n      jump\t// in\n    tag_469:\n        /* \"#utility.yul\":4910:4913   */\n      dup3\n        /* \"#utility.yul\":4903:4940   */\n      mstore\n        /* \"#utility.yul\":4828:4946   */\n      pop\n      pop\n      jump\t// out\n        /* \"#utility.yul\":4952:5174   */\n    tag_60:\n        /* \"#utility.yul\":5045:5049   */\n      0x00\n        /* \"#utility.yul\":5083:5085   */\n      0x20\n        /* \"#utility.yul\":5072:5081   */\n      dup3\n        /* \"#utility.yul\":5068:5086   */\n      add\n        /* \"#utility.yul\":5060:5086   */\n      swap1\n      pop\n        /* \"#utility.yul\":5096:5167   */\n      tag_471\n        /* \"#utility.yul\":5164:5165   */\n      0x00\n        /* \"#utility.yul\":5153:5162   */\n      dup4\n        /* \"#utility.yul\":5149:5166   */\n      add\n        /* \"#utility.yul\":5140:5146   */\n      dup5\n        /* \"#utility.yul\":5096:5167   */\n      tag_378\n      jump\t// in\n    tag_471:\n        /* \"#utility.yul\":4952:5174   */\n      swap3\n      swap2\n      pop\n      pop\n      jump\t// out\n        /* \"#utility.yul\":5180:5257   */\n    tag_379:\n        /* \"#utility.yul\":5217:5224   */\n      0x00\n        /* \"#utility.yul\":5246:5251   */\n      dup2\n        /* \"#utility.yul\":5235:5251   */\n      swap1\n      pop\n        /* \"#utility.yul\":5180:5257   */\n      swap2\n      swap1\n      pop\n      jump\t// out\n        /* \"#utility.yul\":5263:5385   */\n    tag_380:\n        /* \"#utility.yul\":5336:5360   */\n      tag_474\n        /* \"#utility.yul\":5354:5359   */\n      dup2\n        /* \"#utility.yul\":5336:5360   */\n      tag_379\n      jump\t// in\n    tag_474:\n        /* \"#utility.yul\":5329:5334   */\n      dup2\n        /* \"#utility.yul\":5326:5361   */\n      eq\n        /* \"#utility.yul\":5316:5379   */\n      tag_475\n      jumpi\n        /* \"#utility.yul\":5375:5376   */\n      0x00\n        /* \"#utility.yul\":5372:5373   */\n      dup1\n        /* \"#utility.yul\":5365:5377   */\n      revert\n        /* \"#utility.yul\":5316:5379   */\n    tag_475:\n        /* \"#utility.yul\":5263:5385   */\n      pop\n      jump\t// out\n        /* \"#utility.yul\":5391:5530   */\n    tag_381:\n        /* \"#utility.yul\":5437:5442   */\n      0x00\n        /* \"#utility.yul\":5475:5481   */\n      dup2\n        /* \"#utility.yul\":5462:5482   */\n      calldataload\n        /* \"#utility.yul\":5453:5482   */\n      swap1\n      pop\n        /* \"#utility.yul\":5491:5524   */\n      tag_477\n        /* \"#utility.yul\":5518:5523   */\n      dup2\n        /* \"#utility.yul\":5491:5524   */\n      tag_380\n      jump\t// in\n    tag_477:\n        /* \"#utility.yul\":5391:5530   */\n      swap3\n      swap2\n      pop\n      pop\n      jump\t// out\n        /* \"#utility.yul\":5536:5865   */\n    tag_67:\n        /* \"#utility.yul\":5595:5601   */\n      0x00\n        /* \"#utility.yul\":5644:5646   */\n      0x20\n        /* \"#utility.yul\":5632:5641   */\n      dup3\n        /* \"#utility.yul\":5623:5630   */\n      dup5\n        /* \"#utility.yul\":5619:5642   */\n      sub\n        /* \"#utility.yul\":5615:5647   */\n      slt\n        /* \"#utility.yul\":5612:5731   */\n      iszero\n      tag_479\n      jumpi\n        /* \"#utility.yul\":5650:5729   */\n      tag_480\n      tag_359\n      jump\t// in\n    tag_480:\n        /* \"#utility.yul\":5612:5731   */\n    tag_479:\n        /* \"#utility.yul\":5770:5771   */\n      0x00\n        /* \"#utility.yul\":5795:5848   */\n      tag_481\n        /* \"#utility.yul\":5840:5847   */\n      dup5\n        /* \"#utility.yul\":5831:5837   */\n      dup3\n        /* \"#utility.yul\":5820:5829   */\n      dup6\n        /* \"#utility.yul\":5816:5838   */\n      add\n        /* \"#utility.yul\":5795:5848   */\n      tag_381\n      jump\t// in\n    tag_481:\n        /* \"#utility.yul\":5785:5848   */\n      swap2\n      pop\n        /* \"#utility.yul\":5741:5858   */\n      pop\n        /* \"#utility.yul\":5536:5865   */\n      swap3\n      swap2\n      pop\n      pop\n      jump\t// out\n        /* \"#utility.yul\":5871:5989   */\n    tag_382:\n        /* \"#utility.yul\":5958:5982   */\n      tag_483\n        /* \"#utility.yul\":5976:5981   */\n      dup2\n        /* \"#utility.yul\":5958:5982   */\n      tag_379\n      jump\t// in\n    tag_483:\n        /* \"#utility.yul\":5953:5956   */\n      dup3\n        /* \"#utility.yul\":5946:5983   */\n      mstore\n        /* \"#utility.yul\":5871:5989   */\n      pop\n      pop\n      jump\t// out\n        /* \"#utility.yul\":5995:6217   */\n    tag_70:\n        /* \"#utility.yul\":6088:6092   */\n      0x00\n        /* \"#utility.yul\":6126:6128   */\n      0x20\n        /* \"#utility.yul\":6115:6124   */\n      dup3\n        /* \"#utility.yul\":6111:6129   */\n      add\n        /* \"#utility.yul\":6103:6129   */\n      swap1\n      pop\n        /* \"#utility.yul\":6139:6210   */\n      tag_485\n        /* \"#utility.yul\":6207:6208   */\n      0x00\n        /* \"#utility.yul\":6196:6205   */\n      dup4\n        /* \"#utility.yul\":6192:6209   */\n      add\n        /* \"#utility.yul\":6183:6189   */\n      dup5\n        /* \"#utility.yul\":6139:6210   */\n      tag_382\n      jump\t// in\n    tag_485:\n        /* \"#utility.yul\":5995:6217   */\n      swap3\n      swap2\n      pop\n      pop\n      jump\t// out\n        /* \"#utility.yul\":6223:6697   */\n    tag_73:\n        /* \"#utility.yul\":6291:6297   */\n      0x00\n        /* \"#utility.yul\":6299:6305   */\n      dup1\n        /* \"#utility.yul\":6348:6350   */\n      0x40\n        /* \"#utility.yul\":6336:6345   */\n      dup4\n        /* \"#utility.yul\":6327:6334   */\n      dup6\n        /* \"#utility.yul\":6323:6346   */\n      sub\n        /* \"#utility.yul\":6319:6351   */\n      slt\n        /* \"#utility.yul\":6316:6435   */\n      iszero\n      tag_487\n      jumpi\n        /* \"#utility.yul\":6354:6433   */\n      tag_488\n      tag_359\n      jump\t// in\n    tag_488:\n        /* \"#utility.yul\":6316:6435   */\n    tag_487:\n        /* \"#utility.yul\":6474:6475   */\n      0x00\n        /* \"#utility.yul\":6499:6552   */\n      tag_489\n        /* \"#utility.yul\":6544:6551   */\n      dup6\n        /* \"#utility.yul\":6535:6541   */\n      dup3\n        /* \"#utility.yul\":6524:6533   */\n      dup7\n        /* \"#utility.yul\":6520:6542   */\n      add\n        /* \"#utility.yul\":6499:6552   */\n      tag_381\n      jump\t// in\n    tag_489:\n        /* \"#utility.yul\":6489:6552   */\n      swap3\n      pop\n        /* \"#utility.yul\":6445:6562   */\n      pop\n        /* \"#utility.yul\":6601:6603   */\n      0x20\n        /* \"#utility.yul\":6627:6680   */\n      tag_490\n        /* \"#utility.yul\":6672:6679   */\n      dup6\n        /* \"#utility.yul\":6663:6669   */\n      dup3\n        /* \"#utility.yul\":6652:6661   */\n      dup7\n        /* \"#utility.yul\":6648:6670   */\n      add\n        /* \"#utility.yul\":6627:6680   */\n      tag_374\n      jump\t// in\n    tag_490:\n        /* \"#utility.yul\":6617:6680   */\n      swap2\n      pop\n        /* \"#utility.yul\":6572:6690   */\n      pop\n        /* \"#utility.yul\":6223:6697   */\n      swap3\n      pop\n      swap3\n      swap1\n      pop\n      jump\t// out\n        /* \"#utility.yul\":6703:6789   */\n    tag_383:\n        /* \"#utility.yul\":6738:6745   */\n      0x00\n        /* \"#utility.yul\":6778:6782   */\n      0xff\n        /* \"#utility.yul\":6771:6776   */\n      dup3\n        /* \"#utility.yul\":6767:6783   */\n      and\n        /* \"#utility.yul\":6756:6783   */\n      swap1\n      pop\n        /* \"#utility.yul\":6703:6789   */\n      swap2\n      swap1\n      pop\n      jump\t// out\n        /* \"#utility.yul\":6795:6907   */\n    tag_384:\n        /* \"#utility.yul\":6878:6900   */\n      tag_493\n        /* \"#utility.yul\":6894:6899   */\n      dup2\n        /* \"#utility.yul\":6878:6900   */\n      tag_383\n      jump\t// in\n    tag_493:\n        /* \"#utility.yul\":6873:6876   */\n      dup3\n        /* \"#utility.yul\":6866:6901   */\n      mstore\n        /* \"#utility.yul\":6795:6907   */\n      pop\n      pop\n      jump\t// out\n        /* \"#utility.yul\":6913:7127   */\n    tag_78:\n        /* \"#utility.yul\":7002:7006   */\n      0x00\n        /* \"#utility.yul\":7040:7042   */\n      0x20\n        /* \"#utility.yul\":7029:7038   */\n      dup3\n        /* \"#utility.yul\":7025:7043   */\n      add\n        /* \"#utility.yul\":7017:7043   */\n      swap1\n      pop\n        /* \"#utility.yul\":7053:7120   */\n      tag_495\n        /* \"#utility.yul\":7117:7118   */\n      0x00\n        /* \"#utility.yul\":7106:7115   */\n      dup4\n        /* \"#utility.yul\":7102:7119   */\n      add\n        /* \"#utility.yul\":7093:7099   */\n      dup5\n        /* \"#utility.yul\":7053:7120   */\n      tag_384\n      jump\t// in\n    tag_495:\n        /* \"#utility.yul\":6913:7127   */\n      swap3\n      swap2\n      pop\n      pop\n      jump\t// out\n        /* \"#utility.yul\":7133:7462   */\n    tag_87:\n        /* \"#utility.yul\":7192:7198   */\n      0x00\n        /* \"#utility.yul\":7241:7243   */\n      0x20\n        /* \"#utility.yul\":7229:7238   */\n      dup3\n        /* \"#utility.yul\":7220:7227   */\n      dup5\n        /* \"#utility.yul\":7216:7239   */\n      sub\n        /* \"#utility.yul\":7212:7244   */\n      slt\n        /* \"#utility.yul\":7209:7328   */\n      iszero\n      tag_497\n      jumpi\n        /* \"#utility.yul\":7247:7326   */\n      tag_498\n      tag_359\n      jump\t// in\n    tag_498:\n        /* \"#utility.yul\":7209:7328   */\n    tag_497:\n        /* \"#utility.yul\":7367:7368   */\n      0x00\n        /* \"#utility.yul\":7392:7445   */\n      tag_499\n        /* \"#utility.yul\":7437:7444   */\n      dup5\n        /* \"#utility.yul\":7428:7434   */\n      dup3\n        /* \"#utility.yul\":7417:7426   */\n      dup6\n        /* \"#utility.yul\":7413:7435   */\n      add\n        /* \"#utility.yul\":7392:7445   */\n      tag_374\n      jump\t// in\n    tag_499:\n        /* \"#utility.yul\":7382:7445   */\n      swap2\n      pop\n        /* \"#utility.yul\":7338:7455   */\n      pop\n        /* \"#utility.yul\":7133:7462   */\n      swap3\n      swap2\n      pop\n      pop\n      jump\t// out\n        /* \"#utility.yul\":7468:7942   */\n    tag_129:\n        /* \"#utility.yul\":7536:7542   */\n      0x00\n        /* \"#utility.yul\":7544:7550   */\n      dup1\n        /* \"#utility.yul\":7593:7595   */\n      0x40\n        /* \"#utility.yul\":7581:7590   */\n      dup4\n        /* \"#utility.yul\":7572:7579   */\n      dup6\n        /* \"#utility.yul\":7568:7591   */\n      sub\n        /* \"#utility.yul\":7564:7596   */\n      slt\n        /* \"#utility.yul\":7561:7680   */\n      iszero\n      tag_501\n      jumpi\n        /* \"#utility.yul\":7599:7678   */\n      tag_502\n      tag_359\n      jump\t// in\n    tag_502:\n        /* \"#utility.yul\":7561:7680   */\n    tag_501:\n        /* \"#utility.yul\":7719:7720   */\n      0x00\n        /* \"#utility.yul\":7744:7797   */\n      tag_503\n        /* \"#utility.yul\":7789:7796   */\n      dup6\n        /* \"#utility.yul\":7780:7786   */\n      dup3\n        /* \"#utility.yul\":7769:7778   */\n      dup7\n        /* \"#utility.yul\":7765:7787   */\n      add\n        /* \"#utility.yul\":7744:7797   */\n      tag_374\n      jump\t// in\n    tag_503:\n        /* \"#utility.yul\":7734:7797   */\n      swap3\n      pop\n        /* \"#utility.yul\":7690:7807   */\n      pop\n        /* \"#utility.yul\":7846:7848   */\n      0x20\n        /* \"#utility.yul\":7872:7925   */\n      tag_504\n        /* \"#utility.yul\":7917:7924   */\n      dup6\n        /* \"#utility.yul\":7908:7914   */\n      dup3\n        /* \"#utility.yul\":7897:7906   */\n      dup7\n        /* \"#utility.yul\":7893:7915   */\n      add\n        /* \"#utility.yul\":7872:7925   */\n      tag_374\n      jump\t// in\n    tag_504:\n        /* \"#utility.yul\":7862:7925   */\n      swap2\n      pop\n        /* \"#utility.yul\":7817:7935   */\n      pop\n        /* \"#utility.yul\":7468:7942   */\n      swap3\n      pop\n      swap3\n      swap1\n      pop\n      jump\t// out\n        /* \"#utility.yul\":7948:8128   */\n    tag_385:\n        /* \"#utility.yul\":7996:8073   */\n      0x4e487b7100000000000000000000000000000000000000000000000000000000\n        /* \"#utility.yul\":7993:7994   */\n      0x00\n        /* \"#utility.yul\":7986:8074   */\n      mstore\n        /* \"#utility.yul\":8093:8097   */\n      0x22\n        /* \"#utility.yul\":8090:8091   */\n      0x04\n        /* \"#utility.yul\":8083:8098   */\n      mstore\n        /* \"#utility.yul\":8117:8121   */\n      0x24\n        /* \"#utility.yul\":8114:8115   */\n      0x00\n        /* \"#utility.yul\":8107:8122   */\n      revert\n        /* \"#utility.yul\":8134:8454   */\n    tag_147:\n        /* \"#utility.yul\":8178:8184   */\n      0x00\n        /* \"#utility.yul\":8215:8216   */\n      0x02\n        /* \"#utility.yul\":8209:8213   */\n      dup3\n        /* \"#utility.yul\":8205:8217   */\n      div\n        /* \"#utility.yul\":8195:8217   */\n      swap1\n      pop\n        /* \"#utility.yul\":8262:8263   */\n      0x01\n        /* \"#utility.yul\":8256:8260   */\n      dup3\n        /* \"#utility.yul\":8252:8264   */\n      and\n        /* \"#utility.yul\":8283:8301   */\n      dup1\n        /* \"#utility.yul\":8273:8354   */\n      tag_507\n      jumpi\n        /* \"#utility.yul\":8339:8343   */\n      0x7f\n        /* \"#utility.yul\":8331:8337   */\n      dup3\n        /* \"#utility.yul\":8327:8344   */\n      and\n        /* \"#utility.yul\":8317:8344   */\n      swap2\n      pop\n        /* \"#utility.yul\":8273:8354   */\n    tag_507:\n        /* \"#utility.yul\":8401:8403   */\n      0x20\n        /* \"#utility.yul\":8393:8399   */\n      dup3\n        /* \"#utility.yul\":8390:8404   */\n      lt\n        /* \"#utility.yul\":8370:8388   */\n      dup2\n        /* \"#utility.yul\":8367:8405   */\n      sub\n        /* \"#utility.yul\":8364:8448   */\n      tag_508\n      jumpi\n        /* \"#utility.yul\":8420:8438   */\n      tag_509\n      tag_385\n      jump\t// in\n    tag_509:\n        /* \"#utility.yul\":8364:8448   */\n    tag_508:\n        /* \"#utility.yul\":8185:8454   */\n      pop\n        /* \"#utility.yul\":8134:8454   */\n      swap2\n      swap1\n      pop\n      jump\t// out\n        /* \"#utility.yul\":8460:8637   */\n    tag_386:\n        /* \"#utility.yul\":8600:8629   */\n      0x63616e6e6f742073656e6420746f207a65726f20616464726573730000000000\n        /* \"#utility.yul\":8596:8597   */\n      0x00\n        /* \"#utility.yul\":8588:8594   */\n      dup3\n        /* \"#utility.yul\":8584:8598   */\n      add\n        /* \"#utility.yul\":8577:8630   */\n      mstore\n        /* \"#utility.yul\":8460:8637   */\n      pop\n      jump\t// out\n        /* \"#utility.yul\":8643:9009   */\n    tag_387:\n        /* \"#utility.yul\":8785:8788   */\n      0x00\n        /* \"#utility.yul\":8806:8873   */\n      tag_512\n        /* \"#utility.yul\":8870:8872   */\n      0x1b\n        /* \"#utility.yul\":8865:8868   */\n      dup4\n        /* \"#utility.yul\":8806:8873   */\n      tag_367\n      jump\t// in\n    tag_512:\n        /* \"#utility.yul\":8799:8873   */\n      swap2\n      pop\n        /* \"#utility.yul\":8882:8975   */\n      tag_513\n        /* \"#utility.yul\":8971:8974   */\n      dup3\n        /* \"#utility.yul\":8882:8975   */\n      tag_386\n      jump\t// in\n    tag_513:\n        /* \"#utility.yul\":9000:9002   */\n      0x20\n        /* \"#utility.yul\":8995:8998   */\n      dup3\n        /* \"#utility.yul\":8991:9003   */\n      add\n        /* \"#utility.yul\":8984:9003   */\n      swap1\n      pop\n        /* \"#utility.yul\":8643:9009   */\n      swap2\n      swap1\n      pop\n      jump\t// out\n        /* \"#utility.yul\":9015:9434   */\n    tag_163:\n        /* \"#utility.yul\":9181:9185   */\n      0x00\n        /* \"#utility.yul\":9219:9221   */\n      0x20\n        /* \"#utility.yul\":9208:9217   */\n      dup3\n        /* \"#utility.yul\":9204:9222   */\n      add\n        /* \"#utility.yul\":9196:9222   */\n      swap1\n      pop\n        /* \"#utility.yul\":9268:9277   */\n      dup2\n        /* \"#utility.yul\":9262:9266   */\n      dup2\n        /* \"#utility.yul\":9258:9278   */\n      sub\n        /* \"#utility.yul\":9254:9255   */\n      0x00\n        /* \"#utility.yul\":9243:9252   */\n      dup4\n        /* \"#utility.yul\":9239:9256   */\n      add\n        /* \"#utility.yul\":9232:9279   */\n      mstore\n        /* \"#utility.yul\":9296:9427   */\n      tag_515\n        /* \"#utility.yul\":9422:9426   */\n      dup2\n        /* \"#utility.yul\":9296:9427   */\n      tag_387\n      jump\t// in\n    tag_515:\n        /* \"#utility.yul\":9288:9427   */\n      swap1\n      pop\n        /* \"#utility.yul\":9015:9434   */\n      swap2\n      swap1\n      pop\n      jump\t// out\n        /* \"#utility.yul\":9440:9618   */\n    tag_388:\n        /* \"#utility.yul\":9580:9610   */\n      0x746f6b656e20616464726573732063616e6e6f74206265207a65726f00000000\n        /* \"#utility.yul\":9576:9577   */\n      0x00\n        /* \"#utility.yul\":9568:9574   */\n      dup3\n        /* \"#utility.yul\":9564:9578   */\n      add\n        /* \"#utility.yul\":9557:9611   */\n      mstore\n        /* \"#utility.yul\":9440:9618   */\n      pop\n      jump\t// out\n        /* \"#utility.yul\":9624:9990   */\n    tag_389:\n        /* \"#utility.yul\":9766:9769   */\n      0x00\n        /* \"#utility.yul\":9787:9854   */\n      tag_518\n        /* \"#utility.yul\":9851:9853   */\n      0x1c\n        /* \"#utility.yul\":9846:9849   */\n      dup4\n        /* \"#utility.yul\":9787:9854   */\n      tag_367\n      jump\t// in\n    tag_518:\n        /* \"#utility.yul\":9780:9854   */\n      swap2\n      pop\n        /* \"#utility.yul\":9863:9956   */\n      tag_519\n        /* \"#utility.yul\":9952:9955   */\n      dup3\n        /* \"#utility.yul\":9863:9956   */\n      tag_388\n      jump\t// in\n    tag_519:\n        /* \"#utility.yul\":9981:9983   */\n      0x20\n        /* \"#utility.yul\":9976:9979   */\n      dup3\n        /* \"#utility.yul\":9972:9984   */\n      add\n        /* \"#utility.yul\":9965:9984   */\n      swap1\n      pop\n        /* \"#utility.yul\":9624:9990   */\n      swap2\n      swap1\n      pop\n      jump\t// out\n        /* \"#utility.yul\":9996:10415   */\n    tag_166:\n        /* \"#utility.yul\":10162:10166   */\n      0x00\n        /* \"#utility.yul\":10200:10202   */\n      0x20\n        /* \"#utility.yul\":10189:10198   */\n      dup3\n        /* \"#utility.yul\":10185:10203   */\n      add\n        /* \"#utility.yul\":10177:10203   */\n      swap1\n      pop\n        /* \"#utility.yul\":10249:10258   */\n      dup2\n        /* \"#utility.yul\":10243:10247   */\n      dup2\n        /* \"#utility.yul\":10239:10259   */\n      sub\n        /* \"#utility.yul\":10235:10236   */\n      0x00\n        /* \"#utility.yul\":10224:10233   */\n      dup4\n        /* \"#utility.yul\":10220:10237   */\n      add\n        /* \"#utility.yul\":10213:10260   */\n      mstore\n        /* \"#utility.yul\":10277:10408   */\n      tag_521\n        /* \"#utility.yul\":10403:10407   */\n      dup2\n        /* \"#utility.yul\":10277:10408   */\n      tag_389\n      jump\t// in\n    tag_521:\n        /* \"#utility.yul\":10269:10408   */\n      swap1\n      pop\n        /* \"#utility.yul\":9996:10415   */\n      swap2\n      swap1\n      pop\n      jump\t// out\n        /* \"#utility.yul\":10421:10603   */\n    tag_390:\n        /* \"#utility.yul\":10561:10595   */\n      0x616d6f756e74206d7573742062652067726561746572207468616e207a65726f\n        /* \"#utility.yul\":10557:10558   */\n      0x00\n        /* \"#utility.yul\":10549:10555   */\n      dup3\n        /* \"#utility.yul\":10545:10559   */\n      add\n        /* \"#utility.yul\":10538:10596   */\n      mstore\n        /* \"#utility.yul\":10421:10603   */\n      pop\n      jump\t// out\n        /* \"#utility.yul\":10609:10975   */\n    tag_391:\n        /* \"#utility.yul\":10751:10754   */\n      0x00\n        /* \"#utility.yul\":10772:10839   */\n      tag_524\n        /* \"#utility.yul\":10836:10838   */\n      0x20\n        /* \"#utility.yul\":10831:10834   */\n      dup4\n        /* \"#utility.yul\":10772:10839   */\n      tag_367\n      jump\t// in\n    tag_524:\n        /* \"#utility.yul\":10765:10839   */\n      swap2\n      pop\n        /* \"#utility.yul\":10848:10941   */\n      tag_525\n        /* \"#utility.yul\":10937:10940   */\n      dup3\n        /* \"#utility.yul\":10848:10941   */\n      tag_390\n      jump\t// in\n    tag_525:\n        /* \"#utility.yul\":10966:10968   */\n      0x20\n        /* \"#utility.yul\":10961:10964   */\n      dup3\n        /* \"#utility.yul\":10957:10969   */\n      add\n        /* \"#utility.yul\":10950:10969   */\n      swap1\n      pop\n        /* \"#utility.yul\":10609:10975   */\n      swap2\n      swap1\n      pop\n      jump\t// out\n        /* \"#utility.yul\":10981:11400   */\n    tag_169:\n        /* \"#utility.yul\":11147:11151   */\n      0x00\n        /* \"#utility.yul\":11185:11187   */\n      0x20\n        /* \"#utility.yul\":11174:11183   */\n      dup3\n        /* \"#utility.yul\":11170:11188   */\n      add\n        /* \"#utility.yul\":11162:11188   */\n      swap1\n      pop\n        /* \"#utility.yul\":11234:11243   */\n      dup2\n        /* \"#utility.yul\":11228:11232   */\n      dup2\n        /* \"#utility.yul\":11224:11244   */\n      sub\n        /* \"#utility.yul\":11220:11221   */\n      0x00\n        /* \"#utility.yul\":11209:11218   */\n      dup4\n        /* \"#utility.yul\":11205:11222   */\n      add\n        /* \"#utility.yul\":11198:11245   */\n      mstore\n        /* \"#utility.yul\":11262:11393   */\n      tag_527\n        /* \"#utility.yul\":11388:11392   */\n      dup2\n        /* \"#utility.yul\":11262:11393   */\n      tag_391\n      jump\t// in\n    tag_527:\n        /* \"#utility.yul\":11254:11393   */\n      swap1\n      pop\n        /* \"#utility.yul\":10981:11400   */\n      swap2\n      swap1\n      pop\n      jump\t// out\n        /* \"#utility.yul\":11406:11524   */\n    tag_392:\n        /* \"#utility.yul\":11493:11517   */\n      tag_529\n        /* \"#utility.yul\":11511:11516   */\n      dup2\n        /* \"#utility.yul\":11493:11517   */\n      tag_372\n      jump\t// in\n    tag_529:\n        /* \"#utility.yul\":11488:11491   */\n      dup3\n        /* \"#utility.yul\":11481:11518   */\n      mstore\n        /* \"#utility.yul\":11406:11524   */\n      pop\n      pop\n      jump\t// out\n        /* \"#utility.yul\":11530:11862   */\n    tag_171:\n        /* \"#utility.yul\":11651:11655   */\n      0x00\n        /* \"#utility.yul\":11689:11691   */\n      0x40\n        /* \"#utility.yul\":11678:11687   */\n      dup3\n        /* \"#utility.yul\":11674:11692   */\n      add\n        /* \"#utility.yul\":11666:11692   */\n      swap1\n      pop\n        /* \"#utility.yul\":11702:11773   */\n      tag_531\n        /* \"#utility.yul\":11770:11771   */\n      0x00\n        /* \"#utility.yul\":11759:11768   */\n      dup4\n        /* \"#utility.yul\":11755:11772   */\n      add\n        /* \"#utility.yul\":11746:11752   */\n      dup6\n        /* \"#utility.yul\":11702:11773   */\n      tag_392\n      jump\t// in\n    tag_531:\n        /* \"#utility.yul\":11783:11855   */\n      tag_532\n        /* \"#utility.yul\":11851:11853   */\n      0x20\n        /* \"#utility.yul\":11840:11849   */\n      dup4\n        /* \"#utility.yul\":11836:11854   */\n      add\n        /* \"#utility.yul\":11827:11833   */\n      dup5\n        /* \"#utility.yul\":11783:11855   */\n      tag_378\n      jump\t// in\n    tag_532:\n        /* \"#utility.yul\":11530:11862   */\n      swap4\n      swap3\n      pop\n      pop\n      pop\n      jump\t// out\n        /* \"#utility.yul\":11868:11984   */\n    tag_393:\n        /* \"#utility.yul\":11938:11959   */\n      tag_534\n        /* \"#utility.yul\":11953:11958   */\n      dup2\n        /* \"#utility.yul\":11938:11959   */\n      tag_364\n      jump\t// in\n    tag_534:\n        /* \"#utility.yul\":11931:11936   */\n      dup2\n        /* \"#utility.yul\":11928:11960   */\n      eq\n        /* \"#utility.yul\":11918:11978   */\n      tag_535\n      jumpi\n        /* \"#utility.yul\":11974:11975   */\n      0x00\n        /* \"#utility.yul\":11971:11972   */\n      dup1\n        /* \"#utility.yul\":11964:11976   */\n      revert\n        /* \"#utility.yul\":11918:11978   */\n    tag_535:\n        /* \"#utility.yul\":11868:11984   */\n      pop\n      jump\t// out\n        /* \"#utility.yul\":11990:12127   */\n    tag_394:\n        /* \"#utility.yul\":12044:12049   */\n      0x00\n        /* \"#utility.yul\":12075:12081   */\n      dup2\n        /* \"#utility.yul\":12069:12082   */\n      mload\n        /* \"#utility.yul\":12060:12082   */\n      swap1\n      pop\n        /* \"#utility.yul\":12091:12121   */\n      tag_537\n        /* \"#utility.yul\":12115:12120   */\n      dup2\n        /* \"#utility.yul\":12091:12121   */\n      tag_393\n      jump\t// in\n    tag_537:\n        /* \"#utility.yul\":11990:12127   */\n      swap3\n      swap2\n      pop\n      pop\n      jump\t// out\n        /* \"#utility.yul\":12133:12478   */\n    tag_175:\n        /* \"#utility.yul\":12200:12206   */\n      0x00\n        /* \"#utility.yul\":12249:12251   */\n      0x20\n        /* \"#utility.yul\":12237:12246   */\n      dup3\n        /* \"#utility.yul\":12228:12235   */\n      dup5\n        /* \"#utility.yul\":12224:12247   */\n      sub\n        /* \"#utility.yul\":12220:12252   */\n      slt\n        /* \"#utility.yul\":12217:12336   */\n      iszero\n      tag_539\n      jumpi\n        /* \"#utility.yul\":12255:12334   */\n      tag_540\n      tag_359\n      jump\t// in\n    tag_540:\n        /* \"#utility.yul\":12217:12336   */\n    tag_539:\n        /* \"#utility.yul\":12375:12376   */\n      0x00\n        /* \"#utility.yul\":12400:12461   */\n      tag_541\n        /* \"#utility.yul\":12453:12460   */\n      dup5\n        /* \"#utility.yul\":12444:12450   */\n      dup3\n        /* \"#utility.yul\":12433:12442   */\n      dup6\n        /* \"#utility.yul\":12429:12451   */\n      add\n        /* \"#utility.yul\":12400:12461   */\n      tag_394\n      jump\t// in\n    tag_541:\n        /* \"#utility.yul\":12390:12461   */\n      swap2\n      pop\n        /* \"#utility.yul\":12346:12471   */\n      pop\n        /* \"#utility.yul\":12133:12478   */\n      swap3\n      swap2\n      pop\n      pop\n      jump\t// out\n        /* \"#utility.yul\":12484:12655   */\n    tag_395:\n        /* \"#utility.yul\":12624:12647   */\n      0x4552433230207472616e73666572206661696c65640000000000000000000000\n        /* \"#utility.yul\":12620:12621   */\n      0x00\n        /* \"#utility.yul\":12612:12618   */\n      dup3\n        /* \"#utility.yul\":12608:12622   */\n      add\n        /* \"#utility.yul\":12601:12648   */\n      mstore\n        /* \"#utility.yul\":12484:12655   */\n      pop\n      jump\t// out\n        /* \"#utility.yul\":12661:13027   */\n    tag_396:\n        /* \"#utility.yul\":12803:12806   */\n      0x00\n        /* \"#utility.yul\":12824:12891   */\n      tag_544\n        /* \"#utility.yul\":12888:12890   */\n      0x15\n        /* \"#utility.yul\":12883:12886   */\n      dup4\n        /* \"#utility.yul\":12824:12891   */\n      tag_367\n      jump\t// in\n    tag_544:\n        /* \"#utility.yul\":12817:12891   */\n      swap2\n      pop\n        /* \"#utility.yul\":12900:12993   */\n      tag_545\n        /* \"#utility.yul\":12989:12992   */\n      dup3\n        /* \"#utility.yul\":12900:12993   */\n      tag_395\n      jump\t// in\n    tag_545:\n        /* \"#utility.yul\":13018:13020   */\n      0x20\n        /* \"#utility.yul\":13013:13016   */\n      dup3\n        /* \"#utility.yul\":13009:13021   */\n      add\n        /* \"#utility.yul\":13002:13021   */\n      swap1\n      pop\n        /* \"#utility.yul\":12661:13027   */\n      swap2\n      swap1\n      pop\n      jump\t// out\n        /* \"#utility.yul\":13033:13452   */\n    tag_178:\n        /* \"#utility.yul\":13199:13203   */\n      0x00\n        /* \"#utility.yul\":13237:13239   */\n      0x20\n        /* \"#utility.yul\":13226:13235   */\n      dup3\n        /* \"#utility.yul\":13222:13240   */\n      add\n        /* \"#utility.yul\":13214:13240   */\n      swap1\n      pop\n        /* \"#utility.yul\":13286:13295   */\n      dup2\n        /* \"#utility.yul\":13280:13284   */\n      dup2\n        /* \"#utility.yul\":13276:13296   */\n      sub\n        /* \"#utility.yul\":13272:13273   */\n      0x00\n        /* \"#utility.yul\":13261:13270   */\n      dup4\n        /* \"#utility.yul\":13257:13274   */\n      add\n        /* \"#utility.yul\":13250:13297   */\n      mstore\n        /* \"#utility.yul\":13314:13445   */\n      tag_547\n        /* \"#utility.yul\":13440:13444   */\n      dup2\n        /* \"#utility.yul\":13314:13445   */\n      tag_396\n      jump\t// in\n    tag_547:\n        /* \"#utility.yul\":13306:13445   */\n      swap1\n      pop\n        /* \"#utility.yul\":13033:13452   */\n      swap2\n      swap1\n      pop\n      jump\t// out\n        /* \"#utility.yul\":13458:13681   */\n    tag_397:\n        /* \"#utility.yul\":13598:13632   */\n      0x63616e6e6f7420756e2d77686974656c69737420746865207a65726f20616464\n        /* \"#utility.yul\":13594:13595   */\n      0x00\n        /* \"#utility.yul\":13586:13592   */\n      dup3\n        /* \"#utility.yul\":13582:13596   */\n      add\n        /* \"#utility.yul\":13575:13633   */\n      mstore\n        /* \"#utility.yul\":13667:13673   */\n      0x7265737300000000000000000000000000000000000000000000000000000000\n        /* \"#utility.yul\":13662:13664   */\n      0x20\n        /* \"#utility.yul\":13654:13660   */\n      dup3\n        /* \"#utility.yul\":13650:13665   */\n      add\n        /* \"#utility.yul\":13643:13674   */\n      mstore\n        /* \"#utility.yul\":13458:13681   */\n      pop\n      jump\t// out\n        /* \"#utility.yul\":13687:14053   */\n    tag_398:\n        /* \"#utility.yul\":13829:13832   */\n      0x00\n        /* \"#utility.yul\":13850:13917   */\n      tag_550\n        /* \"#utility.yul\":13914:13916   */\n      0x24\n        /* \"#utility.yul\":13909:13912   */\n      dup4\n        /* \"#utility.yul\":13850:13917   */\n      tag_367\n      jump\t// in\n    tag_550:\n        /* \"#utility.yul\":13843:13917   */\n      swap2\n      pop\n        /* \"#utility.yul\":13926:14019   */\n      tag_551\n        /* \"#utility.yul\":14015:14018   */\n      dup3\n        /* \"#utility.yul\":13926:14019   */\n      tag_397\n      jump\t// in\n    tag_551:\n        /* \"#utility.yul\":14044:14046   */\n      0x40\n        /* \"#utility.yul\":14039:14042   */\n      dup3\n        /* \"#utility.yul\":14035:14047   */\n      add\n        /* \"#utility.yul\":14028:14047   */\n      swap1\n      pop\n        /* \"#utility.yul\":13687:14053   */\n      swap2\n      swap1\n      pop\n      jump\t// out\n        /* \"#utility.yul\":14059:14478   */\n    tag_224:\n        /* \"#utility.yul\":14225:14229   */\n      0x00\n        /* \"#utility.yul\":14263:14265   */\n      0x20\n        /* \"#utility.yul\":14252:14261   */\n      dup3\n        /* \"#utility.yul\":14248:14266   */\n      add\n        /* \"#utility.yul\":14240:14266   */\n      swap1\n      pop\n        /* \"#utility.yul\":14312:14321   */\n      dup2\n        /* \"#utility.yul\":14306:14310   */\n      dup2\n        /* \"#utility.yul\":14302:14322   */\n      sub\n        /* \"#utility.yul\":14298:14299   */\n      0x00\n        /* \"#utility.yul\":14287:14296   */\n      dup4\n        /* \"#utility.yul\":14283:14300   */\n      add\n        /* \"#utility.yul\":14276:14323   */\n      mstore\n        /* \"#utility.yul\":14340:14471   */\n      tag_553\n        /* \"#utility.yul\":14466:14470   */\n      dup2\n        /* \"#utility.yul\":14340:14471   */\n      tag_398\n      jump\t// in\n    tag_553:\n        /* \"#utility.yul\":14332:14471   */\n      swap1\n      pop\n        /* \"#utility.yul\":14059:14478   */\n      swap2\n      swap1\n      pop\n      jump\t// out\n        /* \"#utility.yul\":14484:14704   */\n    tag_399:\n        /* \"#utility.yul\":14624:14658   */\n      0x63616e6e6f742077686974656c69737420746865207a65726f20616464726573\n        /* \"#utility.yul\":14620:14621   */\n      0x00\n        /* \"#utility.yul\":14612:14618   */\n      dup3\n        /* \"#utility.yul\":14608:14622   */\n      add\n        /* \"#utility.yul\":14601:14659   */\n      mstore\n        /* \"#utility.yul\":14693:14696   */\n      0x7300000000000000000000000000000000000000000000000000000000000000\n        /* \"#utility.yul\":14688:14690   */\n      0x20\n        /* \"#utility.yul\":14680:14686   */\n      dup3\n        /* \"#utility.yul\":14676:14691   */\n      add\n        /* \"#utility.yul\":14669:14697   */\n      mstore\n        /* \"#utility.yul\":14484:14704   */\n      pop\n      jump\t// out\n        /* \"#utility.yul\":14710:15076   */\n    tag_400:\n        /* \"#utility.yul\":14852:14855   */\n      0x00\n        /* \"#utility.yul\":14873:14940   */\n      tag_556\n        /* \"#utility.yul\":14937:14939   */\n      0x21\n        /* \"#utility.yul\":14932:14935   */\n      dup4\n        /* \"#utility.yul\":14873:14940   */\n      tag_367\n      jump\t// in\n    tag_556:\n        /* \"#utility.yul\":14866:14940   */\n      swap2\n      pop\n        /* \"#utility.yul\":14949:15042   */\n      tag_557\n        /* \"#utility.yul\":15038:15041   */\n      dup3\n        /* \"#utility.yul\":14949:15042   */\n      tag_399\n      jump\t// in\n    tag_557:\n        /* \"#utility.yul\":15067:15069   */\n      0x40\n        /* \"#utility.yul\":15062:15065   */\n      dup3\n        /* \"#utility.yul\":15058:15070   */\n      add\n        /* \"#utility.yul\":15051:15070   */\n      swap1\n      pop\n        /* \"#utility.yul\":14710:15076   */\n      swap2\n      swap1\n      pop\n      jump\t// out\n        /* \"#utility.yul\":15082:15501   */\n    tag_247:\n        /* \"#utility.yul\":15248:15252   */\n      0x00\n        /* \"#utility.yul\":15286:15288   */\n      0x20\n        /* \"#utility.yul\":15275:15284   */\n      dup3\n        /* \"#utility.yul\":15271:15289   */\n      add\n        /* \"#utility.yul\":15263:15289   */\n      swap1\n      pop\n        /* \"#utility.yul\":15335:15344   */\n      dup2\n        /* \"#utility.yul\":15329:15333   */\n      dup2\n        /* \"#utility.yul\":15325:15345   */\n      sub\n        /* \"#utility.yul\":15321:15322   */\n      0x00\n        /* \"#utility.yul\":15310:15319   */\n      dup4\n        /* \"#utility.yul\":15306:15323   */\n      add\n        /* \"#utility.yul\":15299:15346   */\n      mstore\n        /* \"#utility.yul\":15363:15494   */\n      tag_559\n        /* \"#utility.yul\":15489:15493   */\n      dup2\n        /* \"#utility.yul\":15363:15494   */\n      tag_400\n      jump\t// in\n    tag_559:\n        /* \"#utility.yul\":15355:15494   */\n      swap1\n      pop\n        /* \"#utility.yul\":15082:15501   */\n      swap2\n      swap1\n      pop\n      jump\t// out\n        /* \"#utility.yul\":15507:15686   */\n    tag_401:\n        /* \"#utility.yul\":15647:15678   */\n      0x4d696e7465722063616e6e6f74206265207a65726f2061646472657373000000\n        /* \"#utility.yul\":15643:15644   */\n      0x00\n        /* \"#utility.yul\":15635:15641   */\n      dup3\n        /* \"#utility.yul\":15631:15645   */\n      add\n        /* \"#utility.yul\":15624:15679   */\n      mstore\n        /* \"#utility.yul\":15507:15686   */\n      pop\n      jump\t// out\n        /* \"#utility.yul\":15692:16058   */\n    tag_402:\n        /* \"#utility.yul\":15834:15837   */\n      0x00\n        /* \"#utility.yul\":15855:15922   */\n      tag_562\n        /* \"#utility.yul\":15919:15921   */\n      0x1d\n        /* \"#utility.yul\":15914:15917   */\n      dup4\n        /* \"#utility.yul\":15855:15922   */\n      tag_367\n      jump\t// in\n    tag_562:\n        /* \"#utility.yul\":15848:15922   */\n      swap2\n      pop\n        /* \"#utility.yul\":15931:16024   */\n      tag_563\n        /* \"#utility.yul\":16020:16023   */\n      dup3\n        /* \"#utility.yul\":15931:16024   */\n      tag_401\n      jump\t// in\n    tag_563:\n        /* \"#utility.yul\":16049:16051   */\n      0x20\n        /* \"#utility.yul\":16044:16047   */\n      dup3\n        /* \"#utility.yul\":16040:16052   */\n      add\n        /* \"#utility.yul\":16033:16052   */\n      swap1\n      pop\n        /* \"#utility.yul\":15692:16058   */\n      swap2\n      swap1\n      pop\n      jump\t// out\n        /* \"#utility.yul\":16064:16483   */\n    tag_254:\n        /* \"#utility.yul\":16230:16234   */\n      0x00\n        /* \"#utility.yul\":16268:16270   */\n      0x20\n        /* \"#utility.yul\":16257:16266   */\n      dup3\n        /* \"#utility.yul\":16253:16271   */\n      add\n        /* \"#utility.yul\":16245:16271   */\n      swap1\n      pop\n        /* \"#utility.yul\":16317:16326   */\n      dup2\n        /* \"#utility.yul\":16311:16315   */\n      dup2\n        /* \"#utility.yul\":16307:16327   */\n      sub\n        /* \"#utility.yul\":16303:16304   */\n      0x00\n        /* \"#utility.yul\":16292:16301   */\n      dup4\n        /* \"#utility.yul\":16288:16305   */\n      add\n        /* \"#utility.yul\":16281:16328   */\n      mstore\n        /* \"#utility.yul\":16345:16476   */\n      tag_565\n        /* \"#utility.yul\":16471:16475   */\n      dup2\n        /* \"#utility.yul\":16345:16476   */\n      tag_402\n      jump\t// in\n    tag_565:\n        /* \"#utility.yul\":16337:16476   */\n      swap1\n      pop\n        /* \"#utility.yul\":16064:16483   */\n      swap2\n      swap1\n      pop\n      jump\t// out\n        /* \"#utility.yul\":16489:16931   */\n    tag_270:\n        /* \"#utility.yul\":16638:16642   */\n      0x00\n        /* \"#utility.yul\":16676:16678   */\n      0x60\n        /* \"#utility.yul\":16665:16674   */\n      dup3\n        /* \"#utility.yul\":16661:16679   */\n      add\n        /* \"#utility.yul\":16653:16679   */\n      swap1\n      pop\n        /* \"#utility.yul\":16689:16760   */\n      tag_567\n        /* \"#utility.yul\":16757:16758   */\n      0x00\n        /* \"#utility.yul\":16746:16755   */\n      dup4\n        /* \"#utility.yul\":16742:16759   */\n      add\n        /* \"#utility.yul\":16733:16739   */\n      dup7\n        /* \"#utility.yul\":16689:16760   */\n      tag_392\n      jump\t// in\n    tag_567:\n        /* \"#utility.yul\":16770:16842   */\n      tag_568\n        /* \"#utility.yul\":16838:16840   */\n      0x20\n        /* \"#utility.yul\":16827:16836   */\n      dup4\n        /* \"#utility.yul\":16823:16841   */\n      add\n        /* \"#utility.yul\":16814:16820   */\n      dup6\n        /* \"#utility.yul\":16770:16842   */\n      tag_378\n      jump\t// in\n    tag_568:\n        /* \"#utility.yul\":16852:16924   */\n      tag_569\n        /* \"#utility.yul\":16920:16922   */\n      0x40\n        /* \"#utility.yul\":16909:16918   */\n      dup4\n        /* \"#utility.yul\":16905:16923   */\n      add\n        /* \"#utility.yul\":16896:16902   */\n      dup5\n        /* \"#utility.yul\":16852:16924   */\n      tag_378\n      jump\t// in\n    tag_569:\n        /* \"#utility.yul\":16489:16931   */\n      swap5\n      swap4\n      pop\n      pop\n      pop\n      pop\n      jump\t// out\n        /* \"#utility.yul\":16937:17159   */\n    tag_275:\n        /* \"#utility.yul\":17030:17034   */\n      0x00\n        /* \"#utility.yul\":17068:17070   */\n      0x20\n        /* \"#utility.yul\":17057:17066   */\n      dup3\n        /* \"#utility.yul\":17053:17071   */\n      add\n        /* \"#utility.yul\":17045:17071   */\n      swap1\n      pop\n        /* \"#utility.yul\":17081:17152   */\n      tag_571\n        /* \"#utility.yul\":17149:17150   */\n      0x00\n        /* \"#utility.yul\":17138:17147   */\n      dup4\n        /* \"#utility.yul\":17134:17151   */\n      add\n        /* \"#utility.yul\":17125:17131   */\n      dup5\n        /* \"#utility.yul\":17081:17152   */\n      tag_392\n      jump\t// in\n    tag_571:\n        /* \"#utility.yul\":16937:17159   */\n      swap3\n      swap2\n      pop\n      pop\n      jump\t// out\n        /* \"#utility.yul\":17165:17497   */\n    tag_317:\n        /* \"#utility.yul\":17286:17290   */\n      0x00\n        /* \"#utility.yul\":17324:17326   */\n      0x40\n        /* \"#utility.yul\":17313:17322   */\n      dup3\n        /* \"#utility.yul\":17309:17327   */\n      add\n        /* \"#utility.yul\":17301:17327   */\n      swap1\n      pop\n        /* \"#utility.yul\":17337:17408   */\n      tag_573\n        /* \"#utility.yul\":17405:17406   */\n      0x00\n        /* \"#utility.yul\":17394:17403   */\n      dup4\n        /* \"#utility.yul\":17390:17407   */\n      add\n        /* \"#utility.yul\":17381:17387   */\n      dup6\n        /* \"#utility.yul\":17337:17408   */\n      tag_392\n      jump\t// in\n    tag_573:\n        /* \"#utility.yul\":17418:17490   */\n      tag_574\n        /* \"#utility.yul\":17486:17488   */\n      0x20\n        /* \"#utility.yul\":17475:17484   */\n      dup4\n        /* \"#utility.yul\":17471:17489   */\n      add\n        /* \"#utility.yul\":17462:17468   */\n      dup5\n        /* \"#utility.yul\":17418:17490   */\n      tag_382\n      jump\t// in\n    tag_574:\n        /* \"#utility.yul\":17165:17497   */\n      swap4\n      swap3\n      pop\n      pop\n      pop\n      jump\t// out\n        /* \"#utility.yul\":17503:17736   */\n    tag_403:\n        /* \"#utility.yul\":17643:17677   */\n      0x546f6b656e3a207472616e73666572207768696c652070617573656420286e6f\n        /* \"#utility.yul\":17639:17640   */\n      0x00\n        /* \"#utility.yul\":17631:17637   */\n      dup3\n        /* \"#utility.yul\":17627:17641   */\n      add\n        /* \"#utility.yul\":17620:17678   */\n      mstore\n        /* \"#utility.yul\":17712:17728   */\n      0x742077686974656c697374656429000000000000000000000000000000000000\n        /* \"#utility.yul\":17707:17709   */\n      0x20\n        /* \"#utility.yul\":17699:17705   */\n      dup3\n        /* \"#utility.yul\":17695:17710   */\n      add\n        /* \"#utility.yul\":17688:17729   */\n      mstore\n        /* \"#utility.yul\":17503:17736   */\n      pop\n      jump\t// out\n        /* \"#utility.yul\":17742:18108   */\n    tag_404:\n        /* \"#utility.yul\":17884:17887   */\n      0x00\n        /* \"#utility.yul\":17905:17972   */\n      tag_577\n        /* \"#utility.yul\":17969:17971   */\n      0x2e\n        /* \"#utility.yul\":17964:17967   */\n      dup4\n        /* \"#utility.yul\":17905:17972   */\n      tag_367\n      jump\t// in\n    tag_577:\n        /* \"#utility.yul\":17898:17972   */\n      swap2\n      pop\n        /* \"#utility.yul\":17981:18074   */\n      tag_578\n        /* \"#utility.yul\":18070:18073   */\n      dup3\n        /* \"#utility.yul\":17981:18074   */\n      tag_403\n      jump\t// in\n    tag_578:\n        /* \"#utility.yul\":18099:18101   */\n      0x40\n        /* \"#utility.yul\":18094:18097   */\n      dup3\n        /* \"#utility.yul\":18090:18102   */\n      add\n        /* \"#utility.yul\":18083:18102   */\n      swap1\n      pop\n        /* \"#utility.yul\":17742:18108   */\n      swap2\n      swap1\n      pop\n      jump\t// out\n        /* \"#utility.yul\":18114:18533   */\n    tag_326:\n        /* \"#utility.yul\":18280:18284   */\n      0x00\n        /* \"#utility.yul\":18318:18320   */\n      0x20\n        /* \"#utility.yul\":18307:18316   */\n      dup3\n        /* \"#utility.yul\":18303:18321   */\n      add\n        /* \"#utility.yul\":18295:18321   */\n      swap1\n      pop\n        /* \"#utility.yul\":18367:18376   */\n      dup2\n        /* \"#utility.yul\":18361:18365   */\n      dup2\n        /* \"#utility.yul\":18357:18377   */\n      sub\n        /* \"#utility.yul\":18353:18354   */\n      0x00\n        /* \"#utility.yul\":18342:18351   */\n      dup4\n        /* \"#utility.yul\":18338:18355   */\n      add\n        /* \"#utility.yul\":18331:18378   */\n      mstore\n        /* \"#utility.yul\":18395:18526   */\n      tag_580\n        /* \"#utility.yul\":18521:18525   */\n      dup2\n        /* \"#utility.yul\":18395:18526   */\n      tag_404\n      jump\t// in\n    tag_580:\n        /* \"#utility.yul\":18387:18526   */\n      swap1\n      pop\n        /* \"#utility.yul\":18114:18533   */\n      swap2\n      swap1\n      pop\n      jump\t// out\n        /* \"#utility.yul\":18539:18709   */\n    tag_405:\n        /* \"#utility.yul\":18679:18701   */\n      0x5061757361626c653a206e6f7420706175736564000000000000000000000000\n        /* \"#utility.yul\":18675:18676   */\n      0x00\n        /* \"#utility.yul\":18667:18673   */\n      dup3\n        /* \"#utility.yul\":18663:18677   */\n      add\n        /* \"#utility.yul\":18656:18702   */\n      mstore\n        /* \"#utility.yul\":18539:18709   */\n      pop\n      jump\t// out\n        /* \"#utility.yul\":18715:19081   */\n    tag_406:\n        /* \"#utility.yul\":18857:18860   */\n      0x00\n        /* \"#utility.yul\":18878:18945   */\n      tag_583\n        /* \"#utility.yul\":18942:18944   */\n      0x14\n        /* \"#utility.yul\":18937:18940   */\n      dup4\n        /* \"#utility.yul\":18878:18945   */\n      tag_367\n      jump\t// in\n    tag_583:\n        /* \"#utility.yul\":18871:18945   */\n      swap2\n      pop\n        /* \"#utility.yul\":18954:19047   */\n      tag_584\n        /* \"#utility.yul\":19043:19046   */\n      dup3\n        /* \"#utility.yul\":18954:19047   */\n      tag_405\n      jump\t// in\n    tag_584:\n        /* \"#utility.yul\":19072:19074   */\n      0x20\n        /* \"#utility.yul\":19067:19070   */\n      dup3\n        /* \"#utility.yul\":19063:19075   */\n      add\n        /* \"#utility.yul\":19056:19075   */\n      swap1\n      pop\n        /* \"#utility.yul\":18715:19081   */\n      swap2\n      swap1\n      pop\n      jump\t// out\n        /* \"#utility.yul\":19087:19506   */\n    tag_333:\n        /* \"#utility.yul\":19253:19257   */\n      0x00\n        /* \"#utility.yul\":19291:19293   */\n      0x20\n        /* \"#utility.yul\":19280:19289   */\n      dup3\n        /* \"#utility.yul\":19276:19294   */\n      add\n        /* \"#utility.yul\":19268:19294   */\n      swap1\n      pop\n        /* \"#utility.yul\":19340:19349   */\n      dup2\n        /* \"#utility.yul\":19334:19338   */\n      dup2\n        /* \"#utility.yul\":19330:19350   */\n      sub\n        /* \"#utility.yul\":19326:19327   */\n      0x00\n        /* \"#utility.yul\":19315:19324   */\n      dup4\n        /* \"#utility.yul\":19311:19328   */\n      add\n        /* \"#utility.yul\":19304:19351   */\n      mstore\n        /* \"#utility.yul\":19368:19499   */\n      tag_586\n        /* \"#utility.yul\":19494:19498   */\n      dup2\n        /* \"#utility.yul\":19368:19499   */\n      tag_406\n      jump\t// in\n    tag_586:\n        /* \"#utility.yul\":19360:19499   */\n      swap1\n      pop\n        /* \"#utility.yul\":19087:19506   */\n      swap2\n      swap1\n      pop\n      jump\t// out\n        /* \"#utility.yul\":19512:19678   */\n    tag_407:\n        /* \"#utility.yul\":19652:19670   */\n      0x5061757361626c653a2070617573656400000000000000000000000000000000\n        /* \"#utility.yul\":19648:19649   */\n      0x00\n        /* \"#utility.yul\":19640:19646   */\n      dup3\n        /* \"#utility.yul\":19636:19650   */\n      add\n        /* \"#utility.yul\":19629:19671   */\n      mstore\n        /* \"#utility.yul\":19512:19678   */\n      pop\n      jump\t// out\n        /* \"#utility.yul\":19684:20050   */\n    tag_408:\n        /* \"#utility.yul\":19826:19829   */\n      0x00\n        /* \"#utility.yul\":19847:19914   */\n      tag_589\n        /* \"#utility.yul\":19911:19913   */\n      0x10\n        /* \"#utility.yul\":19906:19909   */\n      dup4\n        /* \"#utility.yul\":19847:19914   */\n      tag_367\n      jump\t// in\n    tag_589:\n        /* \"#utility.yul\":19840:19914   */\n      swap2\n      pop\n        /* \"#utility.yul\":19923:20016   */\n      tag_590\n        /* \"#utility.yul\":20012:20015   */\n      dup3\n        /* \"#utility.yul\":19923:20016   */\n      tag_407\n      jump\t// in\n    tag_590:\n        /* \"#utility.yul\":20041:20043   */\n      0x20\n        /* \"#utility.yul\":20036:20039   */\n      dup3\n        /* \"#utility.yul\":20032:20044   */\n      add\n        /* \"#utility.yul\":20025:20044   */\n      swap1\n      pop\n        /* \"#utility.yul\":19684:20050   */\n      swap2\n      swap1\n      pop\n      jump\t// out\n        /* \"#utility.yul\":20056:20475   */\n    tag_338:\n        /* \"#utility.yul\":20222:20226   */\n      0x00\n        /* \"#utility.yul\":20260:20262   */\n      0x20\n        /* \"#utility.yul\":20249:20258   */\n      dup3\n        /* \"#utility.yul\":20245:20263   */\n      add\n        /* \"#utility.yul\":20237:20263   */\n      swap1\n      pop\n        /* \"#utility.yul\":20309:20318   */\n      dup2\n        /* \"#utility.yul\":20303:20307   */\n      dup2\n        /* \"#utility.yul\":20299:20319   */\n      sub\n        /* \"#utility.yul\":20295:20296   */\n      0x00\n        /* \"#utility.yul\":20284:20293   */\n      dup4\n        /* \"#utility.yul\":20280:20297   */\n      add\n        /* \"#utility.yul\":20273:20320   */\n      mstore\n        /* \"#utility.yul\":20337:20468   */\n      tag_592\n        /* \"#utility.yul\":20463:20467   */\n      dup2\n        /* \"#utility.yul\":20337:20468   */\n      tag_408\n      jump\t// in\n    tag_592:\n        /* \"#utility.yul\":20329:20468   */\n      swap1\n      pop\n        /* \"#utility.yul\":20056:20475   */\n      swap2\n      swap1\n      pop\n      jump\t// out\n        /* \"#utility.yul\":20481:20813   */\n    tag_347:\n        /* \"#utility.yul\":20602:20606   */\n      0x00\n        /* \"#utility.yul\":20640:20642   */\n      0x40\n        /* \"#utility.yul\":20629:20638   */\n      dup3\n        /* \"#utility.yul\":20625:20643   */\n      add\n        /* \"#utility.yul\":20617:20643   */\n      swap1\n      pop\n        /* \"#utility.yul\":20653:20724   */\n      tag_594\n        /* \"#utility.yul\":20721:20722   */\n      0x00\n        /* \"#utility.yul\":20710:20719   */\n      dup4\n        /* \"#utility.yul\":20706:20723   */\n      add\n        /* \"#utility.yul\":20697:20703   */\n      dup6\n        /* \"#utility.yul\":20653:20724   */\n      tag_378\n      jump\t// in\n    tag_594:\n        /* \"#utility.yul\":20734:20806   */\n      tag_595\n        /* \"#utility.yul\":20802:20804   */\n      0x20\n        /* \"#utility.yul\":20791:20800   */\n      dup4\n        /* \"#utility.yul\":20787:20805   */\n      add\n        /* \"#utility.yul\":20778:20784   */\n      dup5\n        /* \"#utility.yul\":20734:20806   */\n      tag_378\n      jump\t// in\n    tag_595:\n        /* \"#utility.yul\":20481:20813   */\n      swap4\n      swap3\n      pop\n      pop\n      pop\n      jump\t// out\n        /* \"#utility.yul\":20819:20999   */\n    tag_409:\n        /* \"#utility.yul\":20867:20944   */\n      0x4e487b7100000000000000000000000000000000000000000000000000000000\n        /* \"#utility.yul\":20864:20865   */\n      0x00\n        /* \"#utility.yul\":20857:20945   */\n      mstore\n        /* \"#utility.yul\":20964:20968   */\n      0x11\n        /* \"#utility.yul\":20961:20962   */\n      0x04\n        /* \"#utility.yul\":20954:20969   */\n      mstore\n        /* \"#utility.yul\":20988:20992   */\n      0x24\n        /* \"#utility.yul\":20985:20986   */\n      0x00\n        /* \"#utility.yul\":20978:20993   */\n      revert\n        /* \"#utility.yul\":21005:21196   */\n    tag_351:\n        /* \"#utility.yul\":21045:21048   */\n      0x00\n        /* \"#utility.yul\":21064:21084   */\n      tag_598\n        /* \"#utility.yul\":21082:21083   */\n      dup3\n        /* \"#utility.yul\":21064:21084   */\n      tag_375\n      jump\t// in\n    tag_598:\n        /* \"#utility.yul\":21059:21084   */\n      swap2\n      pop\n        /* \"#utility.yul\":21098:21118   */\n      tag_599\n        /* \"#utility.yul\":21116:21117   */\n      dup4\n        /* \"#utility.yul\":21098:21118   */\n      tag_375\n      jump\t// in\n    tag_599:\n        /* \"#utility.yul\":21093:21118   */\n      swap3\n      pop\n        /* \"#utility.yul\":21141:21142   */\n      dup3\n        /* \"#utility.yul\":21138:21139   */\n      dup3\n        /* \"#utility.yul\":21134:21143   */\n      add\n        /* \"#utility.yul\":21127:21143   */\n      swap1\n      pop\n        /* \"#utility.yul\":21162:21165   */\n      dup1\n        /* \"#utility.yul\":21159:21160   */\n      dup3\n        /* \"#utility.yul\":21156:21166   */\n      gt\n        /* \"#utility.yul\":21153:21189   */\n      iszero\n      tag_600\n      jumpi\n        /* \"#utility.yul\":21169:21187   */\n      tag_601\n      tag_409\n      jump\t// in\n    tag_601:\n        /* \"#utility.yul\":21153:21189   */\n    tag_600:\n        /* \"#utility.yul\":21005:21196   */\n      swap3\n      swap2\n      pop\n      pop\n      jump\t// out\n\n    auxdata: 0xa26469706673582212200d810c97f1b7ffd0da9d2ab8a995865f5abe91f4b69610611da3969683af136064736f6c63430008180033\n}\n",
				"bytecode": {
					"linkReferences": {},
					"object": "60a060405234801562000010575f80fd5b50604051620032773803806200327783398181016040528101906200003691906200063b565b8285855f805f6101000a81548160ff02191690831515021790555081600490816200006291906200092b565b5080600590816200007491906200092b565b5050505f8103620000be575f6040517f392e1e27000000000000000000000000000000000000000000000000000000008152600401620000b5919062000a50565b60405180910390fd5b806080818152505050620000db5f801b836200015c60201b60201c565b506200010e7f65d7a28e3265b37a6474929f336521b332c1681b933f6cb9f3376673440d862a826200015c60201b60201c565b50620001417f65d7a28e3265b37a6474929f336521b332c1681b933f6cb9f3376673440d862a806200025860201b60201c565b62000151620002b960201b60201c565b505050505062000b15565b5f6200016f83836200032c60201b60201c565b6200024e57600160065f8581526020019081526020015f205f015f8473ffffffffffffffffffffffffffffffffffffffff1673ffffffffffffffffffffffffffffffffffffffff1681526020019081526020015f205f6101000a81548160ff021916908315150217905550620001ea6200039060201b60201c565b73ffffffffffffffffffffffffffffffffffffffff168273ffffffffffffffffffffffffffffffffffffffff16847f2f8788117e7eff1d82e926ec794901d17c78024a50270940304540a733656f0d60405160405180910390a46001905062000252565b5f90505b92915050565b5f6200026a836200039760201b60201c565b90508160065f8581526020019081526020015f20600101819055508181847fbd79b86ffe0ab8e8776151514217cd7cacd52c909f66475c3af44e129f0b00ff60405160405180910390a4505050565b620002c9620003b460201b60201c565b60015f806101000a81548160ff0219169083151502179055507f62e78cea01bee320cd4e420270b5ea74000d11b0c9f74754ebdbfc544b05a258620003136200039060201b60201c565b60405162000322919062000a7c565b60405180910390a1565b5f60065f8481526020019081526020015f205f015f8373ffffffffffffffffffffffffffffffffffffffff1673ffffffffffffffffffffffffffffffffffffffff1681526020019081526020015f205f9054906101000a900460ff16905092915050565b5f33905090565b5f60065f8381526020019081526020015f20600101549050919050565b620003c46200040960201b60201c565b1562000407576040517f08c379a0000000000000000000000000000000000000000000000000000000008152600401620003fe9062000af5565b60405180910390fd5b565b5f805f9054906101000a900460ff16905090565b5f604051905090565b5f80fd5b5f80fd5b5f80fd5b5f80fd5b5f601f19601f8301169050919050565b7f4e487b71000000000000000000000000000000000000000000000000000000005f52604160045260245ffd5b6200047e8262000436565b810181811067ffffffffffffffff82111715620004a0576200049f62000446565b5b80604052505050565b5f620004b46200041d565b9050620004c2828262000473565b919050565b5f67ffffffffffffffff821115620004e457620004e362000446565b5b620004ef8262000436565b9050602081019050919050565b5f5b838110156200051b578082015181840152602081019050620004fe565b5f8484015250505050565b5f6200053c6200053684620004c7565b620004a9565b9050828152602081018484840111156200055b576200055a62000432565b5b62000568848285620004fc565b509392505050565b5f82601f8301126200058757620005866200042e565b5b81516200059984826020860162000526565b91505092915050565b5f819050919050565b620005b681620005a2565b8114620005c1575f80fd5b50565b5f81519050620005d481620005ab565b92915050565b5f73ffffffffffffffffffffffffffffffffffffffff82169050919050565b5f6200060582620005da565b9050919050565b6200061781620005f9565b811462000622575f80fd5b50565b5f8151905062000635816200060c565b92915050565b5f805f805f60a0868803121562000657576200065662000426565b5b5f86015167ffffffffffffffff8111156200067757620006766200042a565b5b620006858882890162000570565b955050602086015167ffffffffffffffff811115620006a957620006a86200042a565b5b620006b78882890162000570565b9450506040620006ca88828901620005c4565b9350506060620006dd8882890162000625565b9250506080620006f08882890162000625565b9150509295509295909350565b5f81519050919050565b7f4e487b71000000000000000000000000000000000000000000000000000000005f52602260045260245ffd5b5f60028204905060018216806200074c57607f821691505b60208210810362000762576200076162000707565b5b50919050565b5f819050815f5260205f209050919050565b5f6020601f8301049050919050565b5f82821b905092915050565b5f60088302620007c67fffffffffffffffffffffffffffffffffffffffffffffffffffffffffffffffff8262000789565b620007d2868362000789565b95508019841693508086168417925050509392505050565b5f819050919050565b5f620008136200080d6200080784620005a2565b620007ea565b620005a2565b9050919050565b5f819050919050565b6200082e83620007f3565b620008466200083d826200081a565b84845462000795565b825550505050565b5f90565b6200085c6200084e565b6200086981848462000823565b505050565b5b818110156200089057620008845f8262000852565b6001810190506200086f565b5050565b601f821115620008df57620008a98162000768565b620008b4846200077a565b81016020851015620008c4578190505b620008dc620008d3856200077a565b8301826200086e565b50505b505050565b5f82821c905092915050565b5f620009015f1984600802620008e4565b1980831691505092915050565b5f6200091b8383620008f0565b9150826002028217905092915050565b6200093682620006fd565b67ffffffffffffffff81111562000952576200095162000446565b5b6200095e825462000734565b6200096b82828562000894565b5f60209050601f831160018114620009a1575f84156200098c578287015190505b6200099885826200090e565b86555062000a07565b601f198416620009b18662000768565b5f5b82811015620009da57848901518255600182019150602085019450602081019050620009b3565b86831015620009fa5784890151620009f6601f891682620008f0565b8355505b6001600288020188555050505b505050505050565b5f819050919050565b5f62000a3862000a3262000a2c8462000a0f565b620007ea565b620005a2565b9050919050565b62000a4a8162000a18565b82525050565b5f60208201905062000a655f83018462000a3f565b92915050565b62000a7681620005f9565b82525050565b5f60208201905062000a915f83018462000a6b565b92915050565b5f82825260208201905092915050565b7f5061757361626c653a20706175736564000000000000000000000000000000005f82015250565b5f62000add60108362000a97565b915062000aea8262000aa7565b602082019050919050565b5f6020820190508181035f83015262000b0e8162000acf565b9050919050565b60805161274962000b2e5f395f61097801526127495ff3fe608060405234801561000f575f80fd5b50600436106101c2575f3560e01c80635c975abb116100f7578063a9059cbb11610095578063dd62ed3e1161006f578063dd62ed3e146104f2578063e43252d714610522578063e63ab1e91461053e578063fca3b5aa1461055c576101c2565b8063a9059cbb14610488578063d5391393146104b8578063d547741f146104d6576101c2565b80638ab1d681116100d15780638ab1d6811461040057806391d148541461041c57806395d89b411461044c578063a217fddf1461046a576101c2565b80635c975abb146103a857806370a08231146103c65780638456cb59146103f6576101c2565b80632f2ff15d1161016457806336568abe1161013e57806336568abe146103365780633af32abf146103525780633f4ba83a1461038257806340c10f191461038c576101c2565b80632f2ff15d146102de578063313ce567146102fa578063355274ea14610318576101c2565b80631171bda9116101a05780631171bda91461024457806318160ddd1461026057806323b872dd1461027e578063248a9ca3146102ae576101c2565b806301ffc9a7146101c657806306fdde03146101f6578063095ea7b314610214575b5f80fd5b6101e060048036038101906101db9190611d01565b610578565b6040516101ed9190611d46565b60405180910390f35b6101fe6105f1565b60405161020b9190611de9565b60405180910390f35b61022e60048036038101906102299190611e96565b610681565b60405161023b9190611d46565b60405180910390f35b61025e60048036038101906102599190611ed4565b6106a3565b005b6102686108f7565b6040516102759190611f33565b60405180910390f35b61029860048036038101906102939190611ed4565b610900565b6040516102a59190611d46565b60405180910390f35b6102c860048036038101906102c39190611f7f565b61092e565b6040516102d59190611fb9565b60405180910390f35b6102f860048036038101906102f39190611fd2565b61094b565b005b61030261096d565b60405161030f919061202b565b60405180910390f35b610320610975565b60405161032d9190611f33565b60405180910390f35b610350600480360381019061034b9190611fd2565b61099c565b005b61036c60048036038101906103679190612044565b610a17565b6040516103799190611d46565b60405180910390f35b61038a610a69565b005b6103a660048036038101906103a19190611e96565b610a9e565b005b6103b0610ad7565b6040516103bd9190611d46565b60405180910390f35b6103e060048036038101906103db9190612044565b610aeb565b6040516103ed9190611f33565b60405180910390f35b6103fe610b31565b005b61041a60048036038101906104159190612044565b610b66565b005b61043660048036038101906104319190611fd2565b610ca4565b6040516104439190611d46565b60405180910390f35b610454610d08565b6040516104619190611de9565b60405180910390f35b610472610d98565b60405161047f9190611fb9565b60405180910390f35b6104a2600480360381019061049d9190611e96565b610d9e565b6040516104af9190611d46565b60405180910390f35b6104c0610dc0565b6040516104cd9190611fb9565b60405180910390f35b6104f060048036038101906104eb9190611fd2565b610de4565b005b61050c6004803603810190610507919061206f565b610e06565b6040516105199190611f33565b60405180910390f35b61053c60048036038101906105379190612044565b610e88565b005b610546610fc8565b6040516105539190611fb9565b60405180910390f35b61057660048036038101906105719190612044565b610fec565b005b5f7f7965db0b000000000000000000000000000000000000000000000000000000007bffffffffffffffffffffffffffffffffffffffffffffffffffffffff1916827bffffffffffffffffffffffffffffffffffffffffffffffffffffffff191614806105ea57506105e982611095565b5b9050919050565b606060048054610600906120da565b80601f016020809104026020016040519081016040528092919081815260200182805461062c906120da565b80156106775780601f1061064e57610100808354040283529160200191610677565b820191905f5260205f20905b81548152906001019060200180831161065a57829003601f168201915b5050505050905090565b5f8061068b6110fe565b9050610698818585611105565b600191505092915050565b5f801b6106af81611117565b5f73ffffffffffffffffffffffffffffffffffffffff168373ffffffffffffffffffffffffffffffffffffffff160361071d576040517f08c379a000000000000000000000000000000000000000000000000000000000815260040161071490612154565b60405180910390fd5b5f73ffffffffffffffffffffffffffffffffffffffff168473ffffffffffffffffffffffffffffffffffffffff160361078b576040517f08c379a0000000000000000000000000000000000000000000000000000000008152600401610782906121bc565b60405180910390fd5b5f82116107cd576040517f08c379a00000000000000000000000000000000000000000000000000000000081526004016107c490612224565b60405180910390fd5b5f8473ffffffffffffffffffffffffffffffffffffffff1663a9059cbb85856040518363ffffffff1660e01b8152600401610809929190612251565b6020604051808303815f875af1158015610825573d5f803e3d5ffd5b505050506040513d601f19601f8201168201806040525081019061084991906122a2565b90508061088b576040517f08c379a000000000000000000000000000000000000000000000000000000000815260040161088290612317565b60405180910390fd5b8373ffffffffffffffffffffffffffffffffffffffff168573ffffffffffffffffffffffffffffffffffffffff167faca8fb252cde442184e5f10e0f2e6e4029e8cd7717cae63559079610702436aa856040516108e89190611f33565b60405180910390a35050505050565b5f600354905090565b5f8061090a6110fe565b905061091785828561112b565b6109228585856111be565b60019150509392505050565b5f60065f8381526020019081526020015f20600101549050919050565b6109548261092e565b61095d81611117565b61096783836112ae565b50505050565b5f6012905090565b5f7f0000000000000000000000000000000000000000000000000000000000000000905090565b6109a46110fe565b73ffffffffffffffffffffffffffffffffffffffff168173ffffffffffffffffffffffffffffffffffffffff1614610a08576040517f6697b23200000000000000000000000000000000000000000000000000000000815260040160405180910390fd5b610a128282611398565b505050565b5f60075f8373ffffffffffffffffffffffffffffffffffffffff1673ffffffffffffffffffffffffffffffffffffffff1681526020019081526020015f205f9054906101000a900460ff169050919050565b7f65d7a28e3265b37a6474929f336521b332c1681b933f6cb9f3376673440d862a610a9381611117565b610a9b611482565b50565b7f9f2df0fed2c77648de5860a4cc508cd0818c85b8b8a1ab4ceeef8d981c8956a6610ac881611117565b610ad283836114e2565b505050565b5f805f9054906101000a900460ff16905090565b5f60015f8373ffffffffffffffffffffffffffffffffffffffff1673ffffffffffffffffffffffffffffffffffffffff1681526020019081526020015f20549050919050565b7f65d7a28e3265b37a6474929f336521b332c1681b933f6cb9f3376673440d862a610b5b81611117565b610b63611561565b50565b7f65d7a28e3265b37a6474929f336521b332c1681b933f6cb9f3376673440d862a610b9081611117565b5f73ffffffffffffffffffffffffffffffffffffffff168273ffffffffffffffffffffffffffffffffffffffff1603610bfe576040517f08c379a0000000000000000000000000000000000000000000000000000000008152600401610bf5906123a5565b60405180910390fd5b5f60075f8473ffffffffffffffffffffffffffffffffffffffff1673ffffffffffffffffffffffffffffffffffffffff1681526020019081526020015f205f6101000a81548160ff0219169083151502179055508173ffffffffffffffffffffffffffffffffffffffff167ff93f9a76c1bf3444d22400a00cb9fe990e6abe9dbb333fda48859cfee864543d5f604051610c989190611d46565b60405180910390a25050565b5f60065f8481526020019081526020015f205f015f8373ffffffffffffffffffffffffffffffffffffffff1673ffffffffffffffffffffffffffffffffffffffff1681526020019081526020015f205f9054906101000a900460ff16905092915050565b606060058054610d17906120da565b80601f0160208091040260200160405190810160405280929190818152602001828054610d43906120da565b8015610d8e5780601f10610d6557610100808354040283529160200191610d8e565b820191905f5260205f20905b815481529060010190602001808311610d7157829003601f168201915b5050505050905090565b5f801b81565b5f80610da86110fe565b9050610db58185856111be565b600191505092915050565b7f9f2df0fed2c77648de5860a4cc508cd0818c85b8b8a1ab4ceeef8d981c8956a681565b610ded8261092e565b610df681611117565b610e008383611398565b50505050565b5f60025f8473ffffffffffffffffffffffffffffffffffffffff1673ffffffffffffffffffffffffffffffffffffffff1681526020019081526020015f205f8373ffffffffffffffffffffffffffffffffffffffff1673ffffffffffffffffffffffffffffffffffffffff1681526020019081526020015f2054905092915050565b7f65d7a28e3265b37a6474929f336521b332c1681b933f6cb9f3376673440d862a610eb281611117565b5f73ffffffffffffffffffffffffffffffffffffffff168273ffffffffffffffffffffffffffffffffffffffff1603610f20576040517f08c379a0000000000000000000000000000000000000000000000000000000008152600401610f1790612433565b60405180910390fd5b600160075f8473ffffffffffffffffffffffffffffffffffffffff1673ffffffffffffffffffffffffffffffffffffffff1681526020019081526020015f205f6101000a81548160ff0219169083151502179055508173ffffffffffffffffffffffffffffffffffffffff167ff93f9a76c1bf3444d22400a00cb9fe990e6abe9dbb333fda48859cfee864543d6001604051610fbc9190611d46565b60405180910390a25050565b7f65d7a28e3265b37a6474929f336521b332c1681b933f6cb9f3376673440d862a81565b5f801b610ff881611117565b5f73ffffffffffffffffffffffffffffffffffffffff168273ffffffffffffffffffffffffffffffffffffffff1603611066576040517f08c379a000000000000000000000000000000000000000000000000000000000815260040161105d9061249b565b60405180910390fd5b6110907f9f2df0fed2c77648de5860a4cc508cd0818c85b8b8a1ab4ceeef8d981c8956a6836112ae565b505050565b5f7f01ffc9a7000000000000000000000000000000000000000000000000000000007bffffffffffffffffffffffffffffffffffffffffffffffffffffffff1916827bffffffffffffffffffffffffffffffffffffffffffffffffffffffff1916149050919050565b5f33905090565b61111283838360016115c2565b505050565b611128816111236110fe565b611791565b50565b5f6111368484610e06565b90507fffffffffffffffffffffffffffffffffffffffffffffffffffffffffffffffff8110156111b857818110156111a9578281836040517ffb8f41b20000000000000000000000000000000000000000000000000000000081526004016111a0939291906124b9565b60405180910390fd5b6111b784848484035f6115c2565b5b50505050565b5f73ffffffffffffffffffffffffffffffffffffffff168373ffffffffffffffffffffffffffffffffffffffff160361122e575f6040517f96c6fd1e00000000000000000000000000000000000000000000000000000000815260040161122591906124ee565b60405180910390fd5b5f73ffffffffffffffffffffffffffffffffffffffff168273ffffffffffffffffffffffffffffffffffffffff160361129e575f6040517fec442f0500000000000000000000000000000000000000000000000000000000815260040161129591906124ee565b60405180910390fd5b6112a98383836117e2565b505050565b5f6112b98383610ca4565b61138e57600160065f8581526020019081526020015f205f015f8473ffffffffffffffffffffffffffffffffffffffff1673ffffffffffffffffffffffffffffffffffffffff1681526020019081526020015f205f6101000a81548160ff02191690831515021790555061132b6110fe565b73ffffffffffffffffffffffffffffffffffffffff168273ffffffffffffffffffffffffffffffffffffffff16847f2f8788117e7eff1d82e926ec794901d17c78024a50270940304540a733656f0d60405160405180910390a460019050611392565b5f90505b92915050565b5f6113a38383610ca4565b15611478575f60065f8581526020019081526020015f205f015f8473ffffffffffffffffffffffffffffffffffffffff1673ffffffffffffffffffffffffffffffffffffffff1681526020019081526020015f205f6101000a81548160ff0219169083151502179055506114156110fe565b73ffffffffffffffffffffffffffffffffffffffff168273ffffffffffffffffffffffffffffffffffffffff16847ff6391f5c32d9c69d2a47ea670b442974b53935d1edc7fd64eb21e047a839171b60405160405180910390a46001905061147c565b5f90505b92915050565b61148a611956565b5f805f6101000a81548160ff0219169083151502179055507f5db9ee0a495bf2e6ff9c91a7834c1ba4fdd244a5e8aa4e537bd38aeae4b073aa6114cb6110fe565b6040516114d891906124ee565b60405180910390a1565b5f73ffffffffffffffffffffffffffffffffffffffff168273ffffffffffffffffffffffffffffffffffffffff1603611552575f6040517fec442f0500000000000000000000000000000000000000000000000000000000815260040161154991906124ee565b60405180910390fd5b61155d5f83836117e2565b5050565b61156961199f565b60015f806101000a81548160ff0219169083151502179055507f62e78cea01bee320cd4e420270b5ea74000d11b0c9f74754ebdbfc544b05a2586115ab6110fe565b6040516115b891906124ee565b60405180910390a1565b5f73ffffffffffffffffffffffffffffffffffffffff168473ffffffffffffffffffffffffffffffffffffffff1603611632575f6040517fe602df0500000000000000000000000000000000000000000000000000000000815260040161162991906124ee565b60405180910390fd5b5f73ffffffffffffffffffffffffffffffffffffffff168373ffffffffffffffffffffffffffffffffffffffff16036116a2575f6040517f94280d6200000000000000000000000000000000000000000000000000000000815260040161169991906124ee565b60405180910390fd5b8160025f8673ffffffffffffffffffffffffffffffffffffffff1673ffffffffffffffffffffffffffffffffffffffff1681526020019081526020015f205f8573ffffffffffffffffffffffffffffffffffffffff1673ffffffffffffffffffffffffffffffffffffffff1681526020019081526020015f2081905550801561178b578273ffffffffffffffffffffffffffffffffffffffff168473ffffffffffffffffffffffffffffffffffffffff167f8c5be1e5ebec7d5bd14f71427d1e84f3dd0314c0f7b2291e5b200ac8c7c3b925846040516117829190611f33565b60405180910390a35b50505050565b61179b8282610ca4565b6117de5780826040517fe2517d3f0000000000000000000000000000000000000000000000000000000081526004016117d5929190612507565b60405180910390fd5b5050565b6117ea610ad7565b15611946575f8073ffffffffffffffffffffffffffffffffffffffff168473ffffffffffffffffffffffffffffffffffffffff161490505f8073ffffffffffffffffffffffffffffffffffffffff168473ffffffffffffffffffffffffffffffffffffffff161490505f60075f8773ffffffffffffffffffffffffffffffffffffffff1673ffffffffffffffffffffffffffffffffffffffff1681526020019081526020015f205f9054906101000a900460ff1680156118f0575060075f8673ffffffffffffffffffffffffffffffffffffffff1673ffffffffffffffffffffffffffffffffffffffff1681526020019081526020015f205f9054906101000a900460ff165b905082806118fb5750815b806119035750805b611942576040517f08c379a00000000000000000000000000000000000000000000000000000000081526004016119399061259e565b60405180910390fd5b5050505b6119518383836119e9565b505050565b61195e610ad7565b61199d576040517f08c379a000000000000000000000000000000000000000000000000000000000815260040161199490612606565b60405180910390fd5b565b6119a7610ad7565b156119e7576040517f08c379a00000000000000000000000000000000000000000000000000000000081526004016119de9061266e565b60405180910390fd5b565b6119f4838383611a8c565b5f73ffffffffffffffffffffffffffffffffffffffff168373ffffffffffffffffffffffffffffffffffffffff1603611a87575f611a30610975565b90505f611a3b6108f7565b905081811115611a845780826040517f9e79f854000000000000000000000000000000000000000000000000000000008152600401611a7b92919061268c565b60405180910390fd5b50505b505050565b5f73ffffffffffffffffffffffffffffffffffffffff168373ffffffffffffffffffffffffffffffffffffffff1603611adc578060035f828254611ad091906126e0565b92505081905550611bac565b5f60015f8573ffffffffffffffffffffffffffffffffffffffff1673ffffffffffffffffffffffffffffffffffffffff1681526020019081526020015f2054905081811015611b66578381836040517fe450d38c000000000000000000000000000000000000000000000000000000008152600401611b5d939291906124b9565b60405180910390fd5b81810360015f8673ffffffffffffffffffffffffffffffffffffffff1673ffffffffffffffffffffffffffffffffffffffff1681526020019081526020015f2081905550505b5f73ffffffffffffffffffffffffffffffffffffffff168273ffffffffffffffffffffffffffffffffffffffff1603611bf3578060035f8282540392505081905550611c3e565b8060015f8473ffffffffffffffffffffffffffffffffffffffff1673ffffffffffffffffffffffffffffffffffffffff1681526020019081526020015f205f82825401925050819055505b8173ffffffffffffffffffffffffffffffffffffffff168373ffffffffffffffffffffffffffffffffffffffff167fddf252ad1be2c89b69c2b068fc378daa952ba7f163c4a11628f55a4df523b3ef83604051611c9b9190611f33565b60405180910390a3505050565b5f80fd5b5f7fffffffff0000000000000000000000000000000000000000000000000000000082169050919050565b611ce081611cac565b8114611cea575f80fd5b50565b5f81359050611cfb81611cd7565b92915050565b5f60208284031215611d1657611d15611ca8565b5b5f611d2384828501611ced565b91505092915050565b5f8115159050919050565b611d4081611d2c565b82525050565b5f602082019050611d595f830184611d37565b92915050565b5f81519050919050565b5f82825260208201905092915050565b5f5b83811015611d96578082015181840152602081019050611d7b565b5f8484015250505050565b5f601f19601f8301169050919050565b5f611dbb82611d5f565b611dc58185611d69565b9350611dd5818560208601611d79565b611dde81611da1565b840191505092915050565b5f6020820190508181035f830152611e018184611db1565b905092915050565b5f73ffffffffffffffffffffffffffffffffffffffff82169050919050565b5f611e3282611e09565b9050919050565b611e4281611e28565b8114611e4c575f80fd5b50565b5f81359050611e5d81611e39565b92915050565b5f819050919050565b611e7581611e63565b8114611e7f575f80fd5b50565b5f81359050611e9081611e6c565b92915050565b5f8060408385031215611eac57611eab611ca8565b5b5f611eb985828601611e4f565b9250506020611eca85828601611e82565b9150509250929050565b5f805f60608486031215611eeb57611eea611ca8565b5b5f611ef886828701611e4f565b9350506020611f0986828701611e4f565b9250506040611f1a86828701611e82565b9150509250925092565b611f2d81611e63565b82525050565b5f602082019050611f465f830184611f24565b92915050565b5f819050919050565b611f5e81611f4c565b8114611f68575f80fd5b50565b5f81359050611f7981611f55565b92915050565b5f60208284031215611f9457611f93611ca8565b5b5f611fa184828501611f6b565b91505092915050565b611fb381611f4c565b82525050565b5f602082019050611fcc5f830184611faa565b92915050565b5f8060408385031215611fe857611fe7611ca8565b5b5f611ff585828601611f6b565b925050602061200685828601611e4f565b9150509250929050565b5f60ff82169050919050565b61202581612010565b82525050565b5f60208201905061203e5f83018461201c565b92915050565b5f6020828403121561205957612058611ca8565b5b5f61206684828501611e4f565b91505092915050565b5f806040838503121561208557612084611ca8565b5b5f61209285828601611e4f565b92505060206120a385828601611e4f565b9150509250929050565b7f4e487b71000000000000000000000000000000000000000000000000000000005f52602260045260245ffd5b5f60028204905060018216806120f157607f821691505b602082108103612104576121036120ad565b5b50919050565b7f63616e6e6f742073656e6420746f207a65726f206164647265737300000000005f82015250565b5f61213e601b83611d69565b91506121498261210a565b602082019050919050565b5f6020820190508181035f83015261216b81612132565b9050919050565b7f746f6b656e20616464726573732063616e6e6f74206265207a65726f000000005f82015250565b5f6121a6601c83611d69565b91506121b182612172565b602082019050919050565b5f6020820190508181035f8301526121d38161219a565b9050919050565b7f616d6f756e74206d7573742062652067726561746572207468616e207a65726f5f82015250565b5f61220e602083611d69565b9150612219826121da565b602082019050919050565b5f6020820190508181035f83015261223b81612202565b9050919050565b61224b81611e28565b82525050565b5f6040820190506122645f830185612242565b6122716020830184611f24565b9392505050565b61228181611d2c565b811461228b575f80fd5b50565b5f8151905061229c81612278565b92915050565b5f602082840312156122b7576122b6611ca8565b5b5f6122c48482850161228e565b91505092915050565b7f4552433230207472616e73666572206661696c656400000000000000000000005f82015250565b5f612301601583611d69565b915061230c826122cd565b602082019050919050565b5f6020820190508181035f83015261232e816122f5565b9050919050565b7f63616e6e6f7420756e2d77686974656c69737420746865207a65726f206164645f8201527f7265737300000000000000000000000000000000000000000000000000000000602082015250565b5f61238f602483611d69565b915061239a82612335565b604082019050919050565b5f6020820190508181035f8301526123bc81612383565b9050919050565b7f63616e6e6f742077686974656c69737420746865207a65726f206164647265735f8201527f7300000000000000000000000000000000000000000000000000000000000000602082015250565b5f61241d602183611d69565b9150612428826123c3565b604082019050919050565b5f6020820190508181035f83015261244a81612411565b9050919050565b7f4d696e7465722063616e6e6f74206265207a65726f20616464726573730000005f82015250565b5f612485601d83611d69565b915061249082612451565b602082019050919050565b5f6020820190508181035f8301526124b281612479565b9050919050565b5f6060820190506124cc5f830186612242565b6124d96020830185611f24565b6124e66040830184611f24565b949350505050565b5f6020820190506125015f830184612242565b92915050565b5f60408201905061251a5f830185612242565b6125276020830184611faa565b9392505050565b7f546f6b656e3a207472616e73666572207768696c652070617573656420286e6f5f8201527f742077686974656c697374656429000000000000000000000000000000000000602082015250565b5f612588602e83611d69565b91506125938261252e565b604082019050919050565b5f6020820190508181035f8301526125b58161257c565b9050919050565b7f5061757361626c653a206e6f74207061757365640000000000000000000000005f82015250565b5f6125f0601483611d69565b91506125fb826125bc565b602082019050919050565b5f6020820190508181035f83015261261d816125e4565b9050919050565b7f5061757361626c653a20706175736564000000000000000000000000000000005f82015250565b5f612658601083611d69565b915061266382612624565b602082019050919050565b5f6020820190508181035f8301526126858161264c565b9050919050565b5f60408201905061269f5f830185611f24565b6126ac6020830184611f24565b9392505050565b7f4e487b71000000000000000000000000000000000000000000000000000000005f52601160045260245ffd5b5f6126ea82611e63565b91506126f583611e63565b925082820190508082111561270d5761270c6126b3565b5b9291505056fea26469706673582212200d810c97f1b7ffd0da9d2ab8a995865f5abe91f4b69610611da3969683af136064736f6c63430008180033",
					"opcodes": "PUSH1 0xA0 PUSH1 0x40 MSTORE CALLVALUE DUP1 ISZERO PUSH3 0x10 JUMPI PUSH0 DUP1 REVERT JUMPDEST POP PUSH1 0x40 MLOAD PUSH3 0x3277 CODESIZE SUB DUP1 PUSH3 0x3277 DUP4 CODECOPY DUP2 DUP2 ADD PUSH1 0x40 MSTORE DUP2 ADD SWAP1 PUSH3 0x36 SWAP2 SWAP1 PUSH3 0x63B JUMP JUMPDEST DUP3 DUP6 DUP6 PUSH0 DUP1 PUSH0 PUSH2 0x100 EXP DUP2 SLOAD DUP2 PUSH1 0xFF MUL NOT AND SWAP1 DUP4 ISZERO ISZERO MUL OR SWAP1 SSTORE POP DUP2 PUSH1 0x4 SWAP1 DUP2 PUSH3 0x62 SWAP2 SWAP1 PUSH3 0x92B JUMP JUMPDEST POP DUP1 PUSH1 0x5 SWAP1 DUP2 PUSH3 0x74 SWAP2 SWAP1 PUSH3 0x92B JUMP JUMPDEST POP POP POP PUSH0 DUP2 SUB PUSH3 0xBE JUMPI PUSH0 PUSH1 0x40 MLOAD PUSH32 0x392E1E2700000000000000000000000000000000000000000000000000000000 DUP2 MSTORE PUSH1 0x4 ADD PUSH3 0xB5 SWAP2 SWAP1 PUSH3 0xA50 JUMP JUMPDEST PUSH1 0x40 MLOAD DUP1 SWAP2 SUB SWAP1 REVERT JUMPDEST DUP1 PUSH1 0x80 DUP2 DUP2 MSTORE POP POP POP PUSH3 0xDB PUSH0 DUP1 SHL DUP4 PUSH3 0x15C PUSH1 0x20 SHL PUSH1 0x20 SHR JUMP JUMPDEST POP PUSH3 0x10E PUSH32 0x65D7A28E3265B37A6474929F336521B332C1681B933F6CB9F3376673440D862A DUP3 PUSH3 0x15C PUSH1 0x20 SHL PUSH1 0x20 SHR JUMP JUMPDEST POP PUSH3 0x141 PUSH32 0x65D7A28E3265B37A6474929F336521B332C1681B933F6CB9F3376673440D862A DUP1 PUSH3 0x258 PUSH1 0x20 SHL PUSH1 0x20 SHR JUMP JUMPDEST PUSH3 0x151 PUSH3 0x2B9 PUSH1 0x20 SHL PUSH1 0x20 SHR JUMP JUMPDEST POP POP POP POP POP PUSH3 0xB15 JUMP JUMPDEST PUSH0 PUSH3 0x16F DUP4 DUP4 PUSH3 0x32C PUSH1 0x20 SHL PUSH1 0x20 SHR JUMP JUMPDEST PUSH3 0x24E JUMPI PUSH1 0x1 PUSH1 0x6 PUSH0 DUP6 DUP2 MSTORE PUSH1 0x20 ADD SWAP1 DUP2 MSTORE PUSH1 0x20 ADD PUSH0 KECCAK256 PUSH0 ADD PUSH0 DUP5 PUSH20 0xFFFFFFFFFFFFFFFFFFFFFFFFFFFFFFFFFFFFFFFF AND PUSH20 0xFFFFFFFFFFFFFFFFFFFFFFFFFFFFFFFFFFFFFFFF AND DUP2 MSTORE PUSH1 0x20 ADD SWAP1 DUP2 MSTORE PUSH1 0x20 ADD PUSH0 KECCAK256 PUSH0 PUSH2 0x100 EXP DUP2 SLOAD DUP2 PUSH1 0xFF MUL NOT AND SWAP1 DUP4 ISZERO ISZERO MUL OR SWAP1 SSTORE POP PUSH3 0x1EA PUSH3 0x390 PUSH1 0x20 SHL PUSH1 0x20 SHR JUMP JUMPDEST PUSH20 0xFFFFFFFFFFFFFFFFFFFFFFFFFFFFFFFFFFFFFFFF AND DUP3 PUSH20 0xFFFFFFFFFFFFFFFFFFFFFFFFFFFFFFFFFFFFFFFF AND DUP5 PUSH32 0x2F8788117E7EFF1D82E926EC794901D17C78024A50270940304540A733656F0D PUSH1 0x40 MLOAD PUSH1 0x40 MLOAD DUP1 SWAP2 SUB SWAP1 LOG4 PUSH1 0x1 SWAP1 POP PUSH3 0x252 JUMP JUMPDEST PUSH0 SWAP1 POP JUMPDEST SWAP3 SWAP2 POP POP JUMP JUMPDEST PUSH0 PUSH3 0x26A DUP4 PUSH3 0x397 PUSH1 0x20 SHL PUSH1 0x20 SHR JUMP JUMPDEST SWAP1 POP DUP2 PUSH1 0x6 PUSH0 DUP6 DUP2 MSTORE PUSH1 0x20 ADD SWAP1 DUP2 MSTORE PUSH1 0x20 ADD PUSH0 KECCAK256 PUSH1 0x1 ADD DUP2 SWAP1 SSTORE POP DUP2 DUP2 DUP5 PUSH32 0xBD79B86FFE0AB8E8776151514217CD7CACD52C909F66475C3AF44E129F0B00FF PUSH1 0x40 MLOAD PUSH1 0x40 MLOAD DUP1 SWAP2 SUB SWAP1 LOG4 POP POP POP JUMP JUMPDEST PUSH3 0x2C9 PUSH3 0x3B4 PUSH1 0x20 SHL PUSH1 0x20 SHR JUMP JUMPDEST PUSH1 0x1 PUSH0 DUP1 PUSH2 0x100 EXP DUP2 SLOAD DUP2 PUSH1 0xFF MUL NOT AND SWAP1 DUP4 ISZERO ISZERO MUL OR SWAP1 SSTORE POP PUSH32 0x62E78CEA01BEE320CD4E420270B5EA74000D11B0C9F74754EBDBFC544B05A258 PUSH3 0x313 PUSH3 0x390 PUSH1 0x20 SHL PUSH1 0x20 SHR JUMP JUMPDEST PUSH1 0x40 MLOAD PUSH3 0x322 SWAP2 SWAP1 PUSH3 0xA7C JUMP JUMPDEST PUSH1 0x40 MLOAD DUP1 SWAP2 SUB SWAP1 LOG1 JUMP JUMPDEST PUSH0 PUSH1 0x6 PUSH0 DUP5 DUP2 MSTORE PUSH1 0x20 ADD SWAP1 DUP2 MSTORE PUSH1 0x20 ADD PUSH0 KECCAK256 PUSH0 ADD PUSH0 DUP4 PUSH20 0xFFFFFFFFFFFFFFFFFFFFFFFFFFFFFFFFFFFFFFFF AND PUSH20 0xFFFFFFFFFFFFFFFFFFFFFFFFFFFFFFFFFFFFFFFF AND DUP2 MSTORE PUSH1 0x20 ADD SWAP1 DUP2 MSTORE PUSH1 0x20 ADD PUSH0 KECCAK256 PUSH0 SWAP1 SLOAD SWAP1 PUSH2 0x100 EXP SWAP1 DIV PUSH1 0xFF AND SWAP1 POP SWAP3 SWAP2 POP POP JUMP JUMPDEST PUSH0 CALLER SWAP1 POP SWAP1 JUMP JUMPDEST PUSH0 PUSH1 0x6 PUSH0 DUP4 DUP2 MSTORE PUSH1 0x20 ADD SWAP1 DUP2 MSTORE PUSH1 0x20 ADD PUSH0 KECCAK256 PUSH1 0x1 ADD SLOAD SWAP1 POP SWAP2 SWAP1 POP JUMP JUMPDEST PUSH3 0x3C4 PUSH3 0x409 PUSH1 0x20 SHL PUSH1 0x20 SHR JUMP JUMPDEST ISZERO PUSH3 0x407 JUMPI PUSH1 0x40 MLOAD PUSH32 0x8C379A000000000000000000000000000000000000000000000000000000000 DUP2 MSTORE PUSH1 0x4 ADD PUSH3 0x3FE SWAP1 PUSH3 0xAF5 JUMP JUMPDEST PUSH1 0x40 MLOAD DUP1 SWAP2 SUB SWAP1 REVERT JUMPDEST JUMP JUMPDEST PUSH0 DUP1 PUSH0 SWAP1 SLOAD SWAP1 PUSH2 0x100 EXP SWAP1 DIV PUSH1 0xFF AND SWAP1 POP SWAP1 JUMP JUMPDEST PUSH0 PUSH1 0x40 MLOAD SWAP1 POP SWAP1 JUMP JUMPDEST PUSH0 DUP1 REVERT JUMPDEST PUSH0 DUP1 REVERT JUMPDEST PUSH0 DUP1 REVERT JUMPDEST PUSH0 DUP1 REVERT JUMPDEST PUSH0 PUSH1 0x1F NOT PUSH1 0x1F DUP4 ADD AND SWAP1 POP SWAP2 SWAP1 POP JUMP JUMPDEST PUSH32 0x4E487B7100000000000000000000000000000000000000000000000000000000 PUSH0 MSTORE PUSH1 0x41 PUSH1 0x4 MSTORE PUSH1 0x24 PUSH0 REVERT JUMPDEST PUSH3 0x47E DUP3 PUSH3 0x436 JUMP JUMPDEST DUP2 ADD DUP2 DUP2 LT PUSH8 0xFFFFFFFFFFFFFFFF DUP3 GT OR ISZERO PUSH3 0x4A0 JUMPI PUSH3 0x49F PUSH3 0x446 JUMP JUMPDEST JUMPDEST DUP1 PUSH1 0x40 MSTORE POP POP POP JUMP JUMPDEST PUSH0 PUSH3 0x4B4 PUSH3 0x41D JUMP JUMPDEST SWAP1 POP PUSH3 0x4C2 DUP3 DUP3 PUSH3 0x473 JUMP JUMPDEST SWAP2 SWAP1 POP JUMP JUMPDEST PUSH0 PUSH8 0xFFFFFFFFFFFFFFFF DUP3 GT ISZERO PUSH3 0x4E4 JUMPI PUSH3 0x4E3 PUSH3 0x446 JUMP JUMPDEST JUMPDEST PUSH3 0x4EF DUP3 PUSH3 0x436 JUMP JUMPDEST SWAP1 POP PUSH1 0x20 DUP2 ADD SWAP1 POP SWAP2 SWAP1 POP JUMP JUMPDEST PUSH0 JUMPDEST DUP4 DUP2 LT ISZERO PUSH3 0x51B JUMPI DUP1 DUP3 ADD MLOAD DUP2 DUP5 ADD MSTORE PUSH1 0x20 DUP2 ADD SWAP1 POP PUSH3 0x4FE JUMP JUMPDEST PUSH0 DUP5 DUP5 ADD MSTORE POP POP POP POP JUMP JUMPDEST PUSH0 PUSH3 0x53C PUSH3 0x536 DUP5 PUSH3 0x4C7 JUMP JUMPDEST PUSH3 0x4A9 JUMP JUMPDEST SWAP1 POP DUP3 DUP2 MSTORE PUSH1 0x20 DUP2 ADD DUP5 DUP5 DUP5 ADD GT ISZERO PUSH3 0x55B JUMPI PUSH3 0x55A PUSH3 0x432 JUMP JUMPDEST JUMPDEST PUSH3 0x568 DUP5 DUP3 DUP6 PUSH3 0x4FC JUMP JUMPDEST POP SWAP4 SWAP3 POP POP POP JUMP JUMPDEST PUSH0 DUP3 PUSH1 0x1F DUP4 ADD SLT PUSH3 0x587 JUMPI PUSH3 0x586 PUSH3 0x42E JUMP JUMPDEST JUMPDEST DUP2 MLOAD PUSH3 0x599 DUP5 DUP3 PUSH1 0x20 DUP7 ADD PUSH3 0x526 JUMP JUMPDEST SWAP2 POP POP SWAP3 SWAP2 POP POP JUMP JUMPDEST PUSH0 DUP2 SWAP1 POP SWAP2 SWAP1 POP JUMP JUMPDEST PUSH3 0x5B6 DUP2 PUSH3 0x5A2 JUMP JUMPDEST DUP2 EQ PUSH3 0x5C1 JUMPI PUSH0 DUP1 REVERT JUMPDEST POP JUMP JUMPDEST PUSH0 DUP2 MLOAD SWAP1 POP PUSH3 0x5D4 DUP2 PUSH3 0x5AB JUMP JUMPDEST SWAP3 SWAP2 POP POP JUMP JUMPDEST PUSH0 PUSH20 0xFFFFFFFFFFFFFFFFFFFFFFFFFFFFFFFFFFFFFFFF DUP3 AND SWAP1 POP SWAP2 SWAP1 POP JUMP JUMPDEST PUSH0 PUSH3 0x605 DUP3 PUSH3 0x5DA JUMP JUMPDEST SWAP1 POP SWAP2 SWAP1 POP JUMP JUMPDEST PUSH3 0x617 DUP2 PUSH3 0x5F9 JUMP JUMPDEST DUP2 EQ PUSH3 0x622 JUMPI PUSH0 DUP1 REVERT JUMPDEST POP JUMP JUMPDEST PUSH0 DUP2 MLOAD SWAP1 POP PUSH3 0x635 DUP2 PUSH3 0x60C JUMP JUMPDEST SWAP3 SWAP2 POP POP JUMP JUMPDEST PUSH0 DUP1 PUSH0 DUP1 PUSH0 PUSH1 0xA0 DUP7 DUP9 SUB SLT ISZERO PUSH3 0x657 JUMPI PUSH3 0x656 PUSH3 0x426 JUMP JUMPDEST JUMPDEST PUSH0 DUP7 ADD MLOAD PUSH8 0xFFFFFFFFFFFFFFFF DUP2 GT ISZERO PUSH3 0x677 JUMPI PUSH3 0x676 PUSH3 0x42A JUMP JUMPDEST JUMPDEST PUSH3 0x685 DUP9 DUP3 DUP10 ADD PUSH3 0x570 JUMP JUMPDEST SWAP6 POP POP PUSH1 0x20 DUP7 ADD MLOAD PUSH8 0xFFFFFFFFFFFFFFFF DUP2 GT ISZERO PUSH3 0x6A9 JUMPI PUSH3 0x6A8 PUSH3 0x42A JUMP JUMPDEST JUMPDEST PUSH3 0x6B7 DUP9 DUP3 DUP10 ADD PUSH3 0x570 JUMP JUMPDEST SWAP5 POP POP PUSH1 0x40 PUSH3 0x6CA DUP9 DUP3 DUP10 ADD PUSH3 0x5C4 JUMP JUMPDEST SWAP4 POP POP PUSH1 0x60 PUSH3 0x6DD DUP9 DUP3 DUP10 ADD PUSH3 0x625 JUMP JUMPDEST SWAP3 POP POP PUSH1 0x80 PUSH3 0x6F0 DUP9 DUP3 DUP10 ADD PUSH3 0x625 JUMP JUMPDEST SWAP2 POP POP SWAP3 SWAP6 POP SWAP3 SWAP6 SWAP1 SWAP4 POP JUMP JUMPDEST PUSH0 DUP2 MLOAD SWAP1 POP SWAP2 SWAP1 POP JUMP JUMPDEST PUSH32 0x4E487B7100000000000000000000000000000000000000000000000000000000 PUSH0 MSTORE PUSH1 0x22 PUSH1 0x4 MSTORE PUSH1 0x24 PUSH0 REVERT JUMPDEST PUSH0 PUSH1 0x2 DUP3 DIV SWAP1 POP PUSH1 0x1 DUP3 AND DUP1 PUSH3 0x74C JUMPI PUSH1 0x7F DUP3 AND SWAP2 POP JUMPDEST PUSH1 0x20 DUP3 LT DUP2 SUB PUSH3 0x762 JUMPI PUSH3 0x761 PUSH3 0x707 JUMP JUMPDEST JUMPDEST POP SWAP2 SWAP1 POP JUMP JUMPDEST PUSH0 DUP2 SWAP1 POP DUP2 PUSH0 MSTORE PUSH1 0x20 PUSH0 KECCAK256 SWAP1 POP SWAP2 SWAP1 POP JUMP JUMPDEST PUSH0 PUSH1 0x20 PUSH1 0x1F DUP4 ADD DIV SWAP1 POP SWAP2 SWAP1 POP JUMP JUMPDEST PUSH0 DUP3 DUP3 SHL SWAP1 POP SWAP3 SWAP2 POP POP JUMP JUMPDEST PUSH0 PUSH1 0x8 DUP4 MUL PUSH3 0x7C6 PUSH32 0xFFFFFFFFFFFFFFFFFFFFFFFFFFFFFFFFFFFFFFFFFFFFFFFFFFFFFFFFFFFFFFFF DUP3 PUSH3 0x789 JUMP JUMPDEST PUSH3 0x7D2 DUP7 DUP4 PUSH3 0x789 JUMP JUMPDEST SWAP6 POP DUP1 NOT DUP5 AND SWAP4 POP DUP1 DUP7 AND DUP5 OR SWAP3 POP POP POP SWAP4 SWAP3 POP POP POP JUMP JUMPDEST PUSH0 DUP2 SWAP1 POP SWAP2 SWAP1 POP JUMP JUMPDEST PUSH0 PUSH3 0x813 PUSH3 0x80D PUSH3 0x807 DUP5 PUSH3 0x5A2 JUMP JUMPDEST PUSH3 0x7EA JUMP JUMPDEST PUSH3 0x5A2 JUMP JUMPDEST SWAP1 POP SWAP2 SWAP1 POP JUMP JUMPDEST PUSH0 DUP2 SWAP1 POP SWAP2 SWAP1 POP JUMP JUMPDEST PUSH3 0x82E DUP4 PUSH3 0x7F3 JUMP JUMPDEST PUSH3 0x846 PUSH3 0x83D DUP3 PUSH3 0x81A JUMP JUMPDEST DUP5 DUP5 SLOAD PUSH3 0x795 JUMP JUMPDEST DUP3 SSTORE POP POP POP POP JUMP JUMPDEST PUSH0 SWAP1 JUMP JUMPDEST PUSH3 0x85C PUSH3 0x84E JUMP JUMPDEST PUSH3 0x869 DUP2 DUP5 DUP5 PUSH3 0x823 JUMP JUMPDEST POP POP POP JUMP JUMPDEST JUMPDEST DUP2 DUP2 LT ISZERO PUSH3 0x890 JUMPI PUSH3 0x884 PUSH0 DUP3 PUSH3 0x852 JUMP JUMPDEST PUSH1 0x1 DUP2 ADD SWAP1 POP PUSH3 0x86F JUMP JUMPDEST POP POP JUMP JUMPDEST PUSH1 0x1F DUP3 GT ISZERO PUSH3 0x8DF JUMPI PUSH3 0x8A9 DUP2 PUSH3 0x768 JUMP JUMPDEST PUSH3 0x8B4 DUP5 PUSH3 0x77A JUMP JUMPDEST DUP2 ADD PUSH1 0x20 DUP6 LT ISZERO PUSH3 0x8C4 JUMPI DUP2 SWAP1 POP JUMPDEST PUSH3 0x8DC PUSH3 0x8D3 DUP6 PUSH3 0x77A JUMP JUMPDEST DUP4 ADD DUP3 PUSH3 0x86E JUMP JUMPDEST POP POP JUMPDEST POP POP POP JUMP JUMPDEST PUSH0 DUP3 DUP3 SHR SWAP1 POP SWAP3 SWAP2 POP POP JUMP JUMPDEST PUSH0 PUSH3 0x901 PUSH0 NOT DUP5 PUSH1 0x8 MUL PUSH3 0x8E4 JUMP JUMPDEST NOT DUP1 DUP4 AND SWAP2 POP POP SWAP3 SWAP2 POP POP JUMP JUMPDEST PUSH0 PUSH3 0x91B DUP4 DUP4 PUSH3 0x8F0 JUMP JUMPDEST SWAP2 POP DUP3 PUSH1 0x2 MUL DUP3 OR SWAP1 POP SWAP3 SWAP2 POP POP JUMP JUMPDEST PUSH3 0x936 DUP3 PUSH3 0x6FD JUMP JUMPDEST PUSH8 0xFFFFFFFFFFFFFFFF DUP2 GT ISZERO PUSH3 0x952 JUMPI PUSH3 0x951 PUSH3 0x446 JUMP JUMPDEST JUMPDEST PUSH3 0x95E DUP3 SLOAD PUSH3 0x734 JUMP JUMPDEST PUSH3 0x96B DUP3 DUP3 DUP6 PUSH3 0x894 JUMP JUMPDEST PUSH0 PUSH1 0x20 SWAP1 POP PUSH1 0x1F DUP4 GT PUSH1 0x1 DUP2 EQ PUSH3 0x9A1 JUMPI PUSH0 DUP5 ISZERO PUSH3 0x98C JUMPI DUP3 DUP8 ADD MLOAD SWAP1 POP JUMPDEST PUSH3 0x998 DUP6 DUP3 PUSH3 0x90E JUMP JUMPDEST DUP7 SSTORE POP PUSH3 0xA07 JUMP JUMPDEST PUSH1 0x1F NOT DUP5 AND PUSH3 0x9B1 DUP7 PUSH3 0x768 JUMP JUMPDEST PUSH0 JUMPDEST DUP3 DUP2 LT ISZERO PUSH3 0x9DA JUMPI DUP5 DUP10 ADD MLOAD DUP3 SSTORE PUSH1 0x1 DUP3 ADD SWAP2 POP PUSH1 0x20 DUP6 ADD SWAP5 POP PUSH1 0x20 DUP2 ADD SWAP1 POP PUSH3 0x9B3 JUMP JUMPDEST DUP7 DUP4 LT ISZERO PUSH3 0x9FA JUMPI DUP5 DUP10 ADD MLOAD PUSH3 0x9F6 PUSH1 0x1F DUP10 AND DUP3 PUSH3 0x8F0 JUMP JUMPDEST DUP4 SSTORE POP JUMPDEST PUSH1 0x1 PUSH1 0x2 DUP9 MUL ADD DUP9 SSTORE POP POP POP JUMPDEST POP POP POP POP POP POP JUMP JUMPDEST PUSH0 DUP2 SWAP1 POP SWAP2 SWAP1 POP JUMP JUMPDEST PUSH0 PUSH3 0xA38 PUSH3 0xA32 PUSH3 0xA2C DUP5 PUSH3 0xA0F JUMP JUMPDEST PUSH3 0x7EA JUMP JUMPDEST PUSH3 0x5A2 JUMP JUMPDEST SWAP1 POP SWAP2 SWAP1 POP JUMP JUMPDEST PUSH3 0xA4A DUP2 PUSH3 0xA18 JUMP JUMPDEST DUP3 MSTORE POP POP JUMP JUMPDEST PUSH0 PUSH1 0x20 DUP3 ADD SWAP1 POP PUSH3 0xA65 PUSH0 DUP4 ADD DUP5 PUSH3 0xA3F JUMP JUMPDEST SWAP3 SWAP2 POP POP JUMP JUMPDEST PUSH3 0xA76 DUP2 PUSH3 0x5F9 JUMP JUMPDEST DUP3 MSTORE POP POP JUMP JUMPDEST PUSH0 PUSH1 0x20 DUP3 ADD SWAP1 POP PUSH3 0xA91 PUSH0 DUP4 ADD DUP5 PUSH3 0xA6B JUMP JUMPDEST SWAP3 SWAP2 POP POP JUMP JUMPDEST PUSH0 DUP3 DUP3 MSTORE PUSH1 0x20 DUP3 ADD SWAP1 POP SWAP3 SWAP2 POP POP JUMP JUMPDEST PUSH32 0x5061757361626C653A2070617573656400000000000000000000000000000000 PUSH0 DUP3 ADD MSTORE POP JUMP JUMPDEST PUSH0 PUSH3 0xADD PUSH1 0x10 DUP4 PUSH3 0xA97 JUMP JUMPDEST SWAP2 POP PUSH3 0xAEA DUP3 PUSH3 0xAA7 JUMP JUMPDEST PUSH1 0x20 DUP3 ADD SWAP1 POP SWAP2 SWAP1 POP JUMP JUMPDEST PUSH0 PUSH1 0x20 DUP3 ADD SWAP1 POP DUP2 DUP2 SUB PUSH0 DUP4 ADD MSTORE PUSH3 0xB0E DUP2 PUSH3 0xACF JUMP JUMPDEST SWAP1 POP SWAP2 SWAP1 POP JUMP JUMPDEST PUSH1 0x80 MLOAD PUSH2 0x2749 PUSH3 0xB2E PUSH0 CODECOPY PUSH0 PUSH2 0x978 ADD MSTORE PUSH2 0x2749 PUSH0 RETURN INVALID PUSH1 0x80 PUSH1 0x40 MSTORE CALLVALUE DUP1 ISZERO PUSH2 0xF JUMPI PUSH0 DUP1 REVERT JUMPDEST POP PUSH1 0x4 CALLDATASIZE LT PUSH2 0x1C2 JUMPI PUSH0 CALLDATALOAD PUSH1 0xE0 SHR DUP1 PUSH4 0x5C975ABB GT PUSH2 0xF7 JUMPI DUP1 PUSH4 0xA9059CBB GT PUSH2 0x95 JUMPI DUP1 PUSH4 0xDD62ED3E GT PUSH2 0x6F JUMPI DUP1 PUSH4 0xDD62ED3E EQ PUSH2 0x4F2 JUMPI DUP1 PUSH4 0xE43252D7 EQ PUSH2 0x522 JUMPI DUP1 PUSH4 0xE63AB1E9 EQ PUSH2 0x53E JUMPI DUP1 PUSH4 0xFCA3B5AA EQ PUSH2 0x55C JUMPI PUSH2 0x1C2 JUMP JUMPDEST DUP1 PUSH4 0xA9059CBB EQ PUSH2 0x488 JUMPI DUP1 PUSH4 0xD5391393 EQ PUSH2 0x4B8 JUMPI DUP1 PUSH4 0xD547741F EQ PUSH2 0x4D6 JUMPI PUSH2 0x1C2 JUMP JUMPDEST DUP1 PUSH4 0x8AB1D681 GT PUSH2 0xD1 JUMPI DUP1 PUSH4 0x8AB1D681 EQ PUSH2 0x400 JUMPI DUP1 PUSH4 0x91D14854 EQ PUSH2 0x41C JUMPI DUP1 PUSH4 0x95D89B41 EQ PUSH2 0x44C JUMPI DUP1 PUSH4 0xA217FDDF EQ PUSH2 0x46A JUMPI PUSH2 0x1C2 JUMP JUMPDEST DUP1 PUSH4 0x5C975ABB EQ PUSH2 0x3A8 JUMPI DUP1 PUSH4 0x70A08231 EQ PUSH2 0x3C6 JUMPI DUP1 PUSH4 0x8456CB59 EQ PUSH2 0x3F6 JUMPI PUSH2 0x1C2 JUMP JUMPDEST DUP1 PUSH4 0x2F2FF15D GT PUSH2 0x164 JUMPI DUP1 PUSH4 0x36568ABE GT PUSH2 0x13E JUMPI DUP1 PUSH4 0x36568ABE EQ PUSH2 0x336 JUMPI DUP1 PUSH4 0x3AF32ABF EQ PUSH2 0x352 JUMPI DUP1 PUSH4 0x3F4BA83A EQ PUSH2 0x382 JUMPI DUP1 PUSH4 0x40C10F19 EQ PUSH2 0x38C JUMPI PUSH2 0x1C2 JUMP JUMPDEST DUP1 PUSH4 0x2F2FF15D EQ PUSH2 0x2DE JUMPI DUP1 PUSH4 0x313CE567 EQ PUSH2 0x2FA JUMPI DUP1 PUSH4 0x355274EA EQ PUSH2 0x318 JUMPI PUSH2 0x1C2 JUMP JUMPDEST DUP1 PUSH4 0x1171BDA9 GT PUSH2 0x1A0 JUMPI DUP1 PUSH4 0x1171BDA9 EQ PUSH2 0x244 JUMPI DUP1 PUSH4 0x18160DDD EQ PUSH2 0x260 JUMPI DUP1 PUSH4 0x23B872DD EQ PUSH2 0x27E JUMPI DUP1 PUSH4 0x248A9CA3 EQ PUSH2 0x2AE JUMPI PUSH2 0x1C2 JUMP JUMPDEST DUP1 PUSH4 0x1FFC9A7 EQ PUSH2 0x1C6 JUMPI DUP1 PUSH4 0x6FDDE03 EQ PUSH2 0x1F6 JUMPI DUP1 PUSH4 0x95EA7B3 EQ PUSH2 0x214 JUMPI JUMPDEST PUSH0 DUP1 REVERT JUMPDEST PUSH2 0x1E0 PUSH1 0x4 DUP1 CALLDATASIZE SUB DUP2 ADD SWAP1 PUSH2 0x1DB SWAP2 SWAP1 PUSH2 0x1D01 JUMP JUMPDEST PUSH2 0x578 JUMP JUMPDEST PUSH1 0x40 MLOAD PUSH2 0x1ED SWAP2 SWAP1 PUSH2 0x1D46 JUMP JUMPDEST PUSH1 0x40 MLOAD DUP1 SWAP2 SUB SWAP1 RETURN JUMPDEST PUSH2 0x1FE PUSH2 0x5F1 JUMP JUMPDEST PUSH1 0x40 MLOAD PUSH2 0x20B SWAP2 SWAP1 PUSH2 0x1DE9 JUMP JUMPDEST PUSH1 0x40 MLOAD DUP1 SWAP2 SUB SWAP1 RETURN JUMPDEST PUSH2 0x22E PUSH1 0x4 DUP1 CALLDATASIZE SUB DUP2 ADD SWAP1 PUSH2 0x229 SWAP2 SWAP1 PUSH2 0x1E96 JUMP JUMPDEST PUSH2 0x681 JUMP JUMPDEST PUSH1 0x40 MLOAD PUSH2 0x23B SWAP2 SWAP1 PUSH2 0x1D46 JUMP JUMPDEST PUSH1 0x40 MLOAD DUP1 SWAP2 SUB SWAP1 RETURN JUMPDEST PUSH2 0x25E PUSH1 0x4 DUP1 CALLDATASIZE SUB DUP2 ADD SWAP1 PUSH2 0x259 SWAP2 SWAP1 PUSH2 0x1ED4 JUMP JUMPDEST PUSH2 0x6A3 JUMP JUMPDEST STOP JUMPDEST PUSH2 0x268 PUSH2 0x8F7 JUMP JUMPDEST PUSH1 0x40 MLOAD PUSH2 0x275 SWAP2 SWAP1 PUSH2 0x1F33 JUMP JUMPDEST PUSH1 0x40 MLOAD DUP1 SWAP2 SUB SWAP1 RETURN JUMPDEST PUSH2 0x298 PUSH1 0x4 DUP1 CALLDATASIZE SUB DUP2 ADD SWAP1 PUSH2 0x293 SWAP2 SWAP1 PUSH2 0x1ED4 JUMP JUMPDEST PUSH2 0x900 JUMP JUMPDEST PUSH1 0x40 MLOAD PUSH2 0x2A5 SWAP2 SWAP1 PUSH2 0x1D46 JUMP JUMPDEST PUSH1 0x40 MLOAD DUP1 SWAP2 SUB SWAP1 RETURN JUMPDEST PUSH2 0x2C8 PUSH1 0x4 DUP1 CALLDATASIZE SUB DUP2 ADD SWAP1 PUSH2 0x2C3 SWAP2 SWAP1 PUSH2 0x1F7F JUMP JUMPDEST PUSH2 0x92E JUMP JUMPDEST PUSH1 0x40 MLOAD PUSH2 0x2D5 SWAP2 SWAP1 PUSH2 0x1FB9 JUMP JUMPDEST PUSH1 0x40 MLOAD DUP1 SWAP2 SUB SWAP1 RETURN JUMPDEST PUSH2 0x2F8 PUSH1 0x4 DUP1 CALLDATASIZE SUB DUP2 ADD SWAP1 PUSH2 0x2F3 SWAP2 SWAP1 PUSH2 0x1FD2 JUMP JUMPDEST PUSH2 0x94B JUMP JUMPDEST STOP JUMPDEST PUSH2 0x302 PUSH2 0x96D JUMP JUMPDEST PUSH1 0x40 MLOAD PUSH2 0x30F SWAP2 SWAP1 PUSH2 0x202B JUMP JUMPDEST PUSH1 0x40 MLOAD DUP1 SWAP2 SUB SWAP1 RETURN JUMPDEST PUSH2 0x320 PUSH2 0x975 JUMP JUMPDEST PUSH1 0x40 MLOAD PUSH2 0x32D SWAP2 SWAP1 PUSH2 0x1F33 JUMP JUMPDEST PUSH1 0x40 MLOAD DUP1 SWAP2 SUB SWAP1 RETURN JUMPDEST PUSH2 0x350 PUSH1 0x4 DUP1 CALLDATASIZE SUB DUP2 ADD SWAP1 PUSH2 0x34B SWAP2 SWAP1 PUSH2 0x1FD2 JUMP JUMPDEST PUSH2 0x99C JUMP JUMPDEST STOP JUMPDEST PUSH2 0x36C PUSH1 0x4 DUP1 CALLDATASIZE SUB DUP2 ADD SWAP1 PUSH2 0x367 SWAP2 SWAP1 PUSH2 0x2044 JUMP JUMPDEST PUSH2 0xA17 JUMP JUMPDEST PUSH1 0x40 MLOAD PUSH2 0x379 SWAP2 SWAP1 PUSH2 0x1D46 JUMP JUMPDEST PUSH1 0x40 MLOAD DUP1 SWAP2 SUB SWAP1 RETURN JUMPDEST PUSH2 0x38A PUSH2 0xA69 JUMP JUMPDEST STOP JUMPDEST PUSH2 0x3A6 PUSH1 0x4 DUP1 CALLDATASIZE SUB DUP2 ADD SWAP1 PUSH2 0x3A1 SWAP2 SWAP1 PUSH2 0x1E96 JUMP JUMPDEST PUSH2 0xA9E JUMP JUMPDEST STOP JUMPDEST PUSH2 0x3B0 PUSH2 0xAD7 JUMP JUMPDEST PUSH1 0x40 MLOAD PUSH2 0x3BD SWAP2 SWAP1 PUSH2 0x1D46 JUMP JUMPDEST PUSH1 0x40 MLOAD DUP1 SWAP2 SUB SWAP1 RETURN JUMPDEST PUSH2 0x3E0 PUSH1 0x4 DUP1 CALLDATASIZE SUB DUP2 ADD SWAP1 PUSH2 0x3DB SWAP2 SWAP1 PUSH2 0x2044 JUMP JUMPDEST PUSH2 0xAEB JUMP JUMPDEST PUSH1 0x40 MLOAD PUSH2 0x3ED SWAP2 SWAP1 PUSH2 0x1F33 JUMP JUMPDEST PUSH1 0x40 MLOAD DUP1 SWAP2 SUB SWAP1 RETURN JUMPDEST PUSH2 0x3FE PUSH2 0xB31 JUMP JUMPDEST STOP JUMPDEST PUSH2 0x41A PUSH1 0x4 DUP1 CALLDATASIZE SUB DUP2 ADD SWAP1 PUSH2 0x415 SWAP2 SWAP1 PUSH2 0x2044 JUMP JUMPDEST PUSH2 0xB66 JUMP JUMPDEST STOP JUMPDEST PUSH2 0x436 PUSH1 0x4 DUP1 CALLDATASIZE SUB DUP2 ADD SWAP1 PUSH2 0x431 SWAP2 SWAP1 PUSH2 0x1FD2 JUMP JUMPDEST PUSH2 0xCA4 JUMP JUMPDEST PUSH1 0x40 MLOAD PUSH2 0x443 SWAP2 SWAP1 PUSH2 0x1D46 JUMP JUMPDEST PUSH1 0x40 MLOAD DUP1 SWAP2 SUB SWAP1 RETURN JUMPDEST PUSH2 0x454 PUSH2 0xD08 JUMP JUMPDEST PUSH1 0x40 MLOAD PUSH2 0x461 SWAP2 SWAP1 PUSH2 0x1DE9 JUMP JUMPDEST PUSH1 0x40 MLOAD DUP1 SWAP2 SUB SWAP1 RETURN JUMPDEST PUSH2 0x472 PUSH2 0xD98 JUMP JUMPDEST PUSH1 0x40 MLOAD PUSH2 0x47F SWAP2 SWAP1 PUSH2 0x1FB9 JUMP JUMPDEST PUSH1 0x40 MLOAD DUP1 SWAP2 SUB SWAP1 RETURN JUMPDEST PUSH2 0x4A2 PUSH1 0x4 DUP1 CALLDATASIZE SUB DUP2 ADD SWAP1 PUSH2 0x49D SWAP2 SWAP1 PUSH2 0x1E96 JUMP JUMPDEST PUSH2 0xD9E JUMP JUMPDEST PUSH1 0x40 MLOAD PUSH2 0x4AF SWAP2 SWAP1 PUSH2 0x1D46 JUMP JUMPDEST PUSH1 0x40 MLOAD DUP1 SWAP2 SUB SWAP1 RETURN JUMPDEST PUSH2 0x4C0 PUSH2 0xDC0 JUMP JUMPDEST PUSH1 0x40 MLOAD PUSH2 0x4CD SWAP2 SWAP1 PUSH2 0x1FB9 JUMP JUMPDEST PUSH1 0x40 MLOAD DUP1 SWAP2 SUB SWAP1 RETURN JUMPDEST PUSH2 0x4F0 PUSH1 0x4 DUP1 CALLDATASIZE SUB DUP2 ADD SWAP1 PUSH2 0x4EB SWAP2 SWAP1 PUSH2 0x1FD2 JUMP JUMPDEST PUSH2 0xDE4 JUMP JUMPDEST STOP JUMPDEST PUSH2 0x50C PUSH1 0x4 DUP1 CALLDATASIZE SUB DUP2 ADD SWAP1 PUSH2 0x507 SWAP2 SWAP1 PUSH2 0x206F JUMP JUMPDEST PUSH2 0xE06 JUMP JUMPDEST PUSH1 0x40 MLOAD PUSH2 0x519 SWAP2 SWAP1 PUSH2 0x1F33 JUMP JUMPDEST PUSH1 0x40 MLOAD DUP1 SWAP2 SUB SWAP1 RETURN JUMPDEST PUSH2 0x53C PUSH1 0x4 DUP1 CALLDATASIZE SUB DUP2 ADD SWAP1 PUSH2 0x537 SWAP2 SWAP1 PUSH2 0x2044 JUMP JUMPDEST PUSH2 0xE88 JUMP JUMPDEST STOP JUMPDEST PUSH2 0x546 PUSH2 0xFC8 JUMP JUMPDEST PUSH1 0x40 MLOAD PUSH2 0x553 SWAP2 SWAP1 PUSH2 0x1FB9 JUMP JUMPDEST PUSH1 0x40 MLOAD DUP1 SWAP2 SUB SWAP1 RETURN JUMPDEST PUSH2 0x576 PUSH1 0x4 DUP1 CALLDATASIZE SUB DUP2 ADD SWAP1 PUSH2 0x571 SWAP2 SWAP1 PUSH2 0x2044 JUMP JUMPDEST PUSH2 0xFEC JUMP JUMPDEST STOP JUMPDEST PUSH0 PUSH32 0x7965DB0B00000000000000000000000000000000000000000000000000000000 PUSH28 0xFFFFFFFFFFFFFFFFFFFFFFFFFFFFFFFFFFFFFFFFFFFFFFFFFFFFFFFF NOT AND DUP3 PUSH28 0xFFFFFFFFFFFFFFFFFFFFFFFFFFFFFFFFFFFFFFFFFFFFFFFFFFFFFFFF NOT AND EQ DUP1 PUSH2 0x5EA JUMPI POP PUSH2 0x5E9 DUP3 PUSH2 0x1095 JUMP JUMPDEST JUMPDEST SWAP1 POP SWAP2 SWAP1 POP JUMP JUMPDEST PUSH1 0x60 PUSH1 0x4 DUP1 SLOAD PUSH2 0x600 SWAP1 PUSH2 0x20DA JUMP JUMPDEST DUP1 PUSH1 0x1F ADD PUSH1 0x20 DUP1 SWAP2 DIV MUL PUSH1 0x20 ADD PUSH1 0x40 MLOAD SWAP1 DUP2 ADD PUSH1 0x40 MSTORE DUP1 SWAP3 SWAP2 SWAP1 DUP2 DUP2 MSTORE PUSH1 0x20 ADD DUP3 DUP1 SLOAD PUSH2 0x62C SWAP1 PUSH2 0x20DA JUMP JUMPDEST DUP1 ISZERO PUSH2 0x677 JUMPI DUP1 PUSH1 0x1F LT PUSH2 0x64E JUMPI PUSH2 0x100 DUP1 DUP4 SLOAD DIV MUL DUP4 MSTORE SWAP2 PUSH1 0x20 ADD SWAP2 PUSH2 0x677 JUMP JUMPDEST DUP3 ADD SWAP2 SWAP1 PUSH0 MSTORE PUSH1 0x20 PUSH0 KECCAK256 SWAP1 JUMPDEST DUP2 SLOAD DUP2 MSTORE SWAP1 PUSH1 0x1 ADD SWAP1 PUSH1 0x20 ADD DUP1 DUP4 GT PUSH2 0x65A JUMPI DUP3 SWAP1 SUB PUSH1 0x1F AND DUP3 ADD SWAP2 JUMPDEST POP POP POP POP POP SWAP1 POP SWAP1 JUMP JUMPDEST PUSH0 DUP1 PUSH2 0x68B PUSH2 0x10FE JUMP JUMPDEST SWAP1 POP PUSH2 0x698 DUP2 DUP6 DUP6 PUSH2 0x1105 JUMP JUMPDEST PUSH1 0x1 SWAP2 POP POP SWAP3 SWAP2 POP POP JUMP JUMPDEST PUSH0 DUP1 SHL PUSH2 0x6AF DUP2 PUSH2 0x1117 JUMP JUMPDEST PUSH0 PUSH20 0xFFFFFFFFFFFFFFFFFFFFFFFFFFFFFFFFFFFFFFFF AND DUP4 PUSH20 0xFFFFFFFFFFFFFFFFFFFFFFFFFFFFFFFFFFFFFFFF AND SUB PUSH2 0x71D JUMPI PUSH1 0x40 MLOAD PUSH32 0x8C379A000000000000000000000000000000000000000000000000000000000 DUP2 MSTORE PUSH1 0x4 ADD PUSH2 0x714 SWAP1 PUSH2 0x2154 JUMP JUMPDEST PUSH1 0x40 MLOAD DUP1 SWAP2 SUB SWAP1 REVERT JUMPDEST PUSH0 PUSH20 0xFFFFFFFFFFFFFFFFFFFFFFFFFFFFFFFFFFFFFFFF AND DUP5 PUSH20 0xFFFFFFFFFFFFFFFFFFFFFFFFFFFFFFFFFFFFFFFF AND SUB PUSH2 0x78B JUMPI PUSH1 0x40 MLOAD PUSH32 0x8C379A000000000000000000000000000000000000000000000000000000000 DUP2 MSTORE PUSH1 0x4 ADD PUSH2 0x782 SWAP1 PUSH2 0x21BC JUMP JUMPDEST PUSH1 0x40 MLOAD DUP1 SWAP2 SUB SWAP1 REVERT JUMPDEST PUSH0 DUP3 GT PUSH2 0x7CD JUMPI PUSH1 0x40 MLOAD PUSH32 0x8C379A000000000000000000000000000000000000000000000000000000000 DUP2 MSTORE PUSH1 0x4 ADD PUSH2 0x7C4 SWAP1 PUSH2 0x2224 JUMP JUMPDEST PUSH1 0x40 MLOAD DUP1 SWAP2 SUB SWAP1 REVERT JUMPDEST PUSH0 DUP5 PUSH20 0xFFFFFFFFFFFFFFFFFFFFFFFFFFFFFFFFFFFFFFFF AND PUSH4 0xA9059CBB DUP6 DUP6 PUSH1 0x40 MLOAD DUP4 PUSH4 0xFFFFFFFF AND PUSH1 0xE0 SHL DUP2 MSTORE PUSH1 0x4 ADD PUSH2 0x809 SWAP3 SWAP2 SWAP1 PUSH2 0x2251 JUMP JUMPDEST PUSH1 0x20 PUSH1 0x40 MLOAD DUP1 DUP4 SUB DUP2 PUSH0 DUP8 GAS CALL ISZERO DUP1 ISZERO PUSH2 0x825 JUMPI RETURNDATASIZE PUSH0 DUP1 RETURNDATACOPY RETURNDATASIZE PUSH0 REVERT JUMPDEST POP POP POP POP PUSH1 0x40 MLOAD RETURNDATASIZE PUSH1 0x1F NOT PUSH1 0x1F DUP3 ADD AND DUP3 ADD DUP1 PUSH1 0x40 MSTORE POP DUP2 ADD SWAP1 PUSH2 0x849 SWAP2 SWAP1 PUSH2 0x22A2 JUMP JUMPDEST SWAP1 POP DUP1 PUSH2 0x88B JUMPI PUSH1 0x40 MLOAD PUSH32 0x8C379A000000000000000000000000000000000000000000000000000000000 DUP2 MSTORE PUSH1 0x4 ADD PUSH2 0x882 SWAP1 PUSH2 0x2317 JUMP JUMPDEST PUSH1 0x40 MLOAD DUP1 SWAP2 SUB SWAP1 REVERT JUMPDEST DUP4 PUSH20 0xFFFFFFFFFFFFFFFFFFFFFFFFFFFFFFFFFFFFFFFF AND DUP6 PUSH20 0xFFFFFFFFFFFFFFFFFFFFFFFFFFFFFFFFFFFFFFFF AND PUSH32 0xACA8FB252CDE442184E5F10E0F2E6E4029E8CD7717CAE63559079610702436AA DUP6 PUSH1 0x40 MLOAD PUSH2 0x8E8 SWAP2 SWAP1 PUSH2 0x1F33 JUMP JUMPDEST PUSH1 0x40 MLOAD DUP1 SWAP2 SUB SWAP1 LOG3 POP POP POP POP POP JUMP JUMPDEST PUSH0 PUSH1 0x3 SLOAD SWAP1 POP SWAP1 JUMP JUMPDEST PUSH0 DUP1 PUSH2 0x90A PUSH2 0x10FE JUMP JUMPDEST SWAP1 POP PUSH2 0x917 DUP6 DUP3 DUP6 PUSH2 0x112B JUMP JUMPDEST PUSH2 0x922 DUP6 DUP6 DUP6 PUSH2 0x11BE JUMP JUMPDEST PUSH1 0x1 SWAP2 POP POP SWAP4 SWAP3 POP POP POP JUMP JUMPDEST PUSH0 PUSH1 0x6 PUSH0 DUP4 DUP2 MSTORE PUSH1 0x20 ADD SWAP1 DUP2 MSTORE PUSH1 0x20 ADD PUSH0 KECCAK256 PUSH1 0x1 ADD SLOAD SWAP1 POP SWAP2 SWAP1 POP JUMP JUMPDEST PUSH2 0x954 DUP3 PUSH2 0x92E JUMP JUMPDEST PUSH2 0x95D DUP2 PUSH2 0x1117 JUMP JUMPDEST PUSH2 0x967 DUP4 DUP4 PUSH2 0x12AE JUMP JUMPDEST POP POP POP POP JUMP JUMPDEST PUSH0 PUSH1 0x12 SWAP1 POP SWAP1 JUMP JUMPDEST PUSH0 PUSH32 0x0 SWAP1 POP SWAP1 JUMP JUMPDEST PUSH2 0x9A4 PUSH2 0x10FE JUMP JUMPDEST PUSH20 0xFFFFFFFFFFFFFFFFFFFFFFFFFFFFFFFFFFFFFFFF AND DUP2 PUSH20 0xFFFFFFFFFFFFFFFFFFFFFFFFFFFFFFFFFFFFFFFF AND EQ PUSH2 0xA08 JUMPI PUSH1 0x40 MLOAD PUSH32 0x6697B23200000000000000000000000000000000000000000000000000000000 DUP2 MSTORE PUSH1 0x4 ADD PUSH1 0x40 MLOAD DUP1 SWAP2 SUB SWAP1 REVERT JUMPDEST PUSH2 0xA12 DUP3 DUP3 PUSH2 0x1398 JUMP JUMPDEST POP POP POP JUMP JUMPDEST PUSH0 PUSH1 0x7 PUSH0 DUP4 PUSH20 0xFFFFFFFFFFFFFFFFFFFFFFFFFFFFFFFFFFFFFFFF AND PUSH20 0xFFFFFFFFFFFFFFFFFFFFFFFFFFFFFFFFFFFFFFFF AND DUP2 MSTORE PUSH1 0x20 ADD SWAP1 DUP2 MSTORE PUSH1 0x20 ADD PUSH0 KECCAK256 PUSH0 SWAP1 SLOAD SWAP1 PUSH2 0x100 EXP SWAP1 DIV PUSH1 0xFF AND SWAP1 POP SWAP2 SWAP1 POP JUMP JUMPDEST PUSH32 0x65D7A28E3265B37A6474929F336521B332C1681B933F6CB9F3376673440D862A PUSH2 0xA93 DUP2 PUSH2 0x1117 JUMP JUMPDEST PUSH2 0xA9B PUSH2 0x1482 JUMP JUMPDEST POP JUMP JUMPDEST PUSH32 0x9F2DF0FED2C77648DE5860A4CC508CD0818C85B8B8A1AB4CEEEF8D981C8956A6 PUSH2 0xAC8 DUP2 PUSH2 0x1117 JUMP JUMPDEST PUSH2 0xAD2 DUP4 DUP4 PUSH2 0x14E2 JUMP JUMPDEST POP POP POP JUMP JUMPDEST PUSH0 DUP1 PUSH0 SWAP1 SLOAD SWAP1 PUSH2 0x100 EXP SWAP1 DIV PUSH1 0xFF AND SWAP1 POP SWAP1 JUMP JUMPDEST PUSH0 PUSH1 0x1 PUSH0 DUP4 PUSH20 0xFFFFFFFFFFFFFFFFFFFFFFFFFFFFFFFFFFFFFFFF AND PUSH20 0xFFFFFFFFFFFFFFFFFFFFFFFFFFFFFFFFFFFFFFFF AND DUP2 MSTORE PUSH1 0x20 ADD SWAP1 DUP2 MSTORE PUSH1 0x20 ADD PUSH0 KECCAK256 SLOAD SWAP1 POP SWAP2 SWAP1 POP JUMP JUMPDEST PUSH32 0x65D7A28E3265B37A6474929F336521B332C1681B933F6CB9F3376673440D862A PUSH2 0xB5B DUP2 PUSH2 0x1117 JUMP JUMPDEST PUSH2 0xB63 PUSH2 0x1561 JUMP JUMPDEST POP JUMP JUMPDEST PUSH32 0x65D7A28E3265B37A6474929F336521B332C1681B933F6CB9F3376673440D862A PUSH2 0xB90 DUP2 PUSH2 0x1117 JUMP JUMPDEST PUSH0 PUSH20 0xFFFFFFFFFFFFFFFFFFFFFFFFFFFFFFFFFFFFFFFF AND DUP3 PUSH20 0xFFFFFFFFFFFFFFFFFFFFFFFFFFFFFFFFFFFFFFFF AND SUB PUSH2 0xBFE JUMPI PUSH1 0x40 MLOAD PUSH32 0x8C379A000000000000000000000000000000000000000000000000000000000 DUP2 MSTORE PUSH1 0x4 ADD PUSH2 0xBF5 SWAP1 PUSH2 0x23A5 JUMP JUMPDEST PUSH1 0x40 MLOAD DUP1 SWAP2 SUB SWAP1 REVERT JUMPDEST PUSH0 PUSH1 0x7 PUSH0 DUP5 PUSH20 0xFFFFFFFFFFFFFFFFFFFFFFFFFFFFFFFFFFFFFFFF AND PUSH20 0xFFFFFFFFFFFFFFFFFFFFFFFFFFFFFFFFFFFFFFFF AND DUP2 MSTORE PUSH1 0x20 ADD SWAP1 DUP2 MSTORE PUSH1 0x20 ADD PUSH0 KECCAK256 PUSH0 PUSH2 0x100 EXP DUP2 SLOAD DUP2 PUSH1 0xFF MUL NOT AND SWAP1 DUP4 ISZERO ISZERO MUL OR SWAP1 SSTORE POP DUP2 PUSH20 0xFFFFFFFFFFFFFFFFFFFFFFFFFFFFFFFFFFFFFFFF AND PUSH32 0xF93F9A76C1BF3444D22400A00CB9FE990E6ABE9DBB333FDA48859CFEE864543D PUSH0 PUSH1 0x40 MLOAD PUSH2 0xC98 SWAP2 SWAP1 PUSH2 0x1D46 JUMP JUMPDEST PUSH1 0x40 MLOAD DUP1 SWAP2 SUB SWAP1 LOG2 POP POP JUMP JUMPDEST PUSH0 PUSH1 0x6 PUSH0 DUP5 DUP2 MSTORE PUSH1 0x20 ADD SWAP1 DUP2 MSTORE PUSH1 0x20 ADD PUSH0 KECCAK256 PUSH0 ADD PUSH0 DUP4 PUSH20 0xFFFFFFFFFFFFFFFFFFFFFFFFFFFFFFFFFFFFFFFF AND PUSH20 0xFFFFFFFFFFFFFFFFFFFFFFFFFFFFFFFFFFFFFFFF AND DUP2 MSTORE PUSH1 0x20 ADD SWAP1 DUP2 MSTORE PUSH1 0x20 ADD PUSH0 KECCAK256 PUSH0 SWAP1 SLOAD SWAP1 PUSH2 0x100 EXP SWAP1 DIV PUSH1 0xFF AND SWAP1 POP SWAP3 SWAP2 POP POP JUMP JUMPDEST PUSH1 0x60 PUSH1 0x5 DUP1 SLOAD PUSH2 0xD17 SWAP1 PUSH2 0x20DA JUMP JUMPDEST DUP1 PUSH1 0x1F ADD PUSH1 0x20 DUP1 SWAP2 DIV MUL PUSH1 0x20 ADD PUSH1 0x40 MLOAD SWAP1 DUP2 ADD PUSH1 0x40 MSTORE DUP1 SWAP3 SWAP2 SWAP1 DUP2 DUP2 MSTORE PUSH1 0x20 ADD DUP3 DUP1 SLOAD PUSH2 0xD43 SWAP1 PUSH2 0x20DA JUMP JUMPDEST DUP1 ISZERO PUSH2 0xD8E JUMPI DUP1 PUSH1 0x1F LT PUSH2 0xD65 JUMPI PUSH2 0x100 DUP1 DUP4 SLOAD DIV MUL DUP4 MSTORE SWAP2 PUSH1 0x20 ADD SWAP2 PUSH2 0xD8E JUMP JUMPDEST DUP3 ADD SWAP2 SWAP1 PUSH0 MSTORE PUSH1 0x20 PUSH0 KECCAK256 SWAP1 JUMPDEST DUP2 SLOAD DUP2 MSTORE SWAP1 PUSH1 0x1 ADD SWAP1 PUSH1 0x20 ADD DUP1 DUP4 GT PUSH2 0xD71 JUMPI DUP3 SWAP1 SUB PUSH1 0x1F AND DUP3 ADD SWAP2 JUMPDEST POP POP POP POP POP SWAP1 POP SWAP1 JUMP JUMPDEST PUSH0 DUP1 SHL DUP2 JUMP JUMPDEST PUSH0 DUP1 PUSH2 0xDA8 PUSH2 0x10FE JUMP JUMPDEST SWAP1 POP PUSH2 0xDB5 DUP2 DUP6 DUP6 PUSH2 0x11BE JUMP JUMPDEST PUSH1 0x1 SWAP2 POP POP SWAP3 SWAP2 POP POP JUMP JUMPDEST PUSH32 0x9F2DF0FED2C77648DE5860A4CC508CD0818C85B8B8A1AB4CEEEF8D981C8956A6 DUP2 JUMP JUMPDEST PUSH2 0xDED DUP3 PUSH2 0x92E JUMP JUMPDEST PUSH2 0xDF6 DUP2 PUSH2 0x1117 JUMP JUMPDEST PUSH2 0xE00 DUP4 DUP4 PUSH2 0x1398 JUMP JUMPDEST POP POP POP POP JUMP JUMPDEST PUSH0 PUSH1 0x2 PUSH0 DUP5 PUSH20 0xFFFFFFFFFFFFFFFFFFFFFFFFFFFFFFFFFFFFFFFF AND PUSH20 0xFFFFFFFFFFFFFFFFFFFFFFFFFFFFFFFFFFFFFFFF AND DUP2 MSTORE PUSH1 0x20 ADD SWAP1 DUP2 MSTORE PUSH1 0x20 ADD PUSH0 KECCAK256 PUSH0 DUP4 PUSH20 0xFFFFFFFFFFFFFFFFFFFFFFFFFFFFFFFFFFFFFFFF AND PUSH20 0xFFFFFFFFFFFFFFFFFFFFFFFFFFFFFFFFFFFFFFFF AND DUP2 MSTORE PUSH1 0x20 ADD SWAP1 DUP2 MSTORE PUSH1 0x20 ADD PUSH0 KECCAK256 SLOAD SWAP1 POP SWAP3 SWAP2 POP POP JUMP JUMPDEST PUSH32 0x65D7A28E3265B37A6474929F336521B332C1681B933F6CB9F3376673440D862A PUSH2 0xEB2 DUP2 PUSH2 0x1117 JUMP JUMPDEST PUSH0 PUSH20 0xFFFFFFFFFFFFFFFFFFFFFFFFFFFFFFFFFFFFFFFF AND DUP3 PUSH20 0xFFFFFFFFFFFFFFFFFFFFFFFFFFFFFFFFFFFFFFFF AND SUB PUSH2 0xF20 JUMPI PUSH1 0x40 MLOAD PUSH32 0x8C379A000000000000000000000000000000000000000000000000000000000 DUP2 MSTORE PUSH1 0x4 ADD PUSH2 0xF17 SWAP1 PUSH2 0x2433 JUMP JUMPDEST PUSH1 0x40 MLOAD DUP1 SWAP2 SUB SWAP1 REVERT JUMPDEST PUSH1 0x1 PUSH1 0x7 PUSH0 DUP5 PUSH20 0xFFFFFFFFFFFFFFFFFFFFFFFFFFFFFFFFFFFFFFFF AND PUSH20 0xFFFFFFFFFFFFFFFFFFFFFFFFFFFFFFFFFFFFFFFF AND DUP2 MSTORE PUSH1 0x20 ADD SWAP1 DUP2 MSTORE PUSH1 0x20 ADD PUSH0 KECCAK256 PUSH0 PUSH2 0x100 EXP DUP2 SLOAD DUP2 PUSH1 0xFF MUL NOT AND SWAP1 DUP4 ISZERO ISZERO MUL OR SWAP1 SSTORE POP DUP2 PUSH20 0xFFFFFFFFFFFFFFFFFFFFFFFFFFFFFFFFFFFFFFFF AND PUSH32 0xF93F9A76C1BF3444D22400A00CB9FE990E6ABE9DBB333FDA48859CFEE864543D PUSH1 0x1 PUSH1 0x40 MLOAD PUSH2 0xFBC SWAP2 SWAP1 PUSH2 0x1D46 JUMP JUMPDEST PUSH1 0x40 MLOAD DUP1 SWAP2 SUB SWAP1 LOG2 POP POP JUMP JUMPDEST PUSH32 0x65D7A28E3265B37A6474929F336521B332C1681B933F6CB9F3376673440D862A DUP2 JUMP JUMPDEST PUSH0 DUP1 SHL PUSH2 0xFF8 DUP2 PUSH2 0x1117 JUMP JUMPDEST PUSH0 PUSH20 0xFFFFFFFFFFFFFFFFFFFFFFFFFFFFFFFFFFFFFFFF AND DUP3 PUSH20 0xFFFFFFFFFFFFFFFFFFFFFFFFFFFFFFFFFFFFFFFF AND SUB PUSH2 0x1066 JUMPI PUSH1 0x40 MLOAD PUSH32 0x8C379A000000000000000000000000000000000000000000000000000000000 DUP2 MSTORE PUSH1 0x4 ADD PUSH2 0x105D SWAP1 PUSH2 0x249B JUMP JUMPDEST PUSH1 0x40 MLOAD DUP1 SWAP2 SUB SWAP1 REVERT JUMPDEST PUSH2 0x1090 PUSH32 0x9F2DF0FED2C77648DE5860A4CC508CD0818C85B8B8A1AB4CEEEF8D981C8956A6 DUP4 PUSH2 0x12AE JUMP JUMPDEST POP POP POP JUMP JUMPDEST PUSH0 PUSH32 0x1FFC9A700000000000000000000000000000000000000000000000000000000 PUSH28 0xFFFFFFFFFFFFFFFFFFFFFFFFFFFFFFFFFFFFFFFFFFFFFFFFFFFFFFFF NOT AND DUP3 PUSH28 0xFFFFFFFFFFFFFFFFFFFFFFFFFFFFFFFFFFFFFFFFFFFFFFFFFFFFFFFF NOT AND EQ SWAP1 POP SWAP2 SWAP1 POP JUMP JUMPDEST PUSH0 CALLER SWAP1 POP SWAP1 JUMP JUMPDEST PUSH2 0x1112 DUP4 DUP4 DUP4 PUSH1 0x1 PUSH2 0x15C2 JUMP JUMPDEST POP POP POP JUMP JUMPDEST PUSH2 0x1128 DUP2 PUSH2 0x1123 PUSH2 0x10FE JUMP JUMPDEST PUSH2 0x1791 JUMP JUMPDEST POP JUMP JUMPDEST PUSH0 PUSH2 0x1136 DUP5 DUP5 PUSH2 0xE06 JUMP JUMPDEST SWAP1 POP PUSH32 0xFFFFFFFFFFFFFFFFFFFFFFFFFFFFFFFFFFFFFFFFFFFFFFFFFFFFFFFFFFFFFFFF DUP2 LT ISZERO PUSH2 0x11B8 JUMPI DUP2 DUP2 LT ISZERO PUSH2 0x11A9 JUMPI DUP3 DUP2 DUP4 PUSH1 0x40 MLOAD PUSH32 0xFB8F41B200000000000000000000000000000000000000000000000000000000 DUP2 MSTORE PUSH1 0x4 ADD PUSH2 0x11A0 SWAP4 SWAP3 SWAP2 SWAP1 PUSH2 0x24B9 JUMP JUMPDEST PUSH1 0x40 MLOAD DUP1 SWAP2 SUB SWAP1 REVERT JUMPDEST PUSH2 0x11B7 DUP5 DUP5 DUP5 DUP5 SUB PUSH0 PUSH2 0x15C2 JUMP JUMPDEST JUMPDEST POP POP POP POP JUMP JUMPDEST PUSH0 PUSH20 0xFFFFFFFFFFFFFFFFFFFFFFFFFFFFFFFFFFFFFFFF AND DUP4 PUSH20 0xFFFFFFFFFFFFFFFFFFFFFFFFFFFFFFFFFFFFFFFF AND SUB PUSH2 0x122E JUMPI PUSH0 PUSH1 0x40 MLOAD PUSH32 0x96C6FD1E00000000000000000000000000000000000000000000000000000000 DUP2 MSTORE PUSH1 0x4 ADD PUSH2 0x1225 SWAP2 SWAP1 PUSH2 0x24EE JUMP JUMPDEST PUSH1 0x40 MLOAD DUP1 SWAP2 SUB SWAP1 REVERT JUMPDEST PUSH0 PUSH20 0xFFFFFFFFFFFFFFFFFFFFFFFFFFFFFFFFFFFFFFFF AND DUP3 PUSH20 0xFFFFFFFFFFFFFFFFFFFFFFFFFFFFFFFFFFFFFFFF AND SUB PUSH2 0x129E JUMPI PUSH0 PUSH1 0x40 MLOAD PUSH32 0xEC442F0500000000000000000000000000000000000000000000000000000000 DUP2 MSTORE PUSH1 0x4 ADD PUSH2 0x1295 SWAP2 SWAP1 PUSH2 0x24EE JUMP JUMPDEST PUSH1 0x40 MLOAD DUP1 SWAP2 SUB SWAP1 REVERT JUMPDEST PUSH2 0x12A9 DUP4 DUP4 DUP4 PUSH2 0x17E2 JUMP JUMPDEST POP POP POP JUMP JUMPDEST PUSH0 PUSH2 0x12B9 DUP4 DUP4 PUSH2 0xCA4 JUMP JUMPDEST PUSH2 0x138E JUMPI PUSH1 0x1 PUSH1 0x6 PUSH0 DUP6 DUP2 MSTORE PUSH1 0x20 ADD SWAP1 DUP2 MSTORE PUSH1 0x20 ADD PUSH0 KECCAK256 PUSH0 ADD PUSH0 DUP5 PUSH20 0xFFFFFFFFFFFFFFFFFFFFFFFFFFFFFFFFFFFFFFFF AND PUSH20 0xFFFFFFFFFFFFFFFFFFFFFFFFFFFFFFFFFFFFFFFF AND DUP2 MSTORE PUSH1 0x20 ADD SWAP1 DUP2 MSTORE PUSH1 0x20 ADD PUSH0 KECCAK256 PUSH0 PUSH2 0x100 EXP DUP2 SLOAD DUP2 PUSH1 0xFF MUL NOT AND SWAP1 DUP4 ISZERO ISZERO MUL OR SWAP1 SSTORE POP PUSH2 0x132B PUSH2 0x10FE JUMP JUMPDEST PUSH20 0xFFFFFFFFFFFFFFFFFFFFFFFFFFFFFFFFFFFFFFFF AND DUP3 PUSH20 0xFFFFFFFFFFFFFFFFFFFFFFFFFFFFFFFFFFFFFFFF AND DUP5 PUSH32 0x2F8788117E7EFF1D82E926EC794901D17C78024A50270940304540A733656F0D PUSH1 0x40 MLOAD PUSH1 0x40 MLOAD DUP1 SWAP2 SUB SWAP1 LOG4 PUSH1 0x1 SWAP1 POP PUSH2 0x1392 JUMP JUMPDEST PUSH0 SWAP1 POP JUMPDEST SWAP3 SWAP2 POP POP JUMP JUMPDEST PUSH0 PUSH2 0x13A3 DUP4 DUP4 PUSH2 0xCA4 JUMP JUMPDEST ISZERO PUSH2 0x1478 JUMPI PUSH0 PUSH1 0x6 PUSH0 DUP6 DUP2 MSTORE PUSH1 0x20 ADD SWAP1 DUP2 MSTORE PUSH1 0x20 ADD PUSH0 KECCAK256 PUSH0 ADD PUSH0 DUP5 PUSH20 0xFFFFFFFFFFFFFFFFFFFFFFFFFFFFFFFFFFFFFFFF AND PUSH20 0xFFFFFFFFFFFFFFFFFFFFFFFFFFFFFFFFFFFFFFFF AND DUP2 MSTORE PUSH1 0x20 ADD SWAP1 DUP2 MSTORE PUSH1 0x20 ADD PUSH0 KECCAK256 PUSH0 PUSH2 0x100 EXP DUP2 SLOAD DUP2 PUSH1 0xFF MUL NOT AND SWAP1 DUP4 ISZERO ISZERO MUL OR SWAP1 SSTORE POP PUSH2 0x1415 PUSH2 0x10FE JUMP JUMPDEST PUSH20 0xFFFFFFFFFFFFFFFFFFFFFFFFFFFFFFFFFFFFFFFF AND DUP3 PUSH20 0xFFFFFFFFFFFFFFFFFFFFFFFFFFFFFFFFFFFFFFFF AND DUP5 PUSH32 0xF6391F5C32D9C69D2A47EA670B442974B53935D1EDC7FD64EB21E047A839171B PUSH1 0x40 MLOAD PUSH1 0x40 MLOAD DUP1 SWAP2 SUB SWAP1 LOG4 PUSH1 0x1 SWAP1 POP PUSH2 0x147C JUMP JUMPDEST PUSH0 SWAP1 POP JUMPDEST SWAP3 SWAP2 POP POP JUMP JUMPDEST PUSH2 0x148A PUSH2 0x1956 JUMP JUMPDEST PUSH0 DUP1 PUSH0 PUSH2 0x100 EXP DUP2 SLOAD DUP2 PUSH1 0xFF MUL NOT AND SWAP1 DUP4 ISZERO ISZERO MUL OR SWAP1 SSTORE POP PUSH32 0x5DB9EE0A495BF2E6FF9C91A7834C1BA4FDD244A5E8AA4E537BD38AEAE4B073AA PUSH2 0x14CB PUSH2 0x10FE JUMP JUMPDEST PUSH1 0x40 MLOAD PUSH2 0x14D8 SWAP2 SWAP1 PUSH2 0x24EE JUMP JUMPDEST PUSH1 0x40 MLOAD DUP1 SWAP2 SUB SWAP1 LOG1 JUMP JUMPDEST PUSH0 PUSH20 0xFFFFFFFFFFFFFFFFFFFFFFFFFFFFFFFFFFFFFFFF AND DUP3 PUSH20 0xFFFFFFFFFFFFFFFFFFFFFFFFFFFFFFFFFFFFFFFF AND SUB PUSH2 0x1552 JUMPI PUSH0 PUSH1 0x40 MLOAD PUSH32 0xEC442F0500000000000000000000000000000000000000000000000000000000 DUP2 MSTORE PUSH1 0x4 ADD PUSH2 0x1549 SWAP2 SWAP1 PUSH2 0x24EE JUMP JUMPDEST PUSH1 0x40 MLOAD DUP1 SWAP2 SUB SWAP1 REVERT JUMPDEST PUSH2 0x155D PUSH0 DUP4 DUP4 PUSH2 0x17E2 JUMP JUMPDEST POP POP JUMP JUMPDEST PUSH2 0x1569 PUSH2 0x199F JUMP JUMPDEST PUSH1 0x1 PUSH0 DUP1 PUSH2 0x100 EXP DUP2 SLOAD DUP2 PUSH1 0xFF MUL NOT AND SWAP1 DUP4 ISZERO ISZERO MUL OR SWAP1 SSTORE POP PUSH32 0x62E78CEA01BEE320CD4E420270B5EA74000D11B0C9F74754EBDBFC544B05A258 PUSH2 0x15AB PUSH2 0x10FE JUMP JUMPDEST PUSH1 0x40 MLOAD PUSH2 0x15B8 SWAP2 SWAP1 PUSH2 0x24EE JUMP JUMPDEST PUSH1 0x40 MLOAD DUP1 SWAP2 SUB SWAP1 LOG1 JUMP JUMPDEST PUSH0 PUSH20 0xFFFFFFFFFFFFFFFFFFFFFFFFFFFFFFFFFFFFFFFF AND DUP5 PUSH20 0xFFFFFFFFFFFFFFFFFFFFFFFFFFFFFFFFFFFFFFFF AND SUB PUSH2 0x1632 JUMPI PUSH0 PUSH1 0x40 MLOAD PUSH32 0xE602DF0500000000000000000000000000000000000000000000000000000000 DUP2 MSTORE PUSH1 0x4 ADD PUSH2 0x1629 SWAP2 SWAP1 PUSH2 0x24EE JUMP JUMPDEST PUSH1 0x40 MLOAD DUP1 SWAP2 SUB SWAP1 REVERT JUMPDEST PUSH0 PUSH20 0xFFFFFFFFFFFFFFFFFFFFFFFFFFFFFFFFFFFFFFFF AND DUP4 PUSH20 0xFFFFFFFFFFFFFFFFFFFFFFFFFFFFFFFFFFFFFFFF AND SUB PUSH2 0x16A2 JUMPI PUSH0 PUSH1 0x40 MLOAD PUSH32 0x94280D6200000000000000000000000000000000000000000000000000000000 DUP2 MSTORE PUSH1 0x4 ADD PUSH2 0x1699 SWAP2 SWAP1 PUSH2 0x24EE JUMP JUMPDEST PUSH1 0x40 MLOAD DUP1 SWAP2 SUB SWAP1 REVERT JUMPDEST DUP2 PUSH1 0x2 PUSH0 DUP7 PUSH20 0xFFFFFFFFFFFFFFFFFFFFFFFFFFFFFFFFFFFFFFFF AND PUSH20 0xFFFFFFFFFFFFFFFFFFFFFFFFFFFFFFFFFFFFFFFF AND DUP2 MSTORE PUSH1 0x20 ADD SWAP1 DUP2 MSTORE PUSH1 0x20 ADD PUSH0 KECCAK256 PUSH0 DUP6 PUSH20 0xFFFFFFFFFFFFFFFFFFFFFFFFFFFFFFFFFFFFFFFF AND PUSH20 0xFFFFFFFFFFFFFFFFFFFFFFFFFFFFFFFFFFFFFFFF AND DUP2 MSTORE PUSH1 0x20 ADD SWAP1 DUP2 MSTORE PUSH1 0x20 ADD PUSH0 KECCAK256 DUP2 SWAP1 SSTORE POP DUP1 ISZERO PUSH2 0x178B JUMPI DUP3 PUSH20 0xFFFFFFFFFFFFFFFFFFFFFFFFFFFFFFFFFFFFFFFF AND DUP5 PUSH20 0xFFFFFFFFFFFFFFFFFFFFFFFFFFFFFFFFFFFFFFFF AND PUSH32 0x8C5BE1E5EBEC7D5BD14F71427D1E84F3DD0314C0F7B2291E5B200AC8C7C3B925 DUP5 PUSH1 0x40 MLOAD PUSH2 0x1782 SWAP2 SWAP1 PUSH2 0x1F33 JUMP JUMPDEST PUSH1 0x40 MLOAD DUP1 SWAP2 SUB SWAP1 LOG3 JUMPDEST POP POP POP POP JUMP JUMPDEST PUSH2 0x179B DUP3 DUP3 PUSH2 0xCA4 JUMP JUMPDEST PUSH2 0x17DE JUMPI DUP1 DUP3 PUSH1 0x40 MLOAD PUSH32 0xE2517D3F00000000000000000000000000000000000000000000000000000000 DUP2 MSTORE PUSH1 0x4 ADD PUSH2 0x17D5 SWAP3 SWAP2 SWAP1 PUSH2 0x2507 JUMP JUMPDEST PUSH1 0x40 MLOAD DUP1 SWAP2 SUB SWAP1 REVERT JUMPDEST POP POP JUMP JUMPDEST PUSH2 0x17EA PUSH2 0xAD7 JUMP JUMPDEST ISZERO PUSH2 0x1946 JUMPI PUSH0 DUP1 PUSH20 0xFFFFFFFFFFFFFFFFFFFFFFFFFFFFFFFFFFFFFFFF AND DUP5 PUSH20 0xFFFFFFFFFFFFFFFFFFFFFFFFFFFFFFFFFFFFFFFF AND EQ SWAP1 POP PUSH0 DUP1 PUSH20 0xFFFFFFFFFFFFFFFFFFFFFFFFFFFFFFFFFFFFFFFF AND DUP5 PUSH20 0xFFFFFFFFFFFFFFFFFFFFFFFFFFFFFFFFFFFFFFFF AND EQ SWAP1 POP PUSH0 PUSH1 0x7 PUSH0 DUP8 PUSH20 0xFFFFFFFFFFFFFFFFFFFFFFFFFFFFFFFFFFFFFFFF AND PUSH20 0xFFFFFFFFFFFFFFFFFFFFFFFFFFFFFFFFFFFFFFFF AND DUP2 MSTORE PUSH1 0x20 ADD SWAP1 DUP2 MSTORE PUSH1 0x20 ADD PUSH0 KECCAK256 PUSH0 SWAP1 SLOAD SWAP1 PUSH2 0x100 EXP SWAP1 DIV PUSH1 0xFF AND DUP1 ISZERO PUSH2 0x18F0 JUMPI POP PUSH1 0x7 PUSH0 DUP7 PUSH20 0xFFFFFFFFFFFFFFFFFFFFFFFFFFFFFFFFFFFFFFFF AND PUSH20 0xFFFFFFFFFFFFFFFFFFFFFFFFFFFFFFFFFFFFFFFF AND DUP2 MSTORE PUSH1 0x20 ADD SWAP1 DUP2 MSTORE PUSH1 0x20 ADD PUSH0 KECCAK256 PUSH0 SWAP1 SLOAD SWAP1 PUSH2 0x100 EXP SWAP1 DIV PUSH1 0xFF AND JUMPDEST SWAP1 POP DUP3 DUP1 PUSH2 0x18FB JUMPI POP DUP2 JUMPDEST DUP1 PUSH2 0x1903 JUMPI POP DUP1 JUMPDEST PUSH2 0x1942 JUMPI PUSH1 0x40 MLOAD PUSH32 0x8C379A000000000000000000000000000000000000000000000000000000000 DUP2 MSTORE PUSH1 0x4 ADD PUSH2 0x1939 SWAP1 PUSH2 0x259E JUMP JUMPDEST PUSH1 0x40 MLOAD DUP1 SWAP2 SUB SWAP1 REVERT JUMPDEST POP POP POP JUMPDEST PUSH2 0x1951 DUP4 DUP4 DUP4 PUSH2 0x19E9 JUMP JUMPDEST POP POP POP JUMP JUMPDEST PUSH2 0x195E PUSH2 0xAD7 JUMP JUMPDEST PUSH2 0x199D JUMPI PUSH1 0x40 MLOAD PUSH32 0x8C379A000000000000000000000000000000000000000000000000000000000 DUP2 MSTORE PUSH1 0x4 ADD PUSH2 0x1994 SWAP1 PUSH2 0x2606 JUMP JUMPDEST PUSH1 0x40 MLOAD DUP1 SWAP2 SUB SWAP1 REVERT JUMPDEST JUMP JUMPDEST PUSH2 0x19A7 PUSH2 0xAD7 JUMP JUMPDEST ISZERO PUSH2 0x19E7 JUMPI PUSH1 0x40 MLOAD PUSH32 0x8C379A000000000000000000000000000000000000000000000000000000000 DUP2 MSTORE PUSH1 0x4 ADD PUSH2 0x19DE SWAP1 PUSH2 0x266E JUMP JUMPDEST PUSH1 0x40 MLOAD DUP1 SWAP2 SUB SWAP1 REVERT JUMPDEST JUMP JUMPDEST PUSH2 0x19F4 DUP4 DUP4 DUP4 PUSH2 0x1A8C JUMP JUMPDEST PUSH0 PUSH20 0xFFFFFFFFFFFFFFFFFFFFFFFFFFFFFFFFFFFFFFFF AND DUP4 PUSH20 0xFFFFFFFFFFFFFFFFFFFFFFFFFFFFFFFFFFFFFFFF AND SUB PUSH2 0x1A87 JUMPI PUSH0 PUSH2 0x1A30 PUSH2 0x975 JUMP JUMPDEST SWAP1 POP PUSH0 PUSH2 0x1A3B PUSH2 0x8F7 JUMP JUMPDEST SWAP1 POP DUP2 DUP2 GT ISZERO PUSH2 0x1A84 JUMPI DUP1 DUP3 PUSH1 0x40 MLOAD PUSH32 0x9E79F85400000000000000000000000000000000000000000000000000000000 DUP2 MSTORE PUSH1 0x4 ADD PUSH2 0x1A7B SWAP3 SWAP2 SWAP1 PUSH2 0x268C JUMP JUMPDEST PUSH1 0x40 MLOAD DUP1 SWAP2 SUB SWAP1 REVERT JUMPDEST POP POP JUMPDEST POP POP POP JUMP JUMPDEST PUSH0 PUSH20 0xFFFFFFFFFFFFFFFFFFFFFFFFFFFFFFFFFFFFFFFF AND DUP4 PUSH20 0xFFFFFFFFFFFFFFFFFFFFFFFFFFFFFFFFFFFFFFFF AND SUB PUSH2 0x1ADC JUMPI DUP1 PUSH1 0x3 PUSH0 DUP3 DUP3 SLOAD PUSH2 0x1AD0 SWAP2 SWAP1 PUSH2 0x26E0 JUMP JUMPDEST SWAP3 POP POP DUP2 SWAP1 SSTORE POP PUSH2 0x1BAC JUMP JUMPDEST PUSH0 PUSH1 0x1 PUSH0 DUP6 PUSH20 0xFFFFFFFFFFFFFFFFFFFFFFFFFFFFFFFFFFFFFFFF AND PUSH20 0xFFFFFFFFFFFFFFFFFFFFFFFFFFFFFFFFFFFFFFFF AND DUP2 MSTORE PUSH1 0x20 ADD SWAP1 DUP2 MSTORE PUSH1 0x20 ADD PUSH0 KECCAK256 SLOAD SWAP1 POP DUP2 DUP2 LT ISZERO PUSH2 0x1B66 JUMPI DUP4 DUP2 DUP4 PUSH1 0x40 MLOAD PUSH32 0xE450D38C00000000000000000000000000000000000000000000000000000000 DUP2 MSTORE PUSH1 0x4 ADD PUSH2 0x1B5D SWAP4 SWAP3 SWAP2 SWAP1 PUSH2 0x24B9 JUMP JUMPDEST PUSH1 0x40 MLOAD DUP1 SWAP2 SUB SWAP1 REVERT JUMPDEST DUP2 DUP2 SUB PUSH1 0x1 PUSH0 DUP7 PUSH20 0xFFFFFFFFFFFFFFFFFFFFFFFFFFFFFFFFFFFFFFFF AND PUSH20 0xFFFFFFFFFFFFFFFFFFFFFFFFFFFFFFFFFFFFFFFF AND DUP2 MSTORE PUSH1 0x20 ADD SWAP1 DUP2 MSTORE PUSH1 0x20 ADD PUSH0 KECCAK256 DUP2 SWAP1 SSTORE POP POP JUMPDEST PUSH0 PUSH20 0xFFFFFFFFFFFFFFFFFFFFFFFFFFFFFFFFFFFFFFFF AND DUP3 PUSH20 0xFFFFFFFFFFFFFFFFFFFFFFFFFFFFFFFFFFFFFFFF AND SUB PUSH2 0x1BF3 JUMPI DUP1 PUSH1 0x3 PUSH0 DUP3 DUP3 SLOAD SUB SWAP3 POP POP DUP2 SWAP1 SSTORE POP PUSH2 0x1C3E JUMP JUMPDEST DUP1 PUSH1 0x1 PUSH0 DUP5 PUSH20 0xFFFFFFFFFFFFFFFFFFFFFFFFFFFFFFFFFFFFFFFF AND PUSH20 0xFFFFFFFFFFFFFFFFFFFFFFFFFFFFFFFFFFFFFFFF AND DUP2 MSTORE PUSH1 0x20 ADD SWAP1 DUP2 MSTORE PUSH1 0x20 ADD PUSH0 KECCAK256 PUSH0 DUP3 DUP3 SLOAD ADD SWAP3 POP POP DUP2 SWAP1 SSTORE POP JUMPDEST DUP2 PUSH20 0xFFFFFFFFFFFFFFFFFFFFFFFFFFFFFFFFFFFFFFFF AND DUP4 PUSH20 0xFFFFFFFFFFFFFFFFFFFFFFFFFFFFFFFFFFFFFFFF AND PUSH32 0xDDF252AD1BE2C89B69C2B068FC378DAA952BA7F163C4A11628F55A4DF523B3EF DUP4 PUSH1 0x40 MLOAD PUSH2 0x1C9B SWAP2 SWAP1 PUSH2 0x1F33 JUMP JUMPDEST PUSH1 0x40 MLOAD DUP1 SWAP2 SUB SWAP1 LOG3 POP POP POP JUMP JUMPDEST PUSH0 DUP1 REVERT JUMPDEST PUSH0 PUSH32 0xFFFFFFFF00000000000000000000000000000000000000000000000000000000 DUP3 AND SWAP1 POP SWAP2 SWAP1 POP JUMP JUMPDEST PUSH2 0x1CE0 DUP2 PUSH2 0x1CAC JUMP JUMPDEST DUP2 EQ PUSH2 0x1CEA JUMPI PUSH0 DUP1 REVERT JUMPDEST POP JUMP JUMPDEST PUSH0 DUP2 CALLDATALOAD SWAP1 POP PUSH2 0x1CFB DUP2 PUSH2 0x1CD7 JUMP JUMPDEST SWAP3 SWAP2 POP POP JUMP JUMPDEST PUSH0 PUSH1 0x20 DUP3 DUP5 SUB SLT ISZERO PUSH2 0x1D16 JUMPI PUSH2 0x1D15 PUSH2 0x1CA8 JUMP JUMPDEST JUMPDEST PUSH0 PUSH2 0x1D23 DUP5 DUP3 DUP6 ADD PUSH2 0x1CED JUMP JUMPDEST SWAP2 POP POP SWAP3 SWAP2 POP POP JUMP JUMPDEST PUSH0 DUP2 ISZERO ISZERO SWAP1 POP SWAP2 SWAP1 POP JUMP JUMPDEST PUSH2 0x1D40 DUP2 PUSH2 0x1D2C JUMP JUMPDEST DUP3 MSTORE POP POP JUMP JUMPDEST PUSH0 PUSH1 0x20 DUP3 ADD SWAP1 POP PUSH2 0x1D59 PUSH0 DUP4 ADD DUP5 PUSH2 0x1D37 JUMP JUMPDEST SWAP3 SWAP2 POP POP JUMP JUMPDEST PUSH0 DUP2 MLOAD SWAP1 POP SWAP2 SWAP1 POP JUMP JUMPDEST PUSH0 DUP3 DUP3 MSTORE PUSH1 0x20 DUP3 ADD SWAP1 POP SWAP3 SWAP2 POP POP JUMP JUMPDEST PUSH0 JUMPDEST DUP4 DUP2 LT ISZERO PUSH2 0x1D96 JUMPI DUP1 DUP3 ADD MLOAD DUP2 DUP5 ADD MSTORE PUSH1 0x20 DUP2 ADD SWAP1 POP PUSH2 0x1D7B JUMP JUMPDEST PUSH0 DUP5 DUP5 ADD MSTORE POP POP POP POP JUMP JUMPDEST PUSH0 PUSH1 0x1F NOT PUSH1 0x1F DUP4 ADD AND SWAP1 POP SWAP2 SWAP1 POP JUMP JUMPDEST PUSH0 PUSH2 0x1DBB DUP3 PUSH2 0x1D5F JUMP JUMPDEST PUSH2 0x1DC5 DUP2 DUP6 PUSH2 0x1D69 JUMP JUMPDEST SWAP4 POP PUSH2 0x1DD5 DUP2 DUP6 PUSH1 0x20 DUP7 ADD PUSH2 0x1D79 JUMP JUMPDEST PUSH2 0x1DDE DUP2 PUSH2 0x1DA1 JUMP JUMPDEST DUP5 ADD SWAP2 POP POP SWAP3 SWAP2 POP POP JUMP JUMPDEST PUSH0 PUSH1 0x20 DUP3 ADD SWAP1 POP DUP2 DUP2 SUB PUSH0 DUP4 ADD MSTORE PUSH2 0x1E01 DUP2 DUP5 PUSH2 0x1DB1 JUMP JUMPDEST SWAP1 POP SWAP3 SWAP2 POP POP JUMP JUMPDEST PUSH0 PUSH20 0xFFFFFFFFFFFFFFFFFFFFFFFFFFFFFFFFFFFFFFFF DUP3 AND SWAP1 POP SWAP2 SWAP1 POP JUMP JUMPDEST PUSH0 PUSH2 0x1E32 DUP3 PUSH2 0x1E09 JUMP JUMPDEST SWAP1 POP SWAP2 SWAP1 POP JUMP JUMPDEST PUSH2 0x1E42 DUP2 PUSH2 0x1E28 JUMP JUMPDEST DUP2 EQ PUSH2 0x1E4C JUMPI PUSH0 DUP1 REVERT JUMPDEST POP JUMP JUMPDEST PUSH0 DUP2 CALLDATALOAD SWAP1 POP PUSH2 0x1E5D DUP2 PUSH2 0x1E39 JUMP JUMPDEST SWAP3 SWAP2 POP POP JUMP JUMPDEST PUSH0 DUP2 SWAP1 POP SWAP2 SWAP1 POP JUMP JUMPDEST PUSH2 0x1E75 DUP2 PUSH2 0x1E63 JUMP JUMPDEST DUP2 EQ PUSH2 0x1E7F JUMPI PUSH0 DUP1 REVERT JUMPDEST POP JUMP JUMPDEST PUSH0 DUP2 CALLDATALOAD SWAP1 POP PUSH2 0x1E90 DUP2 PUSH2 0x1E6C JUMP JUMPDEST SWAP3 SWAP2 POP POP JUMP JUMPDEST PUSH0 DUP1 PUSH1 0x40 DUP4 DUP6 SUB SLT ISZERO PUSH2 0x1EAC JUMPI PUSH2 0x1EAB PUSH2 0x1CA8 JUMP JUMPDEST JUMPDEST PUSH0 PUSH2 0x1EB9 DUP6 DUP3 DUP7 ADD PUSH2 0x1E4F JUMP JUMPDEST SWAP3 POP POP PUSH1 0x20 PUSH2 0x1ECA DUP6 DUP3 DUP7 ADD PUSH2 0x1E82 JUMP JUMPDEST SWAP2 POP POP SWAP3 POP SWAP3 SWAP1 POP JUMP JUMPDEST PUSH0 DUP1 PUSH0 PUSH1 0x60 DUP5 DUP7 SUB SLT ISZERO PUSH2 0x1EEB JUMPI PUSH2 0x1EEA PUSH2 0x1CA8 JUMP JUMPDEST JUMPDEST PUSH0 PUSH2 0x1EF8 DUP7 DUP3 DUP8 ADD PUSH2 0x1E4F JUMP JUMPDEST SWAP4 POP POP PUSH1 0x20 PUSH2 0x1F09 DUP7 DUP3 DUP8 ADD PUSH2 0x1E4F JUMP JUMPDEST SWAP3 POP POP PUSH1 0x40 PUSH2 0x1F1A DUP7 DUP3 DUP8 ADD PUSH2 0x1E82 JUMP JUMPDEST SWAP2 POP POP SWAP3 POP SWAP3 POP SWAP3 JUMP JUMPDEST PUSH2 0x1F2D DUP2 PUSH2 0x1E63 JUMP JUMPDEST DUP3 MSTORE POP POP JUMP JUMPDEST PUSH0 PUSH1 0x20 DUP3 ADD SWAP1 POP PUSH2 0x1F46 PUSH0 DUP4 ADD DUP5 PUSH2 0x1F24 JUMP JUMPDEST SWAP3 SWAP2 POP POP JUMP JUMPDEST PUSH0 DUP2 SWAP1 POP SWAP2 SWAP1 POP JUMP JUMPDEST PUSH2 0x1F5E DUP2 PUSH2 0x1F4C JUMP JUMPDEST DUP2 EQ PUSH2 0x1F68 JUMPI PUSH0 DUP1 REVERT JUMPDEST POP JUMP JUMPDEST PUSH0 DUP2 CALLDATALOAD SWAP1 POP PUSH2 0x1F79 DUP2 PUSH2 0x1F55 JUMP JUMPDEST SWAP3 SWAP2 POP POP JUMP JUMPDEST PUSH0 PUSH1 0x20 DUP3 DUP5 SUB SLT ISZERO PUSH2 0x1F94 JUMPI PUSH2 0x1F93 PUSH2 0x1CA8 JUMP JUMPDEST JUMPDEST PUSH0 PUSH2 0x1FA1 DUP5 DUP3 DUP6 ADD PUSH2 0x1F6B JUMP JUMPDEST SWAP2 POP POP SWAP3 SWAP2 POP POP JUMP JUMPDEST PUSH2 0x1FB3 DUP2 PUSH2 0x1F4C JUMP JUMPDEST DUP3 MSTORE POP POP JUMP JUMPDEST PUSH0 PUSH1 0x20 DUP3 ADD SWAP1 POP PUSH2 0x1FCC PUSH0 DUP4 ADD DUP5 PUSH2 0x1FAA JUMP JUMPDEST SWAP3 SWAP2 POP POP JUMP JUMPDEST PUSH0 DUP1 PUSH1 0x40 DUP4 DUP6 SUB SLT ISZERO PUSH2 0x1FE8 JUMPI PUSH2 0x1FE7 PUSH2 0x1CA8 JUMP JUMPDEST JUMPDEST PUSH0 PUSH2 0x1FF5 DUP6 DUP3 DUP7 ADD PUSH2 0x1F6B JUMP JUMPDEST SWAP3 POP POP PUSH1 0x20 PUSH2 0x2006 DUP6 DUP3 DUP7 ADD PUSH2 0x1E4F JUMP JUMPDEST SWAP2 POP POP SWAP3 POP SWAP3 SWAP1 POP JUMP JUMPDEST PUSH0 PUSH1 0xFF DUP3 AND SWAP1 POP SWAP2 SWAP1 POP JUMP JUMPDEST PUSH2 0x2025 DUP2 PUSH2 0x2010 JUMP JUMPDEST DUP3 MSTORE POP POP JUMP JUMPDEST PUSH0 PUSH1 0x20 DUP3 ADD SWAP1 POP PUSH2 0x203E PUSH0 DUP4 ADD DUP5 PUSH2 0x201C JUMP JUMPDEST SWAP3 SWAP2 POP POP JUMP JUMPDEST PUSH0 PUSH1 0x20 DUP3 DUP5 SUB SLT ISZERO PUSH2 0x2059 JUMPI PUSH2 0x2058 PUSH2 0x1CA8 JUMP JUMPDEST JUMPDEST PUSH0 PUSH2 0x2066 DUP5 DUP3 DUP6 ADD PUSH2 0x1E4F JUMP JUMPDEST SWAP2 POP POP SWAP3 SWAP2 POP POP JUMP JUMPDEST PUSH0 DUP1 PUSH1 0x40 DUP4 DUP6 SUB SLT ISZERO PUSH2 0x2085 JUMPI PUSH2 0x2084 PUSH2 0x1CA8 JUMP JUMPDEST JUMPDEST PUSH0 PUSH2 0x2092 DUP6 DUP3 DUP7 ADD PUSH2 0x1E4F JUMP JUMPDEST SWAP3 POP POP PUSH1 0x20 PUSH2 0x20A3 DUP6 DUP3 DUP7 ADD PUSH2 0x1E4F JUMP JUMPDEST SWAP2 POP POP SWAP3 POP SWAP3 SWAP1 POP JUMP JUMPDEST PUSH32 0x4E487B7100000000000000000000000000000000000000000000000000000000 PUSH0 MSTORE PUSH1 0x22 PUSH1 0x4 MSTORE PUSH1 0x24 PUSH0 REVERT JUMPDEST PUSH0 PUSH1 0x2 DUP3 DIV SWAP1 POP PUSH1 0x1 DUP3 AND DUP1 PUSH2 0x20F1 JUMPI PUSH1 0x7F DUP3 AND SWAP2 POP JUMPDEST PUSH1 0x20 DUP3 LT DUP2 SUB PUSH2 0x2104 JUMPI PUSH2 0x2103 PUSH2 0x20AD JUMP JUMPDEST JUMPDEST POP SWAP2 SWAP1 POP JUMP JUMPDEST PUSH32 0x63616E6E6F742073656E6420746F207A65726F20616464726573730000000000 PUSH0 DUP3 ADD MSTORE POP JUMP JUMPDEST PUSH0 PUSH2 0x213E PUSH1 0x1B DUP4 PUSH2 0x1D69 JUMP JUMPDEST SWAP2 POP PUSH2 0x2149 DUP3 PUSH2 0x210A JUMP JUMPDEST PUSH1 0x20 DUP3 ADD SWAP1 POP SWAP2 SWAP1 POP JUMP JUMPDEST PUSH0 PUSH1 0x20 DUP3 ADD SWAP1 POP DUP2 DUP2 SUB PUSH0 DUP4 ADD MSTORE PUSH2 0x216B DUP2 PUSH2 0x2132 JUMP JUMPDEST SWAP1 POP SWAP2 SWAP1 POP JUMP JUMPDEST PUSH32 0x746F6B656E20616464726573732063616E6E6F74206265207A65726F00000000 PUSH0 DUP3 ADD MSTORE POP JUMP JUMPDEST PUSH0 PUSH2 0x21A6 PUSH1 0x1C DUP4 PUSH2 0x1D69 JUMP JUMPDEST SWAP2 POP PUSH2 0x21B1 DUP3 PUSH2 0x2172 JUMP JUMPDEST PUSH1 0x20 DUP3 ADD SWAP1 POP SWAP2 SWAP1 POP JUMP JUMPDEST PUSH0 PUSH1 0x20 DUP3 ADD SWAP1 POP DUP2 DUP2 SUB PUSH0 DUP4 ADD MSTORE PUSH2 0x21D3 DUP2 PUSH2 0x219A JUMP JUMPDEST SWAP1 POP SWAP2 SWAP1 POP JUMP JUMPDEST PUSH32 0x616D6F756E74206D7573742062652067726561746572207468616E207A65726F PUSH0 DUP3 ADD MSTORE POP JUMP JUMPDEST PUSH0 PUSH2 0x220E PUSH1 0x20 DUP4 PUSH2 0x1D69 JUMP JUMPDEST SWAP2 POP PUSH2 0x2219 DUP3 PUSH2 0x21DA JUMP JUMPDEST PUSH1 0x20 DUP3 ADD SWAP1 POP SWAP2 SWAP1 POP JUMP JUMPDEST PUSH0 PUSH1 0x20 DUP3 ADD SWAP1 POP DUP2 DUP2 SUB PUSH0 DUP4 ADD MSTORE PUSH2 0x223B DUP2 PUSH2 0x2202 JUMP JUMPDEST SWAP1 POP SWAP2 SWAP1 POP JUMP JUMPDEST PUSH2 0x224B DUP2 PUSH2 0x1E28 JUMP JUMPDEST DUP3 MSTORE POP POP JUMP JUMPDEST PUSH0 PUSH1 0x40 DUP3 ADD SWAP1 POP PUSH2 0x2264 PUSH0 DUP4 ADD DUP6 PUSH2 0x2242 JUMP JUMPDEST PUSH2 0x2271 PUSH1 0x20 DUP4 ADD DUP5 PUSH2 0x1F24 JUMP JUMPDEST SWAP4 SWAP3 POP POP POP JUMP JUMPDEST PUSH2 0x2281 DUP2 PUSH2 0x1D2C JUMP JUMPDEST DUP2 EQ PUSH2 0x228B JUMPI PUSH0 DUP1 REVERT JUMPDEST POP JUMP JUMPDEST PUSH0 DUP2 MLOAD SWAP1 POP PUSH2 0x229C DUP2 PUSH2 0x2278 JUMP JUMPDEST SWAP3 SWAP2 POP POP JUMP JUMPDEST PUSH0 PUSH1 0x20 DUP3 DUP5 SUB SLT ISZERO PUSH2 0x22B7 JUMPI PUSH2 0x22B6 PUSH2 0x1CA8 JUMP JUMPDEST JUMPDEST PUSH0 PUSH2 0x22C4 DUP5 DUP3 DUP6 ADD PUSH2 0x228E JUMP JUMPDEST SWAP2 POP POP SWAP3 SWAP2 POP POP JUMP JUMPDEST PUSH32 0x4552433230207472616E73666572206661696C65640000000000000000000000 PUSH0 DUP3 ADD MSTORE POP JUMP JUMPDEST PUSH0 PUSH2 0x2301 PUSH1 0x15 DUP4 PUSH2 0x1D69 JUMP JUMPDEST SWAP2 POP PUSH2 0x230C DUP3 PUSH2 0x22CD JUMP JUMPDEST PUSH1 0x20 DUP3 ADD SWAP1 POP SWAP2 SWAP1 POP JUMP JUMPDEST PUSH0 PUSH1 0x20 DUP3 ADD SWAP1 POP DUP2 DUP2 SUB PUSH0 DUP4 ADD MSTORE PUSH2 0x232E DUP2 PUSH2 0x22F5 JUMP JUMPDEST SWAP1 POP SWAP2 SWAP1 POP JUMP JUMPDEST PUSH32 0x63616E6E6F7420756E2D77686974656C69737420746865207A65726F20616464 PUSH0 DUP3 ADD MSTORE PUSH32 0x7265737300000000000000000000000000000000000000000000000000000000 PUSH1 0x20 DUP3 ADD MSTORE POP JUMP JUMPDEST PUSH0 PUSH2 0x238F PUSH1 0x24 DUP4 PUSH2 0x1D69 JUMP JUMPDEST SWAP2 POP PUSH2 0x239A DUP3 PUSH2 0x2335 JUMP JUMPDEST PUSH1 0x40 DUP3 ADD SWAP1 POP SWAP2 SWAP1 POP JUMP JUMPDEST PUSH0 PUSH1 0x20 DUP3 ADD SWAP1 POP DUP2 DUP2 SUB PUSH0 DUP4 ADD MSTORE PUSH2 0x23BC DUP2 PUSH2 0x2383 JUMP JUMPDEST SWAP1 POP SWAP2 SWAP1 POP JUMP JUMPDEST PUSH32 0x63616E6E6F742077686974656C69737420746865207A65726F20616464726573 PUSH0 DUP3 ADD MSTORE PUSH32 0x7300000000000000000000000000000000000000000000000000000000000000 PUSH1 0x20 DUP3 ADD MSTORE POP JUMP JUMPDEST PUSH0 PUSH2 0x241D PUSH1 0x21 DUP4 PUSH2 0x1D69 JUMP JUMPDEST SWAP2 POP PUSH2 0x2428 DUP3 PUSH2 0x23C3 JUMP JUMPDEST PUSH1 0x40 DUP3 ADD SWAP1 POP SWAP2 SWAP1 POP JUMP JUMPDEST PUSH0 PUSH1 0x20 DUP3 ADD SWAP1 POP DUP2 DUP2 SUB PUSH0 DUP4 ADD MSTORE PUSH2 0x244A DUP2 PUSH2 0x2411 JUMP JUMPDEST SWAP1 POP SWAP2 SWAP1 POP JUMP JUMPDEST PUSH32 0x4D696E7465722063616E6E6F74206265207A65726F2061646472657373000000 PUSH0 DUP3 ADD MSTORE POP JUMP JUMPDEST PUSH0 PUSH2 0x2485 PUSH1 0x1D DUP4 PUSH2 0x1D69 JUMP JUMPDEST SWAP2 POP PUSH2 0x2490 DUP3 PUSH2 0x2451 JUMP JUMPDEST PUSH1 0x20 DUP3 ADD SWAP1 POP SWAP2 SWAP1 POP JUMP JUMPDEST PUSH0 PUSH1 0x20 DUP3 ADD SWAP1 POP DUP2 DUP2 SUB PUSH0 DUP4 ADD MSTORE PUSH2 0x24B2 DUP2 PUSH2 0x2479 JUMP JUMPDEST SWAP1 POP SWAP2 SWAP1 POP JUMP JUMPDEST PUSH0 PUSH1 0x60 DUP3 ADD SWAP1 POP PUSH2 0x24CC PUSH0 DUP4 ADD DUP7 PUSH2 0x2242 JUMP JUMPDEST PUSH2 0x24D9 PUSH1 0x20 DUP4 ADD DUP6 PUSH2 0x1F24 JUMP JUMPDEST PUSH2 0x24E6 PUSH1 0x40 DUP4 ADD DUP5 PUSH2 0x1F24 JUMP JUMPDEST SWAP5 SWAP4 POP POP POP POP JUMP JUMPDEST PUSH0 PUSH1 0x20 DUP3 ADD SWAP1 POP PUSH2 0x2501 PUSH0 DUP4 ADD DUP5 PUSH2 0x2242 JUMP JUMPDEST SWAP3 SWAP2 POP POP JUMP JUMPDEST PUSH0 PUSH1 0x40 DUP3 ADD SWAP1 POP PUSH2 0x251A PUSH0 DUP4 ADD DUP6 PUSH2 0x2242 JUMP JUMPDEST PUSH2 0x2527 PUSH1 0x20 DUP4 ADD DUP5 PUSH2 0x1FAA JUMP JUMPDEST SWAP4 SWAP3 POP POP POP JUMP JUMPDEST PUSH32 0x546F6B656E3A207472616E73666572207768696C652070617573656420286E6F PUSH0 DUP3 ADD MSTORE PUSH32 0x742077686974656C697374656429000000000000000000000000000000000000 PUSH1 0x20 DUP3 ADD MSTORE POP JUMP JUMPDEST PUSH0 PUSH2 0x2588 PUSH1 0x2E DUP4 PUSH2 0x1D69 JUMP JUMPDEST SWAP2 POP PUSH2 0x2593 DUP3 PUSH2 0x252E JUMP JUMPDEST PUSH1 0x40 DUP3 ADD SWAP1 POP SWAP2 SWAP1 POP JUMP JUMPDEST PUSH0 PUSH1 0x20 DUP3 ADD SWAP1 POP DUP2 DUP2 SUB PUSH0 DUP4 ADD MSTORE PUSH2 0x25B5 DUP2 PUSH2 0x257C JUMP JUMPDEST SWAP1 POP SWAP2 SWAP1 POP JUMP JUMPDEST PUSH32 0x5061757361626C653A206E6F7420706175736564000000000000000000000000 PUSH0 DUP3 ADD MSTORE POP JUMP JUMPDEST PUSH0 PUSH2 0x25F0 PUSH1 0x14 DUP4 PUSH2 0x1D69 JUMP JUMPDEST SWAP2 POP PUSH2 0x25FB DUP3 PUSH2 0x25BC JUMP JUMPDEST PUSH1 0x20 DUP3 ADD SWAP1 POP SWAP2 SWAP1 POP JUMP JUMPDEST PUSH0 PUSH1 0x20 DUP3 ADD SWAP1 POP DUP2 DUP2 SUB PUSH0 DUP4 ADD MSTORE PUSH2 0x261D DUP2 PUSH2 0x25E4 JUMP JUMPDEST SWAP1 POP SWAP2 SWAP1 POP JUMP JUMPDEST PUSH32 0x5061757361626C653A2070617573656400000000000000000000000000000000 PUSH0 DUP3 ADD MSTORE POP JUMP JUMPDEST PUSH0 PUSH2 0x2658 PUSH1 0x10 DUP4 PUSH2 0x1D69 JUMP JUMPDEST SWAP2 POP PUSH2 0x2663 DUP3 PUSH2 0x2624 JUMP JUMPDEST PUSH1 0x20 DUP3 ADD SWAP1 POP SWAP2 SWAP1 POP JUMP JUMPDEST PUSH0 PUSH1 0x20 DUP3 ADD SWAP1 POP DUP2 DUP2 SUB PUSH0 DUP4 ADD MSTORE PUSH2 0x2685 DUP2 PUSH2 0x264C JUMP JUMPDEST SWAP1 POP SWAP2 SWAP1 POP JUMP JUMPDEST PUSH0 PUSH1 0x40 DUP3 ADD SWAP1 POP PUSH2 0x269F PUSH0 DUP4 ADD DUP6 PUSH2 0x1F24 JUMP JUMPDEST PUSH2 0x26AC PUSH1 0x20 DUP4 ADD DUP5 PUSH2 0x1F24 JUMP JUMPDEST SWAP4 SWAP3 POP POP POP JUMP JUMPDEST PUSH32 0x4E487B7100000000000000000000000000000000000000000000000000000000 PUSH0 MSTORE PUSH1 0x11 PUSH1 0x4 MSTORE PUSH1 0x24 PUSH0 REVERT JUMPDEST PUSH0 PUSH2 0x26EA DUP3 PUSH2 0x1E63 JUMP JUMPDEST SWAP2 POP PUSH2 0x26F5 DUP4 PUSH2 0x1E63 JUMP JUMPDEST SWAP3 POP DUP3 DUP3 ADD SWAP1 POP DUP1 DUP3 GT ISZERO PUSH2 0x270D JUMPI PUSH2 0x270C PUSH2 0x26B3 JUMP JUMPDEST JUMPDEST SWAP3 SWAP2 POP POP JUMP INVALID LOG2 PUSH5 0x6970667358 0x22 SLT KECCAK256 0xD DUP2 0xC SWAP8 CALL 0xB7 SELFDESTRUCT 0xD0 0xDA SWAP14 0x2A 0xB8 0xA9 SWAP6 DUP7 PUSH0 GAS 0xBE SWAP2 DELEGATECALL 0xB6 SWAP7 LT PUSH2 0x1DA3 SWAP7 SWAP7 DUP4 0xAF SGT PUSH1 0x64 PUSH20 0x6F6C634300081800330000000000000000000000 "
				},
				"gasEstimates": {
					"creation": {
						"codeDepositCost": "2011400",
						"executionCost": "infinite",
						"totalCost": "infinite"
					},
					"external": {
						"DEFAULT_ADMIN_ROLE()": "441",
						"MINTER_ROLE()": "392",
						"PAUSER_ROLE()": "413",
						"addToWhitelist(address)": "infinite",
						"allowance(address,address)": "infinite",
						"approve(address,uint256)": "infinite",
						"balanceOf(address)": "2897",
						"cap()": "infinite",
						"decimals()": "406",
						"getRoleAdmin(bytes32)": "infinite",
						"grantRole(bytes32,address)": "infinite",
						"hasRole(bytes32,address)": "3189",
						"isWhitelisted(address)": "2937",
						"mint(address,uint256)": "infinite",
						"name()": "infinite",
						"pause()": "infinite",
						"paused()": "2519",
						"recoverERC20(address,address,uint256)": "infinite",
						"removeFromWhitelist(address)": "infinite",
						"renounceRole(bytes32,address)": "infinite",
						"revokeRole(bytes32,address)": "infinite",
						"setMinter(address)": "infinite",
						"supportsInterface(bytes4)": "764",
						"symbol()": "infinite",
						"totalSupply()": "2500",
						"transfer(address,uint256)": "infinite",
						"transferFrom(address,address,uint256)": "infinite",
						"unpause()": "infinite"
					},
					"internal": {
						"_update(address,address,uint256)": "infinite"
					}
				},
				"methodIdentifiers": {
					"DEFAULT_ADMIN_ROLE()": "a217fddf",
					"MINTER_ROLE()": "d5391393",
					"PAUSER_ROLE()": "e63ab1e9",
					"addToWhitelist(address)": "e43252d7",
					"allowance(address,address)": "dd62ed3e",
					"approve(address,uint256)": "095ea7b3",
					"balanceOf(address)": "70a08231",
					"cap()": "355274ea",
					"decimals()": "313ce567",
					"getRoleAdmin(bytes32)": "248a9ca3",
					"grantRole(bytes32,address)": "2f2ff15d",
					"hasRole(bytes32,address)": "91d14854",
					"isWhitelisted(address)": "3af32abf",
					"mint(address,uint256)": "40c10f19",
					"name()": "06fdde03",
					"pause()": "8456cb59",
					"paused()": "5c975abb",
					"recoverERC20(address,address,uint256)": "1171bda9",
					"removeFromWhitelist(address)": "8ab1d681",
					"renounceRole(bytes32,address)": "36568abe",
					"revokeRole(bytes32,address)": "d547741f",
					"setMinter(address)": "fca3b5aa",
					"supportsInterface(bytes4)": "01ffc9a7",
					"symbol()": "95d89b41",
					"totalSupply()": "18160ddd",
					"transfer(address,uint256)": "a9059cbb",
					"transferFrom(address,address,uint256)": "23b872dd",
					"unpause()": "3f4ba83a"
				}
			},
			"storageLayout": {
				"storage": [
					{
						"astId": 534,
						"contract": "contracts/ub.sol:Unibase",
						"label": "_paused",
						"offset": 0,
						"slot": "0",
						"type": "t_bool"
					},
					{
						"astId": 647,
						"contract": "contracts/ub.sol:Unibase",
						"label": "_balances",
						"offset": 0,
						"slot": "1",
						"type": "t_mapping(t_address,t_uint256)"
					},
					{
						"astId": 653,
						"contract": "contracts/ub.sol:Unibase",
						"label": "_allowances",
						"offset": 0,
						"slot": "2",
						"type": "t_mapping(t_address,t_mapping(t_address,t_uint256))"
					},
					{
						"astId": 655,
						"contract": "contracts/ub.sol:Unibase",
						"label": "_totalSupply",
						"offset": 0,
						"slot": "3",
						"type": "t_uint256"
					},
					{
						"astId": 657,
						"contract": "contracts/ub.sol:Unibase",
						"label": "_name",
						"offset": 0,
						"slot": "4",
						"type": "t_string_storage"
					},
					{
						"astId": 659,
						"contract": "contracts/ub.sol:Unibase",
						"label": "_symbol",
						"offset": 0,
						"slot": "5",
						"type": "t_string_storage"
					},
					{
						"astId": 27,
						"contract": "contracts/ub.sol:Unibase",
						"label": "_roles",
						"offset": 0,
						"slot": "6",
						"type": "t_mapping(t_bytes32,t_struct(RoleData)22_storage)"
					},
					{
						"astId": 1440,
						"contract": "contracts/ub.sol:Unibase",
						"label": "_isWhitelisted",
						"offset": 0,
						"slot": "7",
						"type": "t_mapping(t_address,t_bool)"
					}
				],
				"types": {
					"t_address": {
						"encoding": "inplace",
						"label": "address",
						"numberOfBytes": "20"
					},
					"t_bool": {
						"encoding": "inplace",
						"label": "bool",
						"numberOfBytes": "1"
					},
					"t_bytes32": {
						"encoding": "inplace",
						"label": "bytes32",
						"numberOfBytes": "32"
					},
					"t_mapping(t_address,t_bool)": {
						"encoding": "mapping",
						"key": "t_address",
						"label": "mapping(address => bool)",
						"numberOfBytes": "32",
						"value": "t_bool"
					},
					"t_mapping(t_address,t_mapping(t_address,t_uint256))": {
						"encoding": "mapping",
						"key": "t_address",
						"label": "mapping(address => mapping(address => uint256))",
						"numberOfBytes": "32",
						"value": "t_mapping(t_address,t_uint256)"
					},
					"t_mapping(t_address,t_uint256)": {
						"encoding": "mapping",
						"key": "t_address",
						"label": "mapping(address => uint256)",
						"numberOfBytes": "32",
						"value": "t_uint256"
					},
					"t_mapping(t_bytes32,t_struct(RoleData)22_storage)": {
						"encoding": "mapping",
						"key": "t_bytes32",
						"label": "mapping(bytes32 => struct AccessControl.RoleData)",
						"numberOfBytes": "32",
						"value": "t_struct(RoleData)22_storage"
					},
					"t_string_storage": {
						"encoding": "bytes",
						"label": "string",
						"numberOfBytes": "32"
					},
					"t_struct(RoleData)22_storage": {
						"encoding": "inplace",
						"label": "struct AccessControl.RoleData",
						"members": [
							{
								"astId": 19,
								"contract": "contracts/ub.sol:Unibase",
								"label": "hasRole",
								"offset": 0,
								"slot": "0",
								"type": "t_mapping(t_address,t_bool)"
							},
							{
								"astId": 21,
								"contract": "contracts/ub.sol:Unibase",
								"label": "adminRole",
								"offset": 0,
								"slot": "1",
								"type": "t_bytes32"
							}
						],
						"numberOfBytes": "64"
					},
					"t_uint256": {
						"encoding": "inplace",
						"label": "uint256",
						"numberOfBytes": "32"
					}
				}
			},
			"userdoc": {
				"events": {
					"ERC20Recovered(address,address,uint256)": {
						"notice": "Recover ERC20 tokens mistakenly sent to this contract."
					}
				},
				"kind": "user",
				"methods": {
					"addToWhitelist(address)": {
						"notice": "Adds an address to the whitelist."
					},
					"constructor": {
						"notice": "Initializes the contract."
					},
					"isWhitelisted(address)": {
						"notice": "Returns true if the account is whitelisted."
					},
					"mint(address,uint256)": {
						"notice": "Allows the minter to mint new tokens, up to the cap."
					},
					"pause()": {
						"notice": "Allows the pause controller address to pause all token transfers for non-whitelisted addresses."
					},
					"removeFromWhitelist(address)": {
						"notice": "Removes an address from the whitelist."
					},
					"setMinter(address)": {
						"notice": "Set the minter address by granting MINTER_ROLE to the specified address."
					},
					"unpause()": {
						"notice": "Allows the pause controller address to unpause the token transfers."
					}
				},
				"notice": "Implements an ERC20 token with a cap, pausability, ownership, and a whitelist feature.",
				"version": 1
			}
		}
	}
}